00COTAHIST.2017BOVESPA 20170904                                                                                                                                                                                                                      
012017090402AALR3       010ALLIAR      ON      NM   R$  000000000162500000000016350000000001602000000000161900000000016300000000001625000000000163000338000000000000078100000000000126514900000000000000009999123100000010000000000000BRAALRACNOR6100
012017090496AALR3F      020ALLIAR      ON      NM   R$  000000000160100000000016940000000001599000000000162700000000016940000000001598000000000169300011000000000000000356000000000000579371000000000000009999123100000010000000000000BRAALRACNOR6100
012017090402AAPL34      010APPLE       DRN          R$  000000000499000000000051350000000004990000000000511000000000051350000000004941000000000530000002000000000000000600000000000003066500000000000000009999123100000010000000000000BRAAPLBDR004122
012017090496AAPL34F     020APPLE       DRN          R$  000000000410100000000041010000000004101000000000410100000000041010000000004200000000000630000001000000000000000001000000000000004101000000000000009999123100000010000000000000BRAAPLBDR004122
012017090410ABCB10      010ABC BRASIL  PN  REC N2   R$  000000000175500000000018190000000001739000000000175900000000017390000000001735000000000175100012000000000000002300000000000004047700000000000000009999123100000010000000000000BRABCBR12PR6127
012017090496ABCB10F     020ABC BRASIL  PN  REC N2   R$  000000000170000000000017800000000001700000000000170400000000017800000000001712000000000178000002000000000000000082000000000000139800000000000000009999123100000010000000000000BRABCBR12PR6127
012017090402ABCB4       010ABC BRASIL  PN      N2   R$  000000000175000000000017730000000001736000000000175400000000017500000000001743000000000175001150000000000000193500000000000339479900000000000000009999123100000010000000000000BRABCBACNPR4128
012017090496ABCB4F      020ABC BRASIL  PN      N2   R$  000000000174300000000017720000000001737000000000175200000000017460000000001744000000000175200032000000000000000817000000000001431709000000000000009999123100000010000000000000BRABCBACNPR4128
012017090412ABCP11      010FII ABC IMOBCI  ER       R$  000000000173500000000017350000000001651000000000169800000000016510000000001651000000000169900025000000000000000742000000000001260387000000000000009999123100000010000000000000BRABCPCTF000263
012017090402ABEV3       010AMBEV S/A   ON           R$  000000000197600000000019810000000001960000000000197000000000019730000000001972000000000197332467000000000012235200000000024115736500000000000000009999123100000010000000000000BRABEVACNOR1117
012017090496ABEV3F      020AMBEV S/A   ON           R$  000000000196300000000020000000000001904000000000196700000000019720000000001972000000000197400239000000000000006593000000000012974050000000000000009999123100000010000000000000BRABEVACNOR1117
012017090462ABEV3T      030AMBEV S/A   ON        016R$  000000000197700000000019780000000001977000000000197700000000019780000000000000000000000000000002000000000000000400000000000000791152000000000000009999123100000010000000000000BRABEVACNOR1117
012017090462ABEV3T      030AMBEV S/A   ON        030R$  000000000198000000000019810000000001980000000000198000000000019810000000000000000000000000000002000000000000127100000000000251730739000000000000009999123100000010000000000000BRABEVACNOR1117
012017090478ABEVI1      070ABEV  FM    ON        000R$  000000000005900000000000590000000000048000000000005300000000000560000000000050000000000005800010000000000000038600000000000002073800000000000192902017091800000010000000000000BRABEVACNOR1113
012017090478ABEVI2      070ABEV        ON        000R$  000000000010500000000001070000000000105000000000010600000000001060000000000000000000000000000003000000000000007000000000000000743000000000000187902017091800000010000000000000BRABEVACNOR1113
012017090478ABEVI20     070ABEV        ON        000R$  000000000000800000000000080000000000006000000000000700000000000070000000000006000000000001300015000000000000039300000000000000284700000000000202902017091800000010000000000000BRABEVACNOR1116
012017090478ABEVI49     070ABEV  FM    ON        000R$  000000000002500000000000250000000000020000000000002300000000000200000000000010000000000002000008000000000000039000000000000000907000000000000197902017091800000010000000000000BRABEVACNOR1116
012017090478ABEVI50     070ABEV  FM    ON        000R$  000000000000300000000000030000000000001000000000000100000000000010000000000001000000000000700009000000000000013800000000000000022400000000000207902017091800000010000000000000BRABEVACNOR1116
012017090478ABEVI80     070ABEVE       ON        000R$  000000000003900000000000390000000000038000000000003800000000000380000000000000000000000000000002000000000000001000000000000000038500000000000195402017091800000010000000000000BRABEVACNOR1113
012017090478ABEVJ20     070ABEV  FM    ON        000R$  000000000003300000000000330000000000026000000000003000000000000320000000000000000000000003300006000000000000012700000000000000389400000000000200502017101600000010000000000000BRABEVACNOR1117
012017090478ABEVJ4      070ABEV  FM    ON        000R$  000000000005400000000000610000000000054000000000005500000000000610000000000000000000000015000003000000000000012000000000000000661000000000000195502017101600000010000000000000BRABEVACNOR1113
012017090478ABEVJ50     070ABEV  FM    ON        000R$  000000000001600000000000160000000000013000000000001400000000000130000000000000000000000003000002000000000000005000000000000000074000000000000205502017101600000010000000000000BRABEVACNOR1116
012017090478ABEVJ51     070ABEV  FM    ON        000R$  000000000000200000000000040000000000002000000000000200000000000030000000000000000000000000600007000000000000042200000000000000126100000000000215502017101600000010000000000000BRABEVACNOR1116
012017090478ABEVJ80     070ABEV        ON        000R$  000000000009400000000000940000000000094000000000009400000000000940000000000080000000000000000003000000000000007000000000000000658000000000000190502017101600000010000000000000BRABEVACNOR1110
012017090478ABEVJ89     070ABEVE       ON        000R$  000000000004000000000000400000000000037000000000003800000000000370000000000000000000000000000002000000000000001900000000000000073900000000000198002017101600000010000000000000BRABEVACNOR1117
012017090478ABEVL11     070ABEVE       ON        000R$  000000000008900000000000900000000000089000000000008900000000000900000000000000000000000000000002000000000000001200000000000000107500000000000195402017121800000010000000000000BRABEVACNOR1114
012017090478ABEVL79     070ABEVE       ON        000R$  000000000016200000000001620000000000162000000000016200000000001620000000000000000000000019500003000000000000002500000000000000405000000000000185402017121800000010000000000000BRABEVACNOR1113
012017090482ABEVU1      080ABEVE FM    ON        000R$  000000000001100000000000110000000000011000000000001100000000000110000000000000000000000002700002000000000000012000000000000000132000000000000192902017091800000010000000000000BRABEVACNOR1113
012017090482ABEVU49     080ABEVE FM    ON        000R$  000000000002300000000000310000000000023000000000002800000000000280000000000000000000000004500007000000000000029400000000000000826400000000000197902017091800000010000000000000BRABEVACNOR1116
012017090482ABEVU50     080ABEVE FM    ON        000R$  000000000009900000000001100000000000099000000000010300000000001030000000000000000000000000000014000000000000140000000000000014450000000000000207902017091800000010000000000000BRABEVACNOR1116
012017090482ABEVU80     080ABEVE       ON        000R$  000000000001500000000000160000000000015000000000001500000000000160000000000014000000000003100002000000000000009000000000000000140000000000000195402017091800000010000000000000BRABEVACNOR1113
012017090482ABEVV81     080ABEVE FM    ON        000R$  000000000009600000000001060000000000096000000000009900000000001060000000000000000000000000000003000000000000030000000000000002980000000000000208002017101600000010000000000000BRABEVACNOR1113
012017090402ADHM3       010ADVANCED-DH ON           R$  000000000021800000000002180000000000216000000000021700000000002160000000000216000000000022000010000000000000003000000000000000652200000000000000009999123100000010000000000000BRADHMACNOR9101
012017090496ADHM3F      020ADVANCED-DH ON           R$  000000000022000000000002200000000000220000000000022000000000002200000000000217000000000022000001000000000000000001000000000000000220000000000000009999123100000010000000000000BRADHMACNOR9101
012017090412AEFI11      010FII AESAPAR CI  ER       R$  000000001427800000000144950000000014249000000001442900000000144950000000014333000000001449500035000000000000001045000000000015079171000000000000009999123100000010000000000000BRAEFICTF002169
012017090496AELP3F      020AES ELPA    ON           R$  000000000068000000000006800000000000675000000000067900000000006750000000000590000000000067500004000000000000000037000000000000025155000000000000009999123100000010000000000000BRAELPACNOR2124
012017090402AFLU3       010AFLUENTE    ON           R$  000000000053900000000005400000000000521000000000053100000000005380000000000538000000000058000012000000000000002200000000000001169500000000000000009999123100000010000000000000BRAFLUACNOR9122
012017090412AGCX11      010FII AG CAIXACI  ER       R$  000000012290000000001244990000000120900000000012184200000001210010000000121000000000012120000137000000000000000466000000000056778761000000000000009999123100000010000000000000BRAGCXCTF003158
012017090402AGRO3       010BRASILAGRO  ON      NM   R$  000000000123000000000012440000000001218000000000122700000000012280000000001225000000000123300132000000000000066500000000000081619700000000000000009999123100000010000000000000BRAGROACNOR7106
012017090496AGRO3F      020BRASILAGRO  ON      NM   R$  000000000124000000000012400000000001240000000000124000000000012400000000001210000000000124900001000000000000000030000000000000037200000000000000009999123100000010000000000000BRAGROACNOR7106
012017090412ALMI11      010FII TORRE ALCI           R$  000000021989900000002245000000000219899000000022189200000002199000000000217000000000022299900031000000000000000097000000000021523529000000000000009999123100000010000000000000BRALMICTF003249
012017090402ALPA3       010ALPARGATAS  ON      N1   R$  000000000141000000000014100000000001370000000000137800000000013760000000001376000000000139700010000000000000001500000000000002067300000000000000009999123100000010000000000000BRALPAACNOR0222
012017090496ALPA3F      020ALPARGATAS  ON      N1   R$  000000000137400000000013740000000001374000000000137400000000013740000000001373000000000140900002000000000000000058000000000000079692000000000000009999123100000010000000000000BRALPAACNOR0222
012017090402ALPA4       010ALPARGATAS  PN      N1   R$  000000000137900000000014010000000001371000000000139500000000013950000000001390000000000139502025000000000000433200000000000604324800000000000000009999123100000010000000000000BRALPAACNPR7222
012017090496ALPA4F      020ALPARGATAS  PN      N1   R$  000000000136500000000013980000000001352000000000138500000000013890000000001388000000000140000010000000000000000254000000000000351888000000000000009999123100000010000000000000BRALPAACNPR7222
012017090402ALSC3       010ALIANSCE    ON      NM   R$  000000000175200000000017740000000001743000000000174900000000017470000000001745000000000174701551000000000000349900000000000612224500000000000000009999123100000010000000000000BRALSCACNOR0110
012017090496ALSC3F      020ALIANSCE    ON      NM   R$  000000000175000000000018380000000001706000000000175600000000017060000000001706000000000187900037000000000000000867000000000001522736000000000000009999123100000010000000000000BRALSCACNOR0110
012017090402ALUP11      010ALUPAR      UNT     N2   R$  000000000187000000000018720000000001852000000000186200000000018650000000001860000000000186501659000000000000349100000000000650069200000000000000009999123100000010000000000000BRALUPCDAM15106
012017090496ALUP11F     020ALUPAR      UNT     N2   R$  000000000186400000000018750000000001855000000000186000000000018550000000001855000000000186500029000000000000000840000000000001563149000000000000009999123100000010000000000000BRALUPCDAM15106
012017090402AMAR3       010LOJAS MARISAON      NM   R$  000000000075900000000007640000000000741000000000075300000000007580000000000757000000000075801145000000000000746400000000000562401800000000000000009999123100000010000000000000BRAMARACNOR4112
012017090496AMAR3F      020LOJAS MARISAON      NM   R$  000000000075800000000007610000000000746000000000075500000000007570000000000750000000000075800065000000000000001887000000000001424886000000000000009999123100000010000000000000BRAMARACNOR4112
012017090462AMAR3T      030LOJAS MARISAON      NM016R$  000000000075200000000007530000000000752000000000075200000000007530000000000000000000000000000002000000000000000500000000000000376462000000000000009999123100000010000000000000BRAMARACNOR4112
012017090402AMZO34      010AMAZON      DRN          R$  000000015517100000001551710000000155171000000015517100000001551710000000152098000000020000000001000000000000000100000000000015517100000000000000009999123100000010000000000000BRAMZOBDR002101
012017090402ANIM3       010ANIMA       ON      NM   R$  000000000183800000000018490000000001791000000000182200000000018300000000001830000000000183100587000000000000108700000000000198146800000000000000009999123100000010000000000000BRANIMACNOR6104
012017090496ANIM3F      020ANIMA       ON      NM   R$  000000000180000000000018650000000001781000000000180000000000018650000000001783000000000186500006000000000000000112000000000000201627000000000000009999123100000010000000000000BRANIMACNOR6104
012017090402ARZZ3       010AREZZO CO   ON      NM   R$  000000000470900000000047150000000004610000000000466700000000046200000000004620000000000464102718000000000000892800000000004167044500000000000000009999123100000010000000000000BRARZZACNOR3125
012017090496ARZZ3F      020AREZZO CO   ON      NM   R$  000000000472000000000048960000000004621000000000467100000000048390000000004640000000000483900047000000000000001202000000000005615163000000000000009999123100000010000000000000BRARZZACNOR3125
012017090478ARZZI58     070ARZZ        ON      NM000R$  000000000181200000000018120000000001812000000000181200000000018120000000000000000000000000000001000000000000055700000000000100928400000000000283002017091800000010000000000000BRARZZACNOR3124
012017090478ARZZK22     070ARZZE       ON      NM000R$  000000000058600000000005860000000000586000000000058600000000005860000000000000000000000000000002000000000000055700000000000032640200000000000422502017112100000010000000000000BRARZZACNOR3125
012017090402ATOM3       010ATOMPAR     ON           R$  000000000027900000000002800000000000277000000000027800000000002780000000000276000000000027800015000000000000008900000000000002477600000000000000009999123100000010000000000000BRATOMACNOR1102
012017090402AZEV4       010AZEVEDO     PN           R$  000000000011500000000001150000000000115000000000011500000000001150000000000110000000000011400001000000000000000200000000000000023000000000000000009999123100000010000000000000BRAZEVACNPR7116
012017090402AZUL4       010AZUL        PN      N2   R$  000000000270000000000027360000000002690000000000270800000000027180000000002716000000000271800574000000000000227100000000000615091800000000000000009999123100000010000000000000BRAZULACNPR4100
012017090496AZUL4F      020AZUL        PN      N2   R$  000000000268500000000027900000000002681000000000271600000000027100000000002716000000000273000021000000000000000574000000000001559040000000000000009999123100000010000000000000BRAZULACNPR4100
012017090462AZUL4T      030AZUL        PN      N2016R$  000000000270900000000027100000000002709000000000270900000000027100000000000000000000000000000002000000000000000200000000000000541812000000000000009999123100000010000000000000BRAZULACNPR4100
012017090402BAUH4       010EXCELSIOR   PN           R$  000000000143600000000014500000000001436000000000143700000000014500000000001352000000000145000003000000000000000900000000000001293800000000000000009999123100000010000000000000BRBAUHACNPR3112
012017090402BAZA3       010AMAZONIA    ON           R$  000000000270500000000027050000000002700000000000270100000000027000000000002685000000000278000004000000000000000400000000000001080500000000000000009999123100000010000000000000BRBAZAACNOR0171
012017090496BAZA3F      020AMAZONIA    ON           R$  000000000270500000000027050000000002675000000000267800000000026750000000002685000000000270000005000000000000000062000000000000166090000000000000009999123100000010000000000000BRBAZAACNOR0171
012017090402BBAS3       010BRASIL      ON      NM   R$  000000000318800000000032080000000003164000000000318600000000031840000000003183000000000318608307000000000004131400000000013165732200000000000000009999123100000010000000000000BRBBASACNOR3270
012017090496BBAS3F      020BRASIL      ON      NM   R$  000000000318200000000032030000000003165000000000318800000000031910000000003191000000000319600283000000000000007874000000000025104922000000000000009999123100000010000000000000BRBBASACNOR3270
012017090462BBAS3T      030BRASIL      ON      NM016R$  000000000319900000000032130000000003195000000000319800000000031960000000000000000000000000000006000000000000043700000000000139781515000000000000009999123100000010000000000000BRBBASACNOR3270
012017090462BBAS3T      030BRASIL      ON      NM030R$  000000000321600000000032230000000003209000000000321500000000032170000000000000000000000000000040000000000000030600000000000098393135000000000000009999123100000010000000000000BRBBASACNOR3270
012017090462BBAS3T      030BRASIL      ON      NM060R$  000000000322700000000032460000000003220000000000322000000000032460000000000000000000000000000014000000000000701300000000002258669204000000000000009999123100000010000000000000BRBBASACNOR3270
012017090462BBAS3T      030BRASIL      ON      NM091R$  000000000326900000000032700000000003243000000000324400000000032440000000000000000000000000000006000000000000016000000000000051918187000000000000009999123100000010000000000000BRBBASACNOR3270
012017090462BBAS3T      030BRASIL      ON      NM120R$  000000000329300000000032940000000003293000000000329300000000032940000000000000000000000000000002000000000000001000000000000003293790000000000000009999123100000010000000000000BRBBASACNOR3270
012017090462BBAS3T      030BRASIL      ON      NM150R$  000000000332400000000033250000000003324000000000332400000000033250000000000000000000000000000002000000000000001000000000000003324114000000000000009999123100000010000000000000BRBBASACNOR3270
012017090462BBAS3T      030BRASIL      ON      NM182R$  000000000331100000000033440000000003311000000000334000000000033440000000000000000000000000000004000000000000001100000000000003674691000000000000009999123100000010000000000000BRBBASACNOR3270
012017090478BBASB39     070BBAS        ON      NM000R$  000000000046800000000004680000000000468000000000046800000000004680000000000000000000000000000001000000000000000800000000000000374400000000000390002019021800000010000000000000BRBBASACNOR3270
012017090478BBASI13     070BBASE       ON      NM000R$  000000000002500000000000290000000000025000000000002600000000000260000000000011000000000002600010000000000000021800000000000000584000000000000333802017091800000010000000000000BRBBASACNOR3266
012017090478BBASI31     070BBAS  FM    ON      NM000R$  000000000014900000000001700000000000142000000000015400000000001540000000000025000000000017000046000000000000096700000000000014940000000000000306302017091800000010000000000000BRBBASACNOR3266
012017090478BBASI32     070BBAS  FM    ON      NM000R$  000000000008000000000000990000000000078000000000008900000000000890000000000080000000000009000125000000000000256600000000000022928200000000000316302017091800000010000000000000BRBBASACNOR3267
012017090478BBASI33     070BBAS  FM    ON      NM000R$  000000000004100000000000520000000000038000000000004300000000000420000000000041000000000004600144000000000000379900000000000016578600000000000326302017091800000010000000000000BRBBASACNOR3267
012017090478BBASI34     070BBAS  FM    ON      NM000R$  000000000001900000000000250000000000018000000000002100000000000220000000000018000000000003300114000000000000195000000000000004155700000000000336302017091800000010000000000000BRBBASACNOR3267
012017090478BBASI35     070BBAS  FM    ON      NM000R$  000000000000800000000000100000000000008000000000000900000000000080000000000008000000000000900090000000000000321600000000000002919500000000000346302017091800000010000000000000BRBBASACNOR3266
012017090478BBASI36     070BBAS        ON      NM000R$  000000000000400000000000040000000000003000000000000300000000000030000000000004000000000000500011000000000000019700000000000000075600000000000356302017091800000010000000000000BRBBASACNOR3267
012017090478BBASI4      070BBAS        ON      NM000R$  000000000003000000000000350000000000026000000000003000000000000290000000000028000000000003100114000000000000229600000000000006995100000000000331302017091800000010000000000000BRBBASACNOR3266
012017090478BBASI41     070BBAS        ON      NM000R$  000000000011500000000001220000000000115000000000011900000000001220000000000000000000000014900004000000000000003000000000000000357000000000000311302017091800000010000000000000BRBBASACNOR3269
012017090478BBASI52     070BBAS        ON      NM000R$  000000000006300000000000700000000000053000000000006300000000000620000000000061000000000006600124000000000000319400000000000020187800000000000321302017091800000010000000000000BRBBASACNOR3269
012017090478BBASI53     070BBAS        ON      NM000R$  000000000083700000000008370000000000825000000000082700000000008250000000000000000000000000000002000000000000001000000000000000827400000000000236302017091800000010000000000000BRBBASACNOR3268
012017090478BBASI6      070BBAS        ON      NM000R$  000000000001500000000000150000000000011000000000001200000000000130000000000000000000000001500049000000000000015200000000000000191000000000000341302017091800000010000000000000BRBBASACNOR3267
012017090478BBASI60     070BBAS        ON      NM000R$  000000000022000000000002200000000000200000000000021200000000002000000000000000000000000022000002000000000000001000000000000000212000000000000301302017091800000010000000000000BRBBASACNOR3268
012017090478BBASI61     070BBASE       ON      NM000R$  000000000018500000000001850000000000185000000000018500000000001850000000000000000000000000000001000000000000001000000000000000185000000000000303802017091800000010000000000000BRBBASACNOR3266
012017090478BBASI68     070BBAS        ON      NM000R$  000000000034000000000003400000000000340000000000034000000000003400000000000000000000000000000001000000000000000900000000000000306000000000000286302017091800000010000000000000BRBBASACNOR3268
012017090478BBASI69     070BBASE       ON      NM000R$  000000000000100000000000010000000000001000000000000100000000000010000000000000000000000000200001000000000000010000000000000000010000000000000388802017091800000010000000000000BRBBASACNOR3267
012017090478BBASI8      070BBASE       ON      NM000R$  000000000041000000000004100000000000410000000000041000000000004100000000000000000000000000000001000000000000000700000000000000287000000000000278802017091800000010000000000000BRBBASACNOR3266
012017090478BBASI81     070BBASE       ON      NM000R$  000000000010000000000001000000000000100000000000010000000000001000000000000030000000000011500001000000000000000200000000000000020000000000000313802017091800000010000000000000BRBBASACNOR3268
012017090478BBASI82     070BBASE       ON      NM000R$  000000000007500000000000770000000000075000000000007500000000000770000000000022000000000000000054000000000000006500000000000000489900000000000318802017091800000010000000000000BRBBASACNOR3269
012017090478BBASI9      070BBASE       ON      NM000R$  000000000026400000000002640000000000264000000000026400000000002640000000000000000000000000000001000000000000000300000000000000079200000000000293802017091800000010000000000000BRBBASACNOR3266
012017090478BBASI91     070BBASE       ON      NM000R$  000000000013000000000001360000000000130000000000013300000000001360000000000083000000000000000004000000000000001400000000000000187400000000000308802017091800000010000000000000BRBBASACNOR3269
012017090478BBASI92     070BBASE       ON      NM000R$  000000000005500000000000550000000000048000000000005000000000000490000000000045000000000007500018000000000000049300000000000002481800000000000323802017091800000010000000000000BRBBASACNOR3269
012017090478BBASJ1      070BBAS  FM    ON      NM000R$  000000000016100000000001670000000000152000000000016300000000001590000000000023000000000000000009000000000000014000000000000002295200000000000316302017101600000010000000000000BRBBASACNOR3269
012017090478BBASJ2      070BBAS  FM    ON      NM000R$  000000000010400000000001130000000000104000000000011000000000001070000000000000000000000000000012000000000000011500000000000001265200000000000326302017101600000010000000000000BRBBASACNOR3269
012017090478BBASJ31     070BBAS        ON      NM000R$  000000000018800000000001900000000000188000000000018900000000001880000000000180000000000000000007000000000000044500000000000008416000000000000311302017101600000010000000000000BRBBASACNOR3269
012017090478BBASJ32     070BBAS        ON      NM000R$  000000000013300000000001430000000000128000000000013500000000001330000000000000000000000000000014000000000000032800000000000004441000000000000321302017101600000010000000000000BRBBASACNOR3269
012017090478BBASJ33     070BBAS        ON      NM000R$  000000000009000000000000950000000000084000000000008900000000000880000000000085000000000010300019000000000000016200000000000001446200000000000331302017101600000010000000000000BRBBASACNOR3269
012017090478BBASJ34     070BBAS        ON      NM000R$  000000000005600000000000560000000000056000000000005600000000000560000000000000000000000007000001000000000000000300000000000000016800000000000341302017101600000010000000000000BRBBASACNOR3269
012017090478BBASJ58     070BBAS        ON      NM000R$  000000000036000000000003600000000000360000000000036000000000003600000000000000000000000000000002000000000000000900000000000000324000000000000286302017101600000010000000000000BRBBASACNOR3269
012017090478BBASJ60     070BBAS  FM    ON      NM000R$  000000000022600000000002300000000000215000000000021900000000002200000000000000000000000000000014000000000000017700000000000003886400000000000306302017101600000010000000000000BRBBASACNOR3269
012017090478BBASJ71     070BBASE       ON      NM000R$  000000000020100000000002010000000000201000000000020100000000002010000000000130000000000000000001000000000000000600000000000000120600000000000308802017101600000010000000000000BRBBASACNOR3269
012017090478BBASJ82     070BBASE       ON      NM000R$  000000000013900000000001430000000000139000000000014100000000001430000000000060000000000000000003000000000000005000000000000000707000000000000318802017101600000010000000000000BRBBASACNOR3268
012017090478BBASJ93     070BBAS  FM    ON      NM000R$  000000000006900000000000710000000000067000000000006800000000000710000000000000000000000000000023000000000000011300000000000000777700000000000336302017101600000010000000000000BRBBASACNOR3269
012017090478BBASJ94     070BBAS  FM    ON      NM000R$  000000000004400000000000490000000000044000000000004600000000000450000000000029000000000005000004000000000000005300000000000000246300000000000346302017101600000010000000000000BRBBASACNOR3269
012017090478BBASK1      070BBASE       ON      NM000R$  000000000009100000000000910000000000091000000000009100000000000910000000000000000000000015300001000000000000010000000000000000910000000000000348802017112100000010000000000000BRBBASACNOR3267
012017090478BBASK32     070BBAS        ON      NM000R$  000000000020000000000002000000000000195000000000019900000000001950000000000000000000000000000002000000000000003300000000000000658500000000000321302017112100000010000000000000BRBBASACNOR3269
012017090478BBASK65     070BBASE       ON      NM000R$  000000000078400000000007840000000000784000000000078400000000007840000000000000000000000000000001000000000000001000000000000000784000000000000243802017112100000010000000000000BRBBASACNOR3261
012017090478BBASL70     070BBASE       ON      NM000R$  000000000033000000000003300000000000330000000000033000000000003300000000000000000000000000000004000000000000002600000000000000858000000000000303802017121800000010000000000000BRBBASACNOR3268
012017090478BBASL88     070BBASE       ON      NM000R$  000000000052000000000005200000000000510000000000051100000000005100000000000000000000000000000003000000000000002400000000000001228000000000000278802017121800000010000000000000BRBBASACNOR3267
012017090482BBASN11     080BBASE       ON      NM000R$  000000000063700000000006370000000000637000000000063700000000006370000000000000000000000000000001000000000000000800000000000000509600000000000315002019021800000010000000000000BRBBASACNOR3270
012017090482BBASN26     080BBASE       ON      NM000R$  000000000018300000000001830000000000183000000000018300000000001830000000000000000000000000000001000000000000000800000000000000146400000000000260002019021800000010000000000000BRBBASACNOR3270
012017090482BBASU27     080BBASE       ON      NM000R$  000000000000300000000000030000000000002000000000000200000000000020000000000000000000000000700003000000000000009000000000000000025000000000000271302017091800000010000000000000BRBBASACNOR3268
012017090482BBASU28     080BBASE       ON      NM000R$  000000000000200000000000030000000000002000000000000200000000000030000000000003000000000000800002000000000000011000000000000000032000000000000276302017091800000010000000000000BRBBASACNOR3266
012017090482BBASU29     080BBASE       ON      NM000R$  000000000000700000000000070000000000007000000000000700000000000070000000000006000000000001300001000000000000001000000000000000007000000000000288802017091800000010000000000000BRBBASACNOR3268
012017090482BBASU30     080BBASE FM    ON      NM000R$  000000000001600000000000160000000000009000000000000900000000000110000000000008000000000001200018000000000000082500000000000000759500000000000296302017091800000010000000000000BRBBASACNOR3267
012017090482BBASU31     080BBASE       ON      NM000R$  000000000003000000000000310000000000025000000000002800000000000280000000000023000000000002700026000000000000022300000000000000628800000000000306302017091800000010000000000000BRBBASACNOR3266
012017090482BBASU32     080BBASE       ON      NM000R$  000000000006300000000000670000000000050000000000005700000000000560000000000051000000000006000033000000000000040500000000000002329400000000000316302017091800000010000000000000BRBBASACNOR3267
012017090482BBASU33     080BBASE FM    ON      NM000R$  000000000011300000000001200000000000111000000000011500000000001130000000000000000000000000000020000000000000024500000000000002835400000000000326302017091800000010000000000000BRBBASACNOR3267
012017090482BBASU41     080BBASE       ON      NM000R$  000000000004100000000000410000000000037000000000004000000000000370000000000000000000000012000019000000000000031000000000000001267000000000000311302017091800000010000000000000BRBBASACNOR3269
012017090482BBASU60     080BBASE       ON      NM000R$  000000000001900000000000190000000000019000000000001900000000000190000000000007000000000011300001000000000000000600000000000000011400000000000301302017091800000010000000000000BRBBASACNOR3268
012017090482BBASU8      080BBASE       ON      NM000R$  000000000000400000000000040000000000004000000000000400000000000040000000000000000000000003000001000000000000002800000000000000011200000000000278802017091800000010000000000000BRBBASACNOR3266
012017090482BBASU81     080BBASE       ON      NM000R$  000000000004800000000000500000000000048000000000004900000000000480000000000000000000000000000008000000000000070000000000000003440000000000000313802017091800000010000000000000BRBBASACNOR3268
012017090482BBASU82     080BBASE FM    ON      NM000R$  000000000007300000000000730000000000066000000000006800000000000660000000000000000000000000000002000000000000001500000000000000102500000000000318802017091800000010000000000000BRBBASACNOR3269
012017090482BBASU9      080BBASE       ON      NM000R$  000000000001000000000000100000000000010000000000001000000000000100000000000001000000000000000008000000000000001000000000000000010000000000000293802017091800000010000000000000BRBBASACNOR3266
012017090482BBASU91     080BBASE FM    ON      NM000R$  000000000003000000000000300000000000029000000000002900000000000290000000000000000000000000000002000000000000004000000000000000117000000000000308802017091800000010000000000000BRBBASACNOR3269
012017090482BBASU99     080BBASE       ON      NM000R$  000000000000200000000000050000000000002000000000000300000000000050000000000001000000000000000003000000000000040000000000000000150000000000000283802017091800000010000000000000BRBBASACNOR3262
012017090482BBASV31     080BBASE       ON      NM000R$  000000000009500000000000950000000000077000000000008200000000000770000000000075000000000010000004000000000000003200000000000000265300000000000311302017101600000010000000000000BRBBASACNOR3269
012017090482BBASV32     080BBASE       ON      NM000R$  000000000014400000000001440000000000144000000000014400000000001440000000000000000000000000000001000000000000001500000000000000216000000000000321302017101600000010000000000000BRBBASACNOR3269
012017090482BBASV4      080BBASE       ON      NM000R$  000000000003900000000000390000000000039000000000003900000000000390000000000000000000000000000001000000000000002600000000000000101400000000000293802017101600000010000000000000BRBBASACNOR3262
012017090482BBASV58     080BBASE       ON      NM000R$  000000000003000000000000300000000000030000000000003000000000000300000000000000000000000005900010000000000000001200000000000000036000000000000286302017101600000010000000000000BRBBASACNOR3269
012017090482BBASV59     080BBASE       ON      NM000R$  000000000005200000000000520000000000052000000000005200000000000520000000000016000000000000000004000000000000001000000000000000052000000000000296302017101600000010000000000000BRBBASACNOR3269
012017090482BBASV71     080BBASE FM    ON      NM000R$  000000000008600000000000860000000000086000000000008600000000000860000000000000000000000000000001000000000000001000000000000000086000000000000308802017101600000010000000000000BRBBASACNOR3269
012017090482BBASV73     080BBASE FM    ON      NM000R$  000000000017900000000001800000000000170000000000017400000000001760000000000000000000000000000023000000000000040100000000000007010800000000000328802017101600000010000000000000BRBBASACNOR3269
012017090482BBASV80     080BBASE FM    ON      NM000R$  000000000005500000000000590000000000055000000000005600000000000590000000000001000000000000000002000000000000002500000000000000141500000000000298802017101600000010000000000000BRBBASACNOR3268
012017090482BBASV82     080BBASE FM    ON      NM000R$  000000000011700000000001230000000000117000000000012100000000001230000000000000000000000000000003000000000000004700000000000000568800000000000318802017101600000010000000000000BRBBASACNOR3268
012017090482BBASW26     080BBASE       ON      NM000R$  000000000003800000000000400000000000030000000000003200000000000330000000000032000000000003300039000000000000078900000000000002528000000000000261302017112100000010000000000000BRBBASACNOR3269
012017090482BBASW71     080BBASE       ON      NM000R$  000000000012300000000001230000000000123000000000012300000000001230000000000000000000000000000001000000000000002500000000000000307500000000000308802017112100000010000000000000BRBBASACNOR3263
012017090482BBASW72     080BBASE       ON      NM000R$  000000000016800000000001680000000000168000000000016800000000001680000000000000000000000000000001000000000000005000000000000000840000000000000318802017112100000010000000000000BRBBASACNOR3269
012017090402BBDC3       010BRADESCO    ON  EJ  N1   R$  000000000326000000000032870000000003249000000000326200000000032500000000003250000000000326903070000000000000657900000000002146508300000000000000009999123100000010000000000000BRBBDCACNOR1669
012017090496BBDC3F      020BRADESCO    ON  EJ  N1   R$  000000000322000000000033080000000003170000000000326200000000032530000000003253000000000326900124000000000000001716000000000005598438000000000000009999123100000010000000000000BRBBDCACNOR1669
012017090462BBDC3T      030BRADESCO    ON  EJ  N1030R$  000000000329300000000032940000000003293000000000329300000000032940000000000000000000000000000002000000000000000200000000000000658739000000000000009999123100000010000000000000BRBBDCACNOR1669
012017090402BBDC4       010BRADESCO    PN  EJ  N1   R$  000000000341700000000034260000000003391000000000341100000000034250000000003424000000000342512033000000000004234600000000014447190300000000000000009999123100000010000000000000BRBBDCACNPR8669
012017090496BBDC4F      020BRADESCO    PN  EJ  N1   R$  000000000342400000000034260000000003390000000000341200000000034210000000003421000000000342200239000000000000007362000000000025131317000000000000009999123100000010000000000000BRBBDCACNPR8669
012017090462BBDC4T      030BRADESCO    PN  EJ  N1016R$  000000000343800000000034390000000003438000000000343800000000034390000000000000000000000000000002000000000000004100000000000014095957000000000000009999123100000010000000000000BRBBDCACNPR8669
012017090462BBDC4T      030BRADESCO    PN  EJ  N1030R$  000000000341500000000034160000000003415000000000341500000000034160000000000000000000000000000002000000000000000500000000000001707533000000000000009999123100000010000000000000BRBBDCACNPR8669
012017090462BBDC4T      030BRADESCO    PN  EJ  N1067R$  000000000346100000000034620000000003461000000000346100000000034620000000000000000000000000000002000000000000150000000000000519260646000000000000009999123100000010000000000000BRBBDCACNPR8669
012017090462BBDC4T      030BRADESCO    PN  EJ  N1180R$  000000000355500000000035560000000003555000000000355500000000035560000000000000000000000000000002000000000000007000000000000024889529000000000000009999123100000010000000000000BRBBDCACNPR8669
012017090478BBDCI15     070BBDC    /EJ PN      N1000R$  000000000001600000000000160000000000012000000000001500000000000120000000000005000000000001700007000000000000024600000000000000377600000000000354402017091800000010000000000000BRBBDCACNPR8668
012017090478BBDCI21     070BBDC  FM/EJ PN      N1000R$  000000000002800000000000280000000000020000000000002400000000000200000000000023000000000000000002000000000000002000000000000000048000000000000349402017091800000010000000000000BRBBDCACNPR8668
012017090478BBDCI32     070BBDC  FM/EJ PN      N1000R$  000000000021900000000002190000000000188000000000019900000000002040000000000170000000000000000017000000000000029400000000000005851300000000000322202017091800000010000000000000BRBBDCACNPR8664
012017090478BBDCI42     070BBDC  FM/EJ PN      N1000R$  000000000004800000000000510000000000035000000000003900000000000510000000000036000000000005300020000000000000070000000000000002776300000000000344402017091800000010000000000000BRBBDCACNPR8664
012017090478BBDCI52     070BBDC  FM/EJ PN      N1000R$  000000000016900000000001690000000000149000000000016400000000001490000000000050000000000000000005000000000000006500000000000001068500000000000327202017091800000010000000000000BRBBDCACNPR8664
012017090478BBDCI53     070BBDC    /EJ PN      N1000R$  000000000012000000000001300000000000108000000000011400000000001300000000000105000000000015000004000000000000005400000000000000616000000000000332202017091800000010000000000000BRBBDCACNPR8664
012017090478BBDCJ16     070BBDC  FM/EJ PN      N1000R$  000000000023400000000002350000000000215000000000022800000000002250000000000000000000000000000012000000000000019910000000000004543980000000000325502017101600000010000000000000BRBBDCACNPR8662
012017090478BBDCJ19     070BBDC    /EJ PN      N1000R$  000000000005000000000000600000000000050000000000005000000000000570000000000046000000000000000010000000000000042900000000000002177000000000000354802017101600000010000000000000BRBBDCACNPR8668
012017090478BBDCJ35     070BBDC    /EJ PN      N1000R$  000000000017000000000001700000000000149000000000016400000000001680000000000130000000000000000006000000000000010000000000000001640000000000000334802017101600000010000000000000BRBBDCACNPR8667
012017090478BBDCJ38     070BBDC  FM/EJ PN      N1000R$  000000000013100000000001330000000000118000000000012600000000001330000000000000000000000000000007000000000000009000000000000001134800000000000339802017101600000010000000000000BRBBDCACNPR8667
012017090478BBDCJ40     070BBDCE       PN      N1000R$  000000000026500000000002650000000000265000000000026500000000002650000000000000000000000000000002000000000000070300000000000018629500000000000387802018101500000010000000000000BRBBDCACNPR8669
012017090478BBDCJ41     070BBDC  FM/EJ PN      N1000R$  000000000008100000000000810000000000081000000000008100000000000810000000000000000000000000000001000000000000000100000000000000008100000000000349802017101600000010000000000000BRBBDCACNPR8667
012017090478BBDCJ96     070BBDC  FM/EJ PN      N1000R$  000000000003500000000000350000000000035000000000003500000000000350000000000000000000000008000003000000000000002000000000000000070000000000000362102017101600000010000000000000BRBBDCACNPR8668
012017090478BBDCL38     070BBDC    /EJ PN      N1000R$  000000000006900000000000690000000000069000000000006900000000000690000000000000000000000000000001000000000000005000000000000000345000000000000383702017121800000010000000000000BRBBDCACNPR8665
012017090482BBDCM1      080BBDCE   /EJ PN      N1000R$  000000000005300000000000540000000000049000000000005000000000000530000000000051000000000005300268000000000000188270000000000009583500000000000284202018011500000010000000000000BRBBDCACNPR8659
012017090482BBDCU32     080BBDCE FM/EJ PN      N1000R$  000000000000900000000000110000000000009000000000000900000000000110000000000001000000000002500009000000000000088800000000000000839200000000000322202017091800000010000000000000BRBBDCACNPR8664
012017090482BBDCU40     080BBDCE   /EJ PN      N1000R$  000000000000100000000000020000000000001000000000000100000000000020000000000001000000000000000006000000000000050100000000000000050200000000000264702017091800000010000000000000BRBBDCACNPR8650
012017090482BBDCU42     080BBDCE FM/EJ PN      N1000R$  000000000006400000000000800000000000060000000000006400000000000710000000000020000000000007200026000000000000050000000000000003240100000000000344402017091800000010000000000000BRBBDCACNPR8664
012017090482BBDCU52     080BBDCE FM/EJ PN      N1000R$  000000000001500000000000200000000000014000000000001400000000000200000000000012000000000002000004000000000000007100000000000000106000000000000327202017091800000010000000000000BRBBDCACNPR8664
012017090482BBDCU53     080BBDCE   /EJ PN      N1000R$  000000000002500000000000290000000000022000000000002800000000000250000000000011000000000003000037000000000000572700000000000016308500000000000332202017091800000010000000000000BRBBDCACNPR8664
012017090482BBDCU55     080BBDCE   /EJ PN      N1000R$  000000000000500000000000050000000000005000000000000500000000000050000000000000000000000000000009000000000000004000000000000000020000000000000314702017091800000010000000000000BRBBDCACNPR8656
012017090482BBDCU60     080BBDCE FM/EJ PN      N1000R$  000000000000400000000000040000000000004000000000000400000000000040000000000001000000000000500002000000000000010000000000000000040000000000000308502017091800000010000000000000BRBBDCACNPR8667
012017090482BBDCU9      080BBDCE   /EJ PN      N1000R$  000000000000100000000000020000000000001000000000000100000000000020000000000001000000000000200029000000000000166780000000000000253070000000000255602017091800000010000000000000BRBBDCACNPR8649
012017090482BBDCV17     080BBDCE   /EJ PN      N1000R$  000000000010800000000001080000000000108000000000010800000000001080000000000000000000000000000001000000000000004000000000000000432000000000000344802017101600000010000000000000BRBBDCACNPR8668
012017090482BBDCV21     080BBDCE       PN      N1000R$  000000000026000000000002600000000000260000000000026000000000002600000000000000000000000000000002000000000000070300000000000018278000000000000325302018101500000010000000000000BRBBDCACNPR8669
012017090482BBDCV29     080BBDCE   /EJ PN      N1000R$  000000000002200000000000240000000000022000000000002300000000000240000000000000000000000000000007000000000000046000000000000001062000000000000309602017101600000010000000000000BRBBDCACNPR8651
012017090482BBDCV41     080BBDCE FM/EJ PN      N1000R$  000000000013100000000001470000000000130000000000013700000000001360000000000000000000000000000022000000000000029700000000000004084700000000000349802017101600000010000000000000BRBBDCACNPR8667
012017090482BBDCW12     080BBDCE   /EJ PN      N1000R$  000000000001800000000000180000000000012000000000001400000000000120000000000010000000000001200023000000000000033120000000000000486280000000000252402017112100000010000000000000BRBBDCACNPR8651
012017090412BBFI11B     010FII BB PROGRCI  ER  MB   R$  000000026550000000002720000000000265000000000027007600000002720000000000271000000000027499900051000000000000000136000000000036730402000000000000009999123100000010000000000000BRBBFICTF006246
012017090412BBPO11      010FII BB PRGIICI  ER       R$  000000001393900000000143490000000013901000000001401500000000140030000000014003000000001401500164000000000000010811000000000151525102000000000000009999123100000010000000000000BRBBPOCTF003158
012017090412BBRC11      010FII BB CORP CI  ER       R$  000000001298600000000130590000000012950000000001297200000000130590000000012975000000001305900019000000000000001167000000000015139490000000000000009999123100000010000000000000BRBBRCCTF004172
012017090402BBRK3       010BR BROKERS  ON      NM   R$  000000000010100000000001020000000000096000000000009800000000000970000000000097000000000009800381000000000001993900000000000195999200000000000000009999123100000010000000000000BRBBRKACNOR4111
012017090414BBSD11      010BB ETF SP DVCI           R$  000000000561400000000056280000000005607000000000561800000000056280000000005570000000000000000010000000000000000450000000000002528160000000000000009999123100000010000000000000BRBBSDCTF000100
012017090402BBSE3       010BBSEGURIDADEON      NM   R$  000000000281400000000028350000000002781000000000280100000000027930000000002793000000000279507229000000000002235900000000006263698900000000000000009999123100000010000000000000BRBBSEACNOR5109
012017090496BBSE3F      020BBSEGURIDADEON      NM   R$  000000000282900000000028550000000002785000000000281100000000028150000000002796000000000281500403000000000000010256000000000028833770000000000000009999123100000010000000000000BRBBSEACNOR5109
012017090462BBSE3T      030BBSEGURIDADEON      NM016R$  000000000282400000000028250000000002824000000000282400000000028250000000000000000000000000000002000000000000000100000000000000282453000000000000009999123100000010000000000000BRBBSEACNOR5109
012017090462BBSE3T      030BBSEGURIDADEON      NM030R$  000000000283700000000028380000000002821000000000283100000000028220000000000000000000000000000004000000000000001600000000000004530412000000000000009999123100000010000000000000BRBBSEACNOR5109
012017090462BBSE3T      030BBSEGURIDADEON      NM045R$  000000000286600000000028670000000002866000000000286600000000028670000000000000000000000000000002000000000000001500000000000004300248000000000000009999123100000010000000000000BRBBSEACNOR5109
012017090462BBSE3T      030BBSEGURIDADEON      NM060R$  000000000282200000000028230000000002822000000000282200000000028230000000000000000000000000000002000000000000002000000000000005644436000000000000009999123100000010000000000000BRBBSEACNOR5109
012017090478BBSEI27     070BBSE  FM    ON      NM000R$  000000000018300000000001900000000000156000000000016000000000001610000000000000000000000020000004000000000000015000000000000002405500000000000265302017091800000010000000000000BRBBSEACNOR5108
012017090478BBSEI28     070BBSE  FM    ON      NM000R$  000000000010000000000001040000000000075000000000008400000000000760000000000016000000000010400007000000000000030000000000000002541500000000000275302017091800000010000000000000BRBBSEACNOR5108
012017090478BBSEI29     070BBSE  FM    ON      NM000R$  000000000004300000000000440000000000026000000000003100000000000290000000000024000000000004000045000000000000050600000000000001575900000000000285302017091800000010000000000000BRBBSEACNOR5108
012017090478BBSEI30     070BBSE  FM    ON      NM000R$  000000000001100000000000110000000000006000000000000900000000000090000000000000000000000003800008000000000000008000000000000000072900000000000295302017091800000010000000000000BRBBSEACNOR5108
012017090478BBSEI50     070BBSE        ON      NM000R$  000000000006000000000000610000000000060000000000006000000000000610000000000000000000000015000002000000000000000800000000000000048400000000000280302017091800000010000000000000BRBBSEACNOR5106
012017090478BBSEI57     070BBSE        ON      NM000R$  000000000013700000000001420000000000137000000000013900000000001420000000000078000000000015000002000000000000001000000000000000139500000000000270302017091800000010000000000000BRBBSEACNOR5108
012017090478BBSEI59     070BBSE        ON      NM000R$  000000000001800000000000180000000000014000000000001600000000000140000000000000000000000000000003000000000000003100000000000000050600000000000290302017091800000010000000000000BRBBSEACNOR5108
012017090478BBSEI89     070BBSEE       ON      NM000R$  000000000004000000000000400000000000040000000000004000000000000400000000000000000000000000000001000000000000000300000000000000012000000000000282802017091800000010000000000000BRBBSEACNOR5107
012017090478BBSEJ29     070BBSE        ON      NM000R$  000000000008500000000000850000000000085000000000008500000000000850000000000050000000000010000002000000000000010000000000000000850000000000000283602017101600000010000000000000BRBBSEACNOR5108
012017090478BBSEJ58     070BBSE  FM    ON      NM000R$  000000000011000000000001100000000000110000000000011000000000001100000000000000000000000000000001000000000000007000000000000000770000000000000278602017101600000010000000000000BRBBSEACNOR5108
012017090478BBSEJ60     070BBSE  FM    ON      NM000R$  000000000003000000000000300000000000030000000000003000000000000300000000000000000000000000000001000000000000001000000000000000030000000000000298602017101600000010000000000000BRBBSEACNOR5108
012017090478BBSEJ67     070BBSE  FM    ON      NM000R$  000000000017500000000001750000000000173000000000017400000000001730000000000000000000000000000002000000000000011700000000000002038100000000000268602017101600000010000000000000BRBBSEACNOR5108
012017090478BBSEJ69     070BBSE  FM    ON      NM000R$  000000000006800000000000680000000000063000000000006400000000000650000000000000000000000000000004000000000000008200000000000000526600000000000288602017101600000010000000000000BRBBSEACNOR5108
012017090478BBSEK30     070BBSE        ON      NM000R$  000000000009700000000000970000000000090000000000009600000000000900000000000000000000000016800002000000000000001300000000000000125400000000000292102017112100000010000000000000BRBBSEACNOR5108
012017090478BBSEK31     070BBSE        ON      NM000R$  000000000006200000000000620000000000061000000000006100000000000610000000000000000000000000000002000000000000002400000000000000147600000000000302102017112100000010000000000000BRBBSEACNOR5108
012017090478BBSEL11     070BBSEE       ON      NM000R$  000000000005000000000000500000000000050000000000005000000000000500000000000000000000000000000003000000000000200000000000000010000000000000000316102017121800000010000000000000BRBBSEACNOR5109
012017090478BBSEL59     070BBSE        ON      NM000R$  000000000012900000000001290000000000129000000000012900000000001290000000000000000000000000000003000000000000200000000000000025800000000000000298602017121800000010000000000000BRBBSEACNOR5109
012017090482BBSEU28     080BBSEE FM    ON      NM000R$  000000000002700000000000300000000000027000000000002800000000000300000000000000000000000000000007000000000000008300000000000000232500000000000275302017091800000010000000000000BRBBSEACNOR5108
012017090482BBSEU29     080BBSEE FM    ON      NM000R$  000000000008200000000000830000000000082000000000008200000000000830000000000000000000000000000002000000000000014000000000000001155000000000000285302017091800000010000000000000BRBBSEACNOR5108
012017090482BBSEU50     080BBSEE       ON      NM000R$  000000000003700000000000480000000000037000000000004700000000000480000000000007000000000000000004000000000000020900000000000000997700000000000280302017091800000010000000000000BRBBSEACNOR5106
012017090482BBSEV58     080BBSEE FM    ON      NM000R$  000000000008000000000000800000000000080000000000008000000000000800000000000000000000000000000001000000000000007000000000000000560000000000000278602017101600000010000000000000BRBBSEACNOR5108
012017090482BBSEV69     080BBSEE FM    ON      NM000R$  000000000013300000000001330000000000133000000000013300000000001330000000000000000000000000000001000000000000007000000000000000931000000000000288602017101600000010000000000000BRBBSEACNOR5108
012017090482BBSEX86     080BBSEE       ON      NM000R$  000000000008000000000000800000000000080000000000008000000000000800000000000000000000000000000003000000000000200000000000000016000000000000000266102017121800000010000000000000BRBBSEACNOR5109
012017090402BBTG12      010BTG PACTUAL UNT          R$  000000000004000000000000410000000000039000000000003900000000000400000000000039000000000004000666000000000005060600000000000201387900000000000000009999123100000010000000000000BRBBTGUNT015100
012017090496BBTG12F     020BTG PACTUAL UNT          R$  000000000003800000000000400000000000038000000000003900000000000390000000000038000000000003900006000000000000000083000000000000003263000000000000009999123100000010000000000000BRBBTGUNT015100
012017090402BBTG35      010BTG PACTUAL DR3 B        R$  000000000003200000000000320000000000024000000000002500000000000260000000000024000000000002600032000000000000052100000000000001349900000000000000009999123100000010000000000000BRBBTGBDR010100
012017090402BBTG36      010BTG PACTUAL DR3 A        R$  000000000002900000000000300000000000027000000000002800000000000280000000000027000000000002800023000000000000060800000000000001735500000000000000009999123100000010000000000000BRBBTGBDR002100
012017090412BBVJ11      010FII C JARDIMCI  ER       R$  000000000600000000000060490000000005951000000000601800000000060010000000006000000000000603000007000000000000000376000000000002262861000000000000009999123100000010000000000000BRBBVJCTF001181
012017090412BCFF11B     010FII BC FFII CI      MB   R$  000000000701400000000070890000000006982000000000700900000000069890000000006989000000000700000128000000000000020995000000000147161422000000000000009999123100000010000000000000BRBCFFCTF000190
012017090412BCIA11      010FII BCIA    CI  ER       R$  000000001275000000000129990000000012100000000001214100000000121000000000011500000000001295000010000000000000001829000000000022207070000000000000009999123100000010000000000000BRBCIACTF005128
012017090412BCRI11      010FII BEES CRICI  ER       R$  000000001075000000000107500000000010501000000001060000000000107000000000010550000000001069300102000000000000002721000000000028843844000000000000009999123100000010000000000000BRBCRICTF009128
012017090402BEEF3       010MINERVA     ON      NM   R$  000000000115800000000011670000000001140000000000115000000000011520000000001152000000000115305065000000000001114700000000001282544100000000000000009999123100000010000000000000BRBEEFACNOR6107
012017090496BEEF3F      020MINERVA     ON      NM   R$  000000000116100000000011810000000001141000000000115400000000011650000000001145000000000116500078000000000000001852000000000002138531000000000000009999123100000010000000000000BRBEEFACNOR6107
012017090402BEES3       010BANESTES    ON  EJ       R$  000000000037000000000003840000000000369000000000037400000000003760000000000371000000000037600028000000000000009600000000000003592700000000000000009999123100000010000000000000BRBEESACNOR9300
012017090496BEES3F      020BANESTES    ON  EJ       R$  000000000037900000000003790000000000360000000000037200000000003600000000000360000000000037600007000000000000000046000000000000017152000000000000009999123100000010000000000000BRBEESACNOR9300
012017090402BEES4       010BANESTES    PN  EJ       R$  000000000039500000000003950000000000375000000000037700000000003900000000000375000000000039000004000000000000002400000000000000905500000000000000009999123100000010000000000000BRBEESACNPR6225
012017090496BEES4F      020BANESTES    PN  EJ       R$  000000000039500000000003950000000000395000000000039500000000003950000000000360000000000043000001000000000000000020000000000000007900000000000000009999123100000010000000000000BRBEESACNPR6225
012017090402BGIP4       010BANESE      PN           R$  000000000328000000000032800000000003280000000000328000000000032800000000003220000000000329000001000000000000000100000000000000328000000000000000009999123100000010000000000000BRBGIPACNPR8192
012017090496BGIP4F      020BANESE      PN           R$  000000000322000000000032200000000003220000000000322000000000032200000000002610000000000322000001000000000000000010000000000000032200000000000000009999123100000010000000000000BRBGIPACNPR8192
012017090402BIOM3       010BIOMM       ON      MA   R$  000000000133500000000013350000000001280000000000130300000000012800000000001250000000000128000004000000000000002400000000000003127500000000000000009999123100000010000000000000BRBIOMACNOR2105
012017090410BMEB1       010MERC BRASIL DIR ORD      R$  000000000000300000000000030000000000002000000000000200000000000020000000000002000000000000300040000000000000182800000000000000442500000000000000009999123100000010000000000000BRBMEBD03OR9193
012017090496BMEB1F      020MERC BRASIL DIR ORD      R$  000000000000100000000000020000000000001000000000000100000000000020000000000002000000000002500009000000000000000248000000000000000272000000000000009999123100000010000000000000BRBMEBD03OR9193
012017090402BMEB4       010MERC BRASIL PN           R$  000000000049900000000005020000000000499000000000050000000000005020000000000500000000000050100016000000000000020300000000000010154200000000000000009999123100000010000000000000BRBMEBACNPR5198
012017090402BMIN3       010MERC INVEST ON           R$  000000000008200000000000820000000000082000000000008200000000000820000000000078000000000008200005000000000000009000000000000000738000000000000000009999123100000010000000000000BRBMINACNOR4165
012017090402BMIN4       010MERC INVEST PN           R$  000000000005000000000000510000000000050000000000005000000000000510000000000050000000000005100032000000000000121000000000000006066000000000000000009999123100000010000000000000BRBMINACNPR1166
012017090496BMIN4F      020MERC INVEST PN           R$  000000000005000000000000510000000000050000000000005000000000000500000000000051000000000005200011000000000000000799000000000000040355000000000000009999123100000010000000000000BRBMINACNPR1166
012017090412BMLC11B     010FII BMBRC LCCI      MB   R$  000000000820500000000083000000000008205000000000827300000000083000000000008211000000000830000006000000000000000154000000000001274144000000000000009999123100000010000000000000BRBMLCCTF004166
012017090412BNFS11      010FII BANRISULCI  ER       R$  000000001100500000000112000000000011005000000001107700000000112000000000011050000000001122500012000000000000000703000000000007787660000000000000009999123100000010000000000000BRBNFSCTF000160
012017090402BOAC34      010BANK AMERICADRN ED       R$  000000000754500000000075450000000007545000000000754500000000075450000000000000000000000000000001000000000000000100000000000000754500000000000000009999123100000010000000000000BRBOACBDR004128
012017090402BOBR4       010BOMBRIL     PN           R$  000000000051900000000005210000000000508000000000051200000000005120000000000511000000000051200094000000000000081100000000000041553400000000000000009999123100000010000000000000BRBOBRACNPR3128
012017090496BOBR4F      020BOMBRIL     PN           R$  000000000050300000000005030000000000500000000000050200000000005000000000000501000000000051100004000000000000000065000000000000032650000000000000009999123100000010000000000000BRBOBRACNPR3128
012017090414BOVA11      010ISHARES BOVACI           R$  000000000694000000000069840000000006929000000000696200000000069840000000006965000000000698416117000000000001699410000000011832823450000000000000009999123100000010000000000000BRBOVACTF003103
012017090496BOVA11F     020ISHARES BOVACI           R$  000000000695100000000069940000000006939000000000695500000000069750000000006954000000000697500022000000000000000090000000000000625975000000000000009999123100000010000000000000BRBOVACTF003103
012017090462BOVA11T     030ISHARES BOVACI        030R$  000000000699900000000070000000000006999000000000699900000000070000000000000000000000000000000002000000000000143900000000001007265303000000000000009999123100000010000000000000BRBOVACTF003103
012017090478BOVAI60     070BOVA        CI        000R$  000000000096000000000009600000000000960000000000096000000000009600000000000000000000000000000001000000000000001200000000000001152000000000000600002017091800000010000000000000BRBOVACTF003103
012017090478BOVAI64     070BOVA        CI        000R$  000000000058400000000005840000000000584000000000058400000000005840000000000000000000000050000001000000000000000200000000000000116800000000000640002017091800000010000000000000BRBOVACTF003103
012017090478BOVAI66     070BOVA        CI        000R$  000000000039300000000003930000000000393000000000039300000000003930000000000000000000000000000001000000000000000080000000000000031440000000000660002017091800000010000000000000BRBOVACTF003103
012017090478BOVAI68     070BOVA  FM    CI        000R$  000000000019000000000002130000000000190000000000019400000000002130000000000000000000000000000004000000000000004800000000000000934900000000000680002017091800000010000000000000BRBOVACTF003102
012017090478BOVAI69     070BOVA  FM    CI        000R$  000000000012800000000001380000000000124000000000012800000000001320000000000000000000000019500004000000000000010600000000000001357800000000000690002017091800000010000000000000BRBOVACTF003103
012017090478BOVAI70     070BOVA  FM    CI        000R$  000000000006900000000000790000000000069000000000007300000000000770000000000000000000000007700008000000000000013920000000000001022080000000000700002017091800000010000000000000BRBOVACTF003103
012017090478BOVAI71     070BOVA  FM    CI        000R$  000000000003800000000000380000000000038000000000003800000000000380000000000000000000000006900002000000000000005000000000000000190000000000000710002017091800000010000000000000BRBOVACTF003103
012017090478BOVAJ64     070BOVA        CI        000R$  000000000058500000000005950000000000585000000000058700000000005900000000000000000000000000000003000000000000003100000000000001822500000000000640002017101600000010000000000000BRBOVACTF003103
012017090478BOVAJ68     070BOVA  FM    CI        000R$  000000000027600000000002850000000000276000000000028200000000002850000000000000000000000000000004000000000000006600000000000001863200000000000680002017101600000010000000000000BRBOVACTF003103
012017090478BOVAJ70     070BOVA  FM    CI        000R$  000000000015900000000001600000000000155000000000015900000000001600000000000151000000000000000003000000000000003700000000000000591400000000000700002017101600000010000000000000BRBOVACTF003103
012017090478BOVAJ71     070BOVA  FM    CI        000R$  000000000011700000000001190000000000117000000000011800000000001190000000000000000000000012100003000000000000000400000000000000047400000000000710002017101600000010000000000000BRBOVACTF003103
012017090478BOVAJ72     070BOVA  FM    CI        000R$  000000000007400000000000740000000000074000000000007400000000000740000000000000000000000000000001000000000000000100000000000000007400000000000720002017101600000010000000000000BRBOVACTF003103
012017090482BOVAM57     080BOVAE       CI        000R$  000000000004400000000000460000000000043000000000004400000000000440000000000043000000000004400331000000000000415980000000000018407380000000000570002018011500000010000000000000BRBOVACTF003103
012017090482BOVAU25     080BOVAE       CI        000R$  000000000001000000000000100000000000010000000000001000000000000100000000000000000000000000000001000000000001850500000000000018505000000000000655002017091800000010000000000000BRBOVACTF003103
012017090482BOVAU52     080BOVAE       CI        000R$  000000000000100000000000010000000000001000000000000100000000000010000000000000000000000000100004000000000000014800000000000000014800000000000520002017091800000010000000000000BRBOVACTF003103
012017090482BOVAU60     080BOVAE       CI        000R$  000000000000500000000000050000000000005000000000000500000000000050000000000004000000000000600001000000000000008000000000000000040000000000000600002017091800000010000000000000BRBOVACTF003103
012017090482BOVAU65     080BOVAE       CI        000R$  000000000000900000000000090000000000009000000000000900000000000090000000000009000000000004000002000000000000052500000000000000472500000000000650002017091800000010000000000000BRBOVACTF003103
012017090482BOVAU66     080BOVAE       CI        000R$  000000000001100000000000120000000000011000000000001100000000000120000000000011000000000000000003000000000000002900000000000000033900000000000660002017091800000010000000000000BRBOVACTF003103
012017090482BOVAU67     080BOVAE FM    CI        000R$  000000000001700000000000170000000000017000000000001700000000000170000000000017000000000001800001000000000000000500000000000000008500000000000670002017091800000010000000000000BRBOVACTF003103
012017090482BOVAU68     080BOVAE FM    CI        000R$  000000000003900000000000390000000000029000000000003200000000000300000000000025000000000003200014000000000000080100000000000002582900000000000680002017091800000010000000000000BRBOVACTF003102
012017090482BOVAU69     080BOVAE FM    CI        000R$  000000000007000000000000700000000000051000000000006200000000000550000000000030000000000000000025000000000000105100000000000006570500000000000690002017091800000010000000000000BRBOVACTF003103
012017090482BOVAU70     080BOVAE FM    CI        000R$  000000000010000000000001010000000000090000000000009800000000000940000000000092000000000011000037000000000000155000000000000015211000000000000700002017091800000010000000000000BRBOVACTF003103
012017090482BOVAV52     080BOVAE       CI        000R$  000000000002400000000000240000000000024000000000002400000000000240000000000000000000000002400002000000000000000430000000000000010320000000000520002017101600000010000000000000BRBOVACTF003103
012017090482BOVAV55     080BOVAE       CI        000R$  000000000000400000000000040000000000001000000000000200000000000010000000000001000000000000000002000000000000000200000000000000000500000000000550002017101600000010000000000000BRBOVACTF003103
012017090482BOVAV60     080BOVAE       CI        000R$  000000000001400000000000140000000000014000000000001400000000000140000000000008000000000000000003000000000000021500000000000000301000000000000600002017101600000010000000000000BRBOVACTF003103
012017090482BOVAV62     080BOVAE       CI        000R$  000000000002300000000000230000000000021000000000002200000000000230000000000021000000000002300101000000000000158710000000000003545760000000000620002017101600000010000000000000BRBOVACTF003103
012017090482BOVAV64     080BOVAE       CI        000R$  000000000003300000000000330000000000030000000000003100000000000310000000000031000000000000000019000000000000050000000000000001589500000000000640002017101600000010000000000000BRBOVACTF003103
012017090482BOVAV66     080BOVAE       CI        000R$  000000000005700000000000570000000000047000000000005100000000000500000000000035000000000004900004000000000000005400000000000000276800000000000660002017101600000010000000000000BRBOVACTF003103
012017090482BOVAV67     080BOVAE FM    CI        000R$  000000000007600000000000760000000000066000000000007100000000000660000000000000000000000006300006000000000000018800000000000001351300000000000670002017101600000010000000000000BRBOVACTF003103
012017090482BOVAV68     080BOVAE FM    CI        000R$  000000000009900000000000990000000000089000000000009300000000000890000000000000000000000000000003000000000000008700000000000000811800000000000680002017101600000010000000000000BRBOVACTF003103
012017090482BOVAV69     080BOVAE FM    CI        000R$  000000000013000000000001300000000000096000000000010600000000000960000000000000000000000000000003000000000000003100000000000000330000000000000690002017101600000010000000000000BRBOVACTF003103
012017090482BOVAX63     080BOVAE       CI        000R$  000000000006800000000000680000000000067000000000006700000000000670000000000000000000000000000002000000000000100000000000000006775000000000000630002017121800000010000000000000BRBOVACTF003103
012017090414BOVV11      010IT NOW IBOV CI           R$  000000000719500000000072210000000007195000000000722000000000072210000000007190000000000722100004000000000000012840000000000092714460000000000000009999123100000010000000000000BRBOVVCTF009100
012017090402BPAC11      010BTGP BANCO  UNT          R$  000000000175000000000018980000000001720000000000185100000000018900000000001873000000000189000995000000000000481100000000000890592800000000000000009999123100000010000000000000BRBPACUNT006101
012017090496BPAC11F     020BTGP BANCO  UNT          R$  000000000161100000000021000000000001611000000000188400000000021000000000001834000000000210000048000000000000000944000000000001778755000000000000009999123100000010000000000000BRBPACUNT006101
012017090462BPAC11T     030BTGP BANCO  UNT       030R$  000000000178600000000017870000000001786000000000178600000000017870000000000000000000000000000002000000000000007600000000000013576212000000000000009999123100000010000000000000BRBPACUNT006101
012017090402BPAC3       010BTGP BANCO  ON           R$  000000000115000000000011500000000001032000000000104100000000010320000000000850000000000110000011000000000000001200000000000001250200000000000000009999123100000010000000000000BRBPACACNOR7116
012017090402BPAC5       010BTGP BANCO  PNA          R$  000000000055100000000006800000000000550000000000060700000000006800000000000660000000000070000029000000000000003300000000000002005500000000000000009999123100000010000000000000BRBPACACNPA0116
012017090402BPAN4       010BANCO PAN   PN      N1   R$  000000000018800000000001900000000000184000000000018600000000001860000000000185000000000018600123000000000000295600000000000055233700000000000000009999123100000010000000000000BRBPANACNPR1104
012017090496BPAN4F      020BANCO PAN   PN      N1   R$  000000000018800000000001880000000000187000000000018700000000001870000000000185000000000018800005000000000000000152000000000000028465000000000000009999123100000010000000000000BRBPANACNPR1104
012017090462BPAN4T      030BANCO PAN   PN      N1091R$  000000000019000000000001910000000000190000000000019000000000001910000000000000000000000000000002000000000000020000000000000003817044000000000000009999123100000010000000000000BRBPANACNPR1104
012017090412BPFF11      010FII ABSOLUTOCI  ER       R$  000000000940100000000095340000000009401000000000949800000000095150000000009514000000000951500053000000000000001123000000000010667052000000000000009999123100000010000000000000BRBPFFCTF002154
012017090402BPHA3       010BR PHARMA   ON      NM   R$  000000000051100000000005110000000000498000000000050100000000005040000000000500000000000050400092000000000000042800000000000021472700000000000000009999123100000010000000000000BRBPHAACNOR6105
012017090496BPHA3F      020BR PHARMA   ON      NM   R$  000000000050300000000005100000000000496000000000050000000000005000000000000500000000000050700008000000000000000069000000000000034529000000000000009999123100000010000000000000BRBPHAACNOR6105
012017090462BPHA3T      030BR PHARMA   ON      NM030R$  000000000050300000000005040000000000503000000000050300000000005040000000000000000000000000000002000000000000001000000000000000503400000000000000009999123100000010000000000000BRBPHAACNOR6105
012017090402BRAP3       010BRADESPAR   ON      N1   R$  000000000235000000000023740000000002340000000000235400000000023610000000002360000000000236400323000000000000114300000000000269078900000000000000009999123100000010000000000000BRBRAPACNOR5131
012017090496BRAP3F      020BRADESPAR   ON      N1   R$  000000000233000000000023660000000002252000000000234700000000023030000000002361000000000236600007000000000000000179000000000000420124000000000000009999123100000010000000000000BRBRAPACNOR5131
012017090462BRAP3T      030BRADESPAR   ON      N1091R$  000000000239500000000023960000000002395000000000239500000000023960000000000000000000000000000002000000000000069000000000000165301161000000000000009999123100000010000000000000BRBRAPACNOR5131
012017090402BRAP4       010BRADESPAR   PN      N1   R$  000000000273800000000027770000000002715000000000275900000000027750000000002766000000000277505026000000000001099000000000003033110500000000000000009999123100000010000000000000BRBRAPACNPR2131
012017090496BRAP4F      020BRADESPAR   PN      N1   R$  000000000274300000000027650000000002726000000000275000000000027500000000002750000000000276300056000000000000001490000000000004098574000000000000009999123100000010000000000000BRBRAPACNPR2131
012017090414BRAX11      010ISHARES BRAXCI           R$  000000000595800000000059580000000005885000000000589100000000059010000000000000000000000000000009000000000000000440000000000002592360000000000000009999123100000010000000000000BRBRAXCTF002100
012017090412BRCR11      010FII BC FUND CI           R$  000000000928800000000093870000000009203000000000931400000000093870000000009380000000000938701194000000000000039969000000000372302596000000000000009999123100000010000000000000BRBRCRCTF000180
012017090402BRFS3       010BRF SA      ON      NM   R$  000000000438000000000044400000000004341000000000439300000000044390000000004436000000000443908558000000000002358200000000010360826700000000000000009999123100000010000000000000BRBRFSACNOR8117
012017090496BRFS3F      020BRF SA      ON      NM   R$  000000000437000000000044710000000004350000000000440400000000044710000000004424000000000447100252000000000000006509000000000028674992000000000000009999123100000010000000000000BRBRFSACNOR8117
012017090462BRFS3T      030BRF SA      ON      NM030R$  000000000443300000000044340000000004428000000000443000000000044290000000000000000000000000000006000000000000000500000000000002215097000000000000009999123100000010000000000000BRBRFSACNOR8117
012017090462BRFS3T      030BRF SA      ON      NM045R$  000000000447000000000044710000000004470000000000447000000000044710000000000000000000000000000002000000000000001000000000000004470010000000000000009999123100000010000000000000BRBRFSACNOR8117
012017090462BRFS3T      030BRF SA      ON      NM060R$  000000000441600000000045070000000004416000000000445000000000045070000000000000000000000000000004000000000000001600000000000007120531000000000000009999123100000010000000000000BRBRFSACNOR8117
012017090478BRFSA72     070BRFSE       ON      NM000R$  000000000037800000000003780000000000378000000000037800000000003780000000000378000000000000000003000000000000038000000000000014364000000000000422502018011500000010000000000000BRBRFSACNOR8117
012017090478BRFSI10     070BRFS        ON      NM000R$  000000000028000000000003500000000000280000000000030300000000003500000000000001000000000000000016000000000000005900000000000001789500000000000409502017091800000010000000000000BRBRFSACNOR8117
012017090478BRFSI12     070BRFS  FM    ON      NM000R$  000000000012500000000001260000000000125000000000012500000000001260000000000000000000000038000002000000000000750000000000000093982500000000000429502017091800000010000000000000BRBRFSACNOR8117
012017090478BRFSI13     070BRFS  FM    ON      NM000R$  000000000007800000000001000000000000078000000000008900000000000930000000000000000000000010200051000000000000037200000000000003317300000000000439502017091800000010000000000000BRBRFSACNOR8117
012017090478BRFSI14     070BRFS  FM    ON      NM000R$  000000000004000000000000470000000000040000000000004200000000000470000000000000000000000005600005000000000000004600000000000000195000000000000449502017091800000010000000000000BRBRFSACNOR8117
012017090478BRFSI25     070BRFS        ON      NM000R$  000000000003700000000000370000000000037000000000003700000000000370000000000000000000000000000001000000000000001000000000000000037000000000000454502017091800000010000000000000BRBRFSACNOR8117
012017090478BRFSI26     070BRFS        ON      NM000R$  000000000001500000000000150000000000015000000000001500000000000150000000000000000000000000000002000000000000650000000000000009750000000000000464502017091800000010000000000000BRBRFSACNOR8117
012017090478BRFSI41     070BRFS        ON      NM000R$  000000000029900000000003050000000000299000000000030300000000003050000000000000000000000000000002000000000000000600000000000000181800000000000414502017091800000010000000000000BRBRFSACNOR8117
012017090478BRFSI43     070BRFS        ON      NM000R$  000000000011300000000001130000000000113000000000011300000000001130000000000050000000000000000001000000000000000100000000000000011300000000000434502017091800000010000000000000BRBRFSACNOR8117
012017090478BRFSI44     070BRFS        ON      NM000R$  000000000005500000000000720000000000045000000000005900000000000640000000000020000000000000000010000000000000011400000000000000682700000000000444502017091800000010000000000000BRBRFSACNOR8117
012017090478BRFSI6      070BRFS  FM    ON      NM000R$  000000000002000000000000200000000000020000000000002000000000000200000000000000000000000000000001000000000000000400000000000000008000000000000459502017091800000010000000000000BRBRFSACNOR8116
012017090478BRFSI71     070BRFS  FM    ON      NM000R$  000000000021300000000002550000000000199000000000022300000000002550000000000001000000000000000012000000000000017700000000000003951700000000000419502017091800000010000000000000BRBRFSACNOR8117
012017090478BRFSI77     070BRFS        ON      NM000R$  000000000000500000000000060000000000005000000000000500000000000060000000000000000000000000000004000000000000650000000000000003477400000000000474502017091800000010000000000000BRBRFSACNOR8117
012017090478BRFSJ13     070BRFS        ON      NM000R$  000000000018100000000002040000000000181000000000019900000000002000000000000000000000000000000009000000000000002800000000000000559200000000000435002017101600000010000000000000BRBRFSACNOR8117
012017090478BRFSJ42     070BRFS  FM    ON      NM000R$  000000000028900000000002890000000000289000000000028900000000002890000000000287000000000000000001000000000000002400000000000000693600000000000420002017101600000010000000000000BRBRFSACNOR8117
012017090478BRFSJ43     070BRFS  FM    ON      NM000R$  000000000020200000000002020000000000202000000000020200000000002020000000000000000000000000000001000000000000000500000000000000101000000000000430002017101600000010000000000000BRBRFSACNOR8117
012017090478BRFSJ45     070BRFS  FM    ON      NM000R$  000000000010600000000001210000000000095000000000009600000000001210000000000000000000000000000008000000000000202300000000000019436400000000000450002017101600000010000000000000BRBRFSACNOR8117
012017090478BRFSJ55     070BRFS        ON      NM000R$  000000000010500000000001050000000000105000000000010500000000001050000000000000000000000000000001000000000000002500000000000000262500000000000455002017101600000010000000000000BRBRFSACNOR8117
012017090478BRFSK11     070BRFSE       ON      NM000R$  000000000036300000000003630000000000363000000000036300000000003630000000000000000000000000000001000000000000000300000000000000108900000000000419502017112100000010000000000000BRBRFSACNOR8117
012017090478BRFSL15     070BRFS        ON      NM000R$  000000000017000000000001700000000000170000000000017000000000001700000000000000000000000000000001000000000000005000000000000000850000000000000455002017121800000010000000000000BRBRFSACNOR8117
012017090478BRFSL41     070BRFS        ON      NM000R$  000000000044000000000004900000000000440000000000046600000000004800000000000000000000000000000004000000000000001500000000000000700000000000000410002017121800000010000000000000BRBRFSACNOR8117
012017090478BRFSL42     070BRFS        ON      NM000R$  000000000041500000000004150000000000415000000000041500000000004150000000000000000000000000000001000000000000000400000000000000166000000000000420002017121800000010000000000000BRBRFSACNOR8117
012017090478BRFSL43     070BRFS        ON      NM000R$  000000000031000000000003100000000000310000000000031000000000003100000000000000000000000000000001000000000000005000000000000001550000000000000430002017121800000010000000000000BRBRFSACNOR8117
012017090482BRFSU41     080BRFSE       ON      NM000R$  000000000001400000000000140000000000014000000000001400000000000140000000000005000000000000000001000000000000002400000000000000033600000000000414502017091800000010000000000000BRBRFSACNOR8117
012017090482BRFSU43     080BRFSE       ON      NM000R$  000000000005500000000000550000000000038000000000004500000000000400000000000028000000000000000003000000000000002500000000000000113000000000000434502017091800000010000000000000BRBRFSACNOR8117
012017090482BRFSU71     080BRFSE FM    ON      NM000R$  000000000003100000000000310000000000022000000000002800000000000230000000000000000000000000000025000000000000043600000000000001225000000000000419502017091800000010000000000000BRBRFSACNOR8117
012017090482BRFSU86     080BRFSE       ON      NM000R$  000000000000700000000000070000000000007000000000000700000000000070000000000000000000000000700001000000000000015000000000000000105000000000000369502017091800000010000000000000BRBRFSACNOR8117
012017090482BRFSV13     080BRFSE       ON      NM000R$  000000000009600000000000960000000000096000000000009600000000000960000000000000000000000000000001000000000000001500000000000000144000000000000435002017101600000010000000000000BRBRFSACNOR8117
012017090482BRFSV42     080BRFSE FM    ON      NM000R$  000000000007000000000000710000000000054000000000006100000000000540000000000020000000000000000006000000000000012300000000000000755100000000000420002017101600000010000000000000BRBRFSACNOR8117
012017090482BRFSW41     080BRFSE       ON      NM000R$  000000000009000000000001050000000000088000000000008800000000000880000000000000000000000000000005000000000000006200000000000000551500000000000412002017112100000010000000000000BRBRFSACNOR8117
012017090482BRFSX68     080BRFSE       ON      NM000R$  000000000008000000000000800000000000080000000000008000000000000800000000000000000000000000000001000000000000005000000000000000400000000000000385002017121800000010000000000000BRBRFSACNOR8117
012017090402BRGE12      010ALFA CONSORCPNF          R$  000000000030400000000003040000000000304000000000030400000000003040000000000290000000000030400002000000000000000200000000000000060800000000000000009999123100000010000000000000BRBRGEACNPF8094
012017090402BRGE3       010ALFA CONSORCON           R$  000000000040000000000004000000000000400000000000040000000000004000000000000400000000000044900003000000000000000900000000000000360000000000000000009999123100000010000000000000BRBRGEACNOR6200
012017090402BRGE8       010ALFA CONSORCPND          R$  000000000030200000000003020000000000302000000000030200000000003020000000000302000000000000000002000000000000000300000000000000090600000000000000009999123100000010000000000000BRBRGEACNPD3208
012017090496BRGE8F      020ALFA CONSORCPND          R$  000000000029100000000002910000000000291000000000029100000000002910000000000269000000000000000002000000000000000020000000000000005820000000000000009999123100000010000000000000BRBRGEACNPD3208
012017090402BRIN3       010BR INSURANCEON      NM   R$  000000000165800000000017040000000001658000000000168400000000017040000000001677000000000170500143000000000000069400000000000116903200000000000000009999123100000010000000000000BRBRINACNOR3111
012017090496BRIN3F      020BR INSURANCEON      NM   R$  000000000167000000000016800000000001670000000000167900000000016800000000001675000000000171900002000000000000000031000000000000052050000000000000009999123100000010000000000000BRBRINACNOR3111
012017090462BRIN3T      030BR INSURANCEON      NM016R$  000000000167600000000017110000000001676000000000169600000000017110000000000000000000000000000008000000000000030600000000000051918174000000000000009999123100000010000000000000BRBRINACNOR3111
012017090462BRIN3T      030BR INSURANCEON      NM030R$  000000000168100000000016990000000001681000000000169100000000016990000000000000000000000000000006000000000000009300000000000015728864000000000000009999123100000010000000000000BRBRINACNOR3111
012017090462BRIN3T      030BR INSURANCEON      NM045R$  000000000168700000000016880000000001687000000000168700000000016880000000000000000000000000000002000000000000005500000000000009278639000000000000009999123100000010000000000000BRBRINACNOR3111
012017090462BRIN3T      030BR INSURANCEON      NM060R$  000000000169200000000016930000000001692000000000169200000000016930000000000000000000000000000002000000000000004000000000000006770132000000000000009999123100000010000000000000BRBRINACNOR3111
012017090402BRIV3       010ALFA INVEST ON           R$  000000000045600000000004750000000000450000000000045700000000004550000000000455000000000049100010000000000000007000000000000003199000000000000000009999123100000010000000000000BRBRIVACNOR6205
012017090402BRIV4       010ALFA INVEST PN           R$  000000000079000000000007900000000000790000000000079000000000007900000000000631000000000075900002000000000000000700000000000000553000000000000000009999123100000010000000000000BRBRIVACNPR3205
012017090402BRKM3       010BRASKEM     ON      N1   R$  000000000372000000000037200000000003719000000000371900000000037200000000003680000000000377600004000000000000002700000000000010042000000000000000009999123100000010000000000000BRBRKMACNOR1114
012017090496BRKM3F      020BRASKEM     ON      N1   R$  000000000368000000000036800000000003680000000000368000000000036800000000003670000000000378900001000000000000000027000000000000099360000000000000009999123100000010000000000000BRBRKMACNOR1114
012017090402BRKM5       010BRASKEM     PNA     N1   R$  000000000385200000000039470000000003842000000000389400000000038990000000003899000000000390104450000000000001036300000000004036359300000000000000009999123100000010000000000000BRBRKMACNPA4114
012017090496BRKM5F      020BRASKEM     PNA     N1   R$  000000000384000000000039400000000003840000000000389500000000039020000000003902000000000393300074000000000000001577000000000006142799000000000000009999123100000010000000000000BRBRKMACNPA4114
012017090462BRKM5T      030BRASKEM     PNA     N1030R$  000000000392600000000039270000000003926000000000392600000000039270000000000000000000000000000002000000000000002000000000000007853040000000000000009999123100000010000000000000BRBRKMACNPA4114
012017090462BRKM5T      030BRASKEM     PNA     N1060R$  000000000395300000000039810000000003953000000000397900000000039810000000000000000000000000000004000000000000020200000000000080394824000000000000009999123100000010000000000000BRBRKMACNPA4114
012017090478BRKMI7      070BRKM  FM    PNA     N1000R$  000000000014400000000001680000000000144000000000015600000000001680000000000130000000000000000002000000000000001000000000000000156000000000000377402017091800000010000000000000BRBRKMACNPA4114
012017090478BRKMI8      070BRKM  FM    PNA     N1000R$  000000000011400000000001140000000000114000000000011400000000001140000000000000000000000000000011000000000000001100000000000000125400000000000387402017091800000010000000000000BRBRKMACNPA4114
012017090478BRKMI9      070BRKM  FM    PNA     N1000R$  000000000006000000000000630000000000060000000000006100000000000630000000000000000000000000000005000000000000003700000000000000226800000000000397402017091800000010000000000000BRBRKMACNPA4114
012017090478BRKMJ40     070BRKM  FM    PNA     N1000R$  000000000012500000000001290000000000125000000000012500000000001290000000000000000000000000000005000000000000004500000000000000564500000000000400002017101600000010000000000000BRBRKMACNPA4114
012017090482BRKMU6      080BRKME FM    PNA     N1000R$  000000000001800000000000180000000000018000000000001800000000000180000000000000000000000000000002000000000000002700000000000000048600000000000367402017091800000010000000000000BRBRKMACNPA4114
012017090482BRKMU7      080BRKME FM    PNA     N1000R$  000000000004400000000000440000000000044000000000004400000000000440000000000000000000000000000001000000000000001500000000000000066000000000000377402017091800000010000000000000BRBRKMACNPA4114
012017090402BRML3       010BR MALLS PARON      NM   R$  000000000134000000000013420000000001322000000000132900000000013310000000001330000000000133109096000000000002835800000000003771279800000000000000009999123100000010000000000000BRBRMLACNOR9110
012017090496BRML3F      020BR MALLS PARON      NM   R$  000000000134600000000013480000000001270000000000131500000000013220000000001322000000000133700132000000000000003702000000000004871672000000000000009999123100000010000000000000BRBRMLACNOR9110
012017090478BRMLI13     070BRML  FM    ON      NM000R$  000000000004400000000000440000000000035000000000003500000000000360000000000001000000000005800039000000000000012700000000000000456600000000000131802017091800000010000000000000BRBRMLACNOR9110
012017090478BRMLI14     070BRML  FM    ON      NM000R$  000000000000900000000000090000000000009000000000000900000000000090000000000000000000000000000001000000000000008200000000000000073800000000000141802017091800000010000000000000BRBRMLACNOR9110
012017090478BRMLI42     070BRML  FM    ON      NM000R$  000000000007100000000000820000000000071000000000007600000000000720000000000000000000000000000003000000000000008100000000000000615600000000000126802017091800000010000000000000BRBRMLACNOR9110
012017090478BRMLI63     070BRMLE       ON      NM000R$  000000000002500000000000250000000000025000000000002500000000000250000000000000000000000000000001000000000000000500000000000000012500000000000134302017091800000010000000000000BRBRMLACNOR9110
012017090478BRMLJ13     070BRML  FM    ON      NM000R$  000000000007200000000000770000000000072000000000007400000000000770000000000000000000000000000002000000000000000200000000000000014900000000000130002017101600000010000000000000BRBRMLACNOR9110
012017090478BRMLJ14     070BRML  FM    ON      NM000R$  000000000004500000000000450000000000030000000000003100000000000300000000000000000000000000000002000000000000005100000000000000162000000000000140002017101600000010000000000000BRBRMLACNOR9110
012017090478BRMLJ43     070BRML  FM    ON      NM000R$  000000000004800000000000480000000000047000000000004700000000000470000000000047000000000000000012000000000000050000000000000002380000000000000135002017101600000010000000000000BRBRMLACNOR9110
012017090482BRMLU13     080BRMLE FM    ON      NM000R$  000000000002200000000000220000000000021000000000002100000000000210000000000000000000000002600009000000000000051000000000000001092000000000000131802017091800000010000000000000BRBRMLACNOR9110
012017090482BRMLU14     080BRMLE FM    ON      NM000R$  000000000008300000000000920000000000083000000000008700000000000920000000000000000000000000000002000000000000007200000000000000630000000000000141802017091800000010000000000000BRBRMLACNOR9110
012017090482BRMLV13     080BRMLE FM    ON      NM000R$  000000000003300000000000330000000000033000000000003300000000000330000000000000000000000000000001000000000000000200000000000000006600000000000130002017101600000010000000000000BRBRMLACNOR9110
012017090482BRMLV14     080BRMLE FM    ON      NM000R$  000000000009000000000000900000000000090000000000009000000000000900000000000000000000000000000001000000000000003600000000000000324000000000000140002017101600000010000000000000BRBRMLACNOR9110
012017090482BRMLV43     080BRMLE FM    ON      NM000R$  000000000005900000000000590000000000059000000000005900000000000590000000000000000000000000000001000000000000003600000000000000212400000000000135002017101600000010000000000000BRBRMLACNOR9110
012017090402BRPR3       010BR PROPERT  ON      NM   R$  000000000109700000000010980000000001065000000000107800000000010900000000001090000000000109201712000000000000721700000000000778659700000000000000009999123100000010000000000000BRBRPRACNOR9117
012017090496BRPR3F      020BR PROPERT  ON      NM   R$  000000000105300000000010990000000001053000000000106500000000010530000000001053000000000110100022000000000000000446000000000000475326000000000000009999123100000010000000000000BRBRPRACNOR9117
012017090496BRSR3F      020BANRISUL    ON      N1   R$  000000000200000000000020000000000002000000000000200000000000020000000000002000000000000229800001000000000000000025000000000000050000000000000000009999123100000010000000000000BRBRSRACNOR3150
012017090402BRSR6       010BANRISUL    PNB     N1   R$  000000000171400000000017640000000001703000000000174000000000017540000000001753000000000175402050000000000000579500000000001008610500000000000000009999123100000010000000000000BRBRSRACNPB4153
012017090496BRSR6F      020BANRISUL    PNB     N1   R$  000000000172000000000017630000000001701000000000173600000000017510000000001750000000000176100088000000000000002601000000000004515572000000000000009999123100000010000000000000BRBRSRACNPB4153
012017090402BSEV3       010BIOSEV      ON      NM   R$  000000000051700000000005370000000000508000000000051600000000005190000000000515000000000051900065000000000000043200000000000022316100000000000000009999123100000010000000000000BRBSEVACNOR3101
012017090496BSEV3F      020BIOSEV      ON      NM   R$  000000000051500000000005150000000000515000000000051500000000005150000000000511000000000053300001000000000000000050000000000000025750000000000000009999123100000010000000000000BRBSEVACNOR3101
012017090462BSEV3T      030BIOSEV      ON      NM030R$  000000000052100000000005220000000000521000000000052100000000005220000000000000000000000000000002000000000000009000000000000004693702000000000000009999123100000010000000000000BRBSEVACNOR3101
012017090496BSLI4F      020BRB BANCO   PN           R$  000000000300000000000030000000000003000000000000300000000000030000000000002700000000000000000001000000000000000010000000000000030000000000000000009999123100000010000000000000BRBSLIACNPR2162
012017090402BTOW3       010B2W DIGITAL ON      NM   R$  000000000185200000000018900000000001822000000000187100000000018850000000001882000000000188504140000000000001522600000000002849228400000000000000009999123100000010000000000000BRBTOWACNOR8109
012017090496BTOW3F      020B2W DIGITAL ON      NM   R$  000000000185000000000018900000000001762000000000186200000000018900000000001881000000000189000040000000000000001340000000000002495698000000000000009999123100000010000000000000BRBTOWACNOR8109
012017090402BTTL4       010BATTISTELLA PN           R$  000000000122400000000012250000000001224000000000122400000000012250000000001100000000000122500002000000000000003200000000000003919900000000000000009999123100000010000000000000BRBTTLACNPR7107
012017090402BVMF3       010BMFBOVESPA  ON      NM   R$  000000000224000000000022620000000002236000000000225000000000022550000000002250000000000225508949000000000002481700000000005586286400000000000000009999123100000010000000000000BRBVMFACNOR3142
012017090496BVMF3F      020BMFBOVESPA  ON      NM   R$  000000000224100000000022610000000002238000000000224700000000022520000000002252000000000226500191000000000000006534000000000014687989000000000000009999123100000010000000000000BRBVMFACNOR3142
012017090462BVMF3T      030BMFBOVESPA  ON      NM030R$  000000000226000000000022610000000002260000000000226000000000022610000000000000000000000000000002000000000000003000000000000006780798000000000000009999123100000010000000000000BRBVMFACNOR3142
012017090478BVMFI10     070BVMFE       ON      NM000R$  000000000026500000000002750000000000263000000000027200000000002750000000000000000000000000000004000000000000196800000000000053714400000000000199102017091800000010000000000000BRBVMFACNOR3140
012017090478BVMFI20     070BVMF        ON      NM000R$  000000000023500000000002350000000000235000000000023500000000002350000000000001000000000000000001000000000000000100000000000000023500000000000201602017091800000010000000000000BRBVMFACNOR3141
012017090478BVMFI21     070BVMF        ON      NM000R$  000000000019800000000001980000000000195000000000019600000000001950000000000000000000000000000002000000000000002500000000000000490500000000000206602017091800000010000000000000BRBVMFACNOR3138
012017090478BVMFI22     070BVMF        ON      NM000R$  000000000005900000000000590000000000055000000000005600000000000550000000000048000000000006300005000000000000001300000000000000072900000000000221602017091800000010000000000000BRBVMFACNOR3141
012017090478BVMFI23     070BVMF        ON      NM000R$  000000000001400000000000160000000000012000000000001400000000000130000000000013000000000001900031000000000000045100000000000000664200000000000231602017091800000010000000000000BRBVMFACNOR3141
012017090478BVMFI51     070BVMF  FM    ON      NM000R$  000000000009500000000001040000000000095000000000009900000000000980000000000078000000000010300038000000000000151100000000000014981300000000000216602017091800000010000000000000BRBVMFACNOR3141
012017090478BVMFI52     070BVMF  FM    ON      NM000R$  000000000003000000000000330000000000028000000000002900000000000280000000000000000000000008400054000000000000109100000000000003231900000000000226602017091800000010000000000000BRBVMFACNOR3141
012017090478BVMFI53     070BVMF  FM    ON      NM000R$  000000000000400000000000050000000000004000000000000400000000000040000000000000000000000000600004000000000000007100000000000000033400000000000236602017091800000010000000000000BRBVMFACNOR3141
012017090478BVMFI82     070BVMFE       ON      NM000R$  000000000002000000000000220000000000020000000000002000000000000220000000000001000000000002300003000000000000003500000000000000072000000000000229102017091800000010000000000000BRBVMFACNOR3141
012017090478BVMFJ22     070BVMF        ON      NM000R$  000000000007500000000000750000000000075000000000007500000000000750000000000000000000000000000001000000000000000500000000000000037500000000000224102017101600000010000000000000BRBVMFACNOR3141
012017090478BVMFJ23     070BVMF        ON      NM000R$  000000000003300000000000330000000000033000000000003300000000000330000000000015000000000005900001000000000000000900000000000000029700000000000234102017101600000010000000000000BRBVMFACNOR3141
012017090478BVMFJ50     070BVMF  FM    ON      NM000R$  000000000018700000000001950000000000185000000000018800000000001900000000000000000000000000000011000000000000055000000000000010375000000000000209102017101600000010000000000000BRBVMFACNOR3141
012017090478BVMFJ51     070BVMF  FM    ON      NM000R$  000000000010900000000001140000000000108000000000010900000000001100000000000000000000000000000012000000000000036700000000000004030300000000000219102017101600000010000000000000BRBVMFACNOR3141
012017090478BVMFJ52     070BVMF  FM    ON      NM000R$  000000000005400000000000590000000000054000000000005500000000000550000000000000000000000000000011000000000000026500000000000001482400000000000229102017101600000010000000000000BRBVMFACNOR3141
012017090478BVMFJ60     070BVMFE       ON      NM000R$  000000000025200000000002600000000000252000000000025600000000002600000000000000000000000000000002000000000000005000000000000001284000000000000201602017101600000010000000000000BRBVMFACNOR3142
012017090478BVMFK22     070BVMF        ON      NM000R$  000000000014400000000001450000000000144000000000014400000000001450000000000000000000000000000002000000000000191800000000000027659800000000000219702017112100000010000000000000BRBVMFACNOR3141
012017090478BVMFK49     070BVMF        ON      NM000R$  000000000033600000000003360000000000329000000000033400000000003360000000000000000000000034600008000000000000001100000000000000367500000000000194702017112100000010000000000000BRBVMFACNOR3141
