00COTAHIST.2017BOVESPA 20170901                                                                                                                                                                                                                      
012017090102AALR3       010ALLIAR      ON      NM   R$  000000000165800000000016620000000001633000000000164200000000016330000000001632000000000163500778000000000000142200000000000233536600000000000000009999123100000010000000000000BRAALRACNOR6100
012017090196AALR3F      020ALLIAR      ON      NM   R$  000000000160000000000016440000000001600000000000163100000000016440000000001601000000000169300011000000000000000367000000000000598658000000000000009999123100000010000000000000BRAALRACNOR6100
012017090102AAPL34      010APPLE       DRN          R$  000000000516300000000051690000000005135000000000516100000000051350000000005135000000000521100004000000000000001500000000000007741700000000000000009999123100000010000000000000BRAAPLBDR004122
012017090196AAPL34F     020APPLE       DRN          R$  000000000590000000000059000000000004004000000000587900000000040040000000004004000000000590000004000000000000000091000000000000535004000000000000009999123100000010000000000000BRAAPLBDR004122
012017090110ABCB10      010ABC BRASIL  PN  REC N2   R$  000000000172000000000017460000000001720000000000173300000000017450000000001730000000000175100005000000000000000500000000000000866700000000000000009999123100000010000000000000BRABCBR12PR6127
012017090196ABCB10F     020ABC BRASIL  PN  REC N2   R$  000000000172000000000017300000000001720000000000172100000000017200000000001720000000000175400009000000000000000083000000000000142845000000000000009999123100000010000000000000BRABCBR12PR6127
012017090102ABCB4       010ABC BRASIL  PN      N2   R$  000000000171200000000017550000000001712000000000174300000000017500000000001737000000000175001878000000000000306400000000000534094600000000000000009999123100000010000000000000BRABCBACNPR4128
012017090196ABCB4F      020ABC BRASIL  PN      N2   R$  000000000170400000000017520000000001704000000000174000000000017430000000001742000000000175200038000000000000000577000000000001004380000000000000009999123100000010000000000000BRABCBACNPR4128
012017090112ABCP11      010FII ABC IMOBCI  ER       R$  000000000167000000000017390000000001670000000000169500000000016900000000001690000000000173900017000000000000000416000000000000705265000000000000009999123100000010000000000000BRABCPCTF000263
012017090102ABEV3       010AMBEV S/A   ON           R$  000000000199300000000019960000000001976000000000198400000000019760000000001976000000000197717858000000000017630300000000034982832700000000000000009999123100000010000000000000BRABEVACNOR1117
012017090196ABEV3F      020AMBEV S/A   ON           R$  000000000198900000000019960000000001960000000000198600000000019890000000001983000000000198900513000000000000009758000000000019381661000000000000009999123100000010000000000000BRABEVACNOR1117
012017090162ABEV3T      030AMBEV S/A   ON        017R$  000000000199900000000020000000000001996000000000199600000000019970000000000000000000000000000004000000000000031000000000000061884788000000000000009999123100000010000000000000BRABEVACNOR1117
012017090162ABEV3T      030AMBEV S/A   ON        180R$  000000000206600000000020670000000002066000000000206600000000020670000000000000000000000000000002000000000000000145000000000000299573000000000000009999123100000010000000000000BRABEVACNOR1117
012017090178ABEVH62     070ABEVE       ON        000R$  000000000007000000000000700000000000070000000000007000000000000700000000000000000000000000000001000000000000005500000000000000385000000000000220902018082000000010000000000000BRABEVACNOR1117
012017090178ABEVI1      070ABEV  FM    ON        000R$  000000000006600000000000670000000000063000000000006400000000000630000000000000000000000000000008000000000000070100000000000004516700000000000192902017091800000010000000000000BRABEVACNOR1113
012017090178ABEVI2      070ABEV        ON        000R$  000000000011300000000001130000000000113000000000011300000000001130000000000000000000000000000001000000000000001400000000000000158200000000000187902017091800000010000000000000BRABEVACNOR1113
012017090178ABEVI20     070ABEV        ON        000R$  000000000001000000000000110000000000009000000000000900000000000090000000000009000000000001200013000000000000034700000000000000340600000000000202902017091800000010000000000000BRABEVACNOR1116
012017090178ABEVI49     070ABEV  FM    ON        000R$  000000000003300000000000330000000000030000000000003100000000000300000000000010000000000002800003000000000000004600000000000000145800000000000197902017091800000010000000000000BRABEVACNOR1116
012017090178ABEVI50     070ABEV  FM    ON        000R$  000000000000100000000000030000000000001000000000000200000000000030000000000001000000000000700002000000000000003200000000000000009200000000000207902017091800000010000000000000BRABEVACNOR1116
012017090178ABEVI73     070ABEVE       ON        000R$  000000000000300000000000030000000000003000000000000300000000000030000000000000000000000000000001000000000000072000000000000000216000000000000230402017091800000010000000000000BRABEVACNOR1113
012017090178ABEVI86     070ABEVE       ON        000R$  000000000039600000000003960000000000396000000000039600000000003960000000000000000000000000000001000000000000072000000000000028512000000000000160402017091800000010000000000000BRABEVACNOR1113
012017090178ABEVI90     070ABEVE       ON        000R$  000000000001800000000000180000000000018000000000001800000000000180000000000001000000000000000001000000000000000100000000000000001800000000000200402017091800000010000000000000BRABEVACNOR1117
012017090178ABEVJ20     070ABEV  FM    ON        000R$  000000000003900000000000390000000000039000000000003900000000000390000000000000000000000000000001000000000000003000000000000000117000000000000200502017101600000010000000000000BRABEVACNOR1117
012017090178ABEVJ4      070ABEV  FM    ON        000R$  000000000007100000000000730000000000071000000000007200000000000730000000000000000000000000000002000000000000000200000000000000014400000000000195502017101600000010000000000000BRABEVACNOR1113
012017090178ABEVJ51     070ABEV  FM    ON        000R$  000000000000300000000000050000000000003000000000000400000000000050000000000001000000000000600004000000000000013700000000000000061800000000000215502017101600000010000000000000BRABEVACNOR1116
012017090178ABEVJ66     070ABEVE       ON        000R$  000000000042900000000004290000000000424000000000042700000000004240000000000000000000000000000004000000000000099300000000000042428700000000000158002017101600000010000000000000BRABEVACNOR1114
012017090178ABEVJ70     070ABEVE       ON        000R$  000000000003000000000000300000000000030000000000003000000000000300000000000000000000000005200001000000000000010000000000000000300000000000000203002017101600000010000000000000BRABEVACNOR1117
012017090178ABEVJ76     070ABEVE       ON        000R$  000000000000300000000000030000000000003000000000000300000000000030000000000000000000000000000004000000000000099300000000000000297900000000000258002017101600000010000000000000BRABEVACNOR1110
012017090178ABEVJ89     070ABEVE       ON        000R$  000000000005200000000000520000000000052000000000005200000000000520000000000000000000000000000001000000000000004000000000000000208000000000000198002017101600000010000000000000BRABEVACNOR1117
012017090178ABEVL11     070ABEVE       ON        000R$  000000000009700000000000970000000000097000000000009700000000000970000000000000000000000000000001000000000000000100000000000000009700000000000195402017121800000010000000000000BRABEVACNOR1114
012017090178ABEVL50     070ABEV        ON        000R$  000000000003300000000000330000000000033000000000003300000000000330000000000000000000000000000001000000000000008000000000000000264000000000000207902017121800000010000000000000BRABEVACNOR1117
012017090178ABEVL52     070ABEV        ON        000R$  000000000001200000000000120000000000012000000000001200000000000120000000000000000000000000000001000000000000008000000000000000096000000000000227902017121800000010000000000000BRABEVACNOR1117
012017090178ABEVL60     070ABEVE       ON        000R$  000000000008600000000000860000000000075000000000008500000000000750000000000000000000000000000002000000000002008000000000000172600000000000000200402017121800000010000000000000BRABEVACNOR1115
012017090178ABEVL69     070ABEVE       ON        000R$  000000000014500000000001450000000000145000000000014500000000001450000000000000000000000000000001000000000000008000000000000001160000000000000190402017121800000010000000000000BRABEVACNOR1113
012017090178ABEVL70     070ABEVE       ON        000R$  000000000005100000000000510000000000050000000000005000000000000500000000000000000000000000000002000000000000023000000000000001158000000000000205402017121800000010000000000000BRABEVACNOR1114
012017090178ABEVL79     070ABEVE       ON        000R$  000000000018000000000001800000000000180000000000018000000000001800000000000000000000000019500001000000000000008000000000000001440000000000000185402017121800000010000000000000BRABEVACNOR1113
012017090178ABEVL9      070ABEV        ON        000R$  000000000021000000000002100000000000203000000000020700000000002030000000000201000000000000000006000000000000006000000000000001245000000000000182902017121800000010000000000000BRABEVACNOR1112
012017090182ABEVT47     080ABEVE       ON        000R$  000000000001300000000000130000000000013000000000001300000000000130000000000000000000000000000002000000000000005500000000000000071500000000000178402018082000000010000000000000BRABEVACNOR1117
012017090182ABEVT49     080ABEVE       ON        000R$  000000000008300000000000830000000000083000000000008300000000000830000000000000000000000000000002000000000000005500000000000000456500000000000198402018082000000010000000000000BRABEVACNOR1117
012017090182ABEVU1      080ABEVE FM    ON        000R$  000000000000600000000000060000000000006000000000000600000000000060000000000000000000000000000003000000000000030000000000000000180000000000000192902017091800000010000000000000BRABEVACNOR1113
012017090182ABEVU49     080ABEVE FM    ON        000R$  000000000002000000000000210000000000016000000000001900000000000160000000000000000000000002100004000000000000022800000000000000437600000000000197902017091800000010000000000000BRABEVACNOR1116
012017090182ABEVU50     080ABEVE FM    ON        000R$  000000000008100000000000930000000000080000000000008900000000000870000000000000000000000000000011000000000000029000000000000002583000000000000207902017091800000010000000000000BRABEVACNOR1116
012017090182ABEVU73     080ABEVE       ON        000R$  000000000030600000000003060000000000306000000000030600000000003060000000000000000000000000000001000000000000072000000000000022032000000000000230402017091800000010000000000000BRABEVACNOR1113
012017090182ABEVU86     080ABEVE       ON        000R$  000000000000300000000000030000000000003000000000000300000000000030000000000000000000000000000001000000000000072000000000000000216000000000000160402017091800000010000000000000BRABEVACNOR1113
012017090182ABEVV1      080ABEVE FM    ON        000R$  000000000000800000000000080000000000008000000000000800000000000080000000000000000000000000000002000000000000010100000000000000080800000000000188002017101600000010000000000000BRABEVACNOR1113
012017090182ABEVV66     080ABEVE       ON        000R$  000000000000300000000000030000000000003000000000000300000000000030000000000000000000000000000004000000000000099300000000000000297900000000000158002017101600000010000000000000BRABEVACNOR1114
012017090182ABEVV76     080ABEVE       ON        000R$  000000000056600000000005710000000000566000000000056700000000005710000000000000000000000000000004000000000000099300000000000056374800000000000258002017101600000010000000000000BRABEVACNOR1110
012017090182ABEVV86     080ABEVE FM    ON        000R$  000000000001300000000000130000000000013000000000001300000000000130000000000000000000000007000001000000000000004300000000000000055900000000000193002017101600000010000000000000BRABEVACNOR1116
012017090182ABEVV89     080ABEVE FM    ON        000R$  000000000003100000000000310000000000029000000000003000000000000290000000000000000000000000000002000000000000000400000000000000012000000000000198002017101600000010000000000000BRABEVACNOR1117
012017090182ABEVX10     080ABEVE       ON        000R$  000000000000800000000000080000000000008000000000000800000000000080000000000000000000000000000001000000000000008000000000000000064000000000000160402017121800000010000000000000BRABEVACNOR1114
012017090182ABEVX78     080ABEVE       ON        000R$  000000000000300000000000030000000000003000000000000300000000000030000000000000000000000000000001000000000000008000000000000000024000000000000180402017121800000010000000000000BRABEVACNOR1116
012017090102ADHM3       010ADVANCED-DH ON           R$  000000000021900000000002240000000000215000000000021600000000002170000000000217000000000022300032000000000000024000000000000005200900000000000000009999123100000010000000000000BRADHMACNOR9101
012017090196ADHM3F      020ADVANCED-DH ON           R$  000000000022000000000002200000000000202000000000021500000000002170000000000217000000000022000006000000000000000106000000000000022890000000000000009999123100000010000000000000BRADHMACNOR9101
012017090112AEFI11      010FII AESAPAR CI  ER       R$  000000001438100000000144490000000013863000000001422400000000141610000000014161000000001430000069000000000000001396000000000019856841000000000000009999123100000010000000000000BRAEFICTF002169
012017090102AELP3       010AES ELPA    ON           R$  000000000060400000000006050000000000604000000000060400000000006050000000000595000000000060500002000000000000000200000000000000120900000000000000009999123100000010000000000000BRAELPACNOR2124
012017090196AELP3F      020AES ELPA    ON           R$  000000000059300000000005930000000000593000000000059300000000005930000000000593000000000062800003000000000000000095000000000000056335000000000000009999123100000010000000000000BRAELPACNOR2124
012017090112AGCX11      010FII AG CAIXACI  ER       R$  000000012200100000001250010000000121001000000012326600000001228010000000122801000000012450100093000000000000000275000000000033898184000000000000009999123100000010000000000000BRAGCXCTF003158
012017090102AGRO3       010BRASILAGRO  ON      NM   R$  000000000122800000000012350000000001215000000000122700000000012290000000001225000000000122900236000000000000074600000000000091544800000000000000009999123100000010000000000000BRAGROACNOR7106
012017090196AGRO3F      020BRASILAGRO  ON      NM   R$  000000000129800000000012980000000001222000000000123500000000012220000000001154000000000122600014000000000000000400000000000000494324000000000000009999123100000010000000000000BRAGROACNOR7106
012017090112ALMI11      010FII TORRE ALCI           R$  000000021989900000002199010000000212000000000021812900000002199000000000213000000000021990000016000000000000000050000000000010906491000000000000009999123100000010000000000000BRALMICTF003249
012017090102ALPA3       010ALPARGATAS  ON      N1   R$  000000000139200000000014240000000001389000000000139700000000014100000000001395000000000141000012000000000000005500000000000007684700000000000000009999123100000010000000000000BRALPAACNOR0222
012017090196ALPA3F      020ALPARGATAS  ON      N1   R$  000000000137500000000014000000000001375000000000138600000000014000000000001391000000000141500004000000000000000153000000000000212075000000000000009999123100000010000000000000BRALPAACNOR0222
012017090102ALPA4       010ALPARGATAS  PN      N1   R$  000000000138000000000014030000000001380000000000139400000000013850000000001383000000000138501842000000000000474100000000000661004700000000000000009999123100000010000000000000BRALPAACNPR7222
012017090196ALPA4F      020ALPARGATAS  PN      N1   R$  000000000138000000000014000000000001371000000000138300000000013800000000001380000000000138900012000000000000000205000000000000283647000000000000009999123100000010000000000000BRALPAACNPR7222
012017090102ALSC3       010ALIANSCE    ON      NM   R$  000000000174400000000017590000000001724000000000173800000000017410000000001741000000000174302912000000000000805700000000001400362200000000000000009999123100000010000000000000BRALSCACNOR0110
012017090196ALSC3F      020ALIANSCE    ON      NM   R$  000000000175000000000018190000000001655000000000173700000000016550000000001655000000000187900035000000000000001079000000000001875228000000000000009999123100000010000000000000BRALSCACNOR0110
012017090102ALUP11      010ALUPAR      UNT     N2   R$  000000000186800000000018800000000001848000000000186200000000018800000000001870000000000188002425000000000000793700000000001478329500000000000000009999123100000010000000000000BRALUPCDAM15106
012017090196ALUP11F     020ALUPAR      UNT     N2   R$  000000000187800000000018780000000001827000000000185700000000018270000000001827000000000189900048000000000000001415000000000002626951000000000000009999123100000010000000000000BRALUPCDAM15106
012017090102ALUP3       010ALUPAR      ON      N2   R$  000000000065800000000006580000000000650000000000065600000000006580000000000611000000000069000003000000000000001100000000000000722200000000000000009999123100000010000000000000BRALUPACNOR8106
012017090196ALUP4F      020ALUPAR      PN      N2   R$  000000000058900000000005890000000000589000000000058900000000005890000000000590000000000065000001000000000000000065000000000000038285000000000000009999123100000010000000000000BRALUPACNPR5106
012017090102AMAR3       010LOJAS MARISAON      NM   R$  000000000072500000000007580000000000722000000000074100000000007570000000000755000000000075703299000000000001312700000000000973105300000000000000009999123100000010000000000000BRAMARACNOR4112
012017090196AMAR3F      020LOJAS MARISAON      NM   R$  000000000072300000000007580000000000722000000000074000000000007420000000000742000000000075800069000000000000001672000000000001237682000000000000009999123100000010000000000000BRAMARACNOR4112
012017090162AMAR3T      030LOJAS MARISAON      NM017R$  000000000074200000000007430000000000742000000000074200000000007430000000000000000000000000000002000000000000010000000000000007422516000000000000009999123100000010000000000000BRAMARACNOR4112
012017090162AMAR3T      030LOJAS MARISAON      NM031R$  000000000072900000000007300000000000729000000000072900000000007300000000000000000000000000000002000000000000007000000000000005107987000000000000009999123100000010000000000000BRAMARACNOR4112
012017090162AMAR3T      030LOJAS MARISAON      NM060R$  000000000074700000000007480000000000746000000000074700000000007480000000000000000000000000000012000000000000003000000000000002241517000000000000009999123100000010000000000000BRAMARACNOR4112
012017090102AMGN34      010AMGEN       DRN          R$  000000005609800000000560980000000056098000000005609800000000560980000000000000000000005646900001000000000000000100000000000005609800000000000000009999123100000010000000000000BRAMGNBDR004123
012017090102ANIM3       010ANIMA       ON      NM   R$  000000000186700000000018860000000001840000000000185800000000018400000000001840000000000184300796000000000000161600000000000300274700000000000000009999123100000010000000000000BRANIMACNOR6104
012017090196ANIM3F      020ANIMA       ON      NM   R$  000000000187000000000018800000000001773000000000184700000000018570000000001833000000000189900011000000000000000414000000000000764680000000000000009999123100000010000000000000BRANIMACNOR6104
012017090102ARZZ3       010AREZZO CO   ON      NM   R$  000000000458100000000047040000000004567000000000466000000000047000000000004700000000000470601598000000000000403100000000001878533300000000000000009999123100000010000000000000BRARZZACNOR3125
012017090196ARZZ3F      020AREZZO CO   ON      NM   R$  000000000454900000000047000000000004549000000000465000000000047000000000004670000000000470000018000000000000000357000000000001660108000000000000009999123100000010000000000000BRARZZACNOR3125
012017090102ATOM3       010ATOMPAR     ON           R$  000000000028000000000002800000000000275000000000027700000000002790000000000279000000000028000027000000000000009200000000000002549200000000000000009999123100000010000000000000BRATOMACNOR1102
012017090102ATTB34      010ATT INC     DRN          R$  000000001176800000000117680000000011738000000001175300000000117380000000011738000000000000000002000000000000000200000000000002350600000000000000009999123100000010000000000000BRATTBBDR007120
012017090102AZEV4       010AZEVEDO     PN           R$  000000000011100000000001150000000000109000000000011200000000001090000000000109000000000011400009000000000000003000000000000000337600000000000000009999123100000010000000000000BRAZEVACNPR7116
012017090102AZUL4       010AZUL        PN      N2   R$  000000000265500000000026890000000002633000000000266700000000026890000000002675000000000268901261000000000000371400000000000990739200000000000000009999123100000010000000000000BRAZULACNPR4100
012017090196AZUL4F      020AZUL        PN      N2   R$  000000000263900000000026990000000002637000000000266500000000026850000000002690000000000269900008000000000000000432000000000001151362000000000000009999123100000010000000000000BRAZULACNPR4100
012017090196BAHI3F      020BAHEMA      ON           R$  000000000500000000000050000000000005000000000000500000000000050000000000005000000000000520000001000000000000000010000000000000050000000000000000009999123100000010000000000000BRBAHIACNOR1070
012017090102BAUH4       010EXCELSIOR   PN           R$  000000000143500000000014360000000001435000000000143500000000014360000000001353000000000145500004000000000000000600000000000000861100000000000000009999123100000010000000000000BRBAUHACNPR3112
012017090102BAZA3       010AMAZONIA    ON           R$  000000000270500000000027050000000002705000000000270500000000027050000000002705000000000278400001000000000000000100000000000000270500000000000000009999123100000010000000000000BRBAZAACNOR0171
012017090102BBAS3       010BRASIL      ON      NM   R$  000000000310000000000031970000000003100000000000316300000000031890000000003187000000000318922685000000000013659100000000043212672000000000000000009999123100000010000000000000BRBBASACNOR3270
012017090196BBAS3F      020BRASIL      ON      NM   R$  000000000309200000000032000000000003075000000000316000000000031760000000003176000000000318200567000000000000013772000000000043539024000000000000009999123100000010000000000000BRBBASACNOR3270
012017090162BBAS3T      030BRASIL      ON      NM017R$  000000000319300000000031940000000003131000000000314000000000031320000000000000000000000000000004000000000000005900000000000018531584000000000000009999123100000010000000000000BRBBASACNOR3270
012017090162BBAS3T      030BRASIL      ON      NM020R$  000000000314800000000031490000000003148000000000314800000000031490000000000000000000000000000002000000000000001000000000000003148534000000000000009999123100000010000000000000BRBBASACNOR3270
012017090162BBAS3T      030BRASIL      ON      NM031R$  000000000319500000000031960000000003195000000000319500000000031960000000000000000000000000000002000000000000003000000000000009587449000000000000009999123100000010000000000000BRBBASACNOR3270
012017090162BBAS3T      030BRASIL      ON      NM060R$  000000000314900000000032300000000003149000000000319500000000032300000000000000000000000000000012000000000000500600000000001599726484000000000000009999123100000010000000000000BRBBASACNOR3270
012017090178BBASI13     070BBASE       ON      NM000R$  000000000001900000000000280000000000019000000000002000000000000280000000000016000000000006900018000000000000088700000000000001839200000000000333802017091800000010000000000000BRBBASACNOR3266
012017090178BBASI30     070BBAS        ON      NM000R$  000000000016200000000002550000000000162000000000023100000000002420000000000030000000000000000017000000000000012200000000000002819400000000000296302017091800000010000000000000BRBBASACNOR3267
012017090178BBASI31     070BBAS  FM    ON      NM000R$  000000000011200000000001650000000000108000000000015000000000001560000000000075000000000018000543000000000000408100000000000061234700000000000306302017091800000010000000000000BRBBASACNOR3266
012017090178BBASI32     070BBAS  FM    ON      NM000R$  000000000005700000000000980000000000055000000000007900000000000880000000000082000000000009000333000000000000649600000000000051879900000000000316302017091800000010000000000000BRBBASACNOR3267
012017090178BBASI33     070BBAS  FM    ON      NM000R$  000000000002600000000000500000000000026000000000004100000000000450000000000045000000000004600355000000000000598600000000000024598600000000000326302017091800000010000000000000BRBBASACNOR3267
012017090178BBASI34     070BBAS  FM    ON      NM000R$  000000000001400000000000240000000000013000000000001900000000000210000000000019000000000002100112000000000000192600000000000003739400000000000336302017091800000010000000000000BRBBASACNOR3267
012017090178BBASI35     070BBAS  FM    ON      NM000R$  000000000000500000000000110000000000005000000000000900000000000100000000000007000000000001000219000000000001052900000000000009622200000000000346302017091800000010000000000000BRBBASACNOR3266
012017090178BBASI36     070BBAS        ON      NM000R$  000000000000500000000000060000000000005000000000000500000000000050000000000003000000000000500008000000000000054800000000000000284000000000000356302017091800000010000000000000BRBBASACNOR3267
012017090178BBASI4      070BBAS        ON      NM000R$  000000000002000000000000360000000000019000000000003100000000000320000000000032000000000003401042000000000000544500000000000017061500000000000331302017091800000010000000000000BRBBASACNOR3266
012017090178BBASI41     070BBAS        ON      NM000R$  000000000008000000000001310000000000080000000000012100000000001240000000000080000000000012400014000000000000010500000000000001273500000000000311302017091800000010000000000000BRBBASACNOR3269
012017090178BBASI52     070BBAS        ON      NM000R$  000000000004100000000000730000000000041000000000006100000000000690000000000045000000000006900733000000000000825400000000000050499100000000000321302017091800000010000000000000BRBBASACNOR3269
012017090178BBASI59     070BBAS        ON      NM000R$  000000000023200000000002380000000000232000000000023500000000002380000000000000000000000000000002000000000000008000000000000001880000000000000291302017091800000010000000000000BRBBASACNOR3267
012017090178BBASI6      070BBAS        ON      NM000R$  000000000001400000000000150000000000013000000000001300000000000150000000000008000000000001700151000000000000025000000000000000343000000000000341302017091800000010000000000000BRBBASACNOR3267
012017090178BBASI60     070BBAS        ON      NM000R$  000000000016000000000001980000000000160000000000016900000000001980000000000000000000000000000004000000000000015200000000000002583200000000000301302017091800000010000000000000BRBBASACNOR3268
012017090178BBASI61     070BBASE       ON      NM000R$  000000000016600000000001660000000000166000000000016600000000001660000000000000000000000000000001000000000000001000000000000000166000000000000303802017091800000010000000000000BRBBASACNOR3266
012017090178BBASI65     070BBAS        ON      NM000R$  000000000000600000000000080000000000006000000000000700000000000080000000000003000000000002000029000000000000006000000000000000042000000000000351302017091800000010000000000000BRBBASACNOR3267
012017090178BBASI8      070BBASE       ON      NM000R$  000000000039700000000003970000000000385000000000039100000000003850000000000000000000000000000002000000000000001400000000000000547400000000000278802017091800000010000000000000BRBBASACNOR3266
012017090178BBASI81     070BBASE       ON      NM000R$  000000000006200000000001090000000000062000000000009300000000001020000000000090000000000000000024000000000000018200000000000001709700000000000313802017091800000010000000000000BRBBASACNOR3268
012017090178BBASI82     070BBASE       ON      NM000R$  000000000005000000000000820000000000050000000000006700000000000820000000000022000000000008200012000000000000043200000000000002921500000000000318802017091800000010000000000000BRBBASACNOR3269
012017090178BBASI91     070BBASE       ON      NM000R$  000000000010000000000001420000000000100000000000012000000000001340000000000040000000000000000007000000000000009400000000000001134100000000000308802017091800000010000000000000BRBBASACNOR3269
012017090178BBASI92     070BBASE       ON      NM000R$  000000000003000000000000600000000000030000000000004900000000000600000000000040000000000009900029000000000000013100000000000000650600000000000323802017091800000010000000000000BRBBASACNOR3269
012017090178BBASJ1      070BBAS  FM    ON      NM000R$  000000000015100000000001660000000000151000000000015700000000001630000000000151000000000000000010000000000000012500000000000001974000000000000316302017101600000010000000000000BRBBASACNOR3269
012017090178BBASJ2      070BBAS  FM    ON      NM000R$  000000000009600000000001150000000000093000000000010100000000001140000000000000000000000000000010000000000000010300000000000001042000000000000326302017101600000010000000000000BRBBASACNOR3269
012017090178BBASJ29     070BBAS        ON      NM000R$  000000000030000000000003000000000000300000000000030000000000003000000000000000000000000034800001000000000000000100000000000000030000000000000291302017101600000010000000000000BRBBASACNOR3269
012017090178BBASJ30     070BBAS        ON      NM000R$  000000000023000000000002590000000000230000000000025500000000002590000000000000000000000033000003000000000000003800000000000000970000000000000301302017101600000010000000000000BRBBASACNOR3269
012017090178BBASJ31     070BBAS        ON      NM000R$  000000000015000000000001940000000000150000000000018000000000001900000000000000000000000000000011000000000000030600000000000005509600000000000311302017101600000010000000000000BRBBASACNOR3269
012017090178BBASJ32     070BBAS        ON      NM000R$  000000000011400000000001410000000000114000000000012500000000001410000000000125000000000014100049000000000000065000000000000008134000000000000321302017101600000010000000000000BRBBASACNOR3269
012017090178BBASJ33     070BBAS        ON      NM000R$  000000000007600000000000980000000000076000000000008800000000000920000000000045000000000012000008000000000000010400000000000000919600000000000331302017101600000010000000000000BRBBASACNOR3269
012017090178BBASJ34     070BBAS        ON      NM000R$  000000000005000000000000640000000000049000000000005300000000000590000000000000000000000007000043000000000000059200000000000003137800000000000341302017101600000010000000000000BRBBASACNOR3269
012017090178BBASJ60     070BBAS  FM    ON      NM000R$  000000000019300000000002280000000000193000000000022000000000002190000000000000000000000000000008000000000000010700000000000002360000000000000306302017101600000010000000000000BRBBASACNOR3269
012017090178BBASJ80     070BBASE       ON      NM000R$  000000000023500000000002810000000000235000000000027400000000002810000000000000000000000000000009000000000000024000000000000006589000000000000298802017101600000010000000000000BRBBASACNOR3268
012017090178BBASJ82     070BBASE       ON      NM000R$  000000000014000000000001500000000000140000000000014500000000001480000000000060000000000000000004000000000000003200000000000000467000000000000318802017101600000010000000000000BRBBASACNOR3268
012017090178BBASJ93     070BBAS  FM    ON      NM000R$  000000000007500000000000750000000000075000000000007500000000000750000000000000000000000000000001000000000000001000000000000000075000000000000336302017101600000010000000000000BRBBASACNOR3269
012017090178BBASJ94     070BBAS  FM    ON      NM000R$  000000000004100000000000510000000000041000000000004700000000000470000000000011000000000004700069000000000000172100000000000008103000000000000346302017101600000010000000000000BRBBASACNOR3269
012017090178BBASK32     070BBAS        ON      NM000R$  000000000019500000000001950000000000195000000000019500000000001950000000000000000000000000000001000000000000002000000000000000390000000000000321302017112100000010000000000000BRBBASACNOR3269
012017090178BBASK33     070BBAS        ON      NM000R$  000000000014200000000001460000000000142000000000014300000000001460000000000000000000000000000002000000000000003500000000000000501000000000000331302017112100000010000000000000BRBBASACNOR3269
012017090178BBASK34     070BBAS        ON      NM000R$  000000000011800000000001180000000000118000000000011800000000001180000000000000000000000000000001000000000000000400000000000000047200000000000341302017112100000010000000000000BRBBASACNOR3269
012017090178BBASK93     070BBAS        ON      NM000R$  000000000012500000000001250000000000125000000000012500000000001250000000000070000000000000000001000000000000000700000000000000087500000000000336302017112100000010000000000000BRBBASACNOR3269
012017090178BBASL19     070BBAS        ON      NM000R$  000000000125500000000012550000000001255000000000125500000000012550000000000000000000000000000002000000000000003000000000000003765000000000000191302017121800000010000000000000BRBBASACNOR3268
012017090182BBASU25     080BBASE       ON      NM000R$  000000000000100000000000020000000000001000000000000100000000000020000000000001000000000000000002000000000000010200000000000000020200000000000251302017091800000010000000000000BRBBASACNOR3268
012017090182BBASU26     080BBASE       ON      NM000R$  000000000000200000000000030000000000002000000000000200000000000030000000000000000000000000000002000000000000016000000000000000042000000000000261302017091800000010000000000000BRBBASACNOR3268
012017090182BBASU27     080BBASE       ON      NM000R$  000000000000700000000000070000000000007000000000000700000000000070000000000003000000000000700001000000000000001000000000000000007000000000000271302017091800000010000000000000BRBBASACNOR3268
012017090182BBASU28     080BBASE       ON      NM000R$  000000000000400000000000050000000000004000000000000400000000000050000000000003000000000000800009000000000000025000000000000000121200000000000276302017091800000010000000000000BRBBASACNOR3266
012017090182BBASU29     080BBASE FM    ON      NM000R$  000000000001000000000000100000000000009000000000000900000000000090000000000008000000000000000018000000000000008000000000000000072500000000000288802017091800000010000000000000BRBBASACNOR3268
012017090182BBASU30     080BBASE FM    ON      NM000R$  000000000002100000000000210000000000014000000000001500000000000140000000000013000000000000000037000000000000064000000000000000997000000000000296302017091800000010000000000000BRBBASACNOR3267
012017090182BBASU31     080BBASE       ON      NM000R$  000000000004700000000000470000000000028000000000003400000000000290000000000025000000000008800063000000000000107900000000000003693400000000000306302017091800000010000000000000BRBBASACNOR3266
012017090182BBASU32     080BBASE       ON      NM000R$  000000000009900000000000990000000000058000000000006800000000000600000000000056000000000012000048000000000000079400000000000005456000000000000316302017091800000010000000000000BRBBASACNOR3267
012017090182BBASU41     080BBASE       ON      NM000R$  000000000005800000000000580000000000050000000000005500000000000500000000000000000000000012000008000000000000050000000000000002760000000000000311302017091800000010000000000000BRBBASACNOR3269
012017090182BBASU52     080BBASE       ON      NM000R$  000000000009100000000000910000000000091000000000009100000000000910000000000000000000000000000003000000000000001000000000000000091000000000000321302017091800000010000000000000BRBBASACNOR3269
012017090182BBASU60     080BBASE       ON      NM000R$  000000000004000000000000400000000000024000000000003900000000000240000000000018000000000000000006000000000000020400000000000000810400000000000301302017091800000010000000000000BRBBASACNOR3268
012017090182BBASU61     080BBASE       ON      NM000R$  000000000002500000000000250000000000023000000000002300000000000230000000000000000000000000000020000000000000003000000000000000071000000000000303802017091800000010000000000000BRBBASACNOR3266
012017090182BBASU81     080BBASE       ON      NM000R$  000000000005200000000000520000000000052000000000005200000000000520000000000000000000000000000001000000000000002000000000000000104000000000000313802017091800000010000000000000BRBBASACNOR3268
012017090182BBASU82     080BBASE FM    ON      NM000R$  000000000010800000000001080000000000070000000000007800000000000750000000000000000000000000000025000000000000056100000000000004420100000000000318802017091800000010000000000000BRBBASACNOR3269
012017090182BBASU9      080BBASE       ON      NM000R$  000000000001600000000000160000000000016000000000001600000000000160000000000000000000000000000001000000000000010000000000000000160000000000000293802017091800000010000000000000BRBBASACNOR3266
012017090182BBASU91     080BBASE FM    ON      NM000R$  000000000004800000000000490000000000035000000000004100000000000350000000000000000000000000000012000000000000095500000000000003919500000000000308802017091800000010000000000000BRBBASACNOR3269
012017090182BBASU92     080BBASE       ON      NM000R$  000000000009900000000000990000000000099000000000009900000000000990000000000000000000000000000001000000000000001000000000000000099000000000000323802017091800000010000000000000BRBBASACNOR3269
012017090182BBASU99     080BBASE       ON      NM000R$  000000000000900000000000090000000000009000000000000900000000000090000000000005000000000000000004000000000000000500000000000000004500000000000283802017091800000010000000000000BRBBASACNOR3262
012017090182BBASV1      080BBASE       ON      NM000R$  000000000013000000000001310000000000130000000000013000000000001310000000000112000000000000000002000000000000004600000000000000598700000000000316302017101600000010000000000000BRBBASACNOR3269
012017090182BBASV27     080BBASE       ON      NM000R$  000000000001900000000000190000000000019000000000001900000000000190000000000001000000000001900001000000000000002000000000000000038000000000000271302017101600000010000000000000BRBBASACNOR3269
012017090182BBASV28     080BBASE       ON      NM000R$  000000000002900000000000290000000000029000000000002900000000000290000000000003000000000000000001000000000000003000000000000000087000000000000281302017101600000010000000000000BRBBASACNOR3269
012017090182BBASV29     080BBASE       ON      NM000R$  000000000005000000000000500000000000045000000000004600000000000450000000000000000000000000000012000000000000003000000000000000140000000000000291302017101600000010000000000000BRBBASACNOR3269
012017090182BBASV30     080BBASE       ON      NM000R$  000000000006200000000000630000000000062000000000006200000000000630000000000000000000000013800007000000000000002800000000000000175600000000000301302017101600000010000000000000BRBBASACNOR3269
012017090182BBASV31     080BBASE       ON      NM000R$  000000000012000000000001200000000000093000000000011200000000000930000000000094000000000000000013000000000000018900000000000002132300000000000311302017101600000010000000000000BRBBASACNOR3269
012017090182BBASV32     080BBASE       ON      NM000R$  000000000013900000000001400000000000139000000000013900000000001390000000000135000000000000000012000000000000029500000000000004102000000000000321302017101600000010000000000000BRBBASACNOR3269
012017090182BBASV58     080BBASE       ON      NM000R$  000000000004200000000000420000000000036000000000003900000000000360000000000000000000000005900005000000000000002900000000000000114200000000000286302017101600000010000000000000BRBBASACNOR3269
012017090182BBASV59     080BBASE       ON      NM000R$  000000000005900000000000590000000000052000000000005300000000000520000000000048000000000000000019000000000000036000000000000001929000000000000296302017101600000010000000000000BRBBASACNOR3269
012017090182BBASV60     080BBASE       ON      NM000R$  000000000009500000000000950000000000095000000000009500000000000950000000000000000000000000000001000000000000001500000000000000142500000000000306302017101600000010000000000000BRBBASACNOR3269
012017090182BBASV69     080BBASE FM    ON      NM000R$  000000000004000000000000400000000000040000000000004000000000000400000000000000000000000000000007000000000000002700000000000000108000000000000288802017101600000010000000000000BRBBASACNOR3269
012017090182BBASV71     080BBASE FM    ON      NM000R$  000000000008800000000000880000000000088000000000008800000000000880000000000000000000000000000004000000000000002500000000000000220000000000000308802017101600000010000000000000BRBBASACNOR3269
012017090182BBASV73     080BBASE       ON      NM000R$  000000000020500000000002050000000000177000000000018600000000001790000000000171000000000000000030000000000000062100000000000011595300000000000328802017101600000010000000000000BRBBASACNOR3269
012017090182BBASV80     080BBASE FM    ON      NM000R$  000000000005400000000000540000000000054000000000005400000000000540000000000001000000000000000001000000000000004500000000000000243000000000000298802017101600000010000000000000BRBBASACNOR3268
012017090182BBASV82     080BBASE FM    ON      NM000R$  000000000016000000000001600000000000126000000000014200000000001300000000000117000000000000000019000000000000021900000000000003117600000000000318802017101600000010000000000000BRBBASACNOR3268
012017090182BBASW26     080BBASE       ON      NM000R$  000000000003600000000000360000000000032000000000003300000000000330000000000032000000000003800055000000000000096100000000000003232100000000000261302017112100000010000000000000BRBBASACNOR3269
012017090102BBDC3       010BRADESCO    ON      N1   R$  000000000324600000000033180000000003246000000000329300000000032890000000003289000000000330406910000000000001827300000000006017447400000000000000009999123100000010000000000000BRBBDCACNOR1668
012017090196BBDC3F      020BRADESCO    ON      N1   R$  000000000321400000000033150000000003212000000000326600000000032330000000003233000000000328000112000000000000002958000000000009664235000000000000009999123100000010000000000000BRBBDCACNOR1668
012017090102BBDC4       010BRADESCO    PN      N1   R$  000000000337600000000034640000000003376000000000343200000000034280000000003428000000000343721281000000000008285200000000028438614000000000000000009999123100000010000000000000BRBBDCACNPR8668
012017090196BBDC4F      020BRADESCO    PN      N1   R$  000000000336200000000034590000000003359000000000342800000000034450000000003440000000000344500434000000000000012904000000000044243165000000000000009999123100000010000000000000BRBBDCACNPR8668
012017090178BBDCH79     070BBDCE       PN      N1000R$  000000000022000000000002200000000000220000000000022000000000002200000000000000000000000000000002000000000000003300000000000000726000000000000390502018082000000010000000000000BRBBDCACNPR8668
012017090178BBDCI15     070BBDC        PN      N1000R$  000000000001000000000000220000000000010000000000001300000000000190000000000000000000000001900018000000000000076400000000000001020700000000000354602017091800000010000000000000BRBBDCACNPR8668
012017090178BBDCI21     070BBDC  FM    PN      N1000R$  000000000002000000000000390000000000020000000000002800000000000330000000000025000000000003300027000000000000099000000000000002776000000000000349602017091800000010000000000000BRBBDCACNPR8668
012017090178BBDCI24     070BBDC  FM    PN      N1000R$  000000000000500000000000110000000000005000000000000700000000000110000000000000000000000001300018000000000000057700000000000000414200000000000359602017091800000010000000000000BRBBDCACNPR8668
012017090178BBDCI32     070BBDC  FM    PN      N1000R$  000000000017500000000002480000000000175000000000022100000000002360000000000200000000000000000026000000000000051200000000000011320500000000000322402017091800000010000000000000BRBBDCACNPR8664
012017090178BBDCI42     070BBDC  FM    PN      N1000R$  000000000003400000000000670000000000034000000000005000000000000560000000000048000000000005600076000000000000226800000000000011395500000000000344602017091800000010000000000000BRBBDCACNPR8664
012017090178BBDCI51     070BBDC        PN      N1000R$  000000000041000000000004100000000000410000000000041000000000004100000000000001000000000000000001000000000000000200000000000000082000000000000299402017091800000010000000000000BRBBDCACNPR8665
012017090178BBDCI52     070BBDC  FM    PN      N1000R$  000000000015900000000001930000000000150000000000015600000000001930000000000077000000000025800004000000000000004000000000000000626000000000000327402017091800000010000000000000BRBBDCACNPR8664
012017090178BBDCI53     070BBDC        PN      N1000R$  000000000009800000000001560000000000098000000000012500000000001440000000000125000000000016300019000000000000017600000000000002203700000000000332402017091800000010000000000000BRBBDCACNPR8664
012017090178BBDCI64     070BBDCE       PN      N1000R$  000000000053500000000005350000000000535000000000053500000000005350000000000000000000000000000001000000000000001200000000000000642000000000000292102017091800000010000000000000BRBBDCACNPR8650
012017090178BBDCJ12     070BBDCE       PN      N1000R$  000000000003600000000000430000000000036000000000003700000000000430000000000000000000000000000002000000000000000700000000000000025900000000000359802017101600000010000000000000BRBBDCACNPR8655
012017090178BBDCJ16     070BBDC  FM    PN      N1000R$  000000000021300000000002540000000000213000000000023000000000002540000000000000000000000000000005000000000000010900000000000002517800000000000325702017101600000010000000000000BRBBDCACNPR8662
012017090178BBDCJ17     070BBDC        PN      N1000R$  000000000011300000000001150000000000113000000000011300000000001140000000000100000000000000000007000000000000112000000000000012675000000000000345002017101600000010000000000000BRBBDCACNPR8668
012017090178BBDCJ19     070BBDC        PN      N1000R$  000000000005400000000000720000000000054000000000006400000000000660000000000020000000000000000005000000000000003700000000000000239200000000000355002017101600000010000000000000BRBBDCACNPR8668
012017090178BBDCJ20     070BBDC        PN      N1000R$  000000000002600000000000260000000000026000000000002600000000000260000000000015000000000000000005000000000000004200000000000000109200000000000366602017101600000010000000000000BRBBDCACNPR8655
012017090178BBDCJ30     070BBDC  FM    PN      N1000R$  000000000027800000000003390000000000278000000000029300000000003170000000000000000000000000000009000000000000014400000000000004231600000000000316802017101600000010000000000000BRBBDCACNPR8667
012017090178BBDCJ35     070BBDC        PN      N1000R$  000000000014300000000001870000000000143000000000015900000000001870000000000000000000000000000008000000000000024000000000000003836000000000000335002017101600000010000000000000BRBBDCACNPR8667
012017090178BBDCJ38     070BBDC  FM    PN      N1000R$  000000000011400000000001490000000000114000000000013000000000001490000000000000000000000000000012000000000000016100000000000002105300000000000340002017101600000010000000000000BRBBDCACNPR8667
012017090178BBDCJ4      070BBDCE       PN      N1000R$  000000000169200000000016920000000001692000000000169200000000016920000000000000000000000000000001000000000000000500000000000000846000000000000173402017101600000010000000000000BRBBDCACNPR8651
012017090178BBDCJ41     070BBDC  FM    PN      N1000R$  000000000008300000000000930000000000083000000000009200000000000930000000000000000000000010000003000000000000005300000000000000489900000000000350002017101600000010000000000000BRBBDCACNPR8667
012017090178BBDCK4      070BBDCE       PN      N1000R$  000000000016700000000001670000000000167000000000016700000000001670000000000000000000000000000001000000000000001000000000000000167000000000000341202017112100000010000000000000BRBBDCACNPR8651
012017090182BBDCM1      080BBDCE       PN      N1000R$  000000000005700000000000570000000000043000000000004600000000000480000000000047000000000004800831000000000000660200000000000030711100000000000284402018011500000010000000000000BRBBDCACNPR8659
012017090182BBDCM18     080BBDCE       PN      N1000R$  000000000015200000000001520000000000152000000000015200000000001520000000000102000000000000000001000000000000000200000000000000030400000000000336702018011500000010000000000000BRBBDCACNPR8652
012017090182BBDCT52     080BBDCE       PN      N1000R$  000000000032000000000003200000000000320000000000032000000000003200000000000000000000000000000002000000000000003300000000000001056000000000000328002018082000000010000000000000BRBBDCACNPR8668
012017090182BBDCT76     080BBDCE       PN      N1000R$  000000000011500000000001150000000000115000000000011500000000001150000000000000000000000000000001000000000000003300000000000000379500000000000278002018082000000010000000000000BRBBDCACNPR8667
012017090182BBDCU32     080BBDCE FM    PN      N1000R$  000000000001400000000000140000000000007000000000000800000000000100000000000000000000000003900045000000000000117500000000000001045500000000000322402017091800000010000000000000BRBBDCACNPR8664
012017090182BBDCU42     080BBDCE FM    PN      N1000R$  000000000007800000000000780000000000050000000000005900000000000560000000000000000000000000000020000000000000024300000000000001439900000000000344602017091800000010000000000000BRBBDCACNPR8664
012017090182BBDCU52     080BBDCE FM    PN      N1000R$  000000000002200000000000220000000000012000000000001500000000000200000000000014000000000004800019000000000000038300000000000000582800000000000327402017091800000010000000000000BRBBDCACNPR8664
012017090182BBDCU53     080BBDCE       PN      N1000R$  000000000003700000000000370000000000018000000000002000000000000240000000000019000000000002500051000000000000186400000000000003755300000000000332402017091800000010000000000000BRBBDCACNPR8664
012017090182BBDCU55     080BBDCE       PN      N1000R$  000000000000500000000000050000000000005000000000000500000000000050000000000005000000000000800002000000000000013000000000000000065000000000000314902017091800000010000000000000BRBBDCACNPR8656
012017090182BBDCU60     080BBDCE FM    PN      N1000R$  000000000000400000000000040000000000001000000000000300000000000010000000000001000000000000000003000000000000010100000000000000040100000000000308702017091800000010000000000000BRBBDCACNPR8667
012017090182BBDCU88     080BBDCE       PN      N1000R$  000000000000500000000000050000000000001000000000000400000000000010000000000000000000000000000002000000000000001100000000000000005100000000000301202017091800000010000000000000BRBBDCACNPR8650
012017090182BBDCU9      080BBDCE       PN      N1000R$  000000000000300000000000030000000000001000000000000100000000000010000000000001000000000000200021000000000000241550000000000000404900000000000255802017091800000010000000000000BRBBDCACNPR8649
012017090182BBDCV16     080BBDCE FM    PN      N1000R$  000000000004900000000000490000000000038000000000004400000000000380000000000001000000000000000004000000000000004690000000000000209810000000000325702017101600000010000000000000BRBBDCACNPR8662
012017090182BBDCV27     080BBDCE       PN      N1000R$  000000000002000000000000200000000000016000000000001900000000000160000000000002000000000005500003000000000000104000000000000001988000000000000307702017101600000010000000000000BRBBDCACNPR8667
012017090182BBDCV30     080BBDCE       PN      N1000R$  000000000002600000000000280000000000026000000000002700000000000280000000000004000000000000000003000000000000003000000000000000082000000000000316802017101600000010000000000000BRBBDCACNPR8667
012017090182BBDCV33     080BBDCE       PN      N1000R$  000000000003600000000000360000000000036000000000003600000000000360000000000000000000000007000002000000000000002000000000000000072000000000000321402017101600000010000000000000BRBBDCACNPR8667
012017090182BBDCV34     080BBDCE       PN      N1000R$  000000000004900000000000490000000000049000000000004900000000000490000000000000000000000000000001000000000000001000000000000000049000000000000330702017101600000010000000000000BRBBDCACNPR8667
012017090182BBDCV38     080BBDCE FM    PN      N1000R$  000000000009900000000000990000000000075000000000008100000000000750000000000000000000000000000021000000000000043200000000000003522500000000000340002017101600000010000000000000BRBBDCACNPR8667
012017090182BBDCV41     080BBDCE       PN      N1000R$  000000000013700000000001370000000000116000000000012400000000001160000000000086000000000030000003000000000000008100000000000001004700000000000350002017101600000010000000000000BRBBDCACNPR8667
012017090182BBDCV47     080BBDCE FM    PN      N1000R$  000000000003200000000000320000000000032000000000003200000000000320000000000000000000000000000001000000000000100000000000000003200000000000000318902017101600000010000000000000BRBBDCACNPR8651
012017090182BBDCW11     080BBDCE       PN      N1000R$  000000000000500000000000050000000000005000000000000500000000000050000000000000000000000001000007000000000000011000000000000000055000000000000198102017112100000010000000000000BRBBDCACNPR8651
012017090182BBDCW12     080BBDCE       PN      N1000R$  000000000001400000000000140000000000011000000000001200000000000120000000000011000000000001200013000000000000019310000000000000233940000000000252602017112100000010000000000000BRBBDCACNPR8651
012017090182BBDCX36     080BBDCE       PN      N1000R$  000000000009200000000000920000000000090000000000009000000000000910000000000077000000000000000005000000000000016200000000000001465400000000000321602017121800000010000000000000BRBBDCACNPR8652
012017090112BBFI11B     010FII BB PROGRCI  ER  MB   R$  000000026797300000002680000000000265000000000026629100000002659980000000265000000000026599900013000000000000000038000000000010119077000000000000009999123100000010000000000000BRBBFICTF006246
012017090112BBPO11      010FII BB PRGIICI  ER       R$  000000001390000000000139880000000013804000000001389200000000139400000000013920000000001394000517000000000000022591000000000313851236000000000000009999123100000010000000000000BRBBPOCTF003158
012017090112BBRC11      010FII BB CORP CI  ER       R$  000000001310000000000131000000000013001000000001304900000000130590000000013000000000001305900009000000000000000117000000000001526804000000000000009999123100000010000000000000BRBBRCCTF004172
012017090102BBRK3       010BR BROKERS  ON      NM   R$  000000000009900000000001030000000000099000000000010000000000001010000000000100000000000010101066000000000000585300000000000059083500000000000000009999123100000010000000000000BRBBRKACNOR4111
012017090196BBRK3F      020BR BROKERS  ON      NM   R$  000000000010000000000001120000000000100000000000010600000000001120000000000086000000000011200003000000000000000034000000000000003628000000000000009999123100000010000000000000BRBBRKACNOR4111
012017090114BBSD11      010BB ETF SP DVCI           R$  000000000549400000000055770000000005494000000000553900000000055760000000005450000000000000000004000000000000000340000000000001883290000000000000009999123100000010000000000000BRBBSDCTF000100
012017090102BBSE3       010BBSEGURIDADEON      NM   R$  000000000278000000000028190000000002775000000000280300000000027990000000002798000000000279914391000000000003424600000000009599840100000000000000009999123100000010000000000000BRBBSEACNOR5109
012017090196BBSE3F      020BBSEGURIDADEON      NM   R$  000000000277000000000028190000000002768000000000280200000000027900000000002790000000000280000654000000000000015381000000000043110924000000000000009999123100000010000000000000BRBBSEACNOR5109
012017090162BBSE3T      030BBSEGURIDADEON      NM090R$  000000000283300000000028340000000002833000000000283300000000028340000000000000000000000000000002000000000000001000000000000002833800000000000000009999123100000010000000000000BRBBSEACNOR5109
012017090178BBSEI27     070BBSE  FM    ON      NM000R$  000000000017200000000001800000000000172000000000017400000000001800000000000000000000000018300006000000000000012600000000000002199900000000000265302017091800000010000000000000BRBBSEACNOR5108
012017090178BBSEI28     070BBSE  FM    ON      NM000R$  000000000008400000000000960000000000082000000000009200000000000860000000000071000000000009700012000000000000018300000000000001683600000000000275302017091800000010000000000000BRBBSEACNOR5108
012017090178BBSEI29     070BBSE  FM    ON      NM000R$  000000000004000000000000400000000000031000000000003600000000000310000000000015000000000004000024000000000000015700000000000000577900000000000285302017091800000010000000000000BRBBSEACNOR5108
012017090178BBSEI50     070BBSE        ON      NM000R$  000000000006500000000000650000000000052000000000006000000000000600000000000000000000000010000012000000000000004900000000000000298800000000000280302017091800000010000000000000BRBBSEACNOR5106
012017090178BBSEI56     070BBSE        ON      NM000R$  000000000021500000000002150000000000215000000000021500000000002150000000000000000000000025000001000000000000001800000000000000387000000000000260302017091800000010000000000000BRBBSEACNOR5108
012017090178BBSEI57     070BBSE        ON      NM000R$  000000000013100000000001310000000000131000000000013100000000001310000000000078000000000013700001000000000000003000000000000000393000000000000270302017091800000010000000000000BRBBSEACNOR5108
012017090178BBSEI89     070BBSEE       ON      NM000R$  000000000004300000000000480000000000043000000000004700000000000480000000000000000000000000000002000000000000206700000000000009919600000000000282802017091800000010000000000000BRBBSEACNOR5107
012017090178BBSEJ28     070BBSE        ON      NM000R$  000000000015100000000001510000000000151000000000015100000000001510000000000000000000000000000001000000000000001000000000000000151000000000000273602017101600000010000000000000BRBBSEACNOR5108
012017090178BBSEJ29     070BBSE        ON      NM000R$  000000000009000000000000910000000000090000000000009000000000000910000000000000000000000010000002000000000000003500000000000000318000000000000283602017101600000010000000000000BRBBSEACNOR5108
012017090178BBSEJ57     070BBSEE       ON      NM000R$  000000000013000000000001300000000000130000000000013000000000001300000000000000000000000000000001000000000000000200000000000000026000000000000271102017101600000010000000000000BRBBSEACNOR5108
012017090178BBSEJ58     070BBSE  FM    ON      NM000R$  000000000011800000000001200000000000118000000000011800000000001200000000000000000000000000000003000000000000007300000000000000862000000000000278602017101600000010000000000000BRBBSEACNOR5108
012017090178BBSEJ59     070BBSEE       ON      NM000R$  000000000006400000000000640000000000063000000000006300000000000630000000000017000000000000000002000000000000016000000000000001016000000000000291102017101600000010000000000000BRBBSEACNOR5108
012017090178BBSEJ60     070BBSE  FM    ON      NM000R$  000000000003500000000000370000000000035000000000003600000000000370000000000000000000000000000008000000000000024500000000000000882100000000000298602017101600000010000000000000BRBBSEACNOR5108
012017090178BBSEJ67     070BBSE  FM    ON      NM000R$  000000000018500000000001850000000000185000000000018500000000001850000000000000000000000000000002000000000000007000000000000001295000000000000268602017101600000010000000000000BRBBSEACNOR5108
012017090178BBSEJ69     070BBSE  FM    ON      NM000R$  000000000007000000000000700000000000068000000000006900000000000680000000000000000000000000000003000000000000010200000000000000713600000000000288602017101600000010000000000000BRBBSEACNOR5108
012017090178BBSEK30     070BBSE        ON      NM000R$  000000000010600000000001060000000000100000000000010300000000001000000000000000000000000016800006000000000000014400000000000001488200000000000292102017112100000010000000000000BRBBSEACNOR5108
012017090178BBSEK79     070BBSEE       ON      NM000R$  000000000008600000000000870000000000086000000000008600000000000870000000000000000000000000000003000000000000206400000000000017884400000000000294602017112100000010000000000000BRBBSEACNOR5109
012017090182BBSEU26     080BBSEE FM    ON      NM000R$  000000000000600000000000060000000000006000000000000600000000000060000000000003000000000000000001000000000000003000000000000000018000000000000255302017091800000010000000000000BRBBSEACNOR5108
012017090182BBSEU27     080BBSEE FM    ON      NM000R$  000000000001200000000000120000000000012000000000001200000000000120000000000009000000000000000001000000000000001000000000000000012000000000000265302017091800000010000000000000BRBBSEACNOR5108
012017090182BBSEU28     080BBSEE FM    ON      NM000R$  000000000002900000000000290000000000029000000000002900000000000290000000000000000000000000000002000000000000003000000000000000087000000000000275302017091800000010000000000000BRBBSEACNOR5108
012017090182BBSEU29     080BBSEE FM    ON      NM000R$  000000000007900000000000790000000000079000000000007900000000000790000000000000000000000000000002000000000000007000000000000000553000000000000285302017091800000010000000000000BRBBSEACNOR5108
012017090182BBSEU55     080BBSEE       ON      NM000R$  000000000000400000000000040000000000004000000000000400000000000040000000000002000000000000000002000000000000004900000000000000019600000000000250302017091800000010000000000000BRBBSEACNOR5108
012017090182BBSEU56     080BBSEE       ON      NM000R$  000000000001100000000000110000000000009000000000001000000000000090000000000000000000000000000003000000000000003900000000000000040100000000000260302017091800000010000000000000BRBBSEACNOR5108
012017090182BBSEV28     080BBSEE       ON      NM000R$  000000000005400000000000570000000000054000000000005400000000000570000000000017000000000000000002000000000000001700000000000000092700000000000273602017101600000010000000000000BRBBSEACNOR5108
012017090182BBSEV56     080BBSEE FM    ON      NM000R$  000000000002600000000000260000000000026000000000002600000000000260000000000000000000000003400002000000000000008900000000000000231400000000000258602017101600000010000000000000BRBBSEACNOR5108
012017090182BBSEV67     080BBSEE FM    ON      NM000R$  000000000004600000000000460000000000046000000000004600000000000460000000000010000000000004800001000000000000000800000000000000036800000000000268602017101600000010000000000000BRBBSEACNOR5108
012017090182BBSEV69     080BBSEE FM    ON      NM000R$  000000000012600000000001260000000000126000000000012600000000001260000000000000000000000000000001000000000000007000000000000000882000000000000288602017101600000010000000000000BRBBSEACNOR5108
012017090102BBTG12      010BTG PACTUAL UNT          R$  000000000004000000000000410000000000038000000000003900000000000400000000000039000000000004000792000000000007150300000000000282433000000000000000009999123100000010000000000000BRBBTGUNT015100
012017090196BBTG12F     020BTG PACTUAL UNT          R$  000000000004300000000000430000000000035000000000003800000000000380000000000039000000000004400028000000000000000766000000000000029151000000000000009999123100000010000000000000BRBBTGUNT015100
012017090162BBTG12T     030BTG PACTUAL UNT       060R$  000000000003900000000000400000000000039000000000003900000000000400000000000000000000000000000002000000000000300000000000000011848590000000000000009999123100000010000000000000BRBBTGUNT015100
012017090102BBTG35      010BTG PACTUAL DR3 B        R$  000000000003200000000000320000000000030000000000003000000000000320000000000029000000000003200012000000000000016500000000000000495400000000000000009999123100000010000000000000BRBBTGBDR010100
012017090102BBTG36      010BTG PACTUAL DR3 A        R$  000000000003200000000000350000000000031000000000003100000000000350000000000031000000000003500019000000000000021300000000000000678900000000000000009999123100000010000000000000BRBBTGBDR002100
012017090112BBVJ11      010FII C JARDIMCI  ER       R$  000000000603900000000060390000000005950000000000599900000000060000000000005950000000000600000009000000000000001097000000000006581760000000000000009999123100000010000000000000BRBBVJCTF001181
012017090112BCFF11B     010FII BC FFII CI      MB   R$  000000000703000000000070980000000007010000000000703400000000070130000000007013000000000707000068000000000000006327000000000044510053000000000000009999123100000010000000000000BRBCFFCTF000190
012017090112BCIA11      010FII BCIA    CI  ER       R$  000000001250000000000130000000000012500000000001264200000000130000000000012750000000001300000018000000000000000824000000000010417800000000000000009999123100000010000000000000BRBCIACTF005128
012017090112BCRI11      010FII BEES CRICI  ER       R$  000000001079900000000107990000000010713000000001075300000000107500000000010750000000001078900046000000000000001095000000000011774579000000000000009999123100000010000000000000BRBCRICTF009128
012017090196BDLL4F      020BARDELLA    PN           R$  000000000340000000000034000000000003400000000000340000000000034000000000003400000000000599900001000000000000000003000000000000010200000000000000009999123100000010000000000000BRBDLLACNPR8151
012017090102BEEF3       010MINERVA     ON      NM   R$  000000000117000000000011800000000001151000000000116500000000011580000000001156000000000115805273000000000001207500000000001406810900000000000000009999123100000010000000000000BRBEEFACNOR6107
012017090196BEEF3F      020MINERVA     ON      NM   R$  000000000117900000000011800000000001153000000000116700000000011540000000001154000000000115600072000000000000001859000000000002168946000000000000009999123100000010000000000000BRBEEFACNOR6107
012017090162BEEF3T      030MINERVA     ON      NM060R$  000000000117900000000011800000000001179000000000117900000000011800000000000000000000000000000002000000000000001000000000000001179049000000000000009999123100000010000000000000BRBEEFACNOR6107
012017090162BEEF3T      030MINERVA     ON      NM090R$  000000000118400000000011850000000001184000000000118400000000011850000000000000000000000000000002000000000000001000000000000001184452000000000000009999123100000010000000000000BRBEEFACNOR6107
012017090102BEES3       010BANESTES    ON  EJ       R$  000000000037000000000003850000000000370000000000037400000000003710000000000371000000000037400029000000000000013700000000000005124200000000000000009999123100000010000000000000BRBEESACNOR9300
012017090196BEES3F      020BANESTES    ON  EJ       R$  000000000037000000000003700000000000370000000000037000000000003700000000000370000000000037600003000000000000000106000000000000039220000000000000009999123100000010000000000000BRBEESACNOR9300
012017090102BEES4       010BANESTES    PN  EJ       R$  000000000038500000000003850000000000383000000000038400000000003830000000000372000000000038400004000000000000000800000000000000307400000000000000009999123100000010000000000000BRBEESACNPR6225
012017090196BEES4F      020BANESTES    PN  EJ       R$  000000000041500000000004150000000000415000000000041500000000004150000000000000000000000042900001000000000000000012000000000000004980000000000000009999123100000010000000000000BRBEESACNPR6225
012017090102BERK34      010BERKSHIRE   DRN          R$  000000005687000000000568700000000056870000000005687000000000568700000000056388000000005752700001000000000000000100000000000005687000000000000000009999123100000010000000000000BRBERKBDR002100
012017090102BGIP3       010BANESE      ON           R$  000000000380000000000038000000000003800000000000380000000000038000000000003500000000000390000001000000000000000100000000000000380000000000000000009999123100000010000000000000BRBGIPACNOR1192
012017090102BGIP4       010BANESE      PN           R$  000000000322000000000032200000000003220000000000322000000000032200000000003200000000000327000001000000000000000200000000000000644000000000000000009999123100000010000000000000BRBGIPACNPR8192
012017090102BIOM3       010BIOMM       ON      MA   R$  000000000139900000000013990000000001306000000000134500000000013060000000001100000000000133500006000000000000001800000000000002422100000000000000009999123100000010000000000000BRBIOMACNOR2105
012017090102BLAK34      010BLACKROCK   DRN ED       R$  000000002216200000000221620000000022162000000002216200000000221620000000000000000000000000000001000000000000000100000000000002216200000000000000009999123100000010000000000000BRBLAKBDR003106
012017090110BMEB1       010MERC BRASIL DIR ORD      R$  000000000000300000000000040000000000003000000000000300000000000030000000000003000000000000400022000000000000075300000000000000234600000000000000009999123100000010000000000000BRBMEBD03OR9193
012017090102BMEB3       010MERC BRASIL ON           R$  000000000075000000000007500000000000750000000000075000000000007500000000000700000000000075000001000000000000000100000000000000075000000000000000009999123100000010000000000000BRBMEBACNOR8194
012017090102BMEB4       010MERC BRASIL PN           R$  000000000050000000000005050000000000495000000000049900000000005020000000000498000000000050400015000000000000012000000000000005993900000000000000009999123100000010000000000000BRBMEBACNPR5198
012017090196BMEB4F      020MERC BRASIL PN           R$  000000000047500000000004750000000000475000000000047500000000004750000000000475000000000050000002000000000000000090000000000000042750000000000000009999123100000010000000000000BRBMEBACNPR5198
012017090102BMIN3       010MERC INVEST ON           R$  000000000008100000000000810000000000081000000000008100000000000810000000000076000000000008200001000000000000001000000000000000081000000000000000009999123100000010000000000000BRBMINACNOR4165
012017090196BMIN3F      020MERC INVEST ON           R$  000000000017500000000001750000000000175000000000017500000000001750000000000085000000000017500002000000000000000151000000000000026425000000000000009999123100000010000000000000BRBMINACNOR4165
012017090102BMIN4       010MERC INVEST PN           R$  000000000005100000000000510000000000050000000000005000000000000500000000000050000000000005100032000000000000155000000000000007753000000000000000009999123100000010000000000000BRBMINACNPR1166
012017090196BMIN4F      020MERC INVEST PN           R$  000000000005200000000000520000000000051000000000005100000000000510000000000050000000000005100005000000000000000452000000000000023102000000000000009999123100000010000000000000BRBMINACNPR1166
012017090102BMKS3       010BIC MONARK  ON           R$  000000003500000000000354000000000035000000000003513300000000354000000000034500000000003540000002000000000000000003000000000000105400000000000000009999123100000010000000000000BRBMKSACNOR9159
012017090112BMLC11B     010FII BMBRC LCCI      MB   R$  000000000820600000000082120000000008205000000000820500000000082050000000008205000000000827000016000000000000001230000000000010092640000000000000009999123100000010000000000000BRBMLCCTF004166
012017090102BMYB34      010BRISTOLMYERSDRN          R$  000000001883800000000188380000000018838000000001883800000000188380000000000000000000000000000001000000000000000100000000000001883800000000000000009999123100000010000000000000BRBMYBBDR000115
012017090102BOBR4       010BOMBRIL     PN           R$  000000000052600000000005260000000000511000000000051700000000005140000000000513000000000051400069000000000000061800000000000032002300000000000000009999123100000010000000000000BRBOBRACNPR3128
012017090196BOBR4F      020BOMBRIL     PN           R$  000000000051900000000005190000000000519000000000051900000000005190000000000519000000000052200001000000000000000042000000000000021798000000000000009999123100000010000000000000BRBOBRACNPR3128
012017090102BONY34      010BNY MELLON  DRN          R$  000000001646000000000164600000000016460000000001646000000000164600000000000000000000000000000001000000000000000100000000000001646000000000000000009999123100000010000000000000BRBONYBDR001108
012017090114BOVA11      010ISHARES BOVACI           R$  000000000689800000000069830000000006898000000000695000000000069510000000006945000000000695108529000000000002882040000000020031615230000000000000009999123100000010000000000000BRBOVACTF003103
012017090196BOVA11F     020ISHARES BOVACI           R$  000000000690200000000069880000000006902000000000695600000000069620000000006950000000000696900030000000000000000140000000000000973974000000000000009999123100000010000000000000BRBOVACTF003103
012017090178BOVAF73     070BOVA        CI        000R$  000000000043500000000004350000000000435000000000043500000000004350000000000000000000000000000001000000000000001700000000000000739500000000000730002018061800000010000000000000BRBOVACTF003103
012017090178BOVAI64     070BOVA        CI        000R$  000000000058100000000005810000000000581000000000058100000000005810000000000000000000000000000001000000000000000600000000000000348600000000000640002017091800000010000000000000BRBOVACTF003103
012017090178BOVAI66     070BOVA        CI        000R$  000000000040800000000004080000000000408000000000040800000000004080000000000000000000000000000001000000000000000100000000000000040800000000000660002017091800000010000000000000BRBOVACTF003103
012017090178BOVAI67     070BOVA  FM    CI        000R$  000000000031200000000003120000000000303000000000030700000000003030000000000010000000000000000003000000000000008000000000000002457500000000000670002017091800000010000000000000BRBOVACTF003103
012017090178BOVAI68     070BOVA  FM    CI        000R$  000000000016900000000002270000000000169000000000021400000000002080000000000000000000000000000006000000000000008350000000000001790640000000000680002017091800000010000000000000BRBOVACTF003102
012017090178BOVAI69     070BOVA  FM    CI        000R$  000000000011000000000001480000000000110000000000012900000000001480000000000000000000000000000006000000000000010100000000000001309500000000000690002017091800000010000000000000BRBOVACTF003103
012017090178BOVAI70     070BOVA  FM    CI        000R$  000000000005000000000000880000000000050000000000006900000000000880000000000000000000000000000006000000000000010700000000000000738600000000000700002017091800000010000000000000BRBOVACTF003103
012017090178BOVAI71     070BOVA  FM    CI        000R$  000000000004300000000000460000000000042000000000004300000000000440000000000000000000000000000010000000000000026800000000000001162300000000000710002017091800000010000000000000BRBOVACTF003103
012017090178BOVAJ64     070BOVA        CI        000R$  000000000052800000000006370000000000522000000000056600000000006370000000000000000000000000000003000000000000010300000000000005832300000000000640002017101600000010000000000000BRBOVACTF003103
012017090178BOVAJ67     070BOVA  FM    CI        000R$  000000000036500000000003890000000000365000000000038200000000003680000000000000000000000000000014000000000000037200000000000014224300000000000670002017101600000010000000000000BRBOVACTF003103
012017090178BOVAJ68     070BOVA  FM    CI        000R$  000000000022800000000003350000000000228000000000029000000000003350000000000000000000000000000009000000000000023880000000000006939000000000000680002017101600000010000000000000BRBOVACTF003103
012017090178BOVAJ69     070BOVA  FM    CI        000R$  000000000022200000000002220000000000222000000000022200000000002220000000000000000000000000000001000000000000003500000000000000777000000000000690002017101600000010000000000000BRBOVACTF003103
012017090178BOVAJ70     070BOVA  FM    CI        000R$  000000000017000000000001720000000000168000000000016900000000001680000000000000000000000000000003000000000000002800000000000000474800000000000700002017101600000010000000000000BRBOVACTF003103
012017090178BOVAJ71     070BOVA  FM    CI        000R$  000000000010900000000001240000000000109000000000011800000000001240000000000118000000000012900005000000000000000600000000000000070800000000000710002017101600000010000000000000BRBOVACTF003103
012017090182BOVAM57     080BOVAE       CI        000R$  000000000004300000000000440000000000038000000000004000000000000430000000000042000000000004400952000000000001648480000000000066042360000000000570002018011500000010000000000000BRBOVACTF003103
012017090182BOVAU52     080BOVAE       CI        000R$  000000000000100000000000010000000000001000000000000100000000000010000000000000000000000000100007000000000000011250000000000000011250000000000520002017091800000010000000000000BRBOVACTF003103
012017090182BOVAU64     080BOVAE       CI        000R$  000000000000500000000000050000000000005000000000000500000000000050000000000004000000000009900001000000000000500000000000000002500000000000000640002017091800000010000000000000BRBOVACTF003103
012017090182BOVAU65     080BOVAE       CI        000R$  000000000001100000000000110000000000002000000000000600000000000100000000000007000000000001000012000000000000010320000000000000068630000000000650002017091800000010000000000000BRBOVACTF003103
012017090182BOVAU66     080BOVAE FM    CI        000R$  000000000001100000000000120000000000007000000000000900000000000070000000000010000000000001600011000000000000009340000000000000085250000000000660002017091800000010000000000000BRBOVACTF003103
012017090182BOVAU67     080BOVAE FM    CI        000R$  000000000002200000000000260000000000017000000000002200000000000260000000000020000000000005100040000000000000080900000000000001839890000000000670002017091800000010000000000000BRBOVACTF003103
012017090182BOVAU68     080BOVAE FM    CI        000R$  000000000004200000000000470000000000030000000000003800000000000400000000000000000000000004000010000000000000013760000000000000535670000000000680002017091800000010000000000000BRBOVACTF003102
012017090182BOVAU69     080BOVAE FM    CI        000R$  000000000007800000000000780000000000058000000000006100000000000620000000000000000000000000000061000000000000359470000000000021932800000000000690002017091800000010000000000000BRBOVACTF003103
012017090182BOVAU70     080BOVAE       CI        000R$  000000000012000000000001200000000000100000000000011300000000001000000000000090000000000000000003000000000000003000000000000000340000000000000700002017091800000010000000000000BRBOVACTF003103
012017090182BOVAU71     080BOVAE       CI        000R$  000000000018000000000001800000000000180000000000018000000000001800000000000000000000000000000001000000000000002000000000000000360000000000000710002017091800000010000000000000BRBOVACTF003103
012017090182BOVAV48     080BOVAE       CI        000R$  000000000000300000000000030000000000003000000000000300000000000030000000000000000000000000300002000000000000003000000000000000009000000000000480002017101600000010000000000000BRBOVACTF003103
012017090182BOVAV62     080BOVAE       CI        000R$  000000000002200000000000230000000000020000000000002000000000000220000000000021000000000002200242000000000000562150000000000011764540000000000620002017101600000010000000000000BRBOVACTF003103
012017090182BOVAV64     080BOVAE       CI        000R$  000000000003200000000000320000000000032000000000003200000000000320000000000025000000000000000001000000000000001000000000000000032000000000000640002017101600000010000000000000BRBOVACTF003103
012017090182BOVAV65     080BOVAE       CI        000R$  000000000004400000000000440000000000044000000000004400000000000440000000000034000000000000000002000000000000041600000000000001830400000000000650002017101600000010000000000000BRBOVACTF003103
012017090182BOVAV66     080BOVAE FM    CI        000R$  000000000005500000000000550000000000046000000000004800000000000480000000000045000000000000000009000000000000118700000000000005733100000000000660002017101600000010000000000000BRBOVACTF003103
012017090182BOVAV67     080BOVAE FM    CI        000R$  000000000006600000000000700000000000061000000000006400000000000700000000000000000000000000000004000000000000012500000000000000808500000000000670002017101600000010000000000000BRBOVACTF003103
012017090182BOVAV68     080BOVAE FM    CI        000R$  000000000010300000000001030000000000084000000000009100000000000940000000000090000000000000000010000000000000034100000000000003118900000000000680002017101600000010000000000000BRBOVACTF003103
012017090182BOVAV69     080BOVAE FM    CI        000R$  000000000012100000000001250000000000113000000000012100000000001250000000000000000000000000000013000000000000158600000000000019340900000000000690002017101600000010000000000000BRBOVACTF003103
012017090182BOVAV70     080BOVAE       CI        000R$  000000000016000000000001600000000000159000000000015900000000001590000000000134000000000000000003000000000000115200000000000018379640000000000700002017101600000010000000000000BRBOVACTF003103
012017090182BOVAX10     080BOVAE       CI        000R$  000000000000200000000000020000000000002000000000000200000000000020000000000000000000000000000001000000000000013000000000000000026000000000000505002017121800000010000000000000BRBOVACTF003103
012017090182BOVAX63     080BOVAE       CI        000R$  000000000005300000000000530000000000053000000000005300000000000530000000000000000000000000000001000000000000013000000000000000689000000000000630002017121800000010000000000000BRBOVACTF003103
012017090114BOVV11      010IT NOW IBOV CI           R$  000000000717900000000072020000000007179000000000719800000000072020000000007202000000000750000004000000000000041300000000000297283900000000000000009999123100000010000000000000BRBOVVCTF009100
012017090102BPAC11      010BTGP BANCO  UNT          R$  000000000170100000000017970000000001630000000000170800000000017700000000001735000000000177001563000000000000632600000000001080740800000000000000009999123100000010000000000000BRBPACUNT006101
012017090196BPAC11F     020BTGP BANCO  UNT          R$  000000000170000000000017990000000001552000000000168000000000017990000000001684000000000179900023000000000000000745000000000001251729000000000000009999123100000010000000000000BRBPACUNT006101
012017090102BPAC3       010BTGP BANCO  ON           R$  000000000134000000000013400000000001250000000000131200000000012500000000001050000000000125100008000000000000000800000000000001050000000000000000009999123100000010000000000000BRBPACACNOR7116
012017090102BPAC5       010BTGP BANCO  PNA          R$  000000000095000000000009970000000000950000000000096300000000009970000000000750000000000090000007000000000000000700000000000000674400000000000000009999123100000010000000000000BRBPACACNPA0116
012017090102BPAN4       010BANCO PAN   PN      N1   R$  000000000018600000000001910000000000186000000000018800000000001880000000000188000000000018900109000000000000124800000000000023538700000000000000009999123100000010000000000000BRBPANACNPR1104
012017090196BPAN4F      020BANCO PAN   PN      N1   R$  000000000018900000000001910000000000189000000000018900000000001910000000000188000000000019100002000000000000000083000000000000015693000000000000009999123100000010000000000000BRBPANACNPR1104
012017090112BPFF11      010FII ABSOLUTOCI  ER       R$  000000000940000000000097000000000009400000000000950600000000095350000000009470000000000953500079000000000000003409000000000032406551000000000000009999123100000010000000000000BRBPFFCTF002154
012017090102BPHA3       010BR PHARMA   ON      NM   R$  000000000050500000000005180000000000503000000000050700000000005080000000000508000000000051000088000000000000031900000000000016189300000000000000009999123100000010000000000000BRBPHAACNOR6105
012017090196BPHA3F      020BR PHARMA   ON      NM   R$  000000000049600000000005070000000000496000000000050000000000005070000000000508000000000051000002000000000000000049000000000000024524000000000000009999123100000010000000000000BRBPHAACNOR6105
012017090102BRAP3       010BRADESPAR   ON      N1   R$  000000000239000000000023950000000002330000000000237300000000023760000000002376000000000238500358000000000000070000000000000166169400000000000000009999123100000010000000000000BRBRAPACNOR5131
012017090196BRAP3F      020BRADESPAR   ON      N1   R$  000000000225100000000023890000000002251000000000234800000000023600000000002304000000000249500004000000000000000124000000000000291254000000000000009999123100000010000000000000BRBRAPACNOR5131
012017090102BRAP4       010BRADESPAR   PN      N1   R$  000000000271000000000027530000000002706000000000273700000000027510000000002751000000000275506275000000000001723300000000004717882400000000000000009999123100000010000000000000BRBRAPACNPR2131
012017090196BRAP4F      020BRADESPAR   PN      N1   R$  000000000266100000000027510000000002600000000000270800000000026000000000002600000000000274300076000000000000001950000000000005278458000000000000009999123100000010000000000000BRBRAPACNPR2131
012017090114BRAX11      010ISHARES BRAXCI           R$  000000000588600000000059000000000005886000000000589300000000058990000000000000000000000000000012000000000000000520000000000003064860000000000000009999123100000010000000000000BRBRAXCTF002100
012017090112BRCR11      010FII BC FUND CI           R$  000000000911200000000092900000000009091000000000917900000000092900000000009257000000000929004788000000000000028654000000000263034093000000000000009999123100000010000000000000BRBRCRCTF000180
012017090102BRFS3       010BRF SA      ON      NM   R$  000000000438500000000044160000000004322000000000435800000000043610000000004344000000000436217783000000000005550100000000024191479600000000000000009999123100000010000000000000BRBRFSACNOR8117
012017090196BRFS3F      020BRF SA      ON      NM   R$  000000000425100000000044150000000004251000000000435300000000043540000000004339000000000435500468000000000000007243000000000031533679000000000000009999123100000010000000000000BRBRFSACNOR8117
012017090162BRFS3T      030BRF SA      ON      NM017R$  000000000437700000000043780000000004377000000000437700000000043780000000000000000000000000000002000000000000000700000000000003063903000000000000009999123100000010000000000000BRBRFSACNOR8117
012017090162BRFS3T      030BRF SA      ON      NM031R$  000000000441100000000044120000000004380000000000438500000000043900000000000000000000000000000008000000000000004800000000000021050930000000000000009999123100000010000000000000BRBRFSACNOR8117
012017090162BRFS3T      030BRF SA      ON      NM060R$  000000000444800000000044490000000004412000000000442600000000044130000000000000000000000000000004000000000000003800000000000016821984000000000000009999123100000010000000000000BRBRFSACNOR8117
012017090162BRFS3T      030BRF SA      ON      NM180R$  000000000450500000000045060000000004505000000000450500000000045060000000000000000000000000000002000000000000000100000000000000450579000000000000009999123100000010000000000000BRBRFSACNOR8117
012017090178BRFSI10     070BRFS  FM    ON      NM000R$  000000000030000000000003230000000000275000000000030200000000002750000000000120000000000033000038000000000000036600000000000011085600000000000409502017091800000010000000000000BRBRFSACNOR8117
012017090178BRFSI12     070BRFS  FM    ON      NM000R$  000000000013500000000001410000000000120000000000012700000000001200000000000000000000000018000017000000000000015900000000000002024500000000000429502017091800000010000000000000BRBRFSACNOR8117
012017090178BRFSI13     070BRFS  FM    ON      NM000R$  000000000009700000000000990000000000071000000000008600000000000710000000000000000000000008800020000000000000039100000000000003379500000000000439502017091800000010000000000000BRBRFSACNOR8117
012017090178BRFSI14     070BRFS  FM    ON      NM000R$  000000000005300000000000530000000000040000000000004300000000000400000000000013000000000005100004000000000000003400000000000000148700000000000449502017091800000010000000000000BRBRFSACNOR8117
012017090178BRFSI25     070BRFS        ON      NM000R$  000000000003000000000000300000000000030000000000003000000000000300000000000014000000000000000001000000000000000100000000000000003000000000000454502017091800000010000000000000BRBRFSACNOR8117
012017090178BRFSI40     070BRFS        ON      NM000R$  000000000034900000000003490000000000332000000000034100000000003330000000000000000000000040000011000000000000003900000000000001332700000000000404502017091800000010000000000000BRBRFSACNOR8117
012017090178BRFSI42     070BRFS        ON      NM000R$  000000000015000000000002030000000000150000000000017600000000001520000000000001000000000020400017000000000000027500000000000004866100000000000424502017091800000010000000000000BRBRFSACNOR8117
012017090178BRFSI43     070BRFS        ON      NM000R$  000000000011100000000001110000000000088000000000010800000000000980000000000070000000000000000006000000000000016100000000000001747200000000000434502017091800000010000000000000BRBRFSACNOR8117
012017090178BRFSI44     070BRFS        ON      NM000R$  000000000006000000000000600000000000060000000000006000000000000600000000000020000000000000000001000000000000000500000000000000030000000000000444502017091800000010000000000000BRBRFSACNOR8117
012017090178BRFSI7      070BRFS        ON      NM000R$  000000000055100000000005510000000000551000000000055100000000005510000000000000000000000000000001000000000000003000000000000001653000000000000379502017091800000010000000000000BRBRFSACNOR8117
012017090178BRFSI71     070BRFS  FM    ON      NM000R$  000000000021600000000002160000000000195000000000020300000000002060000000000001000000000000000004000000000000008200000000000001672400000000000419502017091800000010000000000000BRBRFSACNOR8117
012017090178BRFSI86     070BRFS        ON      NM000R$  000000000070300000000007030000000000651000000000066100000000006510000000000000000000000000000002000000000000005000000000000003307000000000000369502017091800000010000000000000BRBRFSACNOR8117
012017090178BRFSJ41     070BRFS  FM    ON      NM000R$  000000000035100000000003510000000000340000000000034500000000003400000000000330000000000000000003000000000000004800000000000001658400000000000410002017101600000010000000000000BRBRFSACNOR8117
012017090178BRFSJ42     070BRFS  FM    ON      NM000R$  000000000027000000000002700000000000264000000000026700000000002640000000000070000000000000000002000000000000004800000000000001281600000000000420002017101600000010000000000000BRBRFSACNOR8117
012017090178BRFSJ43     070BRFS  FM    ON      NM000R$  000000000019800000000001980000000000196000000000019700000000001960000000000000000000000000000002000000000000004800000000000000945600000000000430002017101600000010000000000000BRBRFSACNOR8117
012017090178BRFSJ44     070BRFS  FM    ON      NM000R$  000000000013700000000001530000000000136000000000014700000000001500000000000000000000000000000021000000000000033500000000000004929900000000000440002017101600000010000000000000BRBRFSACNOR8117
012017090178BRFSJ45     070BRFS  FM    ON      NM000R$  000000000011500000000001150000000000094000000000009700000000000960000000000089000000000000000023000000000000129800000000000012649700000000000450002017101600000010000000000000BRBRFSACNOR8117
012017090178BRFSJ50     070BRFS        ON      NM000R$  000000000000500000000000050000000000004000000000000400000000000040000000000000000000000000000002000000000000100000000000000000410400000000000500002017101600000010000000000000BRBRFSACNOR8117
012017090178BRFSL15     070BRFS        ON      NM000R$  000000000021000000000002100000000000210000000000021000000000002100000000000000000000000000000001000000000000100000000000000021000000000000000455002017121800000010000000000000BRBRFSACNOR8117
012017090178BRFSL3      070BRFS        ON      NM000R$  000000000024000000000002400000000000240000000000024000000000002400000000000000000000000000000002000000000000050000000000000012000000000000000435002017121800000010000000000000BRBRFSACNOR8117
012017090178BRFSL43     070BRFS        ON      NM000R$  000000000032000000000003200000000000320000000000032000000000003200000000000000000000000000000002000000000000100000000000000032000000000000000430002017121800000010000000000000BRBRFSACNOR8117
012017090178BRFSL45     070BRFS        ON      NM000R$  000000000014000000000001400000000000140000000000014000000000001400000000000000000000000000000001000000000000003000000000000000420000000000000450002017121800000010000000000000BRBRFSACNOR8117
012017090178BRFSL46     070BRFS        ON      NM000R$  000000000012000000000001200000000000120000000000012000000000001200000000000000000000000000000002000000000000050000000000000006000000000000000460002017121800000010000000000000BRBRFSACNOR8117
012017090178BRFSL82     070BRFSE       ON      NM000R$  000000000028000000000002800000000000280000000000028000000000002800000000000000000000000000000001000000000000001500000000000000420000000000000427502017121800000010000000000000BRBRFSACNOR8117
012017090182BRFSU10     080BRFSE FM    ON      NM000R$  000000000002800000000000290000000000028000000000002800000000000290000000000000000000000000000006000000000000012000000000000000337600000000000409502017091800000010000000000000BRBRFSACNOR8117
012017090182BRFSU13     080BRFSE       ON      NM000R$  000000000006400000000001010000000000064000000000008800000000001010000000000000000000000000000008000000000000015000000000000001330000000000000439502017091800000010000000000000BRBRFSACNOR8117
012017090182BRFSU41     080BRFSE       ON      NM000R$  000000000002200000000000220000000000022000000000002200000000000220000000000014000000000000000001000000000000001000000000000000022000000000000414502017091800000010000000000000BRBRFSACNOR8117
012017090182BRFSU43     080BRFSE       ON      NM000R$  000000000004500000000000900000000000045000000000007200000000000900000000000000000000000000000007000000000000013800000000000001000200000000000434502017091800000010000000000000BRBRFSACNOR8117
012017090182BRFSU71     080BRFSE FM    ON      NM000R$  000000000003100000000000310000000000031000000000003100000000000310000000000000000000000000000005000000000000010000000000000000310000000000000419502017091800000010000000000000BRBRFSACNOR8117
012017090182BRFSU9      080BRFSE FM    ON      NM000R$  000000000001500000000000150000000000015000000000001500000000000150000000000001000000000000000004000000000000010000000000000000150000000000000399502017091800000010000000000000BRBRFSACNOR8117
012017090182BRFSV12     080BRFSE       ON      NM000R$  000000000008300000000001020000000000083000000000008300000000001020000000000000000000000000000003000000000000007600000000000000632700000000000425002017101600000010000000000000BRBRFSACNOR8117
012017090182BRFSV40     080BRFSE FM    ON      NM000R$  000000000004000000000000400000000000040000000000004000000000000400000000000000000000000010000002000000000000003500000000000000140000000000000400002017101600000010000000000000BRBRFSACNOR8117
012017090182BRFSV42     080BRFSE FM    ON      NM000R$  000000000006300000000000890000000000063000000000006800000000000890000000000000000000000000000026000000000000056000000000000003834400000000000420002017101600000010000000000000BRBRFSACNOR8117
012017090182BRFSV43     080BRFSE FM    ON      NM000R$  000000000009700000000001110000000000097000000000009900000000001110000000000000000000000000000005000000000000012000000000000001197600000000000430002017101600000010000000000000BRBRFSACNOR8117
012017090182BRFSX39     080BRFSE       ON      NM000R$  000000000006800000000000740000000000068000000000006900000000000740000000000000000000000000000002000000000000050000000000000003478000000000000390002017121800000010000000000000BRBRFSACNOR8117
012017090102BRGE12      010ALFA CONSORCPNF          R$  000000000031900000000003190000000000305000000000031200000000003050000000000305000000000031800002000000000000000200000000000000062400000000000000009999123100000010000000000000BRBRGEACNPF8094
012017090196BRGE12F     020ALFA CONSORCPNF          R$  000000000026200000000002780000000000201000000000025200000000002780000000000209000000000000000011000000000000000287000000000000072523000000000000009999123100000010000000000000BRBRGEACNPF8094
012017090102BRIN3       010BR INSURANCEON      NM   R$  000000000160700000000016780000000001607000000000166800000000016550000000001655000000000166500041000000000000022300000000000037206800000000000000009999123100000010000000000000BRBRINACNOR3111
012017090196BRIN3F      020BR INSURANCEON      NM   R$  000000000165800000000016610000000001658000000000166000000000016610000000001641000000000166100003000000000000000066000000000000109611000000000000009999123100000010000000000000BRBRINACNOR3111
012017090162BRIN3T      030BR INSURANCEON      NM017R$  000000000168000000000016810000000001680000000000168000000000016810000000000000000000000000000002000000000000010600000000000017808280000000000000009999123100000010000000000000BRBRINACNOR3111
012017090196BRIV3F      020ALFA INVEST ON           R$  000000000047000000000004700000000000470000000000047000000000004700000000000451000000000049700001000000000000000039000000000000018330000000000000009999123100000010000000000000BRBRIVACNOR6205
012017090102BRKM3       010BRASKEM     ON      N1   R$  000000000361000000000037480000000003610000000000364900000000037200000000003642000000000372000007000000000000001700000000000006203800000000000000009999123100000010000000000000BRBRKMACNOR1114
012017090196BRKM3F      020BRASKEM     ON      N1   R$  000000000379700000000037970000000003741000000000378500000000037410000000003601000000000374100002000000000000000005000000000000018929000000000000009999123100000010000000000000BRBRKMACNOR1114
012017090102BRKM5       010BRASKEM     PNA     N1   R$  000000000382300000000038500000000003799000000000382600000000038300000000003830000000000383305433000000000000894700000000003423742400000000000000009999123100000010000000000000BRBRKMACNPA4114
012017090196BRKM5F      020BRASKEM     PNA     N1   R$  000000000381000000000038550000000003701000000000381900000000038100000000003810000000000382600079000000000000001957000000000007475362000000000000009999123100000010000000000000BRBRKMACNPA4114
012017090162BRKM5T      030BRASKEM     PNA     N1090R$  000000000389700000000038980000000003897000000000389700000000038980000000000000000000000000000002000000000000008700000000000033903982000000000000009999123100000010000000000000BRBRKMACNPA4114
012017090178BRKMI7      070BRKM  FM    PNA     N1000R$  000000000012900000000001290000000000129000000000012900000000001290000000000100000000000000000006000000000000001000000000000000129000000000000377402017091800000010000000000000BRBRKMACNPA4114
012017090178BRKMJ40     070BRKM  FM    PNA     N1000R$  000000000009800000000001080000000000098000000000010300000000001080000000000000000000000000000004000000000000004000000000000000412000000000000400002017101600000010000000000000BRBRKMACNPA4114
012017090182BRKMU6      080BRKME FM    PNA     N1000R$  000000000003300000000000330000000000033000000000003300000000000330000000000018000000000000000001000000000000001500000000000000049500000000000367402017091800000010000000000000BRBRKMACNPA4114
012017090102BRML3       010BR MALLS PARON      NM   R$  000000000137000000000013770000000001346000000000135900000000013460000000001346000000000135510565000000000003550500000000004826126400000000000000009999123100000010000000000000BRBRMLACNOR9110
012017090196BRML3F      020BR MALLS PARON      NM   R$  000000000136200000000013730000000001301000000000135800000000013500000000001350000000000135200123000000000000003709000000000005034811000000000000009999123100000010000000000000BRBRMLACNOR9110
012017090162BRML3T      030BR MALLS PARON      NM031R$  000000000137800000000013790000000001377000000000137800000000013780000000000000000000000000000004000000000000025000000000000034457633000000000000009999123100000010000000000000BRBRMLACNOR9110
012017090162BRML3T      030BR MALLS PARON      NM060R$  000000000138100000000013820000000001381000000000138100000000013820000000000000000000000000000002000000000000007300000000000010081648000000000000009999123100000010000000000000BRBRMLACNOR9110
012017090178BRMLI12     070BRML        ON      NM000R$  000000000014000000000001400000000000140000000000014000000000001400000000000000000000000000000001000000000000069700000000000009758000000000000121802017091800000010000000000000BRBRMLACNOR9110
012017090178BRMLI14     070BRML  FM    ON      NM000R$  000000000001600000000000160000000000010000000000001100000000000100000000000000000000000000000002000000000000002500000000000000028000000000000141802017091800000010000000000000BRBRMLACNOR9110
012017090178BRMLI63     070BRMLE       ON      NM000R$  000000000004800000000000490000000000038000000000004600000000000380000000000000000000000000000011000000000000003600000000000000167500000000000134302017091800000010000000000000BRBRMLACNOR9110
012017090178BRMLJ13     070BRML  FM    ON      NM000R$  000000000010400000000001040000000000104000000000010400000000001040000000000000000000000000000001000000000000001000000000000000104000000000000130002017101600000010000000000000BRBRMLACNOR9110
012017090178BRMLJ14     070BRML  FM    ON      NM000R$  000000000004500000000000450000000000045000000000004500000000000450000000000000000000000000000001000000000000002500000000000000112500000000000140002017101600000010000000000000BRBRMLACNOR9110
