00COTAHIST.2017BOVESPA 20170905                                                                                                                                                                                                                      
012017090596AALL34F     020AMERICAN AIRDRN          R$  000000001374100000000137410000000013741000000001374100000000137410000000000000000000000000000001000000000000000014000000000000192374000000000000009999123100000010000000000000BRAALLBDR003105
012017090502AALR3       010ALLIAR      ON      NM   R$  000000000163400000000016500000000001586000000000160600000000016500000000001632000000000165000925000000000001322400000000002124225300000000000000009999123100000010000000000000BRAALRACNOR6100
012017090596AALR3F      020ALLIAR      ON      NM   R$  000000000164900000000016490000000001598000000000162100000000015980000000001586000000000164600003000000000000000092000000000000149197000000000000009999123100000010000000000000BRAALRACNOR6100
012017090502AAPL34      010APPLE       DRN          R$  000000000507000000000050780000000005025000000000506300000000050250000000005025000000000530000004000000000000004500000000000022785500000000000000009999123100000010000000000000BRAAPLBDR004122
012017090596AAPL34F     020APPLE       DRN          R$  000000000639900000000063990000000005072000000000509600000000050720000000005072000000000634900003000000000000000054000000000000275215000000000000009999123100000010000000000000BRAAPLBDR004122
012017090596ABBV34F     020ABBVIE      DRN          R$  000000002339400000000233940000000023394000000002339400000000233940000000000000000000000000000001000000000000000080000000000001871520000000000000009999123100000010000000000000BRABBVBDR001106
012017090510ABCB10      010ABC BRASIL  PN  REC N2   R$  000000000174100000000017510000000001684000000000171500000000017150000000001705000000000173000068000000000000017600000000000030192700000000000000009999123100000010000000000000BRABCBR12PR6127
012017090596ABCB10F     020ABC BRASIL  PN  REC N2   R$  000000000171000000000017500000000001704000000000171600000000017040000000001681000000000175000004000000000000000091000000000000156187000000000000009999123100000010000000000000BRABCBR12PR6127
012017090502ABCB4       010ABC BRASIL  PN      N2   R$  000000000175400000000017700000000001682000000000173300000000017110000000001711000000000172003086000000000000915100000000001586699700000000000000009999123100000010000000000000BRABCBACNPR4128
012017090596ABCB4F      020ABC BRASIL  PN      N2   R$  000000000176600000000017700000000001685000000000173200000000017290000000001719000000000173200059000000000000001389000000000002406867000000000000009999123100000010000000000000BRABCBACNPR4128
012017090562ABCB4T      030ABC BRASIL  PN      N2030R$  000000000176700000000017680000000001767000000000176700000000017680000000000000000000000000000002000000000000001000000000000001767941000000000000009999123100000010000000000000BRABCBACNPR4128
012017090562ABCB4T      030ABC BRASIL  PN      N2062R$  000000000177600000000017770000000001775000000000177500000000017760000000000000000000000000000006000000000000004700000000000008346377000000000000009999123100000010000000000000BRABCBACNPR4128
012017090512ABCP11      010FII ABC IMOBCI  ER       R$  000000000169900000000016990000000001650000000000165900000000016510000000001651000000000169500035000000000000003157000000000005239862000000000000009999123100000010000000000000BRABCPCTF000263
012017090502ABEV3       010AMBEV S/A   ON           R$  000000000199000000000019940000000001971000000000198000000000019820000000001976000000000198229026000000000018386200000000036419296600000000000000009999123100000010000000000000BRABEVACNOR1117
012017090596ABEV3F      020AMBEV S/A   ON           R$  000000000197700000000019940000000001973000000000198200000000019900000000001971000000000199000220000000000000004371000000000008664460000000000000009999123100000010000000000000BRABEVACNOR1117
012017090578ABEVA60     070ABEVE       ON        000R$  000000000007500000000000750000000000055000000000005500000000000550000000000000000000000000000002000000000000875100000000000048470500000000000201702018011500000010000000000000BRABEVACNOR1117
012017090578ABEVA70     070ABEV        ON        000R$  000000000008100000000000810000000000081000000000008100000000000810000000000000000000000000000001000000000000297200000000000024073200000000000199202018011500000010000000000000BRABEVACNOR1115
012017090578ABEVA8      070ABEVE       ON        000R$  000000000018000000000001800000000000180000000000018000000000001800000000000000000000000000000001000000000000017000000000000003060000000000000186702018011500000010000000000000BRABEVACNOR1115
012017090578ABEVA80     070ABEVE       ON        000R$  000000000006000000000000600000000000060000000000006000000000000600000000000000000000000000000001000000000000017000000000000001020000000000000206702018011500000010000000000000BRABEVACNOR1117
012017090578ABEVA81     070ABEVE       ON        000R$  000000000003000000000000300000000000030000000000003000000000000300000000000000000000000000000001000000000000017000000000000000510000000000000211702018011500000010000000000000BRABEVACNOR1117
012017090578ABEVA89     070ABEVE       ON        000R$  000000000014000000000001400000000000140000000000014000000000001400000000000000000000000000000001000000000000017000000000000002380000000000000191702018011500000010000000000000BRABEVACNOR1113
012017090578ABEVA93     070ABEVE       ON        000R$  000000000000500000000000050000000000005000000000000500000000000050000000000000000000000000000001000000000000017000000000000000085000000000000231702018011500000010000000000000BRABEVACNOR1117
012017090578ABEVI1      070ABEV  FM    ON        000R$  000000000006800000000000680000000000058000000000005800000000000640000000000000000000000006500007000000000000511400000000000029780500000000000192902017091800000010000000000000BRABEVACNOR1113
012017090578ABEVI20     070ABEV        ON        000R$  000000000001100000000000110000000000007000000000000800000000000070000000000005000000000000800008000000000000017300000000000000145700000000000202902017091800000010000000000000BRABEVACNOR1116
012017090578ABEVI49     070ABEV  FM    ON        000R$  000000000002700000000000270000000000027000000000002700000000000270000000000020000000000002700001000000000000000100000000000000002700000000000197902017091800000010000000000000BRABEVACNOR1116
012017090578ABEVI69     070ABEVE       ON        000R$  000000000008000000000000900000000000080000000000008000000000000900000000000000000000000000000002000000000000297900000000000023839000000000000190402017091800000010000000000000BRABEVACNOR1116
012017090578ABEVI80     070ABEVE       ON        000R$  000000000004300000000000430000000000042000000000004200000000000420000000000000000000000004400002000000000000858500000000000036057400000000000195402017091800000010000000000000BRABEVACNOR1113
012017090578ABEVI90     070ABEVE       ON        000R$  000000000001200000000000150000000000012000000000001200000000000150000000000001000000000000000005000000000000020000000000000000256500000000000200402017091800000010000000000000BRABEVACNOR1117
012017090578ABEVJ20     070ABEV  FM    ON        000R$  000000000003800000000000380000000000031000000000003200000000000310000000000031000000000003700004000000000000013800000000000000453500000000000200502017101600000010000000000000BRABEVACNOR1117
012017090578ABEVJ50     070ABEV  FM    ON        000R$  000000000001500000000000150000000000015000000000001500000000000150000000000000000000000001700001000000000000005000000000000000075000000000000205502017101600000010000000000000BRABEVACNOR1116
012017090578ABEVJ51     070ABEV  FM    ON        000R$  000000000000300000000000030000000000003000000000000300000000000030000000000000000000000000600001000000000000001000000000000000003000000000000215502017101600000010000000000000BRABEVACNOR1116
012017090578ABEVJ89     070ABEVE       ON        000R$  000000000004200000000000420000000000042000000000004200000000000420000000000000000000000000000001000000000000001000000000000000042000000000000198002017101600000010000000000000BRABEVACNOR1117
012017090578ABEVK20     070ABEV        ON        000R$  000000000009000000000000900000000000090000000000009000000000000900000000000000000000000009000001000000000000000100000000000000009000000000000199202017112100000010000000000000BRABEVACNOR1116
012017090578ABEVL79     070ABEVE       ON        000R$  000000000016600000000001660000000000166000000000016600000000001660000000000000000000000017600001000000000000000200000000000000033200000000000185402017121800000010000000000000BRABEVACNOR1113
012017090582ABEVM68     080ABEVE       ON        000R$  000000000001300000000000130000000000013000000000001300000000000130000000000000000000000000000001000000000000017000000000000000221000000000000181702018011500000010000000000000BRABEVACNOR1117
012017090582ABEVM96     080ABEVE       ON        000R$  000000000000800000000000080000000000008000000000000800000000000080000000000000000000000000000001000000000000017000000000000000136000000000000161702018011500000010000000000000BRABEVACNOR1113
012017090582ABEVU1      080ABEVE FM    ON        000R$  000000000000800000000000080000000000008000000000000800000000000080000000000000000000000000000001000000000000004000000000000000032000000000000192902017091800000010000000000000BRABEVACNOR1113
012017090582ABEVU2      080ABEVE FM    ON        000R$  000000000000300000000000030000000000003000000000000300000000000030000000000001000000000000500001000000000000010000000000000000030000000000000187902017091800000010000000000000BRABEVACNOR1113
012017090582ABEVU49     080ABEVE FM    ON        000R$  000000000002200000000000230000000000019000000000002100000000000190000000000019000000000000000005000000000000024600000000000000522800000000000197902017091800000010000000000000BRABEVACNOR1116
012017090582ABEVU50     080ABEVE FM    ON        000R$  000000000009300000000001020000000000093000000000009600000000001020000000000000000000000000000003000000000000030000000000000002890000000000000207902017091800000010000000000000BRABEVACNOR1116
012017090582ABEVV86     080ABEVE FM    ON        000R$  000000000001700000000000170000000000017000000000001700000000000170000000000014000000000007000001000000000000002000000000000000034000000000000193002017101600000010000000000000BRABEVACNOR1116
012017090582ABEVV89     080ABEVE FM    ON        000R$  000000000003400000000000340000000000034000000000003400000000000340000000000000000000000003400005000000000000050000000000000001700000000000000198002017101600000010000000000000BRABEVACNOR1117
012017090582ABEVX60     080ABEVE       ON        000R$  000000000005700000000000570000000000056000000000005600000000000560000000000000000000000000000002000000000000080000000000000004516000000000000200402017121800000010000000000000BRABEVACNOR1115
012017090596ACNB34F     020ACCENTURE   DRN          R$  000000004037000000000403700000000040370000000004037000000000403700000000000000000000000000000001000000000000000011000000000000444070000000000000009999123100000010000000000000BRACNBBDR006104
012017090502ADHM3       010ADVANCED-DH ON           R$  000000000021500000000002210000000000215000000000021500000000002200000000000215000000000022100007000000000000002000000000000000431600000000000000009999123100000010000000000000BRADHMACNOR9101
012017090596ADHM3F      020ADVANCED-DH ON           R$  000000000021500000000002150000000000215000000000021500000000002150000000000202000000000021500001000000000000000050000000000000010750000000000000009999123100000010000000000000BRADHMACNOR9101
012017090512AEFI11      010FII AESAPAR CI  ER       R$  000000001443000000000145990000000014224000000001443900000000144600000000014460000000001455000083000000000000002621000000000037846188000000000000009999123100000010000000000000BRAEFICTF002169
012017090596AETB34F     020AETNA INC   DRN          R$  000000004920200000000492020000000049202000000004920200000000492020000000000000000000000000000001000000000000000026000000000001279252000000000000009999123100000010000000000000BRAETBBDR009104
012017090596AFLT3F      020AFLUENTE T  ON           R$  000000000060000000000006000000000000600000000000060000000000006000000000000450000000000060000001000000000000000015000000000000009000000000000000009999123100000010000000000000BRAFLTACNOR1110
012017090502AFLU3       010AFLUENTE    ON           R$  000000000053500000000005840000000000535000000000053900000000005840000000000540000000000058400004000000000000001100000000000000593400000000000000009999123100000010000000000000BRAFLUACNOR9122
012017090512AGCX11      010FII AG CAIXACI  ER       R$  000000012120100000001229990000000121000000000012173000000001218300000000121200000000012183000105000000000000000441000000000053683242000000000000009999123100000010000000000000BRAGCXCTF003158
012017090502AGRO3       010BRASILAGRO  ON      NM   R$  000000000122800000000012380000000001222000000000123300000000012330000000001233000000000123600139000000000000045500000000000056142400000000000000009999123100000010000000000000BRAGROACNOR7106
012017090596AGRO3F      020BRASILAGRO  ON      NM   R$  000000000123400000000012340000000001231000000000123200000000012330000000001233000000000123600003000000000000000114000000000000140492000000000000009999123100000010000000000000BRAGROACNOR7106
012017090596AIGB34F     020AIG GROUP   DRN          R$  000000001855500000000185550000000018555000000001855500000000185550000000000000000000000000000001000000000000000068000000000001261740000000000000009999123100000010000000000000BRAIGBBDR007103
012017090512ALMI11      010FII TORRE ALCI           R$  000000021990000000002219990000000219799000000021990500000002200000000000218000000000022000000014000000000000000035000000000007696686000000000000009999123100000010000000000000BRALMICTF003249
012017090502ALPA3       010ALPARGATAS  ON      N1   R$  000000000141100000000014110000000001383000000000139400000000013900000000001381000000000139000010000000000000001400000000000001952900000000000000009999123100000010000000000000BRALPAACNOR0222
012017090502ALPA4       010ALPARGATAS  PN      N1   R$  000000000143100000000014310000000001390000000000140000000000014000000000001396000000000140000484000000000000647200000000000906595700000000000000009999123100000010000000000000BRALPAACNPR7222
012017090596ALPA4F      020ALPARGATAS  PN      N1   R$  000000000139900000000014090000000001392000000000140200000000014010000000001394000000000141500009000000000000000128000000000000179546000000000000009999123100000010000000000000BRALPAACNPR7222
012017090502ALSC3       010ALIANSCE    ON      NM   R$  000000000174600000000017710000000001721000000000174700000000017470000000001742000000000174702626000000000000642500000000001122773300000000000000009999123100000010000000000000BRALSCACNOR0110
012017090596ALSC3F      020ALIANSCE    ON      NM   R$  000000000175000000000017710000000001726000000000174800000000017460000000001708000000000174600023000000000000000555000000000000970378000000000000009999123100000010000000000000BRALSCACNOR0110
012017090502ALUP11      010ALUPAR      UNT     N2   R$  000000000186500000000018960000000001855000000000187000000000018900000000001883000000000189002259000000000001309300000000002449354000000000000000009999123100000010000000000000BRALUPCDAM15106
012017090596ALUP11F     020ALUPAR      UNT     N2   R$  000000000186500000000018940000000001854000000000187100000000018940000000001854000000000189400031000000000000000756000000000001414714000000000000009999123100000010000000000000BRALUPCDAM15106
012017090502ALUP3       010ALUPAR      ON      N2   R$  000000000069000000000006900000000000690000000000069000000000006900000000000620000000000069000002000000000000000300000000000000207000000000000000009999123100000010000000000000BRALUPACNOR8106
012017090502AMAR3       010LOJAS MARISAON      NM   R$  000000000076600000000007750000000000730000000000074700000000007350000000000735000000000073602220000000000000959000000000000716510300000000000000009999123100000010000000000000BRAMARACNOR4112
012017090596AMAR3F      020LOJAS MARISAON      NM   R$  000000000076800000000007780000000000734000000000075000000000007380000000000738000000000075700052000000000000001466000000000001099845000000000000009999123100000010000000000000BRAMARACNOR4112
012017090502AMGN34      010AMGEN       DRN          R$  000000005523200000000552320000000055232000000005523200000000552320000000000000000000000000000001000000000000000100000000000005523200000000000000009999123100000010000000000000BRAMGNBDR004123
012017090596AMGN34F     020AMGEN       DRN          R$  000000005485400000000548540000000054854000000005485400000000548540000000000000000000000000000001000000000000000058000000000003181532000000000000009999123100000010000000000000BRAMGNBDR004123
012017090596AMZO34F     020AMAZON      DRN          R$  000000015027000000001502700000000150270000000015027000000001502700000000080000000000000000000001000000000000000009000000000001352430000000000000009999123100000010000000000000BRAMZOBDR002101
012017090502ANDV34      010ANDEAVOR    DRN ED       R$  000000001540800000000154080000000015408000000001540800000000154080000000000000000000000000000001000000000000002400000000000036979200000000000000009999123100000010000000000000BRANDVBDR002101
012017090596ANDV34F     020ANDEAVOR    DRN ED       R$  000000001540800000000154080000000015408000000001540800000000154080000000000000000000000000000001000000000000000012000000000000184896000000000000009999123100000010000000000000BRANDVBDR002101
012017090502ANIM3       010ANIMA       ON      NM   R$  000000000183400000000018490000000001798000000000181700000000018000000000001800000000000182000378000000000000106600000000000193771600000000000000009999123100000010000000000000BRANIMACNOR6104
012017090596ANIM3F      020ANIMA       ON      NM   R$  000000000180100000000018220000000001801000000000180800000000018220000000001787000000000186500002000000000000000111000000000000200709000000000000009999123100000010000000000000BRANIMACNOR6104
012017090562ANIM3T      030ANIMA       ON      NM016R$  000000000180700000000018080000000001807000000000180700000000018080000000000000000000000000000002000000000000007300000000000013193874000000000000009999123100000010000000000000BRANIMACNOR6104
012017090502ARMT34      010ARCELOR     DRN          R$  000000000414300000000041430000000004143000000000414300000000041430000000000000000000000000000002000000000000000500000000000002071500000000000000009999123100000010000000000000BRARMTBDR008115
012017090596ARMT34F     020ARCELOR     DRN          R$  000000000414300000000041430000000004143000000000414300000000041430000000000000000000000000000001000000000000000060000000000000248580000000000000009999123100000010000000000000BRARMTBDR008115
012017090502ARZZ3       010AREZZO CO   ON  ED  NM   R$  000000000458000000000046800000000004538000000000461300000000046020000000004601000000000464702433000000000000362300000000001671453300000000000000009999123100000010000000000000BRARZZACNOR3126
012017090596ARZZ3F      020AREZZO CO   ON  ED  NM   R$  000000000456000000000046720000000004560000000000461600000000045980000000004598000000000472500038000000000000001045000000000004823741000000000000009999123100000010000000000000BRARZZACNOR3126
012017090502ATOM3       010ATOMPAR     ON           R$  000000000027700000000002800000000000274000000000027500000000002780000000000276000000000027900033000000000000024600000000000006769100000000000000009999123100000010000000000000BRATOMACNOR1102
012017090596ATOM3F      020ATOMPAR     ON           R$  000000000027300000000002760000000000273000000000027400000000002760000000000275000000000030000002000000000000000130000000000000035730000000000000009999123100000010000000000000BRATOMACNOR1102
012017090512ATSA11B     010FII CSHGATSACI  ER  MB   R$  000000011790000000001179000000000117900000000011790000000001179000000000100100000000011790000001000000000000000006000000000000707400000000000000009999123100000010000000000000BRATSACTF000106
012017090502ATTB34      010ATT INC     DRN          R$  000000001154800000000115480000000011527000000001153700000000115270000000011527000000000000000002000000000000000200000000000002307500000000000000009999123100000010000000000000BRATTBBDR007120
012017090502AVON34      010AVON        DRN          R$  000000000038900000000003890000000000389000000000038900000000003890000000000366000000000049000003000000000000000700000000000000272300000000000000009999123100000010000000000000BRAVONBDR009121
012017090596AXPB34F     020AMERICAN EXPDRN          R$  000000002653600000000265360000000026536000000002653600000000265360000000000000000000000000000001000000000000000013000000000000344968000000000000009999123100000010000000000000BRAXPBBDR007121
012017090502AZEV4       010AZEVEDO     PN           R$  000000000011500000000001150000000000108000000000010800000000001090000000000110000000000011400006000000000000004300000000000000467800000000000000009999123100000010000000000000BRAZEVACNPR7116
012017090502AZUL4       010AZUL        PN      N2   R$  000000000272500000000027590000000002688000000000273200000000027310000000002731000000000274701304000000000000395200000000001079768400000000000000009999123100000010000000000000BRAZULACNPR4100
012017090596AZUL4F      020AZUL        PN      N2   R$  000000000272500000000027560000000002700000000000272800000000027060000000002660000000000274500017000000000000000630000000000001718959000000000000009999123100000010000000000000BRAZULACNPR4100
012017090502BAHI3       010BAHEMA      ON           R$  000000000535000000000053500000000005100000000000522500000000051000000000005100000000000519900002000000000000000200000000000001045000000000000000009999123100000010000000000000BRBAHIACNOR1070
012017090596BAHI3F      020BAHEMA      ON           R$  000000000520000000000052000000000005200000000000520000000000052000000000004833000000000520000001000000000000000020000000000000104000000000000000009999123100000010000000000000BRBAHIACNOR1070
012017090502BAUH4       010EXCELSIOR   PN           R$  000000000145000000000014500000000001450000000000145000000000014500000000001352000000000145000003000000000000000400000000000000580000000000000000009999123100000010000000000000BRBAUHACNPR3112
012017090502BAZA3       010AMAZONIA    ON           R$  000000000270000000000027050000000002700000000000270300000000027050000000002700000000000275700002000000000000000300000000000000811000000000000000009999123100000010000000000000BRBAZAACNOR0171
012017090596BAZA3F      020AMAZONIA    ON           R$  000000000270000000000027000000000002700000000000270000000000027000000000002678000000000278900002000000000000000050000000000000135000000000000000009999123100000010000000000000BRBAZAACNOR0171
012017090502BBAS3       010BRASIL      ON      NM   R$  000000000330000000000033050000000003200000000000324000000000032000000000003199000000000320028190000000000011118900000000036029926200000000000000009999123100000010000000000000BRBBASACNOR3270
012017090596BBAS3F      020BRASIL      ON      NM   R$  000000000325100000000033040000000003208000000000324800000000032170000000003202000000000321700431000000000000012920000000000041952058000000000000009999123100000010000000000000BRBBASACNOR3270
012017090562BBAS3T      030BRASIL      ON      NM016R$  000000000321100000000032120000000003211000000000321100000000032120000000000000000000000000000002000000000000001000000000000003211840000000000000009999123100000010000000000000BRBBASACNOR3270
012017090562BBAS3T      030BRASIL      ON      NM030R$  000000000331900000000033200000000003221000000000322900000000032220000000000000000000000000000004000000000000005400000000000017436644000000000000009999123100000010000000000000BRBBASACNOR3270
012017090562BBAS3T      030BRASIL      ON      NM090R$  000000000331100000000033140000000003311000000000331200000000033120000000000000000000000000000008000000000000045000000000000149053663000000000000009999123100000010000000000000BRBBASACNOR3270
012017090562BBAS3T      030BRASIL      ON      NM181R$  000000000336600000000033670000000003366000000000336600000000033670000000000000000000000000000002000000000000000080000000000000269319000000000000009999123100000010000000000000BRBBASACNOR3270
012017090578BBASI13     070BBASE       ON      NM000R$  000000000004400000000000450000000000031000000000003500000000000310000000000011000000000004000004000000000000017600000000000000621600000000000333802017091800000010000000000000BRBBASACNOR3266
012017090578BBASI29     070BBASE       ON      NM000R$  000000000038000000000003800000000000352000000000037300000000003520000000000000000000000000000007000000000000004600000000000001718400000000000288802017091800000010000000000000BRBBASACNOR3268
012017090578BBASI30     070BBAS        ON      NM000R$  000000000026900000000002690000000000267000000000026700000000002670000000000031000000000000000002000000000000005600000000000001496400000000000296302017091800000010000000000000BRBBASACNOR3267
012017090578BBASI31     070BBAS  FM    ON      NM000R$  000000000017900000000002350000000000167000000000020000000000001670000000000025000000000016700104000000000000211800000000000042457100000000000306302017091800000010000000000000BRBBASACNOR3266
012017090578BBASI32     070BBAS  FM    ON      NM000R$  000000000011000000000001550000000000098000000000012300000000000990000000000076000000000011000253000000000000308300000000000038028500000000000316302017091800000010000000000000BRBBASACNOR3267
012017090578BBASI33     070BBAS  FM    ON      NM000R$  000000000008000000000000890000000000048000000000006200000000000500000000000042000000000005000450000000000000607800000000000038288300000000000326302017091800000010000000000000BRBBASACNOR3267
012017090578BBASI34     070BBAS  FM    ON      NM000R$  000000000002800000000000450000000000018000000000002800000000000200000000000001000000000002400483000000000000580100000000000016340200000000000336302017091800000010000000000000BRBBASACNOR3267
012017090578BBASI35     070BBAS  FM    ON      NM000R$  000000000001300000000000180000000000008000000000001200000000000100000000000008000000000001000492000000000000956600000000000011631900000000000346302017091800000010000000000000BRBBASACNOR3266
012017090578BBASI36     070BBAS        ON      NM000R$  000000000001000000000000100000000000003000000000000500000000000030000000000003000000000000900390000000000000291300000000000001513000000000000356302017091800000010000000000000BRBBASACNOR3267
012017090578BBASI4      070BBAS        ON      NM000R$  000000000004300000000000600000000000033000000000004600000000000330000000000032000000000003900525000000000000652800000000000030452000000000000331302017091800000010000000000000BRBBASACNOR3266
012017090578BBASI41     070BBAS        ON      NM000R$  000000000014900000000001950000000000149000000000016000000000001850000000000000000000000018500006000000000000009500000000000001526500000000000311302017091800000010000000000000BRBBASACNOR3269
012017090578BBASI52     070BBAS        ON      NM000R$  000000000007300000000001050000000000068000000000009100000000000740000000000050000000000007300486000000000000554600000000000050847200000000000321302017091800000010000000000000BRBBASACNOR3269
012017090578BBASI59     070BBAS        ON      NM000R$  000000000034000000000003400000000000340000000000034000000000003400000000000000000000000000000001000000000000002000000000000000680000000000000291302017091800000010000000000000BRBBASACNOR3267
012017090578BBASI6      070BBAS        ON      NM000R$  000000000001500000000000280000000000014000000000001700000000000140000000000010000000000003800244000000000000186300000000000003253500000000000341302017091800000010000000000000BRBBASACNOR3267
012017090578BBASI60     070BBAS        ON      NM000R$  000000000026400000000002640000000000264000000000026400000000002640000000000000000000000000000001000000000000002500000000000000660000000000000301302017091800000010000000000000BRBBASACNOR3268
012017090578BBASI62     070BBAS        ON      NM000R$  000000000102000000000010200000000001000000000000101500000000010200000000000000000000000000000009000000000000007800000000000007924000000000000221302017091800000010000000000000BRBBASACNOR3262
012017090578BBASI64     070BBASE       ON      NM000R$  000000000001800000000000180000000000018000000000001800000000000180000000000006000000000001800003000000000000001300000000000000023400000000000343802017091800000010000000000000BRBBASACNOR3266
012017090578BBASI65     070BBAS        ON      NM000R$  000000000000300000000000050000000000003000000000000300000000000050000000000003000000000002000003000000000000001600000000000000005000000000000351302017091800000010000000000000BRBBASACNOR3267
012017090578BBASI8      070BBASE       ON      NM000R$  000000000043000000000004300000000000430000000000043000000000004300000000000000000000000000000002000000000000000700000000000000301000000000000278802017091800000010000000000000BRBBASACNOR3266
012017090578BBASI81     070BBASE       ON      NM000R$  000000000012500000000001250000000000121000000000012100000000001210000000000108000000000000000004000000000000002100000000000000254500000000000313802017091800000010000000000000BRBBASACNOR3268
012017090578BBASI82     070BBASE       ON      NM000R$  000000000008300000000000830000000000083000000000008300000000000830000000000066000000000012200002000000000000001000000000000000083000000000000318802017091800000010000000000000BRBBASACNOR3269
012017090578BBASI92     070BBASE       ON      NM000R$  000000000008400000000000840000000000060000000000006400000000000630000000000048000000000008900008000000000000016400000000000001052400000000000323802017091800000010000000000000BRBBASACNOR3269
012017090578BBASJ1      070BBAS  FM    ON      NM000R$  000000000021000000000002100000000000175000000000019000000000001820000000000023000000000000000005000000000000006200000000000001180500000000000316302017101600000010000000000000BRBBASACNOR3269
012017090578BBASJ2      070BBAS  FM    ON      NM000R$  000000000014200000000001420000000000114000000000012500000000001140000000000000000000000014600050000000000000121000000000000015188900000000000326302017101600000010000000000000BRBBASACNOR3269
012017090578BBASJ22     070BBAS        ON      NM000R$  000000000103000000000010300000000001014000000000102100000000010140000000000000000000000000000008000000000000007100000000000007255000000000000221302017101600000010000000000000BRBBASACNOR3269
012017090578BBASJ30     070BBAS        ON      NM000R$  000000000033000000000003300000000000293000000000029900000000002930000000000000000000000000000012000000000000004500000000000001345700000000000301302017101600000010000000000000BRBBASACNOR3269
012017090578BBASJ31     070BBAS        ON      NM000R$  000000000021300000000002150000000000202000000000020700000000002030000000000000000000000000000005000000000000004600000000000000953200000000000311302017101600000010000000000000BRBBASACNOR3269
012017090578BBASJ32     070BBAS        ON      NM000R$  000000000017200000000001780000000000145000000000015900000000001450000000000000000000000017700018000000000000024800000000000003965800000000000321302017101600000010000000000000BRBBASACNOR3269
012017090578BBASJ33     070BBAS        ON      NM000R$  000000000010300000000001290000000000096000000000011300000000001000000000000081000000000010000035000000000000038900000000000004420200000000000331302017101600000010000000000000BRBBASACNOR3269
012017090578BBASJ34     070BBAS        ON      NM000R$  000000000007000000000000750000000000066000000000006800000000000660000000000001000000000007900015000000000000024700000000000001701100000000000341302017101600000010000000000000BRBBASACNOR3269
012017090578BBASJ60     070BBAS  FM    ON      NM000R$  000000000027300000000002730000000000236000000000025500000000002440000000000000000000000000000009000000000000011300000000000002882100000000000306302017101600000010000000000000BRBBASACNOR3269
012017090578BBASJ73     070BBASE       ON      NM000R$  000000000013100000000001310000000000131000000000013100000000001310000000000000000000000000000001000000000000000500000000000000065500000000000328802017101600000010000000000000BRBBASACNOR3269
012017090578BBASJ80     070BBASE       ON      NM000R$  000000000033500000000003350000000000300000000000031700000000003000000000000270000000000000000006000000000000004000000000000001270000000000000298802017101600000010000000000000BRBBASACNOR3268
012017090578BBASJ82     070BBASE       ON      NM000R$  000000000016300000000001630000000000163000000000016300000000001630000000000115000000000000000002000000000000010000000000000001630000000000000318802017101600000010000000000000BRBBASACNOR3268
012017090578BBASJ93     070BBAS  FM    ON      NM000R$  000000000011300000000001130000000000095000000000010700000000000950000000000000000000000000000015000000000000014000000000000001510000000000000336302017101600000010000000000000BRBBASACNOR3269
012017090578BBASJ94     070BBAS  FM    ON      NM000R$  000000000005000000000000690000000000050000000000006000000000000500000000000011000000000005600068000000000000087100000000000005272900000000000346302017101600000010000000000000BRBBASACNOR3269
012017090578BBASK1      070BBASE       ON      NM000R$  000000000010000000000001000000000000100000000000010000000000001000000000000000000000000010500001000000000000000200000000000000020000000000000348802017112100000010000000000000BRBBASACNOR3267
012017090578BBASK32     070BBAS        ON      NM000R$  000000000021300000000002130000000000213000000000021300000000002130000000000000000000000000000002000000000000001700000000000000362100000000000321302017112100000010000000000000BRBBASACNOR3269
012017090578BBASK34     070BBAS        ON      NM000R$  000000000013000000000001300000000000122000000000012300000000001220000000000000000000000013200003000000000000003600000000000000444000000000000341302017112100000010000000000000BRBBASACNOR3269
012017090578BBASL31     070BBAS        ON      NM000R$  000000000035000000000003500000000000350000000000035000000000003500000000000000000000000000000001000000000000001000000000000000350000000000000306302017121800000010000000000000BRBBASACNOR3267
012017090578BBASL32     070BBAS        ON      NM000R$  000000000030000000000003000000000000290000000000029600000000002900000000000000000000000000000002000000000000000300000000000000089000000000000316302017121800000010000000000000BRBBASACNOR3265
012017090578BBASL88     070BBASE       ON      NM000R$  000000000054700000000005470000000000547000000000054700000000005470000000000000000000000000000001000000000000000300000000000000164100000000000278802017121800000010000000000000BRBBASACNOR3267
012017090582BBASU28     080BBASE       ON      NM000R$  000000000000300000000000070000000000003000000000000600000000000070000000000002000000000000600003000000000000005600000000000000034000000000000276302017091800000010000000000000BRBBASACNOR3266
012017090582BBASU29     080BBASE       ON      NM000R$  000000000000500000000000050000000000005000000000000500000000000050000000000004000000000001000001000000000000002000000000000000010000000000000288802017091800000010000000000000BRBBASACNOR3268
012017090582BBASU30     080BBASE FM    ON      NM000R$  000000000000500000000000090000000000005000000000000700000000000090000000000005000000000001800010000000000000005600000000000000040600000000000296302017091800000010000000000000BRBBASACNOR3267
012017090582BBASU31     080BBASE       ON      NM000R$  000000000002100000000000210000000000011000000000001800000000000200000000000020000000000002100037000000000000104800000000000001969300000000000306302017091800000010000000000000BRBBASACNOR3266
012017090582BBASU32     080BBASE       ON      NM000R$  000000000004500000000000500000000000022000000000003800000000000460000000000036000000000004900102000000000000163800000000000006298900000000000316302017091800000010000000000000BRBBASACNOR3267
012017090582BBASU33     080BBASE FM    ON      NM000R$  000000000005800000000000890000000000058000000000006800000000000890000000000000000000000000000040000000000000051700000000000003562300000000000326302017091800000010000000000000BRBBASACNOR3267
012017090582BBASU52     080BBASE       ON      NM000R$  000000000004000000000000660000000000040000000000005700000000000550000000000000000000000000000035000000000000021800000000000001254900000000000321302017091800000010000000000000BRBBASACNOR3269
012017090582BBASU59     080BBASE       ON      NM000R$  000000000001000000000000100000000000010000000000001000000000000100000000000000000000000000000001000000000000000500000000000000005000000000000291302017091800000010000000000000BRBBASACNOR3267
012017090582BBASU60     080BBASE       ON      NM000R$  000000000001500000000000150000000000010000000000001000000000000100000000000007000000000001900002000000000000005800000000000000062000000000000301302017091800000010000000000000BRBBASACNOR3268
012017090582BBASU61     080BBASE       ON      NM000R$  000000000001000000000000180000000000010000000000001600000000000180000000000004000000000000000002000000000000013000000000000000210000000000000303802017091800000010000000000000BRBBASACNOR3266
012017090582BBASU68     080BBASE       ON      NM000R$  000000000000400000000000040000000000004000000000000400000000000040000000000005000000000000900001000000000000004000000000000000016000000000000286302017091800000010000000000000BRBBASACNOR3268
012017090582BBASU81     080BBASE       ON      NM000R$  000000000003100000000000310000000000031000000000003100000000000310000000000000000000000000000005000000000000012000000000000000372000000000000313802017091800000010000000000000BRBBASACNOR3268
012017090582BBASU82     080BBASE FM    ON      NM000R$  000000000002900000000000530000000000029000000000003000000000000530000000000030000000000000000013000000000000036500000000000001124500000000000318802017091800000010000000000000BRBBASACNOR3269
012017090582BBASU91     080BBASE FM    ON      NM000R$  000000000002200000000000220000000000022000000000002200000000000220000000000000000000000000000002000000000000001000000000000000022000000000000308802017091800000010000000000000BRBBASACNOR3269
012017090582BBASU92     080BBASE       ON      NM000R$  000000000004900000000000500000000000049000000000004900000000000500000000000000000000000000000003000000000000002500000000000000124000000000000323802017091800000010000000000000BRBBASACNOR3269
012017090582BBASV2      080BBASE       ON      NM000R$  000000000014000000000001400000000000140000000000014000000000001400000000000000000000000000000001000000000000001000000000000000140000000000000326302017101600000010000000000000BRBBASACNOR3269
012017090582BBASV29     080BBASE       ON      NM000R$  000000000002800000000000320000000000028000000000002900000000000320000000000030000000000000000013000000000000016000000000000000477000000000000291302017101600000010000000000000BRBBASACNOR3269
012017090582BBASV30     080BBASE       ON      NM000R$  000000000003500000000000460000000000035000000000004500000000000460000000000000000000000013800003000000000000011000000000000000495000000000000301302017101600000010000000000000BRBBASACNOR3269
012017090582BBASV31     080BBASE       ON      NM000R$  000000000007500000000000790000000000065000000000006800000000000790000000000067000000000012000005000000000000003000000000000000205400000000000311302017101600000010000000000000BRBBASACNOR3269
012017090582BBASV32     080BBASE       ON      NM000R$  000000000009500000000001150000000000095000000000010800000000001150000000000000000000000000000007000000000000003500000000000000379500000000000321302017101600000010000000000000BRBBASACNOR3269
012017090582BBASV73     080BBASE FM    ON      NM000R$  000000000013200000000001600000000000132000000000014400000000001530000000000000000000000000000008000000000000009200000000000001325200000000000328802017101600000010000000000000BRBBASACNOR3269
012017090582BBASW26     080BBASE       ON      NM000R$  000000000003300000000000330000000000025000000000002900000000000300000000000030000000000003300046000000000000075800000000000002229100000000000261302017112100000010000000000000BRBBASACNOR3269
012017090582BBASW72     080BBASE       ON      NM000R$  000000000015900000000001590000000000159000000000015900000000001590000000000000000000000000000001000000000000005300000000000000842700000000000318802017112100000010000000000000BRBBASACNOR3269
012017090502BBDC3       010BRADESCO    ON  EJ  N1   R$  000000000333300000000033690000000003206000000000324900000000032520000000003252000000000325309807000000000001542300000000005012184600000000000000009999123100000010000000000000BRBBDCACNOR1669
012017090596BBDC3F      020BRADESCO    ON  EJ  N1   R$  000000000327500000000033300000000003205000000000326000000000032550000000003220000000000325500054000000000000001356000000000004421289000000000000009999123100000010000000000000BRBBDCACNOR1669
012017090502BBDC4       010BRADESCO    PN  EJ  N1   R$  000000000347900000000034900000000003337000000000339200000000033760000000003369000000000337642606000000000017760300000000060249282500000000000000009999123100000010000000000000BRBBDCACNPR8669
012017090596BBDC4F      020BRADESCO    PN  EJ  N1   R$  000000000343100000000034940000000003337000000000339900000000033990000000003360000000000339900314000000000000007983000000000027131951000000000000009999123100000010000000000000BRBBDCACNPR8669
012017090562BBDC4T      030BRADESCO    PN  EJ  N1016R$  000000000339700000000033980000000003358000000000337500000000033590000000000000000000000000000004000000000000007000000000000023626908000000000000009999123100000010000000000000BRBBDCACNPR8669
012017090562BBDC4T      030BRADESCO    PN  EJ  N1030R$  000000000350200000000035030000000003366000000000339000000000033670000000000000000000000000000006000000000000020200000000000068491105000000000000009999123100000010000000000000BRBBDCACNPR8669
012017090562BBDC4T      030BRADESCO    PN  EJ  N1062R$  000000000347900000000034800000000003385000000000341100000000034110000000000000000000000000000008000000000000233300000000000795804025000000000000009999123100000010000000000000BRBBDCACNPR8669
012017090562BBDC4T      030BRADESCO    PN  EJ  N1107R$  000000000344500000000034460000000003445000000000344500000000034460000000000000000000000000000002000000000000001000000000000003445114000000000000009999123100000010000000000000BRBBDCACNPR8669
012017090562BBDC4T      030BRADESCO    PN  EJ  N1181R$  000000000350100000000035020000000003501000000000350100000000035020000000000000000000000000000002000000000000008000000000000028012298000000000000009999123100000010000000000000BRBBDCACNPR8669
012017090578BBDCB37     070BBDCE   /EJ PN      N1000R$  000000000012800000000001280000000000128000000000012800000000001280000000000000000000000000000001000000000003000000000000000384000000000000000372902018021900000010000000000000BRBBDCACNPR8655
012017090578BBDCH5      070BBDC        ON      N1000R$  000000000086500000000008650000000000865000000000086500000000008650000000000000000000000000000002000000000000205500000000000177757500000000000255002018082000000010000000000000BRBBDCACNOR1669
012017090578BBDCI15     070BBDC    /EJ PN      N1000R$  000000000002500000000000250000000000004000000000001000000000000100000000000007000000000003000026000000000000048900000000000000496000000000000354402017091800000010000000000000BRBBDCACNPR8668
012017090578BBDCI21     070BBDC  FM/EJ PN      N1000R$  000000000002500000000000250000000000010000000000001500000000000160000000000016000000000002500028000000000000038300000000000000585500000000000349402017091800000010000000000000BRBBDCACNPR8668
012017090578BBDCI26     070BBDCE   /EJ PN      N1000R$  000000000065300000000006530000000000596000000000061700000000005960000000000000000000000000000003000000000000000310000000000000191430000000000278302017091800000010000000000000BRBBDCACNPR8650
012017090578BBDCI32     070BBDC  FM/EJ PN      N1000R$  000000000024300000000002430000000000155000000000018000000000001750000000000173000000000000000026000000000000050900000000000009211100000000000322202017091800000010000000000000BRBBDCACNPR8664
012017090578BBDCI42     070BBDC  FM/EJ PN      N1000R$  000000000006300000000000660000000000020000000000003200000000000270000000000024000000000003200084000000000000213000000000000006911600000000000344402017091800000010000000000000BRBBDCACNPR8664
012017090578BBDCI52     070BBDC  FM/EJ PN      N1000R$  000000000020500000000002050000000000110000000000012600000000001300000000000077000000000026200059000000000000160900000000000020298600000000000327202017091800000010000000000000BRBBDCACNPR8664
012017090578BBDCI53     070BBDC    /EJ PN      N1000R$  000000000014500000000001450000000000070000000000009600000000000700000000000072000000000009800022000000000000008400000000000000812900000000000332202017091800000010000000000000BRBBDCACNPR8664
012017090578BBDCI60     070BBDC    /EJ PN      N1000R$  000000000028000000000002800000000000280000000000028000000000002800000000000000000000000000000001000000000000000700000000000000196000000000000308502017091800000010000000000000BRBBDCACNPR8667
012017090578BBDCI65     070BBDC    /EJ PN      N1000R$  000000000116000000000011600000000000985000000000100300000000009850000000000000000000000000000006000000000000003700000000000003711600000000000239702017091800000010000000000000BRBBDCACNPR8653
012017090578BBDCI92     070BBDCE   /EJ ON      N1000R$  000000000086500000000008650000000000865000000000086500000000008650000000000000000000000000000001000000000000205579000000000177825835000000000239002017091800000010000000000000BRBBDCACNOR1645
012017090578BBDCJ16     070BBDC  FM/EJ PN      N1000R$  000000000024500000000002450000000000173000000000020900000000002040000000000000000000000000000031000000000000056920000000000011937460000000000325502017101600000010000000000000BRBBDCACNPR8662
012017090578BBDCJ17     070BBDC    /EJ PN      N1000R$  000000000010700000000001220000000000064000000000008300000000000850000000000070000000000010000025000000000000016700000000000001395600000000000344802017101600000010000000000000BRBBDCACNPR8668
012017090578BBDCJ19     070BBDC    /EJ PN      N1000R$  000000000004900000000000490000000000037000000000004400000000000480000000000014000000000000000004000000000000003200000000000000143600000000000354802017101600000010000000000000BRBBDCACNPR8668
012017090578BBDCJ20     070BBDC  FM/EJ PN      N1000R$  000000000002300000000000240000000000020000000000002300000000000200000000000021000000000003000005000000000000020500000000000000487000000000000366402017101600000010000000000000BRBBDCACNPR8655
012017090578BBDCJ34     070BBDC    /EJ PN      N1000R$  000000000015000000000001500000000000150000000000015000000000001500000000000000000000000000000001000000000000000800000000000000120000000000000330502017101600000010000000000000BRBBDCACNPR8667
012017090578BBDCJ35     070BBDC    /EJ PN      N1000R$  000000000013000000000001300000000000130000000000013000000000001300000000000117000000000015000003000000000000002100000000000000273000000000000334802017101600000010000000000000BRBBDCACNPR8667
012017090578BBDCJ38     070BBDC  FM/EJ PN      N1000R$  000000000009700000000001100000000000089000000000010200000000001100000000000000000000000000000027000000000000072800000000000007457900000000000339802017101600000010000000000000BRBBDCACNPR8667
012017090578BBDCJ41     070BBDC  FM/EJ PN      N1000R$  000000000005300000000000680000000000053000000000006300000000000680000000000000000000000000000022000000000000080600000000000005146400000000000349802017101600000010000000000000BRBBDCACNPR8667
012017090578BBDCJ96     070BBDC  FM/EJ PN      N1000R$  000000000005300000000000530000000000025000000000003400000000000250000000000000000000000003200004000000000000006000000000000000206000000000000362102017101600000010000000000000BRBBDCACNPR8668
012017090578BBDCL37     070BBDCE   /EJ PN      N1000R$  000000000015400000000001540000000000154000000000015400000000001540000000000000000000000000000001000000000003000000000000000462000000000000000353702017121800000010000000000000BRBBDCACNPR8668
012017090578BBDCL41     070BBDC    /EJ PN      N1000R$  000000000005800000000000580000000000058000000000005800000000000580000000000000000000000000000001000000000000014000000000000000812000000000000373702017121800000010000000000000BRBBDCACNPR8660
012017090578BBDCL87     070BBDCE   /EJ PN      N1000R$  000000000098000000000009810000000000980000000000098000000000009800000000000000000000000000000006000000000000003700000000000003626500000000000244102017121800000010000000000000BRBBDCACNPR8659
012017090582BBDCM1      080BBDCE   /EJ PN      N1000R$  000000000005000000000000570000000000045000000000005200000000000550000000000055000000000005701278000000000001744300000000000091848880000000000284202018011500000010000000000000BRBBDCACNPR8659
012017090582BBDCU32     080BBDCE FM/EJ PN      N1000R$  000000000001000000000000210000000000010000000000001800000000000180000000000001000000000001800041000000000000114900000000000002112300000000000322202017091800000010000000000000BRBBDCACNPR8664
012017090582BBDCU40     080BBDCE   /EJ PN      N1000R$  000000000000200000000000050000000000002000000000000200000000000030000000000001000000000000500005000000000000020100000000000000040320000000000264702017091800000010000000000000BRBBDCACNPR8650
012017090582BBDCU42     080BBDCE FM/EJ PN      N1000R$  000000000004700000000001140000000000047000000000006700000000000950000000000020000000000000000015000000000000029400000000000001986500000000000344402017091800000010000000000000BRBBDCACNPR8664
012017090582BBDCU44     080BBDCE   /EJ PN      N1000R$  000000000000500000000000090000000000005000000000000800000000000090000000000003000000000000900005000000000000006000000000000000050000000000000310102017091800000010000000000000BRBBDCACNPR8662
012017090582BBDCU51     080BBDCE   /EJ PN      N1000R$  000000000000400000000000040000000000004000000000000400000000000040000000000000000000000001000001000000000000003000000000000000012000000000000299202017091800000010000000000000BRBBDCACNPR8665
012017090582BBDCU52     080BBDCE FM/EJ PN      N1000R$  000000000001200000000000300000000000012000000000002300000000000230000000000000000000000003000060000000000000242000000000000005651300000000000327202017091800000010000000000000BRBBDCACNPR8664
012017090582BBDCU53     080BBDCE   /EJ PN      N1000R$  000000000002200000000000440000000000021000000000002900000000000390000000000021000000000005000019000000000000044200000000000001287000000000000332202017091800000010000000000000BRBBDCACNPR8664
012017090582BBDCU88     080BBDCE   /EJ PN      N1000R$  000000000000300000000000030000000000003000000000000300000000000030000000000000000000000000800007000000000000008700000000000000026100000000000301002017091800000010000000000000BRBBDCACNPR8650
012017090582BBDCU9      080BBDCE   /EJ PN      N1000R$  000000000000200000000000020000000000001000000000000100000000000010000000000001000000000000200015000000000000191680000000000000266880000000000255602017091800000010000000000000BRBBDCACNPR8649
012017090582BBDCV27     080BBDCE   /EJ PN      N1000R$  000000000001900000000000240000000000019000000000002100000000000240000000000021000000000000000008000000000000003000000000000000064500000000000307502017101600000010000000000000BRBBDCACNPR8667
012017090582BBDCV34     080BBDCE   /EJ PN      N1000R$  000000000006500000000000830000000000065000000000007800000000000760000000000000000000000000000006000000000000026000000000000002045000000000000330502017101600000010000000000000BRBBDCACNPR8667
012017090582BBDCV35     080BBDCE   /EJ PN      N1000R$  000000000010000000000001000000000000092000000000009800000000000920000000000000000000000010000003000000000000004300000000000000422000000000000334802017101600000010000000000000BRBBDCACNPR8667
012017090582BBDCV38     080BBDCE FM/EJ PN      N1000R$  000000000010700000000001240000000000107000000000011800000000001170000000000000000000000000000019000000000000026800000000000003169100000000000339802017101600000010000000000000BRBBDCACNPR8667
012017090582BBDCV41     080BBDCE FM/EJ PN      N1000R$  000000000012900000000001830000000000128000000000015900000000001750000000000000000000000030000016000000000000028100000000000004492700000000000349802017101600000010000000000000BRBBDCACNPR8667
012017090582BBDCV84     080BBDCE   /EJ PN      N1000R$  000000000003800000000000380000000000038000000000003800000000000380000000000000000000000000000007000000000000100000000000000003800000000000000314102017101600000010000000000000BRBBDCACNPR8662
012017090582BBDCW12     080BBDCE   /EJ PN      N1000R$  000000000001200000000000150000000000011000000000001300000000000150000000000011000000000001500012000000000000017790000000000000243400000000000252402017112100000010000000000000BRBBDCACNPR8651
012017090582BBDCW70     080BBDCE   /EJ PN      N1000R$  000000000004600000000000460000000000045000000000004500000000000450000000000000000000000000000002000000000000200000000000000009140000000000000301002017112100000010000000000000BRBBDCACNPR8668
012017090582BBDCX3      080BBDCE   /EJ PN      N1000R$  000000000005600000000000560000000000056000000000005600000000000560000000000000000000000007000001000000000003000000000000000168000000000000000303202017121800000010000000000000BRBBDCACNPR8657
012017090582BBDCX35     080BBDCE   /EJ PN      N1000R$  000000000015000000000001500000000000150000000000015000000000001500000000000000000000000000000001000000000000014000000000000002100000000000000335002017121800000010000000000000BRBBDCACNPR8652
012017090582BBDCX77     080BBDCE   /EJ PN      N1000R$  000000000002800000000000280000000000028000000000002800000000000280000000000000000000000000000001000000000003000000000000000084000000000000000276202017121800000010000000000000BRBBDCACNPR8667
012017090512BBFI11B     010FII BB PROGRCI  ER  MB   R$  000000027472000000002747200000000267503000000027357000000002746900000000267502000000027469000061000000000000000130000000000035564117000000000000009999123100000010000000000000BRBBFICTF006246
012017090512BBPO11      010FII BB PRGIICI  ER       R$  000000001400600000000142000000000014006000000001406200000000141600000000014160000000001418500350000000000000022561000000000317261378000000000000009999123100000010000000000000BRBBPOCTF003158
012017090512BBRC11      010FII BB CORP CI  ER       R$  000000001305900000000130590000000012968000000001297900000000129710000000012971000000001305000009000000000000000130000000000001687313000000000000009999123100000010000000000000BRBBRCCTF004172
012017090502BBRK3       010BR BROKERS  ON      NM   R$  000000000009900000000001000000000000097000000000009800000000000990000000000099000000000010001865000000000001169500000000000115012500000000000000009999123100000010000000000000BRBBRKACNOR4111
012017090514BBSD11      010BB ETF SP DVCI           R$  000000000565400000000056550000000005642000000000564500000000056420000000005620000000000000000008000000000000000750000000000004233760000000000000009999123100000010000000000000BRBBSDCTF000100
012017090502BBSE3       010BBSEGURIDADEON      NM   R$  000000000282800000000028600000000002816000000000283300000000028320000000002830000000000283217443000000000005509200000000015611898100000000000000009999123100000010000000000000BRBBSEACNOR5109
012017090596BBSE3F      020BBSEGURIDADEON      NM   R$  000000000282900000000028620000000002801000000000283500000000028400000000002824000000000284000272000000000000007256000000000020574701000000000000009999123100000010000000000000BRBBSEACNOR5109
012017090562BBSE3T      030BBSEGURIDADEON      NM016R$  000000000284000000000028410000000002840000000000284000000000028410000000000000000000000000000002000000000000050000000000000142029670000000000000009999123100000010000000000000BRBBSEACNOR5109
012017090578BBSEI27     070BBSE  FM    ON      NM000R$  000000000020000000000002110000000000179000000000019900000000001860000000000000000000000022000008000000000000012500000000000002494800000000000265302017091800000010000000000000BRBBSEACNOR5108
012017090578BBSEI28     070BBSE  FM    ON      NM000R$  000000000010500000000001260000000000100000000000011500000000001000000000000016000000000012800012000000000000016300000000000001883400000000000275302017091800000010000000000000BRBBSEACNOR5108
012017090578BBSEI29     070BBSE  FM    ON      NM000R$  000000000004100000000000540000000000038000000000004400000000000400000000000034000000000004500015000000000000024400000000000001077700000000000285302017091800000010000000000000BRBBSEACNOR5108
012017090578BBSEI30     070BBSE  FM    ON      NM000R$  000000000001000000000000120000000000008000000000001000000000000080000000000000000000000001500004000000000000009200000000000000096300000000000295302017091800000010000000000000BRBBSEACNOR5108
012017090578BBSEI31     070BBSE  FM    ON      NM000R$  000000000000300000000000030000000000003000000000000300000000000030000000000000000000000001500001000000000000003400000000000000010200000000000305302017091800000010000000000000BRBBSEACNOR5108
012017090578BBSEI50     070BBSE        ON      NM000R$  000000000008000000000000800000000000080000000000008000000000000800000000000000000000000015000001000000000000001000000000000000080000000000000280302017091800000010000000000000BRBBSEACNOR5106
012017090578BBSEI56     070BBSE        ON      NM000R$  000000000022500000000002420000000000225000000000022900000000002420000000000000000000000000000006000000000000006300000000000001443500000000000260302017091800000010000000000000BRBBSEACNOR5108
012017090578BBSEI57     070BBSE        ON      NM000R$  000000000015000000000001600000000000146000000000014900000000001460000000000078000000000000000025000000000000061000000000000009142000000000000270302017091800000010000000000000BRBBSEACNOR5108
012017090578BBSEI59     070BBSE        ON      NM000R$  000000000002700000000000290000000000019000000000002400000000000200000000000000000000000002500009000000000000064000000000000001580600000000000290302017091800000010000000000000BRBBSEACNOR5108
012017090578BBSEI89     070BBSEE       ON      NM000R$  000000000004900000000000490000000000049000000000004900000000000490000000000000000000000000000001000000000000000400000000000000019600000000000282802017091800000010000000000000BRBBSEACNOR5107
012017090578BBSEJ29     070BBSE        ON      NM000R$  000000000011200000000001120000000000101000000000011100000000001010000000000000000000000011300004000000000000010600000000000001180600000000000283602017101600000010000000000000BRBBSEACNOR5108
012017090578BBSEJ30     070BBSE        ON      NM000R$  000000000006400000000000640000000000064000000000006400000000000640000000000000000000000000000001000000000000004000000000000000256000000000000293602017101600000010000000000000BRBBSEACNOR5108
012017090578BBSEJ58     070BBSE  FM    ON      NM000R$  000000000014200000000001450000000000142000000000014300000000001450000000000000000000000000000002000000000000014000000000000002009000000000000278602017101600000010000000000000BRBBSEACNOR5108
012017090578BBSEJ60     070BBSE  FM    ON      NM000R$  000000000005100000000000510000000000041000000000004400000000000430000000000000000000000000000005000000000000024000000000000001066000000000000298602017101600000010000000000000BRBBSEACNOR5108
012017090578BBSEJ67     070BBSE  FM    ON      NM000R$  000000000021600000000002200000000000216000000000021800000000002200000000000000000000000000000002000000000000014000000000000003052000000000000268602017101600000010000000000000BRBBSEACNOR5108
012017090578BBSEJ69     070BBSE  FM    ON      NM000R$  000000000007400000000000740000000000070000000000007100000000000700000000000000000000000020000002000000000000005000000000000000358000000000000288602017101600000010000000000000BRBBSEACNOR5108
012017090578BBSEK31     070BBSE        ON      NM000R$  000000000007600000000000760000000000067000000000007000000000000670000000000000000000000000000002000000000000003100000000000000217600000000000302102017112100000010000000000000BRBBSEACNOR5108
012017090578BBSEL29     070BBSE        ON      NM000R$  000000000014000000000001400000000000140000000000014000000000001400000000000000000000000000000001000000000000068000000000000009520000000000000293602017121800000010000000000000BRBBSEACNOR5109
012017090582BBSEU27     080BBSEE FM    ON      NM000R$  000000000000500000000000050000000000004000000000000400000000000040000000000000000000000000000006000000000000021000000000000000086400000000000265302017091800000010000000000000BRBBSEACNOR5108
012017090582BBSEU28     080BBSEE FM    ON      NM000R$  000000000001900000000000190000000000019000000000001900000000000190000000000001000000000000000001000000000000001000000000000000019000000000000275302017091800000010000000000000BRBBSEACNOR5108
012017090582BBSEV67     080BBSEE FM    ON      NM000R$  000000000003400000000000340000000000034000000000003400000000000340000000000010000000000000000001000000000000000500000000000000017000000000000268602017101600000010000000000000BRBBSEACNOR5108
012017090582BBSEX28     080BBSEE       ON      NM000R$  000000000014000000000001410000000000140000000000014000000000001410000000000000000000000000000002000000000000068000000000000009554000000000000283602017121800000010000000000000BRBBSEACNOR5109
012017090502BBTG12      010BTG PACTUAL UNT          R$  000000000004100000000000410000000000039000000000003900000000000390000000000039000000000004000589000000000004225100000000000168938300000000000000009999123100000010000000000000BRBBTGUNT015100
012017090596BBTG12F     020BTG PACTUAL UNT          R$  000000000004000000000000400000000000039000000000003900000000000390000000000039000000000004000007000000000000000178000000000000007067000000000000009999123100000010000000000000BRBBTGUNT015100
012017090562BBTG12T     030BTG PACTUAL UNT       030R$  000000000003900000000000400000000000039000000000003900000000000400000000000000000000000000000002000000000000002000000000000000078577000000000000009999123100000010000000000000BRBBTGUNT015100
012017090562BBTG12T     030BTG PACTUAL UNT       150R$  000000000004100000000000420000000000041000000000004100000000000420000000000000000000000000000002000000000000150000000000000006195600000000000000009999123100000010000000000000BRBBTGUNT015100
012017090502BBTG35      010BTG PACTUAL DR3 B        R$  000000000002600000000000260000000000022000000000002500000000000220000000000021000000000002200016000000000000020000000000000000502800000000000000009999123100000010000000000000BRBBTGBDR010100
012017090502BBTG36      010BTG PACTUAL DR3 A        R$  000000000002600000000000320000000000023000000000002300000000000320000000000024000000000003200016000000000000029400000000000000698500000000000000009999123100000010000000000000BRBBTGBDR002100
012017090512BBVJ11      010FII C JARDIMCI  ER       R$  000000000601900000000060190000000006000000000000600000000000060000000000006000000000000602000005000000000000000414000000000002484293000000000000009999123100000010000000000000BRBBVJCTF001181
012017090502BBYY34      010BEST BUY    DRN          R$  000000001720200000000172020000000017202000000001720200000000172020000000000000000000000000000001000000000000000600000000000010321200000000000000009999123100000010000000000000BRBBYYBDR005104
012017090596BBYY34F     020BEST BUY    DRN          R$  000000001720200000000172020000000017202000000001720200000000172020000000000000000000000000000001000000000000000013000000000000223626000000000000009999123100000010000000000000BRBBYYBDR005104
012017090512BCFF11B     010FII BC FFII CI      MB   R$  000000000700000000000070500000000006981000000000700600000000070080000000007008000000000702200208000000000000019629000000000137521892000000000000009999123100000010000000000000BRBCFFCTF000190
012017090512BCIA11      010FII BCIA    CI  ER       R$  000000001190000000000119000000000011900000000001190000000000119000000000011500000000001250000001000000000000000010000000000000119000000000000000009999123100000010000000000000BRBCIACTF005128
012017090512BCRI11      010FII BEES CRICI  ER       R$  000000001069900000000107000000000010600000000001064600000000106500000000010632000000001069000071000000000000001767000000000018811533000000000000009999123100000010000000000000BRBCRICTF009128
012017090502BDLL4       010BARDELLA    PN           R$  000000000349900000000034990000000003499000000000349900000000034990000000003121000000000349900002000000000000000200000000000000699800000000000000009999123100000010000000000000BRBDLLACNPR8151
012017090596BDLL4F      020BARDELLA    PN           R$  000000000330000000000033000000000003300000000000330000000000033000000000003120000000000360000002000000000000000003000000000000009900000000000000009999123100000010000000000000BRBDLLACNPR8151
012017090502BEEF3       010MINERVA     ON      NM   R$  000000000115800000000011650000000001132000000000114200000000011400000000001140000000000114306391000000000001383600000000001580403600000000000000009999123100000010000000000000BRBEEFACNOR6107
012017090596BEEF3F      020MINERVA     ON      NM   R$  000000000119900000000012140000000001135000000000114700000000011440000000001139000000000114400081000000000000002428000000000002785938000000000000009999123100000010000000000000BRBEEFACNOR6107
012017090562BEEF3T      030MINERVA     ON      NM062R$  000000000115000000000011510000000001150000000000115000000000011510000000000000000000000000000002000000000000001000000000000001150995000000000000009999123100000010000000000000BRBEEFACNOR6107
012017090502BEES3       010BANESTES    ON  EJ       R$  000000000037800000000003790000000000365000000000036900000000003650000000000365000000000037000033000000000000026300000000000009709900000000000000009999123100000010000000000000BRBEESACNOR9300
012017090596BEES3F      020BANESTES    ON  EJ       R$  000000000037800000000004140000000000366000000000039200000000003660000000000366000000000041400013000000000000000135000000000000052970000000000000009999123100000010000000000000BRBEESACNOR9300
012017090596BERK34F     020BERKSHIRE   DRN          R$  000000005500000000000550450000000054200000000005458500000000550450000000020000000000005700000003000000000000000047000000000002565495000000000000009999123100000010000000000000BRBERKBDR002100
012017090502BGIP4       010BANESE      PN           R$  000000000329000000000032900000000003289000000000328900000000032890000000003230000000000328900006000000000000001500000000000004934700000000000000009999123100000010000000000000BRBGIPACNPR8192
012017090596BGIP4F      020BANESE      PN           R$  000000000322000000000032200000000003220000000000322000000000032200000000002700000000000322000001000000000000000020000000000000064400000000000000009999123100000010000000000000BRBGIPACNPR8192
012017090502BIIB34      010BIOGEN      DRN          R$  000000001633000000000163490000000016330000000001633900000000163490000000000000000000000000000002000000000000000200000000000003267900000000000000009999123100000010000000000000BRBIIBBDR001101
012017090596BIIB34F     020BIOGEN      DRN          R$  000000001633000000000163300000000016330000000001633000000000163300000000000000000000000000000001000000000000000037000000000000604210000000000000009999123100000010000000000000BRBIIBBDR001101
012017090502BIOM3       010BIOMM       ON      MA   R$  000000000120300000000012030000000001203000000000120300000000012030000000001210000000000130500001000000000000000100000000000000120300000000000000009999123100000010000000000000BRBIOMACNOR2105
012017090510BMEB1       010MERC BRASIL DIR ORD      R$  000000000000500000000000080000000000004000000000000600000000000060000000000006000000000000700111000000000000934500000000000005685700000000000000009999123100000010000000000000BRBMEBD03OR9193
012017090596BMEB1F      020MERC BRASIL DIR ORD      R$  000000000000300000000000050000000000003000000000000400000000000050000000000005000000000000800013000000000000000521000000000000002170000000000000009999123100000010000000000000BRBMEBD03OR9193
012017090596BMEB3F      020MERC BRASIL ON           R$  000000000075000000000007500000000000750000000000075000000000007500000000000700000000000075000001000000000000000050000000000000037500000000000000009999123100000010000000000000BRBMEBACNOR8194
012017090502BMEB4       010MERC BRASIL PN           R$  000000000050000000000005050000000000498000000000049900000000005030000000000500000000000050300028000000000000065800000000000032896400000000000000009999123100000010000000000000BRBMEBACNPR5198
012017090596BMIN3F      020MERC INVEST ON           R$  000000000018000000000001800000000000180000000000018000000000001800000000000175000000000017900001000000000000000848000000000000152640000000000000009999123100000010000000000000BRBMINACNOR4165
012017090502BMIN4       010MERC INVEST PN           R$  000000000005100000000000510000000000049000000000004900000000000490000000000049000000000005000037000000000000135000000000000006725000000000000000009999123100000010000000000000BRBMINACNPR1166
012017090596BMIN4F      020MERC INVEST PN           R$  000000000005200000000000520000000000051000000000005100000000000510000000000050000000000005100005000000000000000493000000000000025341000000000000009999123100000010000000000000BRBMINACNPR1166
012017090512BMLC11B     010FII BMBRC LCCI      MB   R$  000000000830000000000083000000000008300000000000830000000000083000000000008300000000000839800001000000000000000042000000000000348600000000000000009999123100000010000000000000BRBMLCCTF004166
012017090596BMYB34F     020BRISTOLMYERSDRN          R$  000000001859800000000185980000000018598000000001859800000000185980000000000000000000000000000001000000000000000022000000000000409156000000000000009999123100000010000000000000BRBMYBBDR000115
012017090502BNBR3       010NORD BRASIL ON           R$  000000000295000000000029500000000002950000000000295000000000029500000000002910000000000350000002000000000000000500000000000001475000000000000000009999123100000010000000000000BRBNBRACNOR8195
012017090512BNFS11      010FII BANRISULCI  ER       R$  000000001121000000000112100000000011210000000001121000000000112100000000011120000000001120900002000000000000000115000000000001289150000000000000009999123100000010000000000000BRBNFSCTF000160
012017090502BOAC34      010BANK AMERICADRN ED       R$  000000000723800000000072950000000007238000000000728000000000072440000000007244000000000000000004000000000000002400000000000017472700000000000000009999123100000010000000000000BRBOACBDR004128
012017090596BOAC34F     020BANK AMERICADRN ED       R$  000000000723800000000072380000000007238000000000723800000000072380000000000000000000000000000001000000000000000011000000000000079618000000000000009999123100000010000000000000BRBOACBDR004128
012017090502BOBR4       010BOMBRIL     PN           R$  000000000051100000000005120000000000485000000000050000000000004930000000000493000000000049400163000000000000097000000000000048535700000000000000009999123100000010000000000000BRBOBRACNPR3128
012017090596BOBR4F      020BOMBRIL     PN           R$  000000000050100000000005010000000000501000000000050100000000005010000000000501000000000050700004000000000000000085000000000000042585000000000000009999123100000010000000000000BRBOBRACNPR3128
012017090502BOEI34      010BOEING      DRN          R$  000000007429300000000742930000000074293000000007429300000000742930000000000000000000000000000001000000000000000900000000000066863700000000000000009999123100000010000000000000BRBOEIBDR003122
012017090596BOEI34F     020BOEING      DRN          R$  000000007429300000000742930000000074293000000007429300000000742930000000000000000000000000000001000000000000000084000000000006240612000000000000009999123100000010000000000000BRBOEIBDR003122
012017090514BOVA11      010ISHARES BOVACI           R$  000000000706900000000070790000000006946000000000700200000000069760000000006970000000000697617345000000000003263640000000022855059780000000000000009999123100000010000000000000BRBOVACTF003103
012017090596BOVA11F     020ISHARES BOVACI           R$  000000000700000000000070800000000006950000000000699500000000069980000000006966000000000850000028000000000000000136000000000000951392000000000000009999123100000010000000000000BRBOVACTF003103
012017090578BOVAI64     070BOVA        CI        000R$  000000000065500000000006550000000000570000000000065300000000005700000000000000000000000000000002000000000000000610000000000000398700000000000640002017091800000010000000000000BRBOVACTF003103
012017090578BOVAI66     070BOVA        CI        000R$  000000000048300000000004830000000000396000000000044500000000003960000000000000000000000000000003000000000000003700000000000001648200000000000660002017091800000010000000000000BRBOVACTF003103
012017090578BOVAI67     070BOVA        CI        000R$  000000000032200000000003250000000000312000000000032000000000003120000000000010000000000000000004000000000000002300000000000000737100000000000670002017091800000010000000000000BRBOVACTF003103
012017090578BOVAI68     070BOVA  FM    CI        000R$  000000000030200000000003020000000000211000000000023200000000002110000000000000000000000000000003000000000000005550000000000001289600000000000680002017091800000010000000000000BRBOVACTF003102
012017090578BOVAI69     070BOVA  FM    CI        000R$  000000000020500000000002050000000000125000000000013100000000001490000000000000000000000000000022000000000000055070000000000007227370000000000690002017091800000010000000000000BRBOVACTF003103
012017090578BOVAI70     070BOVA  FM    CI        000R$  000000000013600000000001360000000000075000000000009300000000000850000000000066000000000008500019000000000000041200000000000003871930000000000700002017091800000010000000000000BRBOVACTF003103
012017090578BOVAI71     070BOVA  FM    CI        000R$  000000000006900000000000720000000000035000000000005700000000000350000000000020000000000000000005000000000000005220000000000000299180000000000710002017091800000010000000000000BRBOVACTF003103
012017090578BOVAI72     070BOVA  FM    CI        000R$  000000000003100000000000310000000000018000000000001800000000000180000000000000000000000000000021000000000000101000000000000001831000000000000720002017091800000010000000000000BRBOVACTF003103
012017090578BOVAJ67     070BOVA        CI        000R$  000000000037400000000003740000000000374000000000037400000000003740000000000000000000000000000001000000000000000900000000000000336600000000000670002017101600000010000000000000BRBOVACTF003103
012017090578BOVAJ68     070BOVA  FM    CI        000R$  000000000033700000000003370000000000337000000000033700000000003370000000000000000000000000000001000000000000003500000000000001179500000000000680002017101600000010000000000000BRBOVACTF003103
012017090578BOVAJ69     070BOVA  FM    CI        000R$  000000000024800000000002480000000000248000000000024800000000002480000000000000000000000000000001000000000000000500000000000000124000000000000690002017101600000010000000000000BRBOVACTF003103
012017090578BOVAJ70     070BOVA  FM    CI        000R$  000000000020300000000002030000000000170000000000018600000000001700000000000000000000000018400002000000000000000400000000000000074600000000000700002017101600000010000000000000BRBOVACTF003103
012017090578BOVAJ71     070BOVA  FM    CI        000R$  000000000015700000000001570000000000126000000000013600000000001260000000000000000000000012900002000000000000001500000000000000204500000000000710002017101600000010000000000000BRBOVACTF003103
012017090578BOVAJ72     070BOVA  FM    CI        000R$  000000000010500000000001080000000000097000000000010400000000000970000000000000000000000009000004000000000000000400000000000000041800000000000720002017101600000010000000000000BRBOVACTF003103
012017090582BOVAM57     080BOVAE       CI        000R$  000000000004400000000000450000000000035000000000003800000000000430000000000043000000000004400441000000000000611080000000000023743080000000000570002018011500000010000000000000BRBOVACTF003103
012017090582BOVAU52     080BOVAE       CI        000R$  000000000000100000000000010000000000001000000000000100000000000010000000000000000000000000100003000000000000002100000000000000002100000000000520002017091800000010000000000000BRBOVACTF003103
012017090582BOVAU59     080BOVAE       CI        000R$  000000000000100000000000010000000000001000000000000100000000000010000000000001000000000000000001000000000000001210000000000000001210000000000590002017091800000010000000000000BRBOVACTF003103
012017090582BOVAU65     080BOVAE       CI        000R$  000000000000900000000000100000000000005000000000000700000000000100000000000006000000000004000006000000000000050500000000000000392500000000000650002017091800000010000000000000BRBOVACTF003103
012017090582BOVAU66     080BOVAE       CI        000R$  000000000000900000000000110000000000005000000000000800000000000050000000000007000000000000000004000000000000014850000000000000126650000000000660002017091800000010000000000000BRBOVACTF003103
012017090582BOVAU67     080BOVAE FM    CI        000R$  000000000001100000000000170000000000009000000000000900000000000170000000000014000000000005100015000000000000022580000000000000220020000000000670002017091800000010000000000000BRBOVACTF003103
012017090582BOVAU68     080BOVAE FM    CI        000R$  000000000002000000000000380000000000016000000000002500000000000270000000000014000000000010000041000000000000359100000000000008979500000000000680002017091800000010000000000000BRBOVACTF003102
012017090582BOVAU69     080BOVAE FM    CI        000R$  000000000002500000000000600000000000025000000000004700000000000600000000000000000000000000000045000000000000285540000000000013532910000000000690002017091800000010000000000000BRBOVACTF003103
012017090582BOVAU70     080BOVAE FM    CI        000R$  000000000008900000000001100000000000048000000000006700000000000990000000000000000000000010500039000000000000074900000000000005054500000000000700002017091800000010000000000000BRBOVACTF003103
012017090582BOVAU71     080BOVAE       CI        000R$  000000000013000000000001300000000000100000000000011400000000001000000000000100000000000000000002000000000000009500000000000001085000000000000710002017091800000010000000000000BRBOVACTF003103
012017090582BOVAV60     080BOVAE       CI        000R$  000000000001300000000000130000000000012000000000001200000000000120000000000008000000000000000003000000000000055500000000000000696500000000000600002017101600000010000000000000BRBOVACTF003103
012017090582BOVAV62     080BOVAE       CI        000R$  000000000002200000000000220000000000019000000000002000000000000220000000000021000000000002200108000000000000255320000000000005252070000000000620002017101600000010000000000000BRBOVACTF003103
012017090582BOVAV64     080BOVAE       CI        000R$  000000000002400000000000270000000000024000000000002500000000000270000000000020000000000000000014000000000000125500000000000003257000000000000640002017101600000010000000000000BRBOVACTF003103
012017090582BOVAV66     080BOVAE       CI        000R$  000000000003500000000000390000000000035000000000003700000000000390000000000039000000000005200005000000000000000700000000000000026100000000000660002017101600000010000000000000BRBOVACTF003103
012017090582BOVAV67     080BOVAE FM    CI        000R$  000000000004600000000000680000000000046000000000006200000000000670000000000000000000000000000013000000000000007380000000000000460920000000000670002017101600000010000000000000BRBOVACTF003103
012017090582BOVAV68     080BOVAE FM    CI        000R$  000000000007200000000000880000000000072000000000007400000000000880000000000000000000000000000014000000000000026400000000000001961700000000000680002017101600000010000000000000BRBOVACTF003103
012017090582BOVAV69     080BOVAE FM    CI        000R$  000000000005000000000001230000000000050000000000009400000000001150000000000000000000000000000018000000000000005000000000000000471100000000000690002017101600000010000000000000BRBOVACTF003103
012017090582BOVAV70     080BOVAE FM    CI        000R$  000000000011600000000001650000000000111000000000014200000000001600000000000150000000000019000010000000000000027800000000000003969300000000000700002017101600000010000000000000BRBOVACTF003103
012017090582BOVAW64     080BOVAE       CI        000R$  000000000005500000000000550000000000055000000000005500000000000550000000000001000000000000000001000000000000005000000000000000275000000000000640002017112100000010000000000000BRBOVACTF003103
012017090582BOVAW65     080BOVAE       CI        000R$  000000000008000000000000800000000000080000000000008000000000000800000000000000000000000000000001000000000000005000000000000000400000000000000650002017112100000010000000000000BRBOVACTF003103
012017090514BOVV11      010IT NOW IBOV CI           R$  000000000723000000000072300000000007230000000000723000000000072300000000005500000000000723000004000000000000003400000000000024582000000000000000009999123100000010000000000000BRBOVVCTF009100
012017090502BPAC11      010BTGP BANCO  UNT          R$  000000000192000000000019200000000001857000000000189200000000018900000000001890000000000189502505000000000001006900000000001905914200000000000000009999123100000010000000000000BRBPACUNT006101
012017090596BPAC11F     020BTGP BANCO  UNT          R$  000000000190000000000020440000000001851000000000190700000000020440000000001861000000000204400028000000000000000573000000000001093269000000000000009999123100000010000000000000BRBPACUNT006101
012017090562BPAC11T     030BTGP BANCO  UNT       030R$  000000000190100000000019040000000001901000000000190100000000019040000000000000000000000000000006000000000000052000000000000098900232000000000000009999123100000010000000000000BRBPACUNT006101
012017090502BPAC3       010BTGP BANCO  ON           R$  000000000109900000000010990000000001099000000000109900000000010990000000000900000000000110000002000000000000000400000000000000439600000000000000009999123100000010000000000000BRBPACACNOR7116
012017090502BPAC5       010BTGP BANCO  PNA          R$  000000000067000000000007510000000000650000000000071000000000007500000000000645000000000074500014000000000000001800000000000001279700000000000000009999123100000010000000000000BRBPACACNPA0116
012017090502BPAN4       010BANCO PAN   PN      N1   R$  000000000018600000000001890000000000185000000000018600000000001880000000000186000000000018800127000000000000165400000000000030926200000000000000009999123100000010000000000000BRBPANACNPR1104
012017090596BPAN4F      020BANCO PAN   PN      N1   R$  000000000017500000000001750000000000175000000000017500000000001750000000000186000000000019000002000000000000000055000000000000009625000000000000009999123100000010000000000000BRBPANACNPR1104
012017090512BPFF11      010FII ABSOLUTOCI  ER       R$  000000000951400000000095150000000009499000000000950700000000095150000000009406000000000951500032000000000000001552000000000014755360000000000000009999123100000010000000000000BRBPFFCTF002154
012017090502BPHA3       010BR PHARMA   ON      NM   R$  000000000051000000000005120000000000500000000000050300000000005000000000000499000000000050000053000000000000039100000000000019669400000000000000009999123100000010000000000000BRBPHAACNOR6105
012017090596BPHA3F      020BR PHARMA   ON      NM   R$  000000000050200000000005060000000000502000000000050300000000005020000000000500000000000052000004000000000000000060000000000000030200000000000000009999123100000010000000000000BRBPHAACNOR6105
012017090562BPHA3T      030BR PHARMA   ON      NM030R$  000000000050300000000005040000000000503000000000050300000000005040000000000000000000000000000002000000000000006500000000000003272100000000000000009999123100000010000000000000BRBPHAACNOR6105
012017090502BRAP3       010BRADESPAR   ON      N1   R$  000000000239000000000024200000000002326000000000238000000000023570000000002347000000000235700439000000000000099500000000000236861800000000000000009999123100000010000000000000BRBRAPACNOR5131
012017090596BRAP3F      020BRADESPAR   ON      N1   R$  000000000236000000000023600000000002302000000000232800000000023020000000002302000000000236300012000000000000000361000000000000840678000000000000009999123100000010000000000000BRBRAPACNOR5131
012017090502BRAP4       010BRADESPAR   PN      N1   R$  000000000278900000000028160000000002717000000000275600000000027540000000002750000000000275410440000000000002033200000000005605071800000000000000009999123100000010000000000000BRBRAPACNPR2131
012017090596BRAP4F      020BRADESPAR   PN      N1   R$  000000000277600000000028170000000002716000000000276200000000027520000000002718000000000275200062000000000000001653000000000004566183000000000000009999123100000010000000000000BRBRAPACNPR2131
012017090562BRAP4T      030BRADESPAR   PN      N1090R$  000000000285300000000028540000000002853000000000285300000000028540000000000000000000000000000002000000000000001700000000000004850570000000000000009999123100000010000000000000BRBRAPACNPR2131
012017090514BRAX11      010ISHARES BRAXCI           R$  000000000596100000000059610000000005891000000000590400000000059130000000000000000000000000000008000000000000000620000000000003660630000000000000009999123100000010000000000000BRBRAXCTF002100
012017090512BRCR11      010FII BC FUND CI           R$  000000000938700000000094000000000009277000000000933700000000093500000000009350000000000938804843000000000000040053000000000374011376000000000000009999123100000010000000000000BRBRCRCTF000180
012017090502BRFS3       010BRF SA      ON      NM   R$  000000000446000000000044960000000004397000000000444300000000044500000000004445000000000445014286000000000003043200000000013523819500000000000000009999123100000010000000000000BRBRFSACNOR8117
012017090596BRFS3F      020BRF SA      ON      NM   R$  000000000447600000000044900000000004409000000000445300000000044690000000004450000000000446900215000000000000007270000000000032379417000000000000009999123100000010000000000000BRBRFSACNOR8117
012017090562BRFS3T      030BRF SA      ON      NM030R$  000000000447000000000044710000000004470000000000447000000000044710000000000000000000000000000002000000000000002000000000000008940384000000000000009999123100000010000000000000BRBRFSACNOR8117
012017090562BRFS3T      030BRF SA      ON      NM090R$  000000000454400000000045450000000004544000000000454400000000045450000000000000000000000000000002000000000000001000000000000004544613000000000000009999123100000010000000000000BRBRFSACNOR8117
012017090578BRFSI10     070BRFS        ON      NM000R$  000000000038100000000003810000000000365000000000036800000000003650000000000001000000000000000002000000000000002100000000000000774500000000000409502017091800000010000000000000BRBRFSACNOR8117
012017090578BRFSI12     070BRFS  FM    ON      NM000R$  000000000020600000000002060000000000206000000000020600000000002060000000000000000000000030000002000000000000002600000000000000535600000000000429502017091800000010000000000000BRBRFSACNOR8117
012017090578BRFSI13     070BRFS  FM    ON      NM000R$  000000000010600000000001060000000000092000000000009300000000000920000000000000000000000013200002000000000000002600000000000000242000000000000439502017091800000010000000000000BRBRFSACNOR8117
012017090578BRFSI14     070BRFS  FM    ON      NM000R$  000000000005600000000000740000000000042000000000006100000000000480000000000000000000000010000019000000000000030300000000000001871700000000000449502017091800000010000000000000BRBRFSACNOR8117
012017090538BRFSI37E    012BRFS        ON      NM000R$  000000000374500000000037450000000003745000000000374500000000037450000000000000000000000000000001000000000000000400000000000001498000000000000374502017091800000010000000000000BRBRFSACNOR8117
012017090578BRFSI40     070BRFS        ON      NM000R$  000000000040100000000004320000000000400000000000041300000000004320000000000380000000000062000004000000000000000700000000000000289700000000000404502017091800000010000000000000BRBRFSACNOR8117
012017090538BRFSI40E    012BRFS        ON      NM000R$  000000000404500000000040450000000004045000000000404500000000040450000000000000000000000000000001000000000000000500000000000002022500000000000404502017091800000010000000000000BRBRFSACNOR8117
012017090578BRFSI6      070BRFS  FM    ON      NM000R$  000000000002500000000000250000000000025000000000002500000000000250000000000000000000000000000003000000000000005200000000000000130000000000000459502017091800000010000000000000BRBRFSACNOR8116
012017090578BRFSJ43     070BRFS  FM    ON      NM000R$  000000000022600000000002270000000000226000000000022600000000002270000000000000000000000000000002000000000000004400000000000000996800000000000430002017101600000010000000000000BRBRFSACNOR8117
012017090578BRFSJ44     070BRFS  FM    ON      NM000R$  000000000020800000000002080000000000161000000000019000000000001760000000000000000000000000000014000000000000025400000000000004850800000000000440002017101600000010000000000000BRBRFSACNOR8117
012017090578BRFSJ45     070BRFS  FM    ON      NM000R$  000000000009700000000001330000000000097000000000012900000000001330000000000000000000000000000005000000000000009200000000000001191200000000000450002017101600000010000000000000BRBRFSACNOR8117
012017090578BRFSJ6      070BRFSE       ON      NM000R$  000000000007700000000000790000000000077000000000007800000000000790000000000000000000000007900002000000000000005000000000000000390000000000000462502017101600000010000000000000BRBRFSACNOR8117
012017090582BRFSU14     080BRFSE FM    ON      NM000R$  000000000010700000000001070000000000107000000000010700000000001070000000000000000000000000000001000000000000002400000000000000256800000000000449502017091800000010000000000000BRBRFSACNOR8117
012017090582BRFSU43     080BRFSE       ON      NM000R$  000000000003500000000000350000000000035000000000003500000000000350000000000000000000000000000002000000000000001900000000000000066500000000000434502017091800000010000000000000BRBRFSACNOR8117
012017090582BRFSU71     080BRFSE FM    ON      NM000R$  000000000001500000000000150000000000007000000000001100000000000070000000000000000000000000000003000000000000004900000000000000054300000000000419502017091800000010000000000000BRBRFSACNOR8117
012017090582BRFSV42     080BRFSE FM    ON      NM000R$  000000000005100000000000570000000000044000000000005100000000000560000000000020000000000000000007000000000000013000000000000000670400000000000420002017101600000010000000000000BRBRFSACNOR8117
012017090582BRFSV43     080BRFSE FM    ON      NM000R$  000000000006600000000000660000000000066000000000006600000000000660000000000000000000000000000001000000000000000100000000000000006600000000000430002017101600000010000000000000BRBRFSACNOR8117
012017090502BRGE12      010ALFA CONSORCPNF          R$  000000000029100000000002910000000000291000000000029100000000002910000000000290000000000030400001000000000000000100000000000000029100000000000000009999123100000010000000000000BRBRGEACNPF8094
012017090502BRGE3       010ALFA CONSORCON           R$  000000000040100000000004010000000000400000000000040000000000004000000000000400000000000044900002000000000000000200000000000000080100000000000000009999123100000010000000000000BRBRGEACNOR6200
012017090502BRIN3       010BR INSURANCEON      NM   R$  000000000168000000000017760000000001675000000000172300000000017090000000001701000000000170900103000000000000098100000000000169120000000000000000009999123100000010000000000000BRBRINACNOR3111
012017090596BRIN3F      020BR INSURANCEON      NM   R$  000000000172000000000017280000000001700000000000171100000000017000000000001681000000000172700005000000000000000013000000000000022253000000000000009999123100000010000000000000BRBRINACNOR3111
012017090562BRIN3T      030BR INSURANCEON      NM016R$  000000000175400000000017550000000001716000000000173300000000017170000000000000000000000000000006000000000000028100000000000048719219000000000000009999123100000010000000000000BRBRINACNOR3111
012017090562BRIN3T      030BR INSURANCEON      NM030R$  000000000176000000000017610000000001721000000000173900000000017220000000000000000000000000000006000000000000028200000000000049057089000000000000009999123100000010000000000000BRBRINACNOR3111
012017090562BRIN3T      030BR INSURANCEON      NM045R$  000000000174300000000017440000000001727000000000173300000000017280000000000000000000000000000004000000000000017500000000000030340708000000000000009999123100000010000000000000BRBRINACNOR3111
012017090502BRIV3       010ALFA INVEST ON           R$  000000000047000000000004700000000000470000000000047000000000004700000000000457000000000047600005000000000000010000000000000004700000000000000000009999123100000010000000000000BRBRIVACNOR6205
012017090502BRIV4       010ALFA INVEST PN           R$  000000000074900000000007490000000000749000000000074900000000007490000000000645000000000074500001000000000000000100000000000000074900000000000000009999123100000010000000000000BRBRIVACNPR3205
012017090502BRKM3       010BRASKEM     ON      N1   R$  000000000373100000000037680000000003720000000000372900000000037200000000003675000000000372000008000000000000001500000000000005594900000000000000009999123100000010000000000000BRBRKMACNOR1114
012017090502BRKM5       010BRASKEM     PNA     N1   R$  000000000394300000000039810000000003851000000000390800000000038850000000003875000000000388509232000000000001730400000000006763222800000000000000009999123100000010000000000000BRBRKMACNPA4114
012017090596BRKM5F      020BRASKEM     PNA     N1   R$  000000000395000000000039710000000003860000000000391300000000038900000000003850000000000389000093000000000000002514000000000009837533000000000000009999123100000010000000000000BRBRKMACNPA4114
012017090562BRKM5T      030BRASKEM     PNA     N1062R$  000000000398700000000039880000000003987000000000398700000000039880000000000000000000000000000002000000000000002000000000000007975517000000000000009999123100000010000000000000BRBRKMACNPA4114
012017090562BRKM5T      030BRASKEM     PNA     N1090R$  000000000403300000000040340000000004033000000000403300000000040340000000000000000000000000000002000000000000001000000000000004033882000000000000009999123100000010000000000000BRBRKMACNPA4114
012017090578BRKMI7      070BRKM  FM    PNA     N1000R$  000000000018300000000001830000000000183000000000018300000000001830000000000000000000000000000001000000000000000500000000000000091500000000000377402017091800000010000000000000BRBRKMACNPA4114
012017090578BRKMI9      070BRKM  FM    PNA     N1000R$  000000000006800000000000680000000000040000000000004100000000000450000000000000000000000000000011000000000000012500000000000000521500000000000397402017091800000010000000000000BRBRKMACNPA4114
012017090578BRKMJ40     070BRKM  FM    PNA     N1000R$  000000000013900000000001390000000000117000000000013200000000001330000000000000000000000000000006000000000000006700000000000000888400000000000400002017101600000010000000000000BRBRKMACNPA4114
012017090578BRKMJ41     070BRKM  FM    PNA     N1000R$  000000000010800000000001080000000000087000000000009700000000000870000000000000000000000000000004000000000000004600000000000000447000000000000410002017101600000010000000000000BRBRKMACNPA4114
012017090582BRKMV37     080BRKME FM    PNA     N1000R$  000000000005800000000000580000000000058000000000005800000000000580000000000000000000000000000001000000000000001500000000000000087000000000000370002017101600000010000000000000BRBRKMACNPA4114
012017090582BRKMV38     080BRKME FM    PNA     N1000R$  000000000009500000000001260000000000088000000000009400000000001260000000000106000000000013000145000000000000097200000000000009224400000000000380002017101600000010000000000000BRBRKMACNPA4114
012017090502BRML3       010BR MALLS PARON      NM   R$  000000000134500000000013640000000001332000000000134800000000013520000000001350000000000135315989000000000006026500000000008128467700000000000000009999123100000010000000000000BRBRMLACNOR9110
012017090596BRML3F      020BR MALLS PARON      NM   R$  000000000133400000000013690000000001333000000000135000000000013690000000001333000000000136900073000000000000002711000000000003660684000000000000009999123100000010000000000000BRBRMLACNOR9110
012017090578BRMLI13     070BRML  FM    ON      NM000R$  000000000005600000000000560000000000050000000000005200000000000500000000000001000000000000000002000000000000009000000000000000474000000000000131802017091800000010000000000000BRBRMLACNOR9110
012017090578BRMLI42     070BRML  FM    ON      NM000R$  000000000009100000000000910000000000091000000000009100000000000910000000000000000000000000000002000000000000007200000000000000655200000000000126802017091800000010000000000000BRBRMLACNOR9110
012017090578BRMLI73     070BRML  FM    ON      NM000R$  000000000002700000000000280000000000027000000000002700000000000280000000000000000000000000000004000000000000012000000000000000334000000000000136802017091800000010000000000000BRBRMLACNOR9110
012017090578BRMLJ14     070BRML  FM    ON      NM000R$  000000000003600000000000360000000000033000000000003500000000000330000000000000000000000000000003000000000000006000000000000000210000000000000140002017101600000010000000000000BRBRMLACNOR9110
012017090578BRMLJ43     070BRML  FM    ON      NM000R$  000000000006200000000000620000000000062000000000006200000000000620000000000045000000000006500002000000000000005000000000000000310000000000000135002017101600000010000000000000BRBRMLACNOR9110
012017090502BRPR3       010BR PROPERT  ON      NM   R$  000000000109200000000011170000000001089000000000110600000000011100000000001108000000000111002086000000000000374100000000000413774600000000000000009999123100000010000000000000BRBRPRACNOR9117
012017090596BRPR3F      020BR PROPERT  ON      NM   R$  000000000110800000000011120000000001096000000000110500000000011100000000001105000000000111000017000000000000000556000000000000614852000000000000009999123100000010000000000000BRBRPRACNOR9117
012017090502BRSR3       010BANRISUL    ON      N1   R$  000000000200000000000020500000000001871000000000193600000000018710000000001870000000000198000021000000000000003100000000000006003200000000000000009999123100000010000000000000BRBRSRACNOR3150
012017090596BRSR3F      020BANRISUL    ON      N1   R$  000000000200000000000020000000000001900000000000199400000000019000000000001880000000000194000003000000000000000085000000000000169500000000000000009999123100000010000000000000BRBRSRACNOR3150
012017090502BRSR6       010BANRISUL    PNB     N1   R$  000000000175200000000017970000000001718000000000174800000000017330000000001733000000000173802685000000000000616900000000001078538300000000000000009999123100000010000000000000BRBRSRACNPB4153
012017090596BRSR6F      020BANRISUL    PNB     N1   R$  000000000176600000000017930000000001720000000000175100000000017600000000001743000000000176000083000000000000002843000000000004978290000000000000009999123100000010000000000000BRBRSRACNPB4153
012017090562BRSR6T      030BANRISUL    PNB     N1045R$  000000000175800000000017590000000001758000000000175800000000017590000000000000000000000000000002000000000000001000000000000001758698000000000000009999123100000010000000000000BRBRSRACNPB4153
012017090502BSEV3       010BIOSEV      ON      NM   R$  000000000051900000000005250000000000513000000000051700000000005200000000000516000000000052000044000000000000021100000000000010917700000000000000009999123100000010000000000000BRBSEVACNOR3101
012017090596BSEV3F      020BIOSEV      ON      NM   R$  000000000051900000000005190000000000519000000000051900000000005190000000000515000000000053300001000000000000000014000000000000007266000000000000009999123100000010000000000000BRBSEVACNOR3101
012017090502BTOW3       010B2W DIGITAL ON      NM   R$  000000000192500000000019440000000001871000000000191100000000018890000000001887000000000188905378000000000001055500000000002016982100000000000000009999123100000010000000000000BRBTOWACNOR8109
012017090596BTOW3F      020B2W DIGITAL ON      NM   R$  000000000189000000000019490000000001877000000000191400000000019200000000001876000000000192000047000000000000001615000000000003092334000000000000009999123100000010000000000000BRBTOWACNOR8109
012017090562BTOW3T      030B2W DIGITAL ON      NM016R$  000000000193000000000019310000000001923000000000192900000000019240000000000000000000000000000004000000000000011100000000000021418683000000000000009999123100000010000000000000BRBTOWACNOR8109
012017090502BTTL4       010BATTISTELLA PN           R$  000000000122500000000012900000000001225000000000123100000000012900000000001100000000000129900003000000000000001000000000000001231500000000000000009999123100000010000000000000BRBTTLACNPR7107
012017090502BVMF3       010BMFBOVESPA  ON      NM   R$  000000000227500000000022970000000002252000000000227700000000022600000000002259000000000226028594000000000008723000000000019862483200000000000000009999123100000010000000000000BRBVMFACNOR3142
