00COTAHIST.2017BOVESPA 20170922                                                                                                                                                                                                                      
012017092202AALR3       010ALLIAR      ON      NM   R$  000000000165700000000017040000000001638000000000167100000000017040000000001702000000000170400490000000000000724300000000001210534300000000000000009999123100000010000000000000BRAALRACNOR6100
012017092296AALR3F      020ALLIAR      ON      NM   R$  000000000164000000000017000000000001640000000000167300000000016880000000001688000000000170000007000000000000000248000000000000415045000000000000009999123100000010000000000000BRAALRACNOR6100
012017092202AAPL34      010APPLE       DRN          R$  000000000472000000000047670000000004720000000000472800000000047670000000004687000000000476700004000000000000019500000000000092203800000000000000009999123100000010000000000000BRAAPLBDR004122
012017092296AAPL34F     020APPLE       DRN          R$  000000000540000000000054000000000004740000000000483400000000047400000000004468000000000539900002000000000000000105000000000000507600000000000000009999123100000010000000000000BRAAPLBDR004122
012017092202ABBV34      010ABBVIE      DRN          R$  000000002731000000000273100000000027310000000002731000000000273100000000000000000000000000000001000000000000000100000000000002731000000000000000009999123100000010000000000000BRABBVBDR001106
012017092210ABCB10      010ABC BRASIL  PN  REC N2   R$  000000000180500000000018050000000001800000000000180100000000018000000000001750000000000182000004000000000000001000000000000001801000000000000000009999123100000010000000000000BRABCBR12PR6127
012017092296ABCB10F     020ABC BRASIL  PN  REC N2   R$  000000000177100000000017710000000001771000000000177100000000017710000000001788000000000180500002000000000000000051000000000000090321000000000000009999123100000010000000000000BRABCBR12PR6127
012017092202ABCB4       010ABC BRASIL  PN      N2   R$  000000000181100000000018290000000001799000000000181400000000018200000000001812000000000182002573000000000000319100000000000578868700000000000000009999123100000010000000000000BRABCBACNPR4128
012017092296ABCB4F      020ABC BRASIL  PN      N2   R$  000000000181500000000018270000000001814000000000182300000000018270000000001808000000000182700013000000000000000138000000000000251652000000000000009999123100000010000000000000BRABCBACNPR4128
012017092212ABCP11      010FII ABC IMOBCI           R$  000000000184900000000018500000000001830000000000184800000000018500000000001822000000000185000021000000000000001077000000000001990697000000000000009999123100000010000000000000BRABCPCTF000263
012017092202ABEV3       010AMBEV S/A   ON           R$  000000000213800000000021620000000002136000000000215100000000021520000000002152000000000215819352000000000012365600000000026603339700000000000000009999123100000010000000000000BRABEVACNOR1117
012017092296ABEV3F      020AMBEV S/A   ON           R$  000000000213500000000021640000000002135000000000215100000000021510000000002151000000000216500126000000000000003536000000000007606792000000000000009999123100000010000000000000BRABEVACNOR1117
012017092262ABEV3T      030AMBEV S/A   ON        061R$  000000000216400000000021650000000002164000000000216400000000021650000000000000000000000000000002000000000000009300000000000020125977000000000000009999123100000010000000000000BRABEVACNOR1117
012017092262ABEV3T      030AMBEV S/A   ON        063R$  000000000218700000000021880000000002187000000000218700000000021880000000000000000000000000000002000000000001050000000000002297234520000000000000009999123100000010000000000000BRABEVACNOR1117
012017092278ABEVB71     070ABEVE       ON        000R$  000000000010300000000001040000000000103000000000010300000000001040000000000000000000000000000003000000000001000000000000000103680000000000000218302018021900000010000000000000BRABEVACNOR1117
012017092278ABEVJ20     070ABEV  FM    ON        000R$  000000000014800000000001660000000000148000000000015200000000001660000000000000000000000000000003000000000000021500000000000003289000000000000200502017101600000010000000000000BRABEVACNOR1117
012017092278ABEVJ21     070ABEV        ON        000R$  000000000006500000000000730000000000065000000000006900000000000730000000000000000000000007200006000000000000006000000000000000419000000000000210502017101600000010000000000000BRABEVACNOR1117
012017092278ABEVJ22     070ABEV        ON        000R$  000000000001700000000000210000000000017000000000001900000000000190000000000018000000000000000011000000000000008100000000000000153900000000000220502017101600000010000000000000BRABEVACNOR1117
012017092278ABEVJ50     070ABEV  FM    ON        000R$  000000000009600000000001200000000000096000000000010400000000001200000000000000000000000012000002000000000000015000000000000001560000000000000205502017101600000010000000000000BRABEVACNOR1116
012017092278ABEVJ51     070ABEV  FM    ON        000R$  000000000003300000000000420000000000032000000000003600000000000390000000000035000000000005700044000000000000191400000000000006988200000000000215502017101600000010000000000000BRABEVACNOR1116
012017092278ABEVJ52     070ABEV  FM    ON        000R$  000000000000700000000000090000000000006000000000000800000000000060000000000006000000000000900015000000000000045500000000000000397000000000000225502017101600000010000000000000BRABEVACNOR1117
012017092278ABEVJ61     070ABEVE       ON        000R$  000000000005400000000000540000000000054000000000005400000000000540000000000000000000000000000001000000000000004000000000000000216000000000000213002017101600000010000000000000BRABEVACNOR1117
012017092278ABEVJ66     070ABEVE       ON        000R$  000000000058800000000005880000000000588000000000058800000000005880000000000000000000000000000001000000000000025500000000000014994000000000000158002017101600000010000000000000BRABEVACNOR1114
012017092278ABEVJ76     070ABEVE       ON        000R$  000000000000300000000000030000000000003000000000000300000000000030000000000000000000000000300001000000000000025500000000000000076500000000000258002017101600000010000000000000BRABEVACNOR1110
012017092278ABEVK2      070ABEVE       ON        000R$  000000000003300000000000340000000000033000000000003300000000000340000000000000000000000000000003000000000001300000000000000043550000000000000221702017112100000010000000000000BRABEVACNOR1113
012017092278ABEVK20     070ABEV  FM    ON        000R$  000000000017600000000001920000000000173000000000019100000000001920000000000111000000000000000006000000000002540500000000000487176000000000000199202017112100000010000000000000BRABEVACNOR1116
012017092278ABEVK21     070ABEVE       ON        000R$  000000000009100000000000910000000000091000000000009100000000000910000000000000000000000000000001000000000000004000000000000000364000000000000211702017112100000010000000000000BRABEVACNOR1116
012017092278ABEVK51     070ABEV  FM    ON        000R$  000000000004700000000000470000000000047000000000004700000000000470000000000000000000000008400002000000000000020000000000000000940000000000000219202017112100000010000000000000BRABEVACNOR1117
012017092278ABEVK52     070ABEV  FM    ON        000R$  000000000001600000000000190000000000016000000000001600000000000190000000000000000000000000000002000000000000006800000000000000114800000000000229202017112100000010000000000000BRABEVACNOR1117
012017092278ABEVK61     070ABEV        ON        000R$  000000000006700000000000740000000000067000000000007100000000000740000000000000000000000000000006000000000000006000000000000000428000000000000214202017112100000010000000000000BRABEVACNOR1117
012017092278ABEVK63     070ABEVE       ON        000R$  000000000000500000000000050000000000005000000000000500000000000050000000000000000000000000000002000000000001300000000000000006500000000000000236702017112100000010000000000000BRABEVACNOR1117
012017092278ABEVL7      070ABEVE       ON        000R$  000000000009100000000000910000000000091000000000009100000000000910000000000000000000000000000001000000000002500000000000000227500000000000000215402017121800000010000000000000BRABEVACNOR1113
012017092282ABEVV51     080ABEVE       ON        000R$  000000000002700000000000320000000000027000000000002800000000000320000000000016000000000010000003000000000000035200000000000001000400000000000215502017101600000010000000000000BRABEVACNOR1116
012017092282ABEVV61     080ABEVE       ON        000R$  000000000001600000000000160000000000016000000000001600000000000160000000000000000000000000000001000000000000002000000000000000032000000000000213002017101600000010000000000000BRABEVACNOR1117
012017092282ABEVV66     080ABEVE       ON        000R$  000000000000300000000000030000000000003000000000000300000000000030000000000000000000000000000001000000000000025500000000000000076500000000000158002017101600000010000000000000BRABEVACNOR1114
012017092282ABEVV76     080ABEVE       ON        000R$  000000000041200000000004120000000000412000000000041200000000004120000000000000000000000000000001000000000000025500000000000010506000000000000258002017101600000010000000000000BRABEVACNOR1110
012017092282ABEVV81     080ABEVE FM    ON        000R$  000000000000800000000000080000000000008000000000000800000000000080000000000008000000000001200006000000000000038000000000000000304000000000000208002017101600000010000000000000BRABEVACNOR1113
012017092282ABEVV82     080ABEVE FM    ON        000R$  000000000004100000000000420000000000040000000000004100000000000420000000000026000000000004500004000000000000008000000000000000332000000000000218002017101600000010000000000000BRABEVACNOR1115
012017092282ABEVV89     080ABEVE FM    ON        000R$  000000000000200000000000020000000000002000000000000200000000000020000000000000000000000002800003000000000000022000000000000000044000000000000198002017101600000010000000000000BRABEVACNOR1117
012017092202ADHM3       010ADVANCED-DH ON           R$  000000000021900000000002230000000000218000000000021800000000002180000000000215000000000022300010000000000000006400000000000001401000000000000000009999123100000010000000000000BRADHMACNOR9101
012017092212AEFI11      010FII AESAPAR CI           R$  000000001499900000000153540000000014922000000001508300000000151000000000015022000000001507500055000000000000001785000000000026923354000000000000009999123100000010000000000000BRAEFICTF002169
012017092202AELP3       010AES ELPA    ON           R$  000000000056500000000006000000000000565000000000058000000000006000000000000568000000000060000004000000000000001400000000000000812000000000000000009999123100000010000000000000BRAELPACNOR2124
012017092296AELP3F      020AES ELPA    ON           R$  000000000059000000000006000000000000590000000000059600000000006000000000000580000000000060000007000000000000000057000000000000034000000000000000009999123100000010000000000000BRAELPACNOR2124
012017092212AGCX11      010FII AG CAIXACI           R$  000000012890100000001299990000000128047000000012873500000001280470000000128047000000012850000084000000000000000742000000000095521658000000000000009999123100000010000000000000BRAGCXCTF003158
012017092202AGRO3       010BRASILAGRO  ON      NM   R$  000000000133100000000013590000000001312000000000135700000000013590000000001358000000000135900194000000000002807100000000003811250800000000000000009999123100000010000000000000BRAGROACNOR7106
012017092296AGRO3F      020BRASILAGRO  ON      NM   R$  000000000135000000000013600000000001330000000000133700000000013600000000001303000000000136000008000000000000000194000000000000259565000000000000009999123100000010000000000000BRAGROACNOR7106
012017092212ALMI11      010FII TORRE ALCI           R$  000000021299900000002180000000000211500000000021295900000002180000000000213500000000021950000022000000000000000086000000000018314494000000000000009999123100000010000000000000BRALMICTF003249
012017092202ALPA3       010ALPARGATAS  ON      N1   R$  000000000140100000000014010000000001401000000000140100000000014010000000001401000000000141800003000000000000000300000000000000420300000000000000009999123100000010000000000000BRALPAACNOR0222
012017092296ALPA3F      020ALPARGATAS  ON      N1   R$  000000000139700000000013970000000001396000000000139600000000013960000000001401000000000142100002000000000000000052000000000000072643000000000000009999123100000010000000000000BRALPAACNOR0222
012017092202ALPA4       010ALPARGATAS  PN      N1   R$  000000000155200000000015680000000001535000000000155400000000015680000000001552000000000156801214000000000000505200000000000785083100000000000000009999123100000010000000000000BRALPAACNPR7222
012017092296ALPA4F      020ALPARGATAS  PN      N1   R$  000000000158000000000015800000000001545000000000155400000000015640000000001533000000000158000013000000000000000328000000000000509985000000000000009999123100000010000000000000BRALPAACNPR7222
012017092202ALSC3       010ALIANSCE    ON      NM   R$  000000000187500000000018900000000001867000000000187300000000018730000000001873000000000188002024000000000000582500000000001091407700000000000000009999123100000010000000000000BRALSCACNOR0110
012017092296ALSC3F      020ALIANSCE    ON      NM   R$  000000000188000000000018800000000001870000000000187300000000018700000000001851000000000192000008000000000000000080000000000000149910000000000000009999123100000010000000000000BRALSCACNOR0110
012017092202ALUP11      010ALUPAR      UNT     N2   R$  000000000191000000000019360000000001887000000000190300000000019070000000001905000000000190702902000000000000490700000000000934262100000000000000009999123100000010000000000000BRALUPCDAM15106
012017092296ALUP11F     020ALUPAR      UNT     N2   R$  000000000191800000000019780000000001871000000000190300000000019060000000001920000000000197900035000000000000000819000000000001559057000000000000009999123100000010000000000000BRALUPCDAM15106
012017092296ALUP3F      020ALUPAR      ON      N2   R$  000000000073000000000007300000000000730000000000073000000000007300000000000650000000000073000001000000000000000014000000000000010220000000000000009999123100000010000000000000BRALUPACNOR8106
012017092202ALUP4       010ALUPAR      PN      N2   R$  000000000054300000000005430000000000543000000000054300000000005430000000000543000000000060900001000000000000000200000000000000108600000000000000009999123100000010000000000000BRALUPACNPR5106
012017092202AMAR3       010LOJAS MARISAON      NM   R$  000000000096000000000009650000000000913000000000093500000000009350000000000930000000000093501804000000000000556400000000000520607400000000000000009999123100000010000000000000BRAMARACNOR4112
012017092296AMAR3F      020LOJAS MARISAON      NM   R$  000000000095800000000009840000000000887000000000093900000000009330000000000910000000000092500030000000000000001166000000000001095553000000000000009999123100000010000000000000BRAMARACNOR4112
012017092202AMGN34      010AMGEN       DRN          R$  000000005819600000000581960000000058196000000005819600000000581960000000000000000000000000000001000000000000000100000000000005819600000000000000009999123100000010000000000000BRAMGNBDR004123
012017092202AMZO34      010AMAZON      DRN          R$  000000015020800000001502080000000150208000000015020800000001502080000000147927000000015091500001000000000000000300000000000045062400000000000000009999123100000010000000000000BRAMZOBDR002101
012017092296AMZO34F     020AMAZON      DRN          R$  000000015020800000001502080000000150208000000015020800000001502080000000080000000000000000000001000000000000000050000000000007510400000000000000009999123100000010000000000000BRAMZOBDR002101
012017092202ANIM3       010ANIMA       ON      NM   R$  000000000225400000000022540000000002186000000000220100000000021950000000002195000000000222000193000000000000042100000000000092673500000000000000009999123100000010000000000000BRANIMACNOR6104
012017092296ANIM3F      020ANIMA       ON      NM   R$  000000000222200000000022870000000002001000000000215400000000022870000000002179000000000228700005000000000000000071000000000000152985000000000000009999123100000010000000000000BRANIMACNOR6104
012017092202ARZZ3       010AREZZO CO   ON      NM   R$  000000000511000000000051950000000005100000000000513500000000051060000000005106000000000513601866000000000000309600000000001589837900000000000000009999123100000010000000000000BRARZZACNOR3126
012017092296ARZZ3F      020AREZZO CO   ON      NM   R$  000000000513800000000051610000000005130000000000513600000000051340000000005135000000000522700014000000000000000452000000000002321499000000000000009999123100000010000000000000BRARZZACNOR3126
012017092202ATOM3       010ATOMPAR     ON           R$  000000000029300000000002960000000000286000000000029000000000002930000000000287000000000029300041000000000000017600000000000005114900000000000000009999123100000010000000000000BRATOMACNOR1102
012017092296ATOM3F      020ATOMPAR     ON           R$  000000000029100000000002940000000000291000000000029200000000002940000000000288000000000029500002000000000000000079000000000000023091000000000000009999123100000010000000000000BRATOMACNOR1102
012017092202AXPB34      010AMERICAN EXPDRN          R$  000000002758500000000275850000000027585000000002758500000000275850000000000000000000000000000001000000000000000100000000000002758500000000000000009999123100000010000000000000BRAXPBBDR007121
012017092202AZEV4       010AZEVEDO     PN           R$  000000000011400000000001140000000000114000000000011400000000001140000000000110000000000011400002000000000000000300000000000000034200000000000000009999123100000010000000000000BRAZEVACNPR7116
012017092202AZUL4       010AZUL        PN      N2   R$  000000000301300000000030140000000002941000000000298600000000029850000000002951000000000298501336000000000000263000000000000785350800000000000000009999123100000010000000000000BRAZULACNPR4100
012017092296AZUL4F      020AZUL        PN      N2   R$  000000000290200000000030000000000002902000000000297900000000029990000000002901000000000296500007000000000000000151000000000000449931000000000000009999123100000010000000000000BRAZULACNPR4100
012017092296BALM3F      020BAUMER      ON           R$  000000000067000000000006700000000000670000000000067000000000006700000000000000000000000000000001000000000000000040000000000000026800000000000000009999123100000010000000000000BRBALMACNOR5047
012017092202BALM4       010BAUMER      PN           R$  000000000082900000000008310000000000829000000000083000000000008300000000000830000000000089500008000000000000001200000000000000996100000000000000009999123100000010000000000000BRBALMACNPR2048
012017092202BAUH4       010EXCELSIOR   PN           R$  000000000145400000000014540000000001350000000000138500000000014540000000001350000000000145400005000000000000000900000000000001246800000000000000009999123100000010000000000000BRBAUHACNPR3112
012017092296BAUH4F      020EXCELSIOR   PN           R$  000000000140000000000014000000000001400000000000140000000000014000000000001135000000000140000001000000000000000002000000000000002800000000000000009999123100000010000000000000BRBAUHACNPR3112
012017092202BAZA3       010AMAZONIA    ON           R$  000000000278900000000027900000000002788000000000278900000000027880000000002720000000000278800003000000000000000300000000000000836700000000000000009999123100000010000000000000BRBAZAACNOR0171
012017092202BBAS3       010BRASIL      ON      NM   R$  000000000353700000000035420000000003502000000000352200000000035300000000003524000000000353017433000000000005420100000000019094653100000000000000009999123100000010000000000000BRBBASACNOR3271
012017092296BBAS3F      020BRASIL      ON      NM   R$  000000000353500000000035480000000003500000000000352100000000035180000000003518000000000352100330000000000000006820000000000024015238000000000000009999123100000010000000000000BRBBASACNOR3271
012017092262BBAS3T      030BRASIL      ON      NM060R$  000000000357400000000035750000000003574000000000357400000000035750000000000000000000000000000002000000000000002000000000000007148062000000000000009999123100000010000000000000BRBBASACNOR3271
012017092278BBASC68     070BBASE       ON      NM000R$  000000000018900000000001890000000000189000000000018900000000001890000000000000000000000000000001000000000000007300000000000001379700000000000382302018031900000010000000000000BRBBASACNOR3271
012017092278BBASJ1      070BBAS        ON      NM000R$  000000000038000000000003910000000000380000000000038500000000003910000000000356000000000000000009000000000000001100000000000000424100000000000315702017101600000010000000000000BRBBASACNOR3269
012017092278BBASJ29     070BBAS        ON      NM000R$  000000000064000000000006400000000000640000000000064000000000006400000000000608000000000000000001000000000000002000000000000001280000000000000290702017101600000010000000000000BRBBASACNOR3269
012017092278BBASJ31     070BBAS        ON      NM000R$  000000000045000000000004500000000000435000000000044100000000004350000000000000000000000000000007000000000000002500000000000001102500000000000310702017101600000010000000000000BRBBASACNOR3269
012017092278BBASJ32     070BBAS        ON      NM000R$  000000000034600000000003460000000000345000000000034500000000003450000000000275000000000000000003000000000000002500000000000000863000000000000320702017101600000010000000000000BRBBASACNOR3269
012017092278BBASJ33     070BBAS        ON      NM000R$  000000000026100000000002660000000000255000000000026000000000002590000000000259000000000000000015000000000000008000000000000002086500000000000330702017101600000010000000000000BRBBASACNOR3269
012017092278BBASJ34     070BBAS        ON      NM000R$  000000000019900000000001990000000000173000000000018000000000001790000000000165000000000018500047000000000000034900000000000006297200000000000340702017101600000010000000000000BRBBASACNOR3269
012017092278BBASJ35     070BBAS        ON      NM000R$  000000000012000000000001220000000000112000000000011600000000001130000000000098000000000012600050000000000000035900000000000004172600000000000350702017101600000010000000000000BRBBASACNOR3271
012017092278BBASJ36     070BBAS        ON      NM000R$  000000000007500000000000750000000000065000000000007000000000000670000000000067000000000008100108000000000000140300000000000009941500000000000360702017101600000010000000000000BRBBASACNOR3271
012017092278BBASJ37     070BBAS        ON      NM000R$  000000000004000000000000430000000000037000000000004000000000000370000000000035000000000005000042000000000000052500000000000002117900000000000370702017101600000010000000000000BRBBASACNOR3271
012017092278BBASJ38     070BBAS        ON      NM000R$  000000000002900000000000290000000000019000000000002000000000000200000000000020000000000002100142000000000000115600000000000002425100000000000380702017101600000010000000000000BRBBASACNOR3271
012017092278BBASJ5      070BBAS  FM    ON      NM000R$  000000000008900000000000970000000000087000000000009200000000000890000000000085000000000009500026000000000000039000000000000003615000000000000355702017101600000010000000000000BRBBASACNOR3270
012017092278BBASJ6      070BBAS  FM    ON      NM000R$  000000000005100000000000600000000000050000000000005400000000000550000000000055000000000007000108000000000000090800000000000004959400000000000365702017101600000010000000000000BRBBASACNOR3271
012017092278BBASJ7      070BBAS  FM    ON      NM000R$  000000000003000000000000320000000000028000000000002900000000000310000000000027000000000003200339000000000000101400000000000002984600000000000375702017101600000010000000000000BRBBASACNOR3270
012017092278BBASJ93     070BBAS  FM    ON      NM000R$  000000000021600000000002220000000000213000000000021400000000002130000000000005000000000000000031000000000000031900000000000006847200000000000335702017101600000010000000000000BRBBASACNOR3269
012017092278BBASJ94     070BBAS  FM    ON      NM000R$  000000000014200000000001550000000000142000000000014400000000001440000000000142000000000022000048000000000000041400000000000005990100000000000345702017101600000010000000000000BRBBASACNOR3269
012017092278BBASK1      070BBASE       ON      NM000R$  000000000021100000000002290000000000211000000000021100000000002290000000000211000000000000000021000000000000017000000000000003603200000000000348202017112100000010000000000000BRBBASACNOR3267
012017092278BBASK12     070BBASE       ON      NM000R$  000000000016900000000001740000000000165000000000017000000000001650000000000165000000000000000005000000000000012900000000000002204100000000000358202017112100000010000000000000BRBBASACNOR3271
012017092278BBASK14     070BBASE       ON      NM000R$  000000000004800000000000530000000000046000000000004800000000000520000000000012000000000005300016000000000000003300000000000000159900000000000398202017112100000010000000000000BRBBASACNOR3271
012017092278BBASK30     070BBAS        ON      NM000R$  000000000057000000000005700000000000570000000000057000000000005700000000000513000000000000000001000000000000002000000000000001140000000000000300702017112100000010000000000000BRBBASACNOR3269
012017092278BBASK33     070BBAS        ON      NM000R$  000000000033000000000003300000000000330000000000033000000000003300000000000300000000000000000001000000000000000100000000000000033000000000000330702017112100000010000000000000BRBBASACNOR3269
012017092278BBASK4      070BBAS  FM    ON      NM000R$  000000000023200000000002360000000000229000000000023300000000002320000000000000000000000000000017000000000000021700000000000005064500000000000345702017112100000010000000000000BRBBASACNOR3271
012017092278BBASK5      070BBAS  FM    ON      NM000R$  000000000017700000000001790000000000173000000000017700000000001780000000000130000000000000000025000000000000021800000000000003865400000000000355702017112100000010000000000000BRBBASACNOR3271
012017092278BBASK6      070BBAS  FM    ON      NM000R$  000000000013600000000001360000000000136000000000013600000000001360000000000040000000000000000002000000000000002500000000000000340000000000000365702017112100000010000000000000BRBBASACNOR3271
012017092278BBASK7      070BBAS  FM    ON      NM000R$  000000000010100000000001050000000000098000000000010300000000000980000000000088000000000012500011000000000000017200000000000001784300000000000375702017112100000010000000000000BRBBASACNOR3270
012017092278BBASK93     070BBAS  FM    ON      NM000R$  000000000029100000000003020000000000291000000000029400000000002950000000000090000000000000000013000000000000022500000000000006636200000000000335702017112100000010000000000000BRBBASACNOR3269
012017092278BBASL31     070BBAS        ON      NM000R$  000000000058100000000005810000000000560000000000056700000000005600000000000550000000000000000006000000000000001100000000000000624100000000000305702017121800000010000000000000BRBBASACNOR3267
012017092278BBASL32     070BBAS        ON      NM000R$  000000000048000000000004800000000000460000000000047300000000004700000000000000000000000050000006000000000000001300000000000000615000000000000315702017121800000010000000000000BRBBASACNOR3265
012017092278BBASL35     070BBAS        ON      NM000R$  000000000020700000000002070000000000207000000000020700000000002070000000000000000000000000000001000000000000001000000000000000207000000000000355702017121800000010000000000000BRBBASACNOR3269
012017092278BBASL38     070BBAS        ON      NM000R$  000000000012300000000001230000000000123000000000012300000000001230000000000000000000000000000001000000000000000500000000000000061500000000000375702017121800000010000000000000BRBBASACNOR3267
012017092282BBASO1      080BBASE       ON      NM000R$  000000000012000000000001200000000000120000000000012000000000001200000000000000000000000000000001000000000000007300000000000000876000000000000319802018031900000010000000000000BRBBASACNOR3271
012017092282BBASO3      080BBASE       ON      NM000R$  000000000030800000000003080000000000308000000000030800000000003080000000000000000000000000000001000000000000007300000000000002248400000000000339802018031900000010000000000000BRBBASACNOR3271
012017092282BBASV2      080BBASE       ON      NM000R$  000000000002500000000000260000000000023000000000002300000000000230000000000001000000000000000085000000000000033200000000000000786000000000000325702017101600000010000000000000BRBBASACNOR3269
012017092282BBASV29     080BBASE       ON      NM000R$  000000000000400000000000040000000000004000000000000400000000000040000000000003000000000000400002000000000000013000000000000000052000000000000290702017101600000010000000000000BRBBASACNOR3269
012017092282BBASV30     080BBASE       ON      NM000R$  000000000000700000000000070000000000007000000000000700000000000070000000000004000000000001800001000000000000007500000000000000052500000000000300702017101600000010000000000000BRBBASACNOR3269
012017092282BBASV32     080BBASE       ON      NM000R$  000000000001600000000000240000000000016000000000001800000000000160000000000016000000000001900168000000000000053800000000000000973800000000000320702017101600000010000000000000BRBBASACNOR3269
012017092282BBASV33     080BBASE       ON      NM000R$  000000000002900000000000350000000000029000000000003100000000000310000000000029000000000003100182000000000000089800000000000002791700000000000330702017101600000010000000000000BRBBASACNOR3269
012017092282BBASV34     080BBASE       ON      NM000R$  000000000005200000000000600000000000048000000000005400000000000560000000000051000000000005600149000000000000179400000000000009780500000000000340702017101600000010000000000000BRBBASACNOR3269
012017092282BBASV35     080BBASE       ON      NM000R$  000000000009000000000000970000000000087000000000009100000000000870000000000082000000000009800020000000000000011000000000000001007100000000000350702017101600000010000000000000BRBBASACNOR3271
012017092282BBASV36     080BBASE       ON      NM000R$  000000000014400000000001440000000000144000000000014400000000001440000000000000000000000000000002000000000000000500000000000000072000000000000360702017101600000010000000000000BRBBASACNOR3271
012017092282BBASV5      080BBASE FM    ON      NM000R$  000000000011400000000001140000000000110000000000011100000000001100000000000000000000000000000005000000000000006200000000000000692800000000000355702017101600000010000000000000BRBBASACNOR3270
012017092282BBASV57     080BBASE       ON      NM000R$  000000000000300000000000040000000000003000000000000300000000000040000000000000000000000000000002000000000000002000000000000000007000000000000275702017101600000010000000000000BRBBASACNOR3269
012017092282BBASV6      080BBASE       ON      NM000R$  000000000017700000000001770000000000161000000000016900000000001710000000000000000000000000000003000000000000004100000000000000695500000000000365702017101600000010000000000000BRBBASACNOR3271
012017092282BBASV60     080BBASE       ON      NM000R$  000000000001000000000000100000000000010000000000001000000000000100000000000006000000000001600001000000000000001200000000000000012000000000000305702017101600000010000000000000BRBBASACNOR3269
012017092282BBASV69     080BBASE       ON      NM000R$  000000000000300000000000030000000000003000000000000300000000000030000000000000000000000000300001000000000000001000000000000000003000000000000288202017101600000010000000000000BRBBASACNOR3269
012017092282BBASV73     080BBASE FM    ON      NM000R$  000000000003000000000000300000000000024000000000002800000000000260000000000002000000000003100006000000000000001100000000000000030800000000000328202017101600000010000000000000BRBBASACNOR3269
012017092282BBASV93     080BBASE FM    ON      NM000R$  000000000004200000000000450000000000040000000000004100000000000410000000000000000000000007000144000000000000078400000000000003289500000000000335702017101600000010000000000000BRBBASACNOR3269
012017092282BBASV94     080BBASE FM    ON      NM000R$  000000000007500000000000750000000000066000000000006900000000000680000000000068000000000007200010000000000000034400000000000002389600000000000345702017101600000010000000000000BRBBASACNOR3269
012017092282BBASW1      080BBASE FM    ON      NM000R$  000000000015000000000001510000000000142000000000014700000000001510000000000131000000000000000008000000000000007100000000000001044100000000000348202017112100000010000000000000BRBBASACNOR3267
012017092282BBASW11     080BBASE       ON      NM000R$  000000000017200000000001720000000000172000000000017200000000001720000000000000000000000000000001000000000000002400000000000000412800000000000353202017112100000010000000000000BRBBASACNOR3271
012017092282BBASW12     080BBASE FM    ON      NM000R$  000000000019800000000002020000000000194000000000019800000000001960000000000000000000000000000032000000000000028400000000000005630900000000000358202017112100000010000000000000BRBBASACNOR3271
012017092282BBASW2      080BBASE       ON      NM000R$  000000000007300000000000780000000000073000000000007400000000000780000000000029000000000000000002000000000000001000000000000000074500000000000325702017112100000010000000000000BRBBASACNOR3269
012017092282BBASW26     080BBASE       ON      NM000R$  000000000001400000000000160000000000010000000000001400000000000140000000000011000000000001500013000000000000030800000000000000442500000000000260702017112100000010000000000000BRBBASACNOR3269
012017092282BBASW34     080BBASE       ON      NM000R$  000000000012500000000001250000000000125000000000012500000000001250000000000092000000000014500001000000000000000500000000000000062500000000000340702017112100000010000000000000BRBBASACNOR3269
012017092282BBASW71     080BBASE       ON      NM000R$  000000000004200000000000430000000000042000000000004200000000000430000000000000000000000000000014000000000000002000000000000000085000000000000308202017112100000010000000000000BRBBASACNOR3263
012017092282BBASW72     080BBASE       ON      NM000R$  000000000005700000000000570000000000057000000000005700000000000570000000000000000000000000000001000000000000002000000000000000114000000000000318202017112100000010000000000000BRBBASACNOR3269
012017092282BBASW93     080BBASE FM    ON      NM000R$  000000000010200000000001020000000000102000000000010200000000001020000000000000000000000000000001000000000000001000000000000000102000000000000335702017112100000010000000000000BRBBASACNOR3269
012017092282BBASX94     080BBASE       ON      NM000R$  000000000015100000000001510000000000151000000000015100000000001510000000000000000000000000000001000000000000000700000000000000105700000000000345702017121800000010000000000000BRBBASACNOR3271
012017092202BBDC3       010BRADESCO    ON      N1   R$  000000000343100000000034760000000003418000000000344100000000034310000000003431000000000343203831000000000000632600000000002177095000000000000000009999123100000010000000000000BRBBDCACNOR1669
012017092296BBDC3F      020BRADESCO    ON      N1   R$  000000000345300000000034650000000003411000000000343500000000034110000000003411000000000343500046000000000000001150000000000003951120000000000000009999123100000010000000000000BRBBDCACNOR1669
012017092202BBDC4       010BRADESCO    PN      N1   R$  000000000361500000000036350000000003577000000000360200000000036020000000003601000000000360211677000000000005293300000000019068328300000000000000009999123100000010000000000000BRBBDCACNPR8669
012017092296BBDC4F      020BRADESCO    PN      N1   R$  000000000361300000000036260000000003579000000000360100000000035980000000003598000000000361000154000000000000003817000000000013746179000000000000009999123100000010000000000000BRBBDCACNPR8669
012017092262BBDC4T      030BRADESCO    PN      N1063R$  000000000364600000000036470000000003646000000000364600000000036470000000000000000000000000000002000000000000200000000000000729280800000000000000009999123100000010000000000000BRBBDCACNPR8669
012017092278BBDCA91     070BBDCE       PN      N1000R$  000000000090400000000009040000000000904000000000090400000000009040000000000000000000000000000001000000000000242000000000000218768000000000000277402018011500000010000000000000BRBBDCACNPR8651
012017092278BBDCJ12     070BBDCE       PN      N1000R$  000000000010500000000001050000000000092000000000009800000000000920000000000000000000000000000376000000000000008500000000000000838290000000000359602017101600000010000000000000BRBBDCACNPR8655
012017092278BBDCJ16     070BBDC        PN      N1000R$  000000000035500000000003550000000000355000000000035500000000003550000000000100000000000000000003000000000000001900000000000000674500000000000325502017101600000010000000000000BRBBDCACNPR8662
012017092278BBDCJ17     070BBDC        PN      N1000R$  000000000020800000000002160000000000196000000000020800000000001960000000000000000000000024700018000000000000007000000000000001457900000000000344802017101600000010000000000000BRBBDCACNPR8668
012017092278BBDCJ19     070BBDC        PN      N1000R$  000000000013800000000001380000000000128000000000013100000000001300000000000000000000000018000011000000000000008600000000000001134000000000000354802017101600000010000000000000BRBBDCACNPR8668
012017092278BBDCJ20     070BBDC  FM    PN      N1000R$  000000000007300000000000760000000000057000000000006200000000000610000000000059000000000007500127000000000000090890000000000005697030000000000366402017101600000010000000000000BRBBDCACNPR8655
012017092278BBDCJ41     070BBDC  FM    PN      N1000R$  000000000016100000000001800000000000156000000000016900000000001590000000000145000000000000000024000000000000036700000000000006202700000000000349802017101600000010000000000000BRBBDCACNPR8667
012017092278BBDCJ44     070BBDC  FM    PN      N1000R$  000000000004000000000000400000000000032000000000003900000000000390000000000000000000000005000004000000000000005600000000000000219900000000000376402017101600000010000000000000BRBBDCACNPR8669
012017092278BBDCJ73     070BBDC        PN      N1000R$  000000000002100000000000210000000000011000000000001300000000000120000000000000000000000000000119000000000000202300000000000002815600000000000386402017101600000010000000000000BRBBDCACNPR8669
012017092278BBDCJ77     070BBDC        PN      N1000R$  000000000004100000000000480000000000041000000000004600000000000480000000000040000000000000000002000000000000007000000000000000322000000000000371402017101600000010000000000000BRBBDCACNPR8669
012017092278BBDCJ78     070BBDC        ON      N1000R$  000000000029600000000002960000000000296000000000029600000000002960000000000000000000000000000002000000000000050000000000000014800000000000000382102018101500000010000000000000BRBBDCACNOR1669
012017092278BBDCJ89     070BBDC  FM    PN      N1000R$  000000000000700000000000110000000000007000000000000700000000000110000000000004000000000008000005000000000000004600000000000000034600000000000391402017101600000010000000000000BRBBDCACNPR8669
012017092278BBDCJ96     070BBDC  FM    PN      N1000R$  000000000009300000000000940000000000082000000000009000000000000820000000000000000000000030000003000000000000001400000000000000126300000000000362102017101600000010000000000000BRBBDCACNPR8668
012017092278BBDCK13     070BBDC  FM    PN      N1000R$  000000000017100000000001890000000000171000000000018400000000001890000000000106000000000000000011000000000000003000000000000000553400000000000358102017112100000010000000000000BRBBDCACNPR8669
012017092278BBDCK17     070BBDC  FM    PN      N1000R$  000000000013100000000001310000000000129000000000012900000000001290000000000072000000000000000002000000000000002300000000000000298700000000000368102017112100000010000000000000BRBBDCACNPR8669
012017092278BBDCK20     070BBDC  FM    PN      N1000R$  000000000008200000000000930000000000082000000000009100000000000870000000000000000000000010000003000000000000003800000000000000347100000000000378102017112100000010000000000000BRBBDCACNPR8669
012017092278BBDCK21     070BBDC  FM    PN      N1000R$  000000000006100000000000610000000000056000000000006000000000000560000000000000000000000000000002000000000000003500000000000000211000000000000388102017112100000010000000000000BRBBDCACNPR8669
012017092278BBDCK37     070BBDC        PN      N1000R$  000000000011400000000001140000000000107000000000010700000000001070000000000000000000000000000002000000000000004000000000000000428700000000000373102017112100000010000000000000BRBBDCACNPR8669
012017092278BBDCL29     070BBDC        PN      N1000R$  000000000018500000000001850000000000185000000000018500000000001850000000000000000000000000000001000000000000002000000000000000370000000000000366202017121800000010000000000000BRBBDCACNPR8665
012017092278BBDCL38     070BBDC        PN      N1000R$  000000000009800000000000980000000000098000000000009800000000000980000000000000000000000000000001000000000000004000000000000000392000000000000383702017121800000010000000000000BRBBDCACNPR8665
012017092282BBDCM1      080BBDCE       PN      N1000R$  000000000003500000000000380000000000030000000000003400000000000370000000000033000000000003800058000000000000062420000000000002176830000000000284202018011500000010000000000000BRBBDCACNPR8659
012017092282BBDCM54     080BBDCE       PN      N1000R$  000000000000100000000000010000000000001000000000000100000000000010000000000000000000000000000001000000000000242000000000000000242000000000000211502018011500000010000000000000BRBBDCACNPR8651
012017092282BBDCM81     080BBDCE       PN      N1000R$  000000000016800000000001680000000000168000000000016800000000001680000000000000000000000000000001000000000000000010000000000000001680000000000372902018011500000010000000000000BRBBDCACNPR8659
012017092282BBDCM88     080BBDCE       PN      N1000R$  000000000000500000000000050000000000005000000000000500000000000050000000000000000000000000000001000000000000242000000000000001210000000000000250102018011500000010000000000000BRBBDCACNPR8651
012017092282BBDCV12     080BBDCE FM    PN      N1000R$  000000000008800000000000880000000000075000000000008400000000000860000000000000000000000000000014000000000000023870000000000002023880000000000359602017101600000010000000000000BRBBDCACNPR8655
012017092282BBDCV17     080BBDCE       PN      N1000R$  000000000004000000000000400000000000030000000000003500000000000330000000000020000000000003800026000000000000042900000000000001524300000000000344802017101600000010000000000000BRBBDCACNPR8668
012017092282BBDCV19     080BBDCE       PN      N1000R$  000000000005500000000000650000000000054000000000006100000000000610000000000011000000000008500023000000000000077900000000000004790900000000000354802017101600000010000000000000BRBBDCACNPR8668
012017092282BBDCV20     080BBDCE FM    PN      N1000R$  000000000010400000000001210000000000104000000000011200000000001210000000000000000000000000000006000000000000017620000000000001975910000000000366402017101600000010000000000000BRBBDCACNPR8655
012017092282BBDCV34     080BBDCE       PN      N1000R$  000000000001400000000000150000000000014000000000001400000000000150000000000000000000000001600004000000000000012000000000000000178000000000000330502017101600000010000000000000BRBBDCACNPR8667
012017092282BBDCV35     080BBDCE       PN      N1000R$  000000000001900000000000190000000000018000000000001800000000000180000000000014000000000004000006000000000000005800000000000000107700000000000334802017101600000010000000000000BRBBDCACNPR8667
012017092282BBDCV38     080BBDCE FM    PN      N1000R$  000000000002500000000000250000000000025000000000002500000000000250000000000001000000000000000001000000000000050000000000000001250000000000000339802017101600000010000000000000BRBBDCACNPR8667
012017092282BBDCV41     080BBDCE FM    PN      N1000R$  000000000004800000000000560000000000048000000000004800000000000500000000000000000000000005000044000000000000133700000000000006433500000000000349802017101600000010000000000000BRBBDCACNPR8667
012017092282BBDCV77     080BBDCE       PN      N1000R$  000000000012800000000001280000000000128000000000012800000000001280000000000128000000000000000001000000000000001400000000000000179200000000000371402017101600000010000000000000BRBBDCACNPR8669
012017092282BBDCV90     080BBDCE       ON      N1000R$  000000000024000000000002400000000000240000000000024000000000002400000000000000000000000000000002000000000000050000000000000012000000000000000302102018101500000010000000000000BRBBDCACNOR1669
012017092282BBDCV96     080BBDCE       PN      N1000R$  000000000009500000000000970000000000095000000000009600000000000950000000000000000000000000000036000000000000081200000000000007825400000000000362102017101600000010000000000000BRBBDCACNPR8668
012017092282BBDCW12     080BBDCE       PN      N1000R$  000000000001100000000000110000000000006000000000000800000000000100000000000005000000000000900010000000000000053100000000000000474300000000000252402017112100000010000000000000BRBBDCACNPR8651
012017092282BBDCW13     080BBDCE FM    PN      N1000R$  000000000013600000000001360000000000121000000000012300000000001270000000000000000000000000000013000000000000007500000000000000923800000000000358102017112100000010000000000000BRBBDCACNPR8669
012017092282BBDCW17     080BBDCE FM    PN      N1000R$  000000000017300000000001730000000000166000000000016700000000001660000000000000000000000000000002000000000000003600000000000000601800000000000368102017112100000010000000000000BRBBDCACNPR8669
012017092282BBDCW34     080BBDCE FM    PN      N1000R$  000000000008700000000000930000000000087000000000008700000000000930000000000000000000000000000002000000000000003500000000000000307500000000000348102017112100000010000000000000BRBBDCACNPR8668
012017092212BBFI11B     010FII BB PROGRCI      MB   R$  000000026720800000002700000000000267000000000026862700000002694990000000267200000000026949900091000000000000000361000000000096974472000000000000009999123100000010000000000000BRBBFICTF006246
012017092212BBPO11      010FII BB PRGIICI           R$  000000001525000000000155000000000015115000000001534300000000153450000000015315000000001534500488000000000000019229000000000295034446000000000000009999123100000010000000000000BRBBPOCTF003158
012017092212BBRC11      010FII BB CORP CI           R$  000000001351600000000138400000000013516000000001360300000000136500000000013552000000001384000086000000000000001171000000000015929204000000000000009999123100000010000000000000BRBBRCCTF004172
012017092202BBRK3       010BR BROKERS  ON      NM   R$  000000000011800000000001180000000000111000000000011500000000001180000000000117000000000011801255000000000004764800000000000548792400000000000000009999123100000010000000000000BRBBRKACNOR4111
012017092296BBRK3F      020BR BROKERS  ON      NM   R$  000000000011900000000001190000000000113000000000011700000000001130000000000096000000000014500003000000000000000157000000000000018496000000000000009999123100000010000000000000BRBBRKACNOR4111
012017092214BBSD11      010BB ETF SP DVCI           R$  000000000589400000000058940000000005894000000000589400000000058940000000005881000000000000000001000000000000000020000000000000117880000000000000009999123100000010000000000000BRBBSDCTF000100
012017092202BBSE3       010BBSEGURIDADEON      NM   R$  000000000287800000000028780000000002798000000000285100000000028750000000002868000000000287510839000000000003089600000000008809127000000000000000009999123100000010000000000000BRBBSEACNOR5109
012017092296BBSE3F      020BBSEGURIDADEON      NM   R$  000000000288200000000028820000000002806000000000284900000000028560000000002856000000000288200152000000000000003782000000000010777413000000000000009999123100000010000000000000BRBBSEACNOR5109
012017092262BBSE3T      030BBSEGURIDADEON      NM031R$  000000000286100000000028620000000002861000000000286100000000028620000000000000000000000000000002000000000000000300000000000000858568000000000000009999123100000010000000000000BRBBSEACNOR5109
012017092262BBSE3T      030BBSEGURIDADEON      NM060R$  000000000287700000000028780000000002877000000000287700000000028780000000000000000000000000000002000000000000000400000000000001151173000000000000009999123100000010000000000000BRBBSEACNOR5109
012017092262BBSE3T      030BBSEGURIDADEON      NM090R$  000000000289700000000028980000000002897000000000289700000000028980000000000000000000000000000002000000000000000400000000000001158901000000000000009999123100000010000000000000BRBBSEACNOR5109
012017092278BBSEJ1      070BBSE  FM    ON      NM000R$  000000000000700000000000070000000000007000000000000700000000000070000000000008000000000002000002000000000000000700000000000000004900000000000308602017101600000010000000000000BRBBSEACNOR5108
012017092278BBSEJ29     070BBSE        ON      NM000R$  000000000007500000000000860000000000075000000000007900000000000780000000000000000000000000000029000000000000005400000000000000427800000000000283602017101600000010000000000000BRBBSEACNOR5108
012017092278BBSEJ30     070BBSE        ON      NM000R$  000000000004000000000000400000000000035000000000003900000000000350000000000020000000000009700005000000000000009500000000000000375000000000000293602017101600000010000000000000BRBBSEACNOR5108
012017092278BBSEJ57     070BBSEE       ON      NM000R$  000000000018600000000001860000000000186000000000018600000000001860000000000000000000000000000001000000000000002000000000000000372000000000000271102017101600000010000000000000BRBBSEACNOR5108
012017092278BBSEJ60     070BBSE  FM    ON      NM000R$  000000000002800000000000280000000000024000000000002600000000000240000000000000000000000007600004000000000000009500000000000000255000000000000298602017101600000010000000000000BRBBSEACNOR5108
012017092278BBSEJ69     070BBSE  FM    ON      NM000R$  000000000005300000000000640000000000049000000000005200000000000520000000000060000000000000000024000000000000010100000000000000531200000000000288602017101600000010000000000000BRBBSEACNOR5108
012017092278BBSEJ79     070BBSEE       ON      NM000R$  000000000006400000000000640000000000064000000000006400000000000640000000000000000000000000000002000000000000009000000000000000576000000000000286102017101600000010000000000000BRBBSEACNOR5108
012017092278BBSEK1      070BBSE  FM    ON      NM000R$  000000000004400000000000440000000000044000000000004400000000000440000000000000000000000000000001000000000000001000000000000000044000000000000307102017112100000010000000000000BRBBSEACNOR5108
012017092278BBSEK31     070BBSE        ON      NM000R$  000000000005500000000000550000000000055000000000005500000000000550000000000000000000000000000001000000000000000400000000000000022000000000000302102017112100000010000000000000BRBBSEACNOR5108
012017092278BBSEK59     070BBSE  FM    ON      NM000R$  000000000012400000000001240000000000124000000000012400000000001240000000000000000000000000000001000000000000001100000000000000136400000000000287102017112100000010000000000000BRBBSEACNOR5108
012017092278BBSEK90     070BBSEE       ON      NM000R$  000000000004000000000000550000000000040000000000004700000000000550000000000000000000000000000002000000000000040000000000000001900000000000000304602017112100000010000000000000BRBBSEACNOR5109
012017092282BBSEN68     080BBSEE       ON      NM000R$  000000000009500000000000950000000000095000000000009500000000000950000000000000000000000000000001000000000000001000000000000000095000000000000266102018021900000010000000000000BRBBSEACNOR5107
012017092282BBSEV58     080BBSEE FM    ON      NM000R$  000000000004000000000000430000000000039000000000004000000000000390000000000007000000000004800006000000000000021000000000000000854000000000000278602017101600000010000000000000BRBBSEACNOR5108
012017092282BBSEV79     080BBSEE       ON      NM000R$  000000000007000000000000750000000000069000000000007000000000000750000000000000000000000000000003000000000000014000000000000000980200000000000286102017101600000010000000000000BRBBSEACNOR5108
012017092282BBSEW28     080BBSEE       ON      NM000R$  000000000004000000000000450000000000040000000000004200000000000450000000000000000000000000000002000000000000040000000000000001700000000000000272102017112100000010000000000000BRBBSEACNOR5108
012017092282BBSEW57     080BBSEE FM    ON      NM000R$  000000000004100000000000410000000000041000000000004100000000000410000000000000000000000004100001000000000000001000000000000000041000000000000267102017112100000010000000000000BRBBSEACNOR5108
012017092282BBSEW58     080BBSEE FM    ON      NM000R$  000000000007100000000000720000000000071000000000007100000000000720000000000000000000000009900002000000000000000600000000000000043000000000000277102017112100000010000000000000BRBBSEACNOR5108
012017092282BBSEW88     080BBSEE       ON      NM000R$  000000000008100000000001000000000000081000000000009000000000001000000000000000000000000000000003000000000000060000000000000005420000000000000284602017112100000010000000000000BRBBSEACNOR5109
012017092282BBSEX28     080BBSEE       ON      NM000R$  000000000011500000000001150000000000115000000000011500000000001150000000000000000000000000000001000000000000000900000000000000103500000000000283602017121800000010000000000000BRBBSEACNOR5109
012017092212BBVJ11      010FII C JARDIMCI           R$  000000000638700000000063870000000006359000000000637300000000063590000000006304000000000635900003000000000000000030000000000000191197000000000000009999123100000010000000000000BRBBVJCTF001181
012017092212BCFF11B     010FII BC FFII CI      MB   R$  000000000700000000000070050000000006986000000000699400000000069880000000006988000000000701800968000000000000024610000000000172138663000000000000009999123100000010000000000000BRBCFFCTF000191
012017092212BCIA11      010FII BCIA    CI           R$  000000001190100000000120000000000011899000000001190000000000120000000000011802000000001210000020000000000000001046000000000012447650000000000000009999123100000010000000000000BRBCIACTF005128
012017092212BCRI11      010FII BEES CRICI           R$  000000001099300000000110500000000010911000000001100500000000110490000000011003000000001104900071000000000000002702000000000029737879000000000000009999123100000010000000000000BRBCRICTF009128
012017092202BDLL4       010BARDELLA    PN           R$  000000000330100000000033010000000003300000000000330000000000033000000000003300000000000340000004000000000000000400000000000001320200000000000000009999123100000010000000000000BRBDLLACNPR8151
012017092202BEEF3       010MINERVA     ON      NM   R$  000000000114100000000011570000000001133000000000114300000000011420000000001140000000000114204546000000000000783700000000000895869400000000000000009999123100000010000000000000BRBEEFACNOR6107
012017092296BEEF3F      020MINERVA     ON      NM   R$  000000000115400000000011720000000001134000000000114400000000011400000000001135000000000115400060000000000000001541000000000001763344000000000000009999123100000010000000000000BRBEEFACNOR6107
012017092262BEEF3T      030MINERVA     ON      NM017R$  000000000114500000000011460000000001145000000000114500000000011460000000000000000000000000000002000000000000002000000000000002291356000000000000009999123100000010000000000000BRBEEFACNOR6107
012017092202BEES3       010BANESTES    ON           R$  000000000037800000000003780000000000374000000000037700000000003770000000000371000000000037700007000000000000000700000000000000264000000000000000009999123100000010000000000000BRBEESACNOR9300
012017092202BEES4       010BANESTES    PN           R$  000000000038000000000003970000000000379000000000039200000000003970000000000372000000000039500014000000000000002800000000000001099600000000000000009999123100000010000000000000BRBEESACNPR6225
012017092296BEES4F      020BANESTES    PN           R$  000000000043000000000004300000000000430000000000043000000000004300000000000307000000000042900001000000000000000005000000000000002150000000000000009999123100000010000000000000BRBEESACNPR6225
012017092202BERK34      010BERKSHIRE   DRN          R$  000000005668000000000566800000000056680000000005668000000000566800000000056258000000005739400001000000000000000200000000000011336000000000000000009999123100000010000000000000BRBERKBDR002100
012017092296BERK34F     020BERKSHIRE   DRN          R$  000000005668000000000566800000000056680000000005668000000000566800000000020000000000000000000001000000000000000080000000000004534400000000000000009999123100000010000000000000BRBERKBDR002100
012017092202BIOM3       010BIOMM       ON      MA   R$  000000000120000000000012000000000001200000000000120000000000012000000000001200000000000125000001000000000000000100000000000000120000000000000000009999123100000010000000000000BRBIOMACNOR2105
012017092202BMEB3       010MERC BRASIL ON           R$  000000000076900000000007700000000000769000000000076900000000007700000000000765000000000080000003000000000000000800000000000000615300000000000000009999123100000010000000000000BRBMEBACNOR8194
012017092202BMEB4       010MERC BRASIL PN           R$  000000000050000000000005000000000000500000000000050000000000005000000000000496000000000050000006000000000000011300000000000005650000000000000000009999123100000010000000000000BRBMEBACNPR5198
012017092296BMEB4F      020MERC BRASIL PN           R$  000000000050000000000005000000000000500000000000050000000000005000000000000350000000000050000001000000000000000032000000000000016000000000000000009999123100000010000000000000BRBMEBACNPR5198
012017092296BMIN4F      020MERC INVEST PN  EG       R$  000000000399900000000040000000000003873000000000397400000000040000000000003873000000000400000023000000000000000551000000000002189844000000000000009999123100000010000000000000BRBMINACNPR1167
012017092212BMLC11B     010FII BMBRC LCCI      MB   R$  000000000865000000000086600000000008650000000000865600000000086600000000008660000000000878800005000000000000000130000000000001125408000000000000009999123100000010000000000000BRBMLCCTF004167
012017092202BNBR3       010NORD BRASIL ON           R$  000000000300000000000030000000000003000000000000300000000000030000000000002887000000000300000003000000000000000300000000000000900000000000000000009999123100000010000000000000BRBNBRACNOR8195
012017092262BNBR3T      030NORD BRASIL ON        539R$  000000000337000000000033710000000003370000000000337000000000033710000000000000000000000000000002000000000000000100000000000000337050000000000000009999123100000010000000000000BRBNBRACNOR8195
012017092212BNFS11      010FII BANRISULCI           R$  000000001123900000000112390000000011140000000001120700000000111400000000011140000000001128900016000000000000000188000000000002106957000000000000009999123100000010000000000000BRBNFSCTF000160
012017092202BOAC34      010BANK AMERICADRN          R$  000000000780100000000078510000000007801000000000782800000000078510000000000000000000000785100003000000000000001500000000000011742900000000000000009999123100000010000000000000BRBOACBDR004128
012017092202BOBR4       010BOMBRIL     PN           R$  000000000045000000000004500000000000431000000000044200000000004400000000000439000000000044000105000000000000065000000000000028765800000000000000009999123100000010000000000000BRBOBRACNPR3128
012017092296BOBR4F      020BOMBRIL     PN           R$  000000000045500000000004550000000000389000000000043400000000004330000000000440000000000058000010000000000000000151000000000000065605000000000000009999123100000010000000000000BRBOBRACNPR3128
012017092214BOVA11      010ISHARES BOVACI           R$  000000000728500000000073210000000007251000000000728500000000072820000000007282000000000728411442000000000001508840000000010993299360000000000000009999123100000010000000000000BRBOVACTF003103
012017092296BOVA11F     020ISHARES BOVACI           R$  000000000730000000000073190000000007257000000000728100000000072810000000007270000000000730000021000000000000000091000000000000662606000000000000009999123100000010000000000000BRBOVACTF003103
012017092278BOVAJ70     070BOVA        CI        000R$  000000000036000000000003600000000000340000000000035500000000003400000000000335000000000000000002000000000000000040000000000000014200000000000700002017101600000010000000000000BRBOVACTF003103
012017092278BOVAJ72     070BOVA  FM    CI        000R$  000000000019100000000002100000000000191000000000019400000000001950000000000000000000000000000005000000000000006000000000000001169500000000000720002017101600000010000000000000BRBOVACTF003103
012017092278BOVAJ73     070BOVA  FM    CI        000R$  000000000013400000000001600000000000130000000000013400000000001390000000000130000000000000000008000000000000004930000000000000661020000000000730002017101600000010000000000000BRBOVACTF003103
012017092278BOVAJ74     070BOVA  FM    CI        000R$  000000000009600000000001040000000000088000000000009900000000001030000000000001000000000010900010000000000000001600000000000000158800000000000740002017101600000010000000000000BRBOVACTF003103
012017092278BOVAJ75     070BOVA  FM    CI        000R$  000000000005300000000000530000000000053000000000005300000000000530000000000045000000000000000001000000000000005000000000000000265000000000000750002017101600000010000000000000BRBOVACTF003103
012017092278BOVAJ76     070BOVA  FM    CI        000R$  000000000004000000000000400000000000040000000000004000000000000400000000000024000000000020000001000000000000000400000000000000016000000000000760002017101600000010000000000000BRBOVACTF003103
012017092278BOVAK72     070BOVA  FM    CI        000R$  000000000029800000000002980000000000293000000000029400000000002970000000000000000000000000000004000000000000005200000000000001530300000000000720002017112100000010000000000000BRBOVACTF003103
012017092278BOVAK74     070BOVA  FM    CI        000R$  000000000018300000000001830000000000183000000000018300000000001830000000000000000000000000000001000000000000000500000000000000091500000000000740002017112100000010000000000000BRBOVACTF003103
012017092278BOVAL36     070BOVAE       CI        000R$  000000000013500000000001350000000000135000000000013500000000001350000000000000000000000000000001000000000000000800000000000000108000000000000765002017121800000010000000000000BRBOVACTF003103
012017092278BOVAL73     070BOVA        CI        000R$  000000000035000000000003500000000000350000000000035000000000003500000000000000000000000000000001000000000000000600000000000000210000000000000730002017121800000010000000000000BRBOVACTF003103
012017092282BOVAM57     080BOVAE       CI        000R$  000000000002900000000000290000000000025000000000002700000000000290000000000028000000000002900084000000000000135130000000000003699750000000000570002018011500000010000000000000BRBOVACTF003103
012017092282BOVAV60     080BOVAE       CI        000R$  000000000000500000000000050000000000005000000000000500000000000050000000000000000000000000000005000000000000045000000000000000225000000000000600002017101600000010000000000000BRBOVACTF003103
012017092282BOVAV62     080BOVAE       CI        000R$  000000000000600000000000080000000000005000000000000500000000000070000000000005000000000000700064000000000000304000000000000001804390000000000620002017101600000010000000000000BRBOVACTF003103
012017092282BOVAV64     080BOVAE       CI        000R$  000000000001300000000000130000000000012000000000001200000000000120000000000011000000000000000012000000000000048200000000000000578600000000000640002017101600000010000000000000BRBOVACTF003103
012017092282BOVAV66     080BOVAE       CI        000R$  000000000001500000000000150000000000015000000000001500000000000150000000000012000000000000000001000000000000035000000000000000525000000000000660002017101600000010000000000000BRBOVACTF003103
012017092282BOVAV67     080BOVAE       CI        000R$  000000000002000000000000200000000000020000000000002000000000000200000000000016000000000002000004000000000000007000000000000000140000000000000670002017101600000010000000000000BRBOVACTF003103
012017092282BOVAV70     080BOVAE       CI        000R$  000000000005500000000000550000000000046000000000005400000000000460000000000045000000000010000002000000000000036000000000000001971000000000000700002017101600000010000000000000BRBOVACTF003103
012017092282BOVAV71     080BOVAE FM    CI        000R$  000000000007600000000000770000000000068000000000007600000000000680000000000059000000000015000003000000000000005380000000000000412440000000000710002017101600000010000000000000BRBOVACTF003103
012017092282BOVAV72     080BOVAE FM    CI        000R$  000000000010600000000001100000000000095000000000009900000000001030000000000078000000000010601660000000000000042300000000000004221640000000000720002017101600000010000000000000BRBOVACTF003103
012017092282BOVAV73     080BOVAE FM    CI        000R$  000000000014800000000001480000000000129000000000013300000000001360000000000000000000000014700005000000000000003380000000000000451320000000000730002017101600000010000000000000BRBOVACTF003103
012017092282BOVAV74     080BOVAE FM    CI        000R$  000000000019700000000001970000000000187000000000018900000000001890000000000000000000000000000004000000000000014500000000000002748500000000000740002017101600000010000000000000BRBOVACTF003103
012017092282BOVAW12     080BOVAE       CI        000R$  000000000000800000000000080000000000008000000000000800000000000080000000000003000000000000800001000000000000001300000000000000010400000000000525002017112100000010000000000000BRBOVACTF003102
012017092282BOVAW66     080BOVAE       CI        000R$  000000000004000000000000400000000000040000000000004000000000000400000000000000000000000000000002000000000000035000000000000001400000000000000660002017112100000010000000000000BRBOVACTF003103
012017092282BOVAW70     080BOVAE       CI        000R$  000000000010600000000001090000000000105000000000010500000000001090000000000109000000000011100003000000000000035100000000000003703400000000000700002017112100000010000000000000BRBOVACTF003103
012017092282BOVAW71     080BOVAE FM    CI        000R$  000000000013500000000001350000000000135000000000013500000000001350000000000000000000000000000001000000000000003500000000000000472500000000000710002017112100000010000000000000BRBOVACTF003103
012017092282BOVAW72     080BOVAE FM    CI        000R$  000000000016700000000001670000000000159000000000016600000000001590000000000000000000000000000002000000000000003800000000000000632200000000000720002017112100000010000000000000BRBOVACTF003103
012017092282BOVAW74     080BOVAE FM    CI        000R$  000000000024300000000002430000000000233000000000023900000000002330000000000232000000000000000002000000000000002500000000000000597500000000000740002017112100000010000000000000BRBOVACTF003103
012017092282BOVAX64     080BOVAE       CI        000R$  000000000005600000000000560000000000045000000000005100000000000540000000000053000000000005400057000000000000055830000000000002884790000000000640002017121800000010000000000000BRBOVACTF003103
012017092282BOVAX68     080BOVAE       CI        000R$  000000000008000000000000800000000000080000000000008000000000000800000000000000000000000000000001000000000000000800000000000000064000000000000680002017121800000010000000000000BRBOVACTF003103
012017092282BOVAX72     080BOVAE       CI        000R$  000000000021500000000002150000000000215000000000021500000000002150000000000000000000000000000001000000000000000800000000000000172000000000000720002017121800000010000000000000BRBOVACTF003103
012017092282BOVAX73     080BOVAE       CI        000R$  000000000026700000000002670000000000267000000000026700000000002670000000000000000000000000000001000000000000000600000000000000160200000000000730002017121800000010000000000000BRBOVACTF003103
012017092214BOVV11      010IT NOW IBOV CI           R$  000000000755600000000075560000000007530000000000754500000000075460000000007546000000000800000014000000000000238320000000001798305910000000000000009999123100000010000000000000BRBOVVCTF009100
012017092296BOVV11F     020IT NOW IBOV CI           R$  000000000755100000000075510000000007551000000000755100000000075510000000006875000000000000000001000000000000000008000000000000060408000000000000009999123100000010000000000000BRBOVVCTF009100
012017092202BPAC11      010BTGP BANCO  UNT          R$  000000000191500000000019200000000001875000000000190600000000019000000000001900000000000192000363000000000000066200000000000126201700000000000000009999123100000010000000000000BRBPACUNT006101
012017092296BPAC11F     020BTGP BANCO  UNT          R$  000000000190000000000019020000000001876000000000188000000000018760000000001876000000000192300007000000000000000069000000000000129783000000000000009999123100000010000000000000BRBPACUNT006101
012017092278BPACL80     070BPACE       UNT       000R$  000000000007800000000000780000000000077000000000007700000000000770000000000000000000000000000002000000000000027100000000000002110100000000000202502017121800000010000000000000BRBPACUNT006101
012017092202BPAN4       010BANCO PAN   PN      N1   R$  000000000019600000000001970000000000193000000000019500000000001970000000000196000000000019700109000000000000130700000000000025528300000000000000009999123100000010000000000000BRBPANACNPR1104
012017092296BPAN4F      020BANCO PAN   PN      N1   R$  000000000019700000000001970000000000194000000000019500000000001950000000000194000000000019700008000000000000000358000000000000069890000000000000009999123100000010000000000000BRBPANACNPR1104
012017092212BPFF11      010FII ABSOLUTOCI           R$  000000000970100000000097010000000009660000000000968900000000097000000000009680000000000970000028000000000000003169000000000030706808000000000000009999123100000010000000000000BRBPFFCTF002154
012017092202BPHA3       010BR PHARMA   ON      NM   R$  000000000059000000000006080000000000550000000000057900000000005500000000000549000000000055000135000000000000096800000000000056123500000000000000009999123100000010000000000000BRBPHAACNOR6105
012017092296BPHA3F      020BR PHARMA   ON      NM   R$  000000000065700000000006570000000000587000000000061000000000005870000000000555000000000065400005000000000000000006000000000000003663000000000000009999123100000010000000000000BRBPHAACNOR6105
012017092202BRAP3       010BRADESPAR   ON      N1   R$  000000000210000000000021000000000002091000000000209300000000020910000000002091000000000222000004000000000000000400000000000000837300000000000000009999123100000010000000000000BRBRAPACNOR5131
012017092296BRAP3F      020BRADESPAR   ON      N1   R$  000000000220000000000022000000000002100000000000214800000000021000000000002080000000000210000003000000000000000020000000000000042966000000000000009999123100000010000000000000BRBRAPACNOR5131
012017092202BRAP4       010BRADESPAR   PN      N1   R$  000000000242900000000024470000000002390000000000241500000000024200000000002398000000000242010078000000000002346500000000005668251900000000000000009999123100000010000000000000BRBRAPACNPR2131
012017092296BRAP4F      020BRADESPAR   PN      N1   R$  000000000242800000000024300000000002386000000000241200000000023860000000002386000000000240100052000000000000000847000000000002043180000000000000009999123100000010000000000000BRBRAPACNPR2131
012017092262BRAP4T      030BRADESPAR   PN      N1031R$  000000000243500000000024360000000002435000000000243500000000024360000000000000000000000000000002000000000000012100000000000029469405000000000000009999123100000010000000000000BRBRAPACNPR2131
012017092262BRAP4T      030BRADESPAR   PN      N1090R$  000000000246100000000024620000000002461000000000246100000000024620000000000000000000000000000002000000000000001000000000000002461524000000000000009999123100000010000000000000BRBRAPACNPR2131
012017092262BRAP4T      030BRADESPAR   PN      N1122R$  000000000249100000000024920000000002472000000000248800000000024730000000000000000000000000000004000000000000006500000000000016178329000000000000009999123100000010000000000000BRBRAPACNPR2131
012017092214BRAX11      010ISHARES BRAXCI           R$  000000000614400000000061870000000006144000000000615800000000061500000000000000000000000625500007000000000000000360000000000002217090000000000000009999123100000010000000000000BRBRAXCTF002100
012017092296BRAX11F     020ISHARES BRAXCI           R$  000000000618600000000061860000000006186000000000618600000000061860000000005610000000000620700001000000000000000001000000000000006186000000000000009999123100000010000000000000BRBRAXCTF002100
012017092212BRCR11      010FII BC FUND CI           R$  000000000951900000000095990000000009500000000000954800000000095990000000009580000000000959900474000000000000038297000000000365698022000000000000009999123100000010000000000000BRBRCRCTF000181
012017092202BRFS3       010BRF SA      ON      NM   R$  000000000470100000000047250000000004660000000000470300000000047080000000004694000000000470812113000000000002839800000000013357411600000000000000009999123100000010000000000000BRBRFSACNOR8117
012017092296BRFS3F      020BRF SA      ON      NM   R$  000000000470000000000047360000000004600000000000469200000000046880000000004688000000000470300215000000000000003546000000000016638391000000000000009999123100000010000000000000BRBRFSACNOR8117
012017092262BRFS3T      030BRF SA      ON      NM017R$  000000000470200000000047040000000004702000000000470200000000047040000000000000000000000000000004000000000000002000000000000009405438000000000000009999123100000010000000000000BRBRFSACNOR8117
012017092262BRFS3T      030BRF SA      ON      NM031R$  000000000474500000000047460000000004720000000000472300000000047210000000000000000000000000000004000000000000055000000000000259774097000000000000009999123100000010000000000000BRBRFSACNOR8117
012017092278BRFSJ44     070BRFS        ON      NM000R$  000000000032000000000003200000000000320000000000032000000000003200000000000000000000000000000001000000000000000100000000000000032000000000000440002017101600000010000000000000BRBRFSACNOR8117
012017092278BRFSJ45     070BRFS        ON      NM000R$  000000000025200000000002520000000000250000000000025100000000002500000000000000000000000000000003000000000000001000000000000000251000000000000450002017101600000010000000000000BRBRFSACNOR8117
012017092278BRFSJ46     070BRFS  FM    ON      NM000R$  000000000017300000000001730000000000171000000000017100000000001710000000000000000000000000000002000000000000003500000000000000601500000000000460002017101600000010000000000000BRBRFSACNOR8117
012017092278BRFSJ47     070BRFS  FM    ON      NM000R$  000000000010700000000001070000000000095000000000010500000000000990000000000000000000000000000009000000000000012500000000000001323500000000000470002017101600000010000000000000BRBRFSACNOR8117
012017092278BRFSJ48     070BRFS  FM    ON      NM000R$  000000000005100000000000610000000000050000000000005400000000000510000000000000000000000000000043000000000000103400000000000005620500000000000480002017101600000010000000000000BRBRFSACNOR8117
012017092278BRFSJ50     070BRFS  FM    ON      NM000R$  000000000001800000000000190000000000018000000000001800000000000190000000000004000000000000000002000000000000100000000000000001850000000000000500002017101600000010000000000000BRBRFSACNOR8117
012017092278BRFSK47     070BRFS  FM    ON      NM000R$  000000000017600000000001760000000000176000000000017600000000001760000000000000000000000000000001000000000000002400000000000000422400000000000477002017112100000010000000000000BRBRFSACNOR8117
012017092278BRFSK49     070BRFS  FM    ON      NM000R$  000000000011500000000001180000000000115000000000011600000000001180000000000000000000000000000014000000000000029700000000000003464300000000000490002017112100000010000000000000BRBRFSACNOR8117
012017092278BRFSK50     070BRFS  FM    ON      NM000R$  000000000007100000000000710000000000071000000000007100000000000710000000000000000000000000000001000000000000002400000000000000170400000000000504502017112100000010000000000000BRBRFSACNOR8117
012017092282BRFSV1      080BRFSE       ON      NM000R$  000000000001400000000000150000000000014000000000001400000000000140000000000000000000000000000004000000000000400000000000000005880000000000000417502017101600000010000000000000BRBRFSACNOR8117
012017092282BRFSV15     080BRFSE       ON      NM000R$  000000000081000000000008100000000000810000000000081000000000008100000000000000000000000000000003000000000000400000000000000324000000000000000555002017101600000010000000000000BRBRFSACNOR8117
012017092282BRFSV25     080BRFSE       ON      NM000R$  000000000076200000000007620000000000762000000000076200000000007620000000000000000000000000000001000000000000228200000000000173888400000000000550002017101600000010000000000000BRBRFSACNOR8117
012017092282BRFSV44     080BRFSE       ON      NM000R$  000000000002300000000000230000000000023000000000002300000000000230000000000002000000000004200001000000000000001800000000000000041400000000000440002017101600000010000000000000BRBRFSACNOR8117
012017092282BRFSV45     080BRFSE FM    ON      NM000R$  000000000004100000000000420000000000036000000000003900000000000410000000000000000000000024000013000000000000028000000000000001118000000000000450002017101600000010000000000000BRBRFSACNOR8117
012017092282BRFSV46     080BRFSE FM    ON      NM000R$  000000000005500000000000590000000000055000000000005500000000000590000000000000000000000000000005000000000000011100000000000000620100000000000460002017101600000010000000000000BRBRFSACNOR8117
012017092282BRFSV47     080BRFSE FM    ON      NM000R$  000000000009100000000000950000000000091000000000009300000000000950000000000000000000000000000003000000000000007200000000000000674400000000000470002017101600000010000000000000BRBRFSACNOR8117
012017092282BRFSV48     080BRFSE FM    ON      NM000R$  000000000012700000000001500000000000127000000000013800000000001500000000000000000000000000000002000000000000004800000000000000664800000000000480002017101600000010000000000000BRBRFSACNOR8117
012017092282BRFSV91     080BRFSE       ON      NM000R$  000000000000800000000000080000000000008000000000000800000000000080000000000000000000000000000001000000000000228200000000000001825600000000000412502017101600000010000000000000BRBRFSACNOR8117
012017092282BRFSW16     080BRFSE FM    ON      NM000R$  000000000014900000000001490000000000149000000000014900000000001490000000000000000000000000000001000000000000002400000000000000357600000000000469502017112100000010000000000000BRBRFSACNOR8117
012017092282BRFSW77     080BRFSE FM    ON      NM000R$  000000000019400000000001950000000000193000000000019300000000001950000000000000000000000000000004000000000000009600000000000001860000000000000479502017112100000010000000000000BRBRFSACNOR8117
012017092282BRFSW94     080BRFSE FM    ON      NM000R$  000000000007800000000000820000000000078000000000008000000000000810000000000000000000000000000006000000000000012200000000000000983400000000000447002017112100000010000000000000BRBRFSACNOR8117
012017092202BRIN3       010BR INSURANCEON      NM   R$  000000000167600000000016810000000001651000000000166500000000016510000000001651000000000167200007000000000000000800000000000001332300000000000000009999123100000010000000000000BRBRINACNOR3111
012017092296BRIN3F      020BR INSURANCEON      NM   R$  000000000167600000000016760000000001654000000000166900000000016540000000001642000000000170000002000000000000000066000000000000110154000000000000009999123100000010000000000000BRBRINACNOR3111
012017092202BRIV3       010ALFA INVEST ON           R$  000000000050000000000005000000000000500000000000050000000000005000000000000500000000000052900002000000000000000200000000000000100000000000000000009999123100000010000000000000BRBRIVACNOR6205
012017092202BRIV4       010ALFA INVEST PN           R$  000000000071900000000007190000000000719000000000071900000000007190000000000696000000000071900002000000000000001800000000000001294200000000000000009999123100000010000000000000BRBRIVACNPR3205
012017092202BRKM3       010BRASKEM     ON      N1   R$  000000000440000000000044000000000004310000000000438500000000044000000000004315000000000440000008000000000000001800000000000007893000000000000000009999123100000010000000000000BRBRKMACNOR1114
012017092296BRKM3F      020BRASKEM     ON      N1   R$  000000000435000000000043500000000004350000000000435000000000043500000000004305000000000440100002000000000000000010000000000000043500000000000000009999123100000010000000000000BRBRKMACNOR1114
012017092202BRKM5       010BRASKEM     PNA     N1   R$  000000000445500000000044550000000004345000000000437400000000043650000000004364000000000436504948000000000000922700000000004035992700000000000000009999123100000010000000000000BRBRKMACNPA4114
012017092296BRKM5F      020BRASKEM     PNA     N1   R$  000000000445500000000044550000000004344000000000437700000000043500000000004350000000000441400074000000000000001838000000000008044688000000000000009999123100000010000000000000BRBRKMACNPA4114
012017092262BRKM5T      030BRASKEM     PNA     N1031R$  000000000447800000000044790000000004478000000000447800000000044790000000000000000000000000000002000000000000005000000000000022394625000000000000009999123100000010000000000000BRBRKMACNPA4114
012017092278BRKMJ43     070BRKM  FM    PNA     N1000R$  000000000020900000000002100000000000181000000000019600000000001850000000000000000000000000000029000000000000030000000000000005906400000000000430002017101600000010000000000000BRBRKMACNPA4114
012017092278BRKMJ44     070BRKM  FM    PNA     N1000R$  000000000013300000000001330000000000133000000000013300000000001330000000000000000000000000000001000000000000000100000000000000013300000000000440002017101600000010000000000000BRBRKMACNPA4114
012017092278BRKMJ46     070BRKM  FM    PNA     N1000R$  000000000005100000000000510000000000051000000000005100000000000510000000000000000000000000000001000000000000000100000000000000005100000000000460002017101600000010000000000000BRBRKMACNPA4114
012017092278BRKMK45     070BRKM  FM    PNA     N1000R$  000000000017800000000001780000000000178000000000017800000000001780000000000000000000000000000001000000000000000100000000000000017800000000000450002017112100000010000000000000BRBRKMACNPA4114
012017092278BRKMK46     070BRKM  FM    PNA     N1000R$  000000000014500000000001450000000000137000000000014200000000001370000000000000000000000000000003000000000000001500000000000000213500000000000460002017112100000010000000000000BRBRKMACNPA4114
012017092278BRKMK47     070BRKM  FM    PNA     N1000R$  000000000010200000000001020000000000102000000000010200000000001020000000000000000000000000000001000000000000000100000000000000010200000000000470002017112100000010000000000000BRBRKMACNPA4114
012017092282BRKMV42     080BRKME FM    PNA     N1000R$  000000000007000000000000700000000000070000000000007000000000000700000000000000000000000007500001000000000000000100000000000000007000000000000420002017101600000010000000000000BRBRKMACNPA4114
012017092282BRKMV43     080BRKME FM    PNA     N1000R$  000000000010600000000001060000000000106000000000010600000000001060000000000000000000000000000001000000000000000100000000000000010600000000000430002017101600000010000000000000BRBRKMACNPA4114
012017092282BRKMW42     080BRKME FM    PNA     N1000R$  000000000013600000000001360000000000136000000000013600000000001360000000000000000000000000000001000000000000000600000000000000081600000000000420002017112100000010000000000000BRBRKMACNPA4114
012017092282BRKMW43     080BRKME FM    PNA     N1000R$  000000000017200000000001720000000000172000000000017200000000001720000000000000000000000000000001000000000000000300000000000000051600000000000430002017112100000010000000000000BRBRKMACNPA4114
012017092202BRML3       010BR MALLS PARON      NM   R$  000000000147700000000014770000000001430000000000144800000000014500000000001448000000000145115355000000000006125100000000008869623000000000000000009999123100000010000000000000BRBRMLACNOR9110
012017092296BRML3F      020BR MALLS PARON      NM   R$  000000000146500000000014690000000001429000000000144400000000014370000000001437000000000146900089000000000000002543000000000003674400000000000000009999123100000010000000000000BRBRMLACNOR9110
012017092278BRMLJ14     070BRML        ON      NM000R$  000000000006700000000000670000000000066000000000006600000000000660000000000000000000000000000030000000000000003000000000000000199600000000000140002017101600000010000000000000BRBRMLACNOR9110
012017092278BRMLJ15     070BRML  FM    ON      NM000R$  000000000003100000000000320000000000023000000000002900000000000230000000000022000000000000000022000000000000071600000000000002119700000000000150002017101600000010000000000000BRBRMLACNOR9110
012017092278BRMLJ44     070BRML  FM    ON      NM000R$  000000000004500000000000450000000000038000000000004000000000000410000000000000000000000008300004000000000000004100000000000000165800000000000145002017101600000010000000000000BRBRMLACNOR9110
012017092278BRMLJ74     070BRMLE       ON      NM000R$  000000000003500000000000350000000000027000000000002700000000000270000000000000000000000000000005000000000000011600000000000000317600000000000147502017101600000010000000000000BRBRMLACNOR9110
012017092282BRMLV14     080BRMLE FM    ON      NM000R$  000000000001700000000000240000000000017000000000001900000000000240000000000000000000000002500003000000000000002200000000000000042800000000000140002017101600000010000000000000BRBRMLACNOR9110
012017092282BRMLV44     080BRMLE FM    ON      NM000R$  000000000003000000000000420000000000030000000000003600000000000420000000000001000000000004500003000000000000001200000000000000043400000000000145002017101600000010000000000000BRBRMLACNOR9110
012017092202BRPR3       010BR PROPERT  ON      NM   R$  000000000115700000000011570000000001140000000000114600000000011500000000001147000000000115401303000000000000259200000000000297241100000000000000009999123100000010000000000000BRBRPRACNOR9117
012017092296BRPR3F      020BR PROPERT  ON      NM   R$  000000000111100000000011500000000001092000000000113500000000011400000000001140000000000116000014000000000000000587000000000000666260000000000000009999123100000010000000000000BRBRPRACNOR9117
012017092202BRSR3       010BANRISUL    ON      N1   R$  000000000190100000000019010000000001901000000000190100000000019010000000001900000000000205000003000000000000000300000000000000570300000000000000009999123100000010000000000000BRBRSRACNOR3150
012017092202BRSR6       010BANRISUL    PNB     N1   R$  000000000167500000000016940000000001640000000000167400000000016940000000001676000000000169401937000000000000476800000000000798266500000000000000009999123100000010000000000000BRBRSRACNPB4153
012017092296BRSR6F      020BANRISUL    PNB     N1   R$  000000000167000000000016930000000001645000000000166600000000016930000000001675000000000169300030000000000000000965000000000001608266000000000000009999123100000010000000000000BRBRSRACNPB4153
012017092262BRSR6T      030BANRISUL    PNB     N1017R$  000000000168100000000016820000000001681000000000168100000000016820000000000000000000000000000002000000000000004000000000000006725460000000000000009999123100000010000000000000BRBRSRACNPB4153
012017092202BSAN33      010BANSANTANDERDR3          R$  000000000196000000000019600000000001960000000000196000000000019600000000001932000000000196000001000000000000000100000000000000196000000000000000009999123100000010000000000000BRBSANBDR002112
012017092202BSEV3       010BIOSEV      ON      NM   R$  000000000056600000000005660000000000550000000000055600000000005520000000000552000000000055700049000000000000032100000000000017861200000000000000009999123100000010000000000000BRBSEVACNOR3101
012017092296BSEV3F      020BIOSEV      ON      NM   R$  000000000055500000000005820000000000555000000000055500000000005820000000000550000000000058200002000000000000000071000000000000039432000000000000009999123100000010000000000000BRBSEVACNOR3101
012017092296BSLI4F      020BRB BANCO   PN           R$  000000000337500000000033750000000003375000000000337500000000033750000000002700000000000333300002000000000000000010000000000000033750000000000000009999123100000010000000000000BRBSLIACNPR2162
012017092202BTOW3       010B2W DIGITAL ON      NM   R$  000000000205200000000020900000000002009000000000206400000000020730000000002063000000000207304464000000000000966500000000001995466100000000000000009999123100000010000000000000BRBTOWACNOR8109
012017092296BTOW3F      020B2W DIGITAL ON      NM   R$  000000000205000000000020850000000002016000000000206300000000020570000000002050000000000208600048000000000000001760000000000003632078000000000000009999123100000010000000000000BRBTOWACNOR8109
012017092202BTTL4       010BATTISTELLA PN           R$  000000000105600000000010560000000001056000000000105600000000010560000000001056000000000115000001000000000000000100000000000000105600000000000000009999123100000010000000000000BRBTTLACNPR7107
012017092202BVMF3       010BMFBOVESPA  ON      NM   R$  000000000246500000000025090000000002452000000000248900000000024990000000002495000000000249911464000000000009385800000000023369487100000000000000009999123100000010000000000000BRBVMFACNOR3142
012017092296BVMF3F      020BMFBOVESPA  ON      NM   R$  000000000244800000000025000000000002447000000000248400000000024750000000002475000000000249300249000000000000005064000000000012583632000000000000009999123100000010000000000000BRBVMFACNOR3142
012017092262BVMF3T      030BMFBOVESPA  ON      NM031R$  000000000250500000000025060000000002505000000000250500000000025060000000000000000000000000000002000000000000142200000000000356305535000000000000009999123100000010000000000000BRBVMFACNOR3142
012017092278BVMFJ22     070BVMF        ON      NM000R$  000000000023000000000002300000000000230000000000023000000000002300000000000235000000000000000001000000000000000100000000000000023000000000000224102017101600000010000000000000BRBVMFACNOR3141
012017092278BVMFJ23     070BVMF        ON      NM000R$  000000000016200000000001720000000000156000000000016100000000001720000000000100000000000290000004000000000000001300000000000000210400000000000234102017101600000010000000000000BRBVMFACNOR3141
012017092278BVMFJ24     070BVMF        ON      NM000R$  000000000006700000000000950000000000067000000000007800000000000950000000000094000000000000000007000000000000050000000000000003910000000000000244102017101600000010000000000000BRBVMFACNOR3141
012017092278BVMFJ25     070BVMF        ON      NM000R$  000000000003300000000000420000000000033000000000003400000000000360000000000035000000000004200013000000000000021000000000000000720300000000000254102017101600000010000000000000BRBVMFACNOR3141
012017092278BVMFJ50     070BVMF        ON      NM000R$  000000000041500000000004200000000000413000000000041500000000004200000000000000000000000000000004000000000000000500000000000000207700000000000209102017101600000010000000000000BRBVMFACNOR3141
012017092278BVMFJ51     070BVMF        ON      NM000R$  000000000031600000000003190000000000316000000000031800000000003190000000000000000000000000000004000000000000000400000000000000127300000000000219102017101600000010000000000000BRBVMFACNOR3141
012017092278BVMFJ52     070BVMF        ON      NM000R$  000000000021000000000002290000000000210000000000021600000000002290000000000151000000000024900004000000000000003300000000000000713500000000000229102017101600000010000000000000BRBVMFACNOR3141
012017092278BVMFJ53     070BVMF  FM    ON      NM000R$  000000000011200000000001460000000000112000000000012700000000001440000000000120000000000014600066000000000000110100000000000014090100000000000239102017101600000010000000000000BRBVMFACNOR3141
012017092278BVMFJ54     070BVMF  FM    ON      NM000R$  000000000004600000000000720000000000045000000000005900000000000640000000000050000000000007100080000000000000054600000000000003242600000000000249102017101600000010000000000000BRBVMFACNOR3141
012017092278BVMFJ55     070BVMF  FM    ON      NM000R$  000000000001900000000000270000000000019000000000002200000000000230000000000005000000000002800017000000000000061900000000000001416900000000000259102017101600000010000000000000BRBVMFACNOR3141
012017092278BVMFJ56     070BVMFE       ON      NM000R$  000000000000500000000000100000000000005000000000000600000000000100000000000010000000000001200012000000000000004300000000000000029900000000000266602017101600000010000000000000BRBVMFACNOR3141
012017092278BVMFJ66     070BVMF  FM    ON      NM000R$  000000000000700000000000090000000000007000000000000700000000000080000000000000000000000000000006000000000000026500000000000000203500000000000269102017101600000010000000000000BRBVMFACNOR3142
012017092278BVMFK24     070BVMF  FM    ON      NM000R$  000000000014400000000001750000000000140000000000015300000000001700000000000000000000000000000016000000000000080000000000000012260000000000000239702017112100000010000000000000BRBVMFACNOR3141
012017092278BVMFK25     070BVMF  FM    ON      NM000R$  000000000011200000000001120000000000079000000000008900000000001010000000000000000000000010500017000000000000040900000000000003680800000000000249702017112100000010000000000000BRBVMFACNOR3141
012017092278BVMFK26     070BVMF  FM    ON      NM000R$  000000000005000000000000570000000000046000000000005500000000000560000000000000000000000000000010000000000000025500000000000001413500000000000259702017112100000010000000000000BRBVMFACNOR3141
012017092278BVMFK51     070BVMF        ON      NM000R$  000000000037500000000003750000000000375000000000037500000000003750000000000000000000000000000001000000000000000500000000000000187500000000000214702017112100000010000000000000BRBVMFACNOR3141
012017092278BVMFK66     070BVMF  FM    ON      NM000R$  000000000002900000000000290000000000029000000000002900000000000290000000000000000000000000000002000000000000010000000000000000290000000000000269702017112100000010000000000000BRBVMFACNOR3142
012017092278BVMFL63     070BVMFE       ON      NM000R$  000000000020000000000002000000000000200000000000020000000000002000000000000000000000000000000001000000000000000500000000000000100000000000000239102017121800000010000000000000BRBVMFACNOR3142
012017092278BVMFL82     070BVMFE       ON      NM000R$  000000000031600000000003170000000000316000000000031600000000003170000000000000000000000000000002000000000000425000000000000134427500000000000224102017121800000010000000000000BRBVMFACNOR3140
012017092282BVMFV23     080BVMFE       ON      NM000R$  000000000001700000000000170000000000017000000000001700000000000170000000000000000000000001700001000000000000002400000000000000040800000000000234102017101600000010000000000000BRBVMFACNOR3141
012017092282BVMFV25     080BVMFE       ON      NM000R$  000000000007800000000000780000000000078000000000007800000000000780000000000000000000000000000001000000000000004000000000000000312000000000000254102017101600000010000000000000BRBVMFACNOR3141
012017092282BVMFV52     080BVMFE FM    ON      NM000R$  000000000001600000000000160000000000013000000000001400000000000140000000000006000000000002800006000000000000020000000000000000285000000000000229102017101600000010000000000000BRBVMFACNOR3141
012017092282BVMFV53     080BVMFE FM    ON      NM000R$  000000000003000000000000330000000000023000000000002800000000000230000000000016000000000000000073000000000000230500000000000006615900000000000239102017101600000010000000000000BRBVMFACNOR3141
012017092282BVMFV54     080BVMFE FM    ON      NM000R$  000000000006100000000000650000000000050000000000006200000000000520000000000050000000000007600020000000000000019500000000000001226400000000000249102017101600000010000000000000BRBVMFACNOR3141
012017092282BVMFV55     080BVMFE FM    ON      NM000R$  000000000013600000000001410000000000103000000000012300000000001110000000000000000000000012500024000000000000066500000000000008204000000000000259102017101600000010000000000000BRBVMFACNOR3141
012017092282BVMFW24     080BVMFE FM    ON      NM000R$  000000000005400000000000540000000000046000000000005100000000000470000000000000000000000000000014000000000000045500000000000002322800000000000239702017112100000010000000000000BRBVMFACNOR3141
012017092282BVMFW25     080BVMFE FM    ON      NM000R$  000000000008700000000000870000000000087000000000008700000000000870000000000000000000000000000001000000000000005000000000000000435000000000000249702017112100000010000000000000BRBVMFACNOR3141
012017092282BVMFW26     080BVMFE FM    ON      NM000R$  000000000014500000000001520000000000144000000000014700000000001440000000000000000000000000000010000000000000044700000000000006575800000000000259702017112100000010000000000000BRBVMFACNOR3141
012017092282BVMFX47     080BVMFE       ON      NM000R$  000000000000700000000000070000000000007000000000000700000000000070000000000000000000000000000001000000000000425000000000000002975000000000000176602017121800000010000000000000BRBVMFACNOR3141
012017092282BVMFX49     080BVMFE       ON      NM000R$  000000000001000000000000100000000000010000000000001000000000000100000000000000000000000000000001000000000000425000000000000004250000000000000196602017121800000010000000000000BRBVMFACNOR3141
012017092282BVMFX73     080BVMFE       ON      NM000R$  000000000006200000000000620000000000048000000000005400000000000480000000000000000000000000000003000000000000132000000000000007227000000000000234102017121800000010000000000000BRBVMFACNOR3141
012017092202CARD3       010CSU CARDSYSTON      NM   R$  000000000110300000000011290000000001090000000000110300000000010930000000001093000000000109600857000000000000284300000000000313638900000000000000009999123100000010000000000000BRCARDACNOR9110
012017092296CARD3F      020CSU CARDSYSTON      NM   R$  000000000110000000000011390000000001086000000000110500000000011030000000001085000000000113000028000000000000000821000000000000907985000000000000009999123100000010000000000000BRCARDACNOR9110
012017092296CBEE3F      020AMPLA ENERG ON           R$  000000000530000000000053000000000005300000000000530000000000053000000000004100000000000569900002000000000000000014000000000000074200000000000000009999123100000010000000000000BRCBEEACNOR3152
012017092212CBOP11      010FII C BRANCOCI           R$  000000007799900000000797500000000077990000000007821300000000790000000000078200000000007900000026000000000000000241000000000018849353000000000000009999123100000010000000000000BRCBOPCTF001148
012017092202CCPR3       010CYRE COM-CCPON      NM   R$  000000000077900000000007800000000000731000000000077900000000007800000000000732000000000080800009000000000000040300000000000031404600000000000000009999123100000010000000000000BRCCPRACNOR9112
012017092202CCRO3       010CCR SA      ON      NM   R$  000000000182500000000018250000000001787000000000179900000000018120000000001809000000000181416119000000000004048400000000007283612600000000000000009999123100000010000000000000BRCCROACNOR2131
012017092296CCRO3F      020CCR SA      ON      NM   R$  000000000182800000000018280000000001785000000000179800000000017850000000001785000000000180300132000000000000002345000000000004217132000000000000009999123100000010000000000000BRCCROACNOR2131
012017092262CCRO3T      030CCR SA      ON      NM031R$  000000000180200000000018030000000001802000000000180200000000018030000000000000000000000000000002000000000000001000000000000001802530000000000000009999123100000010000000000000BRCCROACNOR2131
012017092262CCRO3T      030CCR SA      ON      NM060R$  000000000181400000000018150000000001814000000000181400000000018150000000000000000000000000000002000000000000001000000000000001814283000000000000009999123100000010000000000000BRCCROACNOR2131
012017092278CCROJ18     070CCRO  FM    ON      NM000R$  000000000003300000000000330000000000025000000000003200000000000250000000000026000000000008900004000000000000008000000000000000260000000000000183802017101600000010000000000000BRCCROACNOR2131
012017092278CCROJ47     070CCRO  FM    ON      NM000R$  000000000005000000000000510000000000046000000000004700000000000460000000000000000000000000000043000000000000006000000000000000284600000000000178802017101600000010000000000000BRCCROACNOR2131
012017092278CCROJ48     070CCRO  FM    ON      NM000R$  000000000001500000000000150000000000015000000000001500000000000150000000000000000000000000000001000000000000005000000000000000075000000000000188802017101600000010000000000000BRCCROACNOR2131
012017092278CCROK18     070CCRO  FM    ON      NM000R$  000000000007000000000000700000000000070000000000007000000000000700000000000000000000000000000001000000000000001000000000000000070000000000000180002017112100000010000000000000BRCCROACNOR2131
012017092278CCROK19     070CCRO  FM    ON      NM000R$  000000000003400000000000340000000000034000000000003400000000000340000000000000000000000008300001000000000000000100000000000000003400000000000190002017112100000010000000000000BRCCROACNOR2131
012017092278CCROK49     070CCRO  FM    ON      NM000R$  000000000002400000000000240000000000024000000000002400000000000240000000000000000000000000000001000000000000070000000000000001680000000000000195002017112100000010000000000000BRCCROACNOR2131
012017092278CCROK79     070CCROE       ON      NM000R$  000000000002500000000000250000000000025000000000002500000000000250000000000000000000000000000002000000000000045000000000000001125000000000000197502017112100000010000000000000BRCCROACNOR2131
