00COTAHIST.2017BOVESPA 20170906                                                                                                                                                                                                                      
012017090602AALR3       010ALLIAR      ON      NM   R$  000000000165000000000016500000000001611000000000162600000000016400000000001640000000000164400637000000000002375100000000003861919900000000000000009999123100000010000000000000BRAALRACNOR6100
012017090696AALR3F      020ALLIAR      ON      NM   R$  000000000164600000000016460000000001576000000000162500000000016270000000001575000000000164000010000000000000000299000000000000485987000000000000009999123100000010000000000000BRAALRACNOR6100
012017090602AAPL34      010APPLE       DRN          R$  000000000503500000000050420000000005029000000000503600000000050420000000004991000000000504200004000000000000002500000000000012592300000000000000009999123100000010000000000000BRAAPLBDR004122
012017090610ABCB10      010ABC BRASIL  PN  REC N2   R$  000000000170800000000017350000000001690000000000171100000000017220000000001722000000000172400043000000000000016500000000000028242800000000000000009999123100000010000000000000BRABCBR12PR6127
012017090696ABCB10F     020ABC BRASIL  PN  REC N2   R$  000000000169100000000017130000000001669000000000169000000000017130000000001714000000000175400006000000000000000134000000000000226506000000000000009999123100000010000000000000BRABCBR12PR6127
012017090602ABCB4       010ABC BRASIL  PN      N2   R$  000000000171300000000017530000000001693000000000172400000000017270000000001727000000000173403433000000000000845600000000001457932900000000000000009999123100000010000000000000BRABCBACNPR4128
012017090696ABCB4F      020ABC BRASIL  PN      N2   R$  000000000172300000000017500000000001694000000000171900000000017340000000001730000000000173900022000000000000000614000000000001056004000000000000009999123100000010000000000000BRABCBACNPR4128
012017090662ABCB4T      030ABC BRASIL  PN      N2030R$  000000000175400000000017550000000001754000000000175400000000017550000000000000000000000000000002000000000000020000000000000035097626000000000000009999123100000010000000000000BRABCBACNPR4128
012017090612ABCP11      010FII ABC IMOBCI  ER       R$  000000000170100000000017750000000001701000000000173400000000017050000000001705000000000174500026000000000000000703000000000001219052000000000000009999123100000010000000000000BRABCPCTF000263
012017090602ABEV3       010AMBEV S/A   ON           R$  000000000199300000000020270000000001989000000000200900000000020130000000002013000000000201631047000000000020127000000000040454818600000000000000009999123100000010000000000000BRABEVACNOR1117
012017090696ABEV3F      020AMBEV S/A   ON           R$  000000000198200000000020260000000001981000000000200600000000020210000000002010000000000202100267000000000000006246000000000012533078000000000000009999123100000010000000000000BRABEVACNOR1117
012017090662ABEV3T      030AMBEV S/A   ON        016R$  000000000201900000000020200000000002019000000000201900000000020200000000000000000000000000000002000000000000005000000000000010097235000000000000009999123100000010000000000000BRABEVACNOR1117
012017090662ABEV3T      030AMBEV S/A   ON        030R$  000000000202800000000020290000000002025000000000202700000000020260000000000000000000000000000014000000000000012600000000000025545566000000000000009999123100000010000000000000BRABEVACNOR1117
012017090678ABEVA60     070ABEVE       ON        000R$  000000000009000000000000900000000000090000000000009000000000000900000000000000000000000000000001000000000000020000000000000001800000000000000201702018011500000010000000000000BRABEVACNOR1117
012017090678ABEVA70     070ABEV        ON        000R$  000000000009300000000000930000000000093000000000009300000000000930000000000000000000000000000001000000000000385700000000000035870100000000000199202018011500000010000000000000BRABEVACNOR1115
012017090678ABEVA8      070ABEVE       ON        000R$  000000000021500000000002150000000000215000000000021500000000002150000000000000000000000000000001000000000000020000000000000004300000000000000186702018011500000010000000000000BRABEVACNOR1115
012017090678ABEVA80     070ABEVE       ON        000R$  000000000007500000000000750000000000075000000000007500000000000750000000000000000000000000000001000000000000020000000000000001500000000000000206702018011500000010000000000000BRABEVACNOR1117
012017090678ABEVA81     070ABEVE       ON        000R$  000000000004000000000000400000000000040000000000004000000000000400000000000000000000000000000001000000000000020000000000000000800000000000000211702018011500000010000000000000BRABEVACNOR1117
012017090678ABEVA89     070ABEVE       ON        000R$  000000000017000000000001700000000000170000000000017000000000001700000000000000000000000000000001000000000000020000000000000003400000000000000191702018011500000010000000000000BRABEVACNOR1113
012017090678ABEVA93     070ABEVE       ON        000R$  000000000001500000000000150000000000015000000000001500000000000150000000000000000000000000000001000000000000020000000000000000300000000000000231702018011500000010000000000000BRABEVACNOR1117
012017090678ABEVH4      070ABEVE       ON        000R$  000000000007500000000000750000000000074000000000007400000000000740000000000000000000000000000006000000000002000000000000000148560500000000000225902018082000000010000000000000BRABEVACNOR1117
012017090678ABEVI1      070ABEV  FM    ON        000R$  000000000007000000000000970000000000070000000000009200000000000920000000000091000000000000000020000000000000125400000000000011545500000000000192902017091800000010000000000000BRABEVACNOR1113
012017090678ABEVI20     070ABEV        ON        000R$  000000000001100000000000200000000000009000000000001200000000000140000000000013000000000001400046000000000000254900000000000003286900000000000202902017091800000010000000000000BRABEVACNOR1116
012017090678ABEVI49     070ABEV  FM    ON        000R$  000000000003200000000000520000000000032000000000003900000000000520000000000040000000000005500013000000000000076400000000000003044600000000000197902017091800000010000000000000BRABEVACNOR1116
012017090678ABEVI69     070ABEVE       ON        000R$  000000000010300000000001030000000000102000000000010200000000001020000000000000000000000000000003000000000000300600000000000030931200000000000190402017091800000010000000000000BRABEVACNOR1116
012017090678ABEVI80     070ABEVE       ON        000R$  000000000005700000000000590000000000057000000000005700000000000590000000000000000000000000000002000000000000093500000000000005345100000000000195402017091800000010000000000000BRABEVACNOR1113
012017090678ABEVI9      070ABEV        ON        000R$  000000000019300000000001930000000000193000000000019300000000001930000000000000000000000000000001000000000000001400000000000000270200000000000182902017091800000010000000000000BRABEVACNOR1112
012017090678ABEVI90     070ABEVE       ON        000R$  000000000002100000000000300000000000021000000000002500000000000260000000000001000000000000000012000000000000009100000000000000230200000000000200402017091800000010000000000000BRABEVACNOR1117
012017090678ABEVJ20     070ABEV  FM    ON        000R$  000000000004200000000000600000000000041000000000004800000000000600000000000053000000000000000011000000000000056900000000000002767400000000000200502017101600000010000000000000BRABEVACNOR1117
012017090678ABEVJ4      070ABEV  FM    ON        000R$  000000000008800000000000940000000000083000000000008800000000000940000000000000000000000000000009000000000000063400000000000005623200000000000195502017101600000010000000000000BRABEVACNOR1113
012017090678ABEVJ48     070ABEVE       ON        000R$  000000000020100000000002010000000000201000000000020100000000002010000000000010000000000000000001000000000000002300000000000000462300000000000183002017101600000010000000000000BRABEVACNOR1113
012017090678ABEVJ50     070ABEV  FM    ON        000R$  000000000002100000000000300000000000021000000000002100000000000260000000000000000000000000000010000000000000050600000000000001112000000000000205502017101600000010000000000000BRABEVACNOR1116
012017090678ABEVJ51     070ABEV  FM    ON        000R$  000000000000400000000000060000000000004000000000000400000000000050000000000004000000000028000015000000000000082000000000000000374900000000000215502017101600000010000000000000BRABEVACNOR1116
012017090678ABEVJ70     070ABEVE       ON        000R$  000000000004000000000000400000000000040000000000004000000000000400000000000000000000000005500001000000000000010000000000000000400000000000000203002017101600000010000000000000BRABEVACNOR1117
012017090678ABEVJ89     070ABEVE       ON        000R$  000000000006100000000000720000000000061000000000006500000000000720000000000000000000000000000008000000000000080000000000000005220000000000000198002017101600000010000000000000BRABEVACNOR1117
012017090678ABEVK20     070ABEV        ON        000R$  000000000009000000000000900000000000090000000000009000000000000900000000000000000000000009000005000000000000001700000000000000153000000000000199202017112100000010000000000000BRABEVACNOR1116
012017090678ABEVL79     070ABEVE       ON        000R$  000000000019500000000001950000000000195000000000019500000000001950000000000000000000000000000001000000000000000400000000000000078000000000000185402017121800000010000000000000BRABEVACNOR1113
012017090678ABEVL9      070ABEV        ON        000R$  000000000023100000000002310000000000225000000000022800000000002290000000000000000000000000000014000000000000010000000000000002287400000000000182902017121800000010000000000000BRABEVACNOR1112
012017090682ABEVM68     080ABEVE       ON        000R$  000000000001100000000000110000000000011000000000001100000000000110000000000000000000000000000001000000000000020000000000000000220000000000000181702018011500000010000000000000BRABEVACNOR1117
012017090682ABEVM96     080ABEVE       ON        000R$  000000000001400000000000140000000000014000000000001400000000000140000000000000000000000000000001000000000000020000000000000000280000000000000161702018011500000010000000000000BRABEVACNOR1113
012017090682ABEVT49     080ABEVE       ON        000R$  000000000010000000000001000000000000100000000000010000000000001000000000000000000000000000000003000000000002000000000000000200000000000000000198402018082000000010000000000000BRABEVACNOR1117
012017090682ABEVT68     080ABEVE       ON        000R$  000000000002700000000000270000000000027000000000002700000000000270000000000000000000000000000003000000000002000000000000000054000000000000000185902018082000000010000000000000BRABEVACNOR1117
012017090682ABEVU1      080ABEVE FM    ON        000R$  000000000000300000000000030000000000003000000000000300000000000030000000000000000000000000000001000000000000004000000000000000012000000000000192902017091800000010000000000000BRABEVACNOR1113
012017090682ABEVU2      080ABEVE FM    ON        000R$  000000000000200000000000020000000000002000000000000200000000000020000000000001000000000000500002000000000000020000000000000000040000000000000187902017091800000010000000000000BRABEVACNOR1113
012017090682ABEVU49     080ABEVE FM    ON        000R$  000000000001200000000000120000000000007000000000001000000000000070000000000003000000000001100004000000000000015000000000000000160000000000000197902017091800000010000000000000BRABEVACNOR1116
012017090682ABEVU50     080ABEVE FM    ON        000R$  000000000008100000000000810000000000063000000000006700000000000630000000000000000000000007500004000000000000024000000000000001630000000000000207902017091800000010000000000000BRABEVACNOR1116
012017090682ABEVU80     080ABEVE       ON        000R$  000000000000900000000000090000000000002000000000000300000000000020000000000001000000000000400006000000000000041000000000000000161000000000000195402017091800000010000000000000BRABEVACNOR1113
012017090682ABEVV4      080ABEVE       ON        000R$  000000000001500000000000150000000000015000000000001500000000000150000000000000000000000000000001000000000000010000000000000000150000000000000195502017101600000010000000000000BRABEVACNOR1113
012017090682ABEVV50     080ABEVE       ON        000R$  000000000006100000000000610000000000061000000000006100000000000610000000000000000000000000000001000000000000006500000000000000396500000000000205502017101600000010000000000000BRABEVACNOR1116
012017090682ABEVV89     080ABEVE FM    ON        000R$  000000000002200000000000220000000000022000000000002200000000000220000000000000000000000000000001000000000000000200000000000000004400000000000198002017101600000010000000000000BRABEVACNOR1117
012017090682ABEVX60     080ABEVE       ON        000R$  000000000004700000000000470000000000047000000000004700000000000470000000000000000000000000000001000000000000040000000000000001880000000000000200402017121800000010000000000000BRABEVACNOR1115
012017090602ADHM3       010ADVANCED-DH ON           R$  000000000022200000000002220000000000215000000000021600000000002150000000000215000000000022000019000000000000009500000000000002057300000000000000009999123100000010000000000000BRADHMACNOR9101
012017090696ADHM3F      020ADVANCED-DH ON           R$  000000000022000000000002200000000000220000000000022000000000002200000000000220000000000022400003000000000000000136000000000000029920000000000000009999123100000010000000000000BRADHMACNOR9101
012017090612AEFI11      010FII AESAPAR CI  ER       R$  000000001446000000000146970000000014400000000001461800000000146920000000014550000000001469200053000000000000003792000000000055434255000000000000009999123100000010000000000000BRAEFICTF002169
012017090696AELP3F      020AES ELPA    ON           R$  000000000060300000000006030000000000603000000000060300000000006030000000000600000000000070000001000000000000000011000000000000006633000000000000009999123100000010000000000000BRAELPACNOR2124
012017090602AFLU3       010AFLUENTE    ON           R$  000000000057500000000005750000000000575000000000057500000000005750000000000520000000000058400003000000000000001000000000000000575000000000000000009999123100000010000000000000BRAFLUACNOR9122
012017090612AGCX11      010FII AG CAIXACI  ER       R$  000000012140000000001227990000000121050000000012144400000001227990000000122300000000012300000053000000000000000291000000000035340268000000000000009999123100000010000000000000BRAGCXCTF003158
012017090602AGRO3       010BRASILAGRO  ON      NM   R$  000000000122100000000012340000000001220000000000122500000000012300000000001230000000000123200298000000000000181500000000000222355600000000000000009999123100000010000000000000BRAGROACNOR7106
012017090696AGRO3F      020BRASILAGRO  ON      NM   R$  000000000123000000000012300000000001222000000000122600000000012250000000001223000000000124800004000000000000000150000000000000183940000000000000009999123100000010000000000000BRAGROACNOR7106
012017090612ALMI11      010FII TORRE ALCI           R$  000000022499900000002249990000000218900000000022171900000002200000000000219400000000022499800022000000000000000114000000000025276045000000000000009999123100000010000000000000BRALMICTF003249
012017090602ALPA3       010ALPARGATAS  ON      N1   R$  000000000139000000000013900000000001375000000000138300000000013760000000001375000000000140000016000000000000004200000000000005812100000000000000009999123100000010000000000000BRALPAACNOR0222
012017090696ALPA3F      020ALPARGATAS  ON      N1   R$  000000000136100000000014290000000001361000000000137300000000014290000000001344000000000142900008000000000000000127000000000000174403000000000000009999123100000010000000000000BRALPAACNOR0222
012017090602ALPA4       010ALPARGATAS  PN      N1   R$  000000000140000000000014270000000001385000000000140000000000014270000000001407000000000142702830000000000001342200000000001879919600000000000000009999123100000010000000000000BRALPAACNPR7222
012017090696ALPA4F      020ALPARGATAS  PN      N1   R$  000000000138400000000014180000000001384000000000139700000000014180000000001385000000000141800028000000000000000512000000000000715464000000000000009999123100000010000000000000BRALPAACNPR7222
012017090602ALSC3       010ALIANSCE    ON      NM   R$  000000000176400000000017900000000001751000000000176800000000017700000000001767000000000177003941000000000001332400000000002355847100000000000000009999123100000010000000000000BRALSCACNOR0110
012017090696ALSC3F      020ALIANSCE    ON      NM   R$  000000000176300000000018590000000001763000000000179200000000018590000000001770000000000185900026000000000000000729000000000001306700000000000000009999123100000010000000000000BRALSCACNOR0110
012017090602ALUP11      010ALUPAR      UNT     N2   R$  000000000189200000000018990000000001871000000000188000000000018840000000001884000000000188503654000000000001198400000000002253998600000000000000009999123100000010000000000000BRALUPCDAM15106
012017090696ALUP11F     020ALUPAR      UNT     N2   R$  000000000189000000000019490000000001870000000000190000000000019490000000001886000000000194900036000000000000000841000000000001598397000000000000009999123100000010000000000000BRALUPCDAM15106
012017090602AMAR3       010LOJAS MARISAON      NM   R$  000000000074100000000007720000000000737000000000076300000000007680000000000766000000000076803123000000000001027400000000000784300900000000000000009999123100000010000000000000BRAMARACNOR4112
012017090696AMAR3F      020LOJAS MARISAON      NM   R$  000000000074100000000007720000000000740000000000076000000000007670000000000760000000000078700042000000000000001256000000000000955457000000000000009999123100000010000000000000BRAMARACNOR4112
012017090662AMAR3T      030LOJAS MARISAON      NM030R$  000000000076900000000007700000000000769000000000076900000000007700000000000000000000000000000002000000000000000300000000000000230736000000000000009999123100000010000000000000BRAMARACNOR4112
012017090602AMGN34      010AMGEN       DRN          R$  000000005532400000000553240000000055324000000005532400000000553240000000000000000000000000000001000000000000000100000000000005532400000000000000009999123100000010000000000000BRAMGNBDR004123
012017090602ANDV34      010ANDEAVOR    DRN ED       R$  000000001563100000000156310000000015628000000001562900000000156280000000000000000000001599900002000000000000000200000000000003125900000000000000009999123100000010000000000000BRANDVBDR002101
012017090602ANIM3       010ANIMA       ON      NM   R$  000000000181500000000019650000000001813000000000192100000000019650000000001940000000000196500727000000000000436400000000000838453600000000000000009999123100000010000000000000BRANIMACNOR6104
012017090696ANIM3F      020ANIMA       ON      NM   R$  000000000178800000000019750000000001788000000000185300000000019280000000001820000000000197500005000000000000000211000000000000391094000000000000009999123100000010000000000000BRANIMACNOR6104
012017090602ARZZ3       010AREZZO CO   ON  ED  NM   R$  000000000460500000000050640000000004605000000000490800000000050000000000005000000000000501205095000000000001775800000000008716845600000000000000009999123100000010000000000000BRARZZACNOR3126
012017090696ARZZ3F      020AREZZO CO   ON  ED  NM   R$  000000000441300000000050550000000004413000000000482700000000050260000000005000000000000540000045000000000000001212000000000005850954000000000000009999123100000010000000000000BRARZZACNOR3126
012017090682ARZZT46     080ARZZE       ON      NM000R$  000000000054100000000005410000000000541000000000054100000000005410000000000000000000000000000002000000000000032000000000000017312000000000000460102018082000000010000000000000BRARZZACNOR3126
012017090602ATOM3       010ATOMPAR     ON           R$  000000000028200000000002820000000000275000000000027800000000002790000000000276000000000027900032000000000000015700000000000004369000000000000000009999123100000010000000000000BRATOMACNOR1102
012017090602ATTB34      010ATT INC     DRN          R$  000000001137700000000113770000000011377000000001137700000000113770000000000000000000001137700001000000000000000100000000000001137700000000000000009999123100000010000000000000BRATTBBDR007120
012017090602AVON34      010AVON        DRN          R$  000000000040600000000004060000000000406000000000040600000000004060000000000406000000000041400001000000000000000100000000000000040600000000000000009999123100000010000000000000BRAVONBDR009121
012017090602AZEV4       010AZEVEDO     PN           R$  000000000011000000000001120000000000109000000000010900000000001100000000000109000000000011200008000000000000004200000000000000461600000000000000009999123100000010000000000000BRAZEVACNPR7116
012017090602AZUL4       010AZUL        PN      N2   R$  000000000272700000000027860000000002715000000000276500000000027840000000002770000000000278401750000000000000570200000000001576702500000000000000009999123100000010000000000000BRAZULACNPR4100
012017090696AZUL4F      020AZUL        PN      N2   R$  000000000273000000000027750000000002710000000000274900000000027410000000002740000000000277500026000000000000000630000000000001732208000000000000009999123100000010000000000000BRAZULACNPR4100
012017090602BAHI3       010BAHEMA      ON           R$  000000000519900000000052000000000005050000000000514900000000052000000000005050000000000520000003000000000000000300000000000001544900000000000000009999123100000010000000000000BRBAHIACNOR1070
012017090602BAUH4       010EXCELSIOR   PN           R$  000000000145000000000014500000000001450000000000145000000000014500000000001352000000000145000005000000000000002500000000000003625000000000000000009999123100000010000000000000BRBAUHACNPR3112
012017090602BAZA3       010AMAZONIA    ON           R$  000000000270500000000027050000000002705000000000270500000000027050000000002705000000000277700002000000000000000400000000000001082000000000000000009999123100000010000000000000BRBAZAACNOR0171
012017090602BBAS3       010BRASIL      ON      NM   R$  000000000323700000000032840000000003223000000000327000000000032760000000003275000000000327630307000000000011351700000000037124446600000000000000009999123100000010000000000000BRBBASACNOR3270
012017090696BBAS3F      020BRASIL      ON      NM   R$  000000000322200000000032850000000003220000000000326500000000032800000000003274000000000328000536000000000000009897000000000032320414000000000000009999123100000010000000000000BRBBASACNOR3270
012017090662BBAS3T      030BRASIL      ON      NM030R$  000000000329200000000032930000000003292000000000329200000000032930000000000000000000000000000002000000000000000300000000000000987875000000000000009999123100000010000000000000BRBBASACNOR3270
012017090662BBAS3T      030BRASIL      ON      NM120R$  000000000331500000000033160000000003315000000000331500000000033160000000000000000000000000000002000000000000000500000000000001657830000000000000009999123100000010000000000000BRBBASACNOR3270
012017090678BBASI13     070BBASE       ON      NM000R$  000000000003300000000000400000000000033000000000003600000000000400000000000011000000000004000111000000000000141500000000000005186700000000000333802017091800000010000000000000BRBBASACNOR3266
012017090678BBASI30     070BBAS        ON      NM000R$  000000000032500000000003250000000000300000000000030800000000003110000000000305000000000000000016000000000000028300000000000008718200000000000296302017091800000010000000000000BRBBASACNOR3267
012017090678BBASI31     070BBAS  FM    ON      NM000R$  000000000018500000000002310000000000185000000000021400000000002250000000000025000000000023500133000000000000152400000000000032703500000000000306302017091800000010000000000000BRBBASACNOR3266
012017090678BBASI32     070BBAS  FM    ON      NM000R$  000000000010800000000001450000000000108000000000013300000000001400000000000136000000000014600555000000000000376800000000000050368500000000000316302017091800000010000000000000BRBBASACNOR3267
012017090678BBASI33     070BBAS  FM    ON      NM000R$  000000000005800000000000770000000000053000000000006600000000000740000000000069000000000007500360000000000000601900000000000039857100000000000326302017091800000010000000000000BRBBASACNOR3267
012017090678BBASI34     070BBAS  FM    ON      NM000R$  000000000002400000000000340000000000023000000000002900000000000320000000000032000000000003300254000000000000287200000000000008481200000000000336302017091800000010000000000000BRBBASACNOR3267
012017090678BBASI35     070BBAS  FM    ON      NM000R$  000000000001000000000000120000000000008000000000001000000000000120000000000010000000000001100219000000000000480400000000000005108800000000000346302017091800000010000000000000BRBBASACNOR3266
012017090678BBASI36     070BBAS        ON      NM000R$  000000000000600000000000060000000000005000000000000500000000000060000000000003000000000000700015000000000000073200000000000000425100000000000356302017091800000010000000000000BRBBASACNOR3267
012017090678BBASI38     070BBAS        ON      NM000R$  000000000000200000000000020000000000002000000000000200000000000020000000000000000000000001600001000000000000000100000000000000000200000000000381302017091800000010000000000000BRBBASACNOR3267
012017090678BBASI4      070BBAS        ON      NM000R$  000000000004200000000000520000000000038000000000004500000000000520000000000041000000000005200505000000000000463400000000000021069700000000000331302017091800000010000000000000BRBBASACNOR3266
012017090678BBASI52     070BBAS        ON      NM000R$  000000000008500000000001090000000000080000000000009300000000001060000000000098000000000010500512000000000000460700000000000043227600000000000321302017091800000010000000000000BRBBASACNOR3269
012017090678BBASI59     070BBAS        ON      NM000R$  000000000036000000000003600000000000360000000000036000000000003600000000000000000000000000000005000000000000002200000000000000792000000000000291302017091800000010000000000000BRBBASACNOR3267
012017090678BBASI6      070BBAS        ON      NM000R$  000000000001900000000000220000000000017000000000001800000000000220000000000019000000000003800078000000000000042100000000000000794700000000000341302017091800000010000000000000BRBBASACNOR3267
012017090678BBASI61     070BBASE       ON      NM000R$  000000000022900000000002290000000000229000000000022900000000002290000000000000000000000000000001000000000000001000000000000000229000000000000303802017091800000010000000000000BRBBASACNOR3266
012017090678BBASI62     070BBAS        ON      NM000R$  000000000104900000000010690000000001049000000000106000000000010680000000000000000000000000000009000000000000004900000000000005197600000000000221302017091800000010000000000000BRBBASACNOR3262
012017090678BBASI64     070BBASE       ON      NM000R$  000000000001400000000000180000000000014000000000001700000000000150000000000006000000000001600100000000000000079200000000000001388600000000000343802017091800000010000000000000BRBBASACNOR3266
012017090678BBASI65     070BBAS        ON      NM000R$  000000000000400000000000040000000000004000000000000400000000000040000000000001000000000001000002000000000000008000000000000000032000000000000351302017091800000010000000000000BRBBASACNOR3267
012017090678BBASI8      070BBASE       ON      NM000R$  000000000050000000000005000000000000494000000000049800000000004950000000000000000000000000000005000000000000001100000000000000547800000000000278802017091800000010000000000000BRBBASACNOR3266
012017090678BBASI81     070BBASE       ON      NM000R$  000000000014500000000001600000000000145000000000015100000000001600000000000142000000000000000007000000000000003200000000000000483500000000000313802017091800000010000000000000BRBBASACNOR3268
012017090678BBASI82     070BBASE       ON      NM000R$  000000000009800000000001200000000000098000000000011200000000001200000000000022000000000000000012000000000000007200000000000000809300000000000318802017091800000010000000000000BRBBASACNOR3269
012017090678BBASI89     070BBASE       ON      NM000R$  000000000140000000000014000000000001400000000000140000000000014000000000000000000000000000000001000000000000001000000000000001400000000000000188802017091800000010000000000000BRBBASACNOR3261
012017090678BBASI92     070BBASE       ON      NM000R$  000000000007700000000000850000000000077000000000008200000000000830000000000038000000000010500011000000000000007500000000000000615700000000000323802017091800000010000000000000BRBBASACNOR3269
012017090678BBASI98     070BBAS        ON      NM000R$  000000000045800000000004580000000000458000000000045800000000004580000000000000000000000000000001000000000000001700000000000000778600000000000385002018091700000010000000000000BRBBASACNOR3270
012017090678BBASJ1      070BBAS  FM    ON      NM000R$  000000000020400000000002040000000000191000000000019700000000001980000000000023000000000000000023000000000000042700000000000008428600000000000316302017101600000010000000000000BRBBASACNOR3269
012017090678BBASJ2      070BBAS  FM    ON      NM000R$  000000000013300000000001440000000000128000000000013300000000001440000000000110000000000000000244000000000000210100000000000028021400000000000326302017101600000010000000000000BRBBASACNOR3269
012017090678BBASJ22     070BBAS        ON      NM000R$  000000000105600000000010770000000001056000000000106800000000010740000000000000000000000000000015000000000000005000000000000005343300000000000221302017101600000010000000000000BRBBASACNOR3269
012017090678BBASJ30     070BBAS        ON      NM000R$  000000000031500000000003150000000000315000000000031500000000003150000000000000000000000033300001000000000000000100000000000000031500000000000301302017101600000010000000000000BRBBASACNOR3269
012017090678BBASJ31     070BBAS        ON      NM000R$  000000000022500000000002250000000000225000000000022500000000002250000000000000000000000000000003000000000000002000000000000000450000000000000311302017101600000010000000000000BRBBASACNOR3269
012017090678BBASJ32     070BBAS        ON      NM000R$  000000000016100000000001760000000000154000000000016700000000001700000000000150000000000000000022000000000000038900000000000006505800000000000321302017101600000010000000000000BRBBASACNOR3269
012017090678BBASJ33     070BBAS        ON      NM000R$  000000000010400000000001210000000000104000000000011300000000001100000000000095000000000000000045000000000000132300000000000015044500000000000331302017101600000010000000000000BRBBASACNOR3269
012017090678BBASJ34     070BBAS        ON      NM000R$  000000000007000000000000790000000000068000000000007300000000000750000000000075000000000007700064000000000000073600000000000005388600000000000341302017101600000010000000000000BRBBASACNOR3269
012017090678BBASJ60     070BBAS  FM    ON      NM000R$  000000000027500000000002790000000000261000000000026800000000002790000000000000000000000000000033000000000000054000000000000014522300000000000306302017101600000010000000000000BRBBASACNOR3269
012017090678BBASJ73     070BBASE       ON      NM000R$  000000000012000000000001280000000000118000000000012400000000001280000000000000000000000000000008000000000000027000000000000003367600000000000328802017101600000010000000000000BRBBASACNOR3269
012017090678BBASJ80     070BBASE       ON      NM000R$  000000000033000000000003300000000000330000000000033000000000003300000000000000000000000035000002000000000000003000000000000000990000000000000298802017101600000010000000000000BRBBASACNOR3268
012017090678BBASJ82     070BBASE       ON      NM000R$  000000000018700000000001870000000000187000000000018700000000001870000000000115000000000000000002000000000000015000000000000002805000000000000318802017101600000010000000000000BRBBASACNOR3268
012017090678BBASJ93     070BBAS  FM    ON      NM000R$  000000000009100000000000950000000000090000000000009300000000000940000000000083000000000000000050000000000000042900000000000004010300000000000336302017101600000010000000000000BRBBASACNOR3269
012017090678BBASJ94     070BBAS  FM    ON      NM000R$  000000000005600000000000600000000000055000000000005800000000000600000000000045000000000006200018000000000000020000000000000001174600000000000346302017101600000010000000000000BRBBASACNOR3269
012017090678BBASK1      070BBASE       ON      NM000R$  000000000010500000000001140000000000105000000000010700000000001140000000000000000000000012000004000000000000002700000000000000290800000000000348802017112100000010000000000000BRBBASACNOR3267
012017090678BBASK32     070BBAS        ON      NM000R$  000000000023600000000002360000000000236000000000023600000000002360000000000000000000000000000001000000000000000200000000000000047200000000000321302017112100000010000000000000BRBBASACNOR3269
012017090678BBASK33     070BBAS        ON      NM000R$  000000000018500000000001850000000000185000000000018500000000001850000000000000000000000000000001000000000000000600000000000000111000000000000331302017112100000010000000000000BRBBASACNOR3269
012017090678BBASK34     070BBAS        ON      NM000R$  000000000014000000000001410000000000136000000000013900000000001410000000000000000000000019800005000000000000007700000000000001077100000000000341302017112100000010000000000000BRBBASACNOR3269
012017090678BBASL34     070BBAS        ON      NM000R$  000000000020000000000002000000000000200000000000020000000000002000000000000200000000000000000001000000000000001200000000000000240000000000000336302017121800000010000000000000BRBBASACNOR3267
012017090682BBASU10     080BBASE       ON      NM000R$  000000000015000000000001500000000000150000000000015000000000001500000000000000000000000000000002000000000000001700000000000000255000000000000260002018091700000010000000000000BRBBASACNOR3270
012017090682BBASU12     080BBASE       ON      NM000R$  000000000045000000000004500000000000450000000000045000000000004500000000000000000000000000000002000000000000001700000000000000765000000000000325002018091700000010000000000000BRBBASACNOR3270
012017090682BBASU28     080BBASE       ON      NM000R$  000000000000300000000000030000000000003000000000000300000000000030000000000002000000000000500001000000000000001000000000000000003000000000000276302017091800000010000000000000BRBBASACNOR3266
012017090682BBASU3      080BBASE       ON      NM000R$  000000000000400000000000040000000000004000000000000400000000000040000000000000000000000000000002000000000000008000000000000000032000000000000266302017091800000010000000000000BRBBASACNOR3263
012017090682BBASU31     080BBASE       ON      NM000R$  000000000001400000000000150000000000008000000000001000000000000090000000000008000000000000900104000000000000070000000000000000767400000000000306302017091800000010000000000000BRBBASACNOR3266
012017090682BBASU32     080BBASE       ON      NM000R$  000000000003500000000000350000000000020000000000002200000000000210000000000020000000000002600427000000000000319800000000000007156700000000000316302017091800000010000000000000BRBBASACNOR3267
012017090682BBASU33     080BBASE FM    ON      NM000R$  000000000008000000000000800000000000053000000000006100000000000530000000000000000000000005800027000000000000033400000000000002038600000000000326302017091800000010000000000000BRBBASACNOR3267
012017090682BBASU52     080BBASE       ON      NM000R$  000000000003800000000000410000000000032000000000003500000000000340000000000034000000000000000166000000000000130400000000000004587800000000000321302017091800000010000000000000BRBBASACNOR3269
012017090682BBASU60     080BBASE       ON      NM000R$  000000000001000000000000110000000000008000000000001000000000000090000000000007000000000011200004000000000000007100000000000000073400000000000301302017091800000010000000000000BRBBASACNOR3268
012017090682BBASU61     080BBASE       ON      NM000R$  000000000001100000000000120000000000010000000000001100000000000100000000000004000000000000000010000000000000008400000000000000096800000000000303802017091800000010000000000000BRBBASACNOR3266
012017090682BBASU81     080BBASE       ON      NM000R$  000000000002200000000000220000000000021000000000002100000000000210000000000000000000000000000003000000000000008000000000000000169000000000000313802017091800000010000000000000BRBBASACNOR3268
012017090682BBASU82     080BBASE FM    ON      NM000R$  000000000002600000000000310000000000026000000000002800000000000290000000000000000000000000000005000000000000009500000000000000271500000000000318802017091800000010000000000000BRBBASACNOR3269
012017090682BBASU91     080BBASE FM    ON      NM000R$  000000000001700000000000170000000000017000000000001700000000000170000000000000000000000000000001000000000000003000000000000000051000000000000308802017091800000010000000000000BRBBASACNOR3269
012017090682BBASU92     080BBASE       ON      NM000R$  000000000005000000000000500000000000050000000000005000000000000500000000000000000000000000000002000000000000001500000000000000075000000000000323802017091800000010000000000000BRBBASACNOR3269
012017090682BBASV1      080BBASE       ON      NM000R$  000000000007200000000000720000000000070000000000007100000000000700000000000000000000000000000004000000000000006300000000000000451000000000000316302017101600000010000000000000BRBBASACNOR3269
012017090682BBASV2      080BBASE       ON      NM000R$  000000000010700000000001070000000000105000000000010600000000001050000000000000000000000000000003000000000000016000000000000001710000000000000326302017101600000010000000000000BRBBASACNOR3269
012017090682BBASV27     080BBASE       ON      NM000R$  000000000000900000000000090000000000009000000000000900000000000090000000000009000000000001000001000000000000001000000000000000009000000000000271302017101600000010000000000000BRBBASACNOR3269
012017090682BBASV29     080BBASE       ON      NM000R$  000000000002200000000000220000000000022000000000002200000000000220000000000015000000000000000001000000000000000400000000000000008800000000000291302017101600000010000000000000BRBBASACNOR3269
012017090682BBASV31     080BBASE       ON      NM000R$  000000000006000000000000600000000000051000000000005100000000000510000000000042000000000012000009000000000000005000000000000000259700000000000311302017101600000010000000000000BRBBASACNOR3269
012017090682BBASV32     080BBASE       ON      NM000R$  000000000009400000000000940000000000082000000000008600000000000860000000000000000000000000000006000000000000038600000000000003323200000000000321302017101600000010000000000000BRBBASACNOR3269
012017090682BBASV33     080BBASE       ON      NM000R$  000000000013100000000001310000000000128000000000013000000000001280000000000106000000000030000004000000000000016000000000000002093000000000000331302017101600000010000000000000BRBBASACNOR3269
012017090682BBASV4      080BBASE       ON      NM000R$  000000000002500000000000250000000000023000000000002300000000000230000000000000000000000000000012000000000000002500000000000000059500000000000293802017101600000010000000000000BRBBASACNOR3262
012017090682BBASV58     080BBASE       ON      NM000R$  000000000001900000000000190000000000017000000000001700000000000170000000000000000000000000000003000000000000001600000000000000028400000000000286302017101600000010000000000000BRBBASACNOR3269
012017090682BBASV59     080BBASE       ON      NM000R$  000000000002600000000000260000000000026000000000002600000000000260000000000026000000000000000001000000000000015000000000000000390000000000000296302017101600000010000000000000BRBBASACNOR3269
012017090682BBASV60     080BBASE       ON      NM000R$  000000000004500000000000450000000000045000000000004500000000000450000000000001000000000000000001000000000000002600000000000000117000000000000306302017101600000010000000000000BRBBASACNOR3269
012017090682BBASV73     080BBASE FM    ON      NM000R$  000000000014800000000001480000000000116000000000012100000000001190000000000000000000000000000036000000000000064700000000000007840600000000000328802017101600000010000000000000BRBBASACNOR3269
012017090682BBASV78     080BBASE       ON      NM000R$  000000000002000000000000200000000000020000000000002000000000000200000000000005000000000000000002000000000000005000000000000000100000000000000283802017101600000010000000000000BRBBASACNOR3269
012017090682BBASV82     080BBASE FM    ON      NM000R$  000000000009800000000000980000000000075000000000007800000000000760000000000061000000000000000011000000000000021500000000000001678700000000000318802017101600000010000000000000BRBBASACNOR3268
012017090682BBASV93     080BBASE       ON      NM000R$  000000000015900000000001590000000000159000000000015900000000001590000000000000000000000000000002000000000000015000000000000002385000000000000336302017101600000010000000000000BRBBASACNOR3269
012017090682BBASW26     080BBASE       ON      NM000R$  000000000003000000000000330000000000025000000000002600000000000270000000000026000000000003100038000000000000106800000000000002793400000000000261302017112100000010000000000000BRBBASACNOR3269
012017090682BBASW31     080BBASE       ON      NM000R$  000000000011500000000001150000000000115000000000011500000000001150000000000000000000000000000001000000000000006300000000000000724500000000000311302017112100000010000000000000BRBBASACNOR3269
012017090682BBASW33     080BBASE       ON      NM000R$  000000000018300000000001830000000000182000000000018200000000001820000000000000000000000000000002000000000000001600000000000000291300000000000331302017112100000010000000000000BRBBASACNOR3269
012017090682BBASW71     080BBASE       ON      NM000R$  000000000009400000000000940000000000094000000000009400000000000940000000000085000000000000000001000000000000001500000000000000141000000000000308802017112100000010000000000000BRBBASACNOR3263
012017090682BBASW72     080BBASE       ON      NM000R$  000000000013800000000001380000000000138000000000013800000000001380000000000000000000000000000001000000000000003200000000000000441600000000000318802017112100000010000000000000BRBBASACNOR3269
012017090682BBASX75     080BBASE       ON      NM000R$  000000000035200000000003520000000000352000000000035200000000003520000000000302000000000000000001000000000000000100000000000000035200000000000353802017121800000010000000000000BRBBASACNOR3265
012017090602BBDC3       010BRADESCO    ON  EJ  N1   R$  000000000327000000000033400000000003270000000000331900000000033200000000003302000000000332008900000000000001465100000000004862836400000000000000009999123100000010000000000000BRBBDCACNOR1669
012017090696BBDC3F      020BRADESCO    ON  EJ  N1   R$  000000000320000000000033360000000003200000000000330900000000033110000000003287000000000331100069000000000000001716000000000005679022000000000000009999123100000010000000000000BRBBDCACNOR1669
012017090602BBDC4       010BRADESCO    PN  EJ  N1   R$  000000000340300000000034510000000003392000000000343700000000034270000000003427000000000343027659000000000015052100000000051742507000000000000000009999123100000010000000000000BRBBDCACNPR8669
012017090696BBDC4F      020BRADESCO    PN  EJ  N1   R$  000000000340000000000034500000000003378000000000343400000000034350000000003403000000000343500270000000000000006705000000000023025516000000000000009999123100000010000000000000BRBBDCACNPR8669
012017090662BBDC4T      030BRADESCO    PN  EJ  N1030R$  000000000347200000000034730000000003472000000000347200000000034730000000000000000000000000000004000000000000000400000000000001389108000000000000009999123100000010000000000000BRBBDCACNPR8669
012017090678BBDCI15     070BBDC    /EJ PN      N1000R$  000000000001500000000000190000000000014000000000001400000000000180000000000007000000000001800009000000000000024700000000000000367200000000000354402017091800000010000000000000BRBBDCACNPR8668
012017090678BBDCI21     070BBDC  FM/EJ PN      N1000R$  000000000003000000000000330000000000028000000000003000000000000310000000000003000000000003800024000000000000031700000000000000981700000000000349402017091800000010000000000000BRBBDCACNPR8668
012017090678BBDCI24     070BBDC  FM/EJ PN      N1000R$  000000000001000000000000100000000000010000000000001000000000000100000000000007000000000001200004000000000000003000000000000000030000000000000359402017091800000010000000000000BRBBDCACNPR8668
012017090678BBDCI32     070BBDC  FM/EJ PN      N1000R$  000000000019700000000002370000000000197000000000022500000000002300000000000000000000000000000016000000000000031200000000000007028300000000000322202017091800000010000000000000BRBBDCACNPR8664
012017090678BBDCI42     070BBDC  FM/EJ PN      N1000R$  000000000004000000000000620000000000040000000000005300000000000530000000000040000000000005500065000000000000139500000000000007425200000000000344402017091800000010000000000000BRBBDCACNPR8664
012017090678BBDCI51     070BBDC    /EJ PN      N1000R$  000000000046500000000004650000000000454000000000045900000000004540000000000001000000000000000003000000000000000700000000000000321800000000000299202017091800000010000000000000BRBBDCACNPR8665
012017090678BBDCI52     070BBDC  FM/EJ PN      N1000R$  000000000016800000000001920000000000168000000000018200000000001840000000000077000000000021100013000000000000025400000000000004646000000000000327202017091800000010000000000000BRBBDCACNPR8664
012017090678BBDCI53     070BBDC    /EJ PN      N1000R$  000000000009800000000001500000000000098000000000014000000000001450000000000035000000000019900006000000000000012100000000000001699000000000000332202017091800000010000000000000BRBBDCACNPR8664
012017090678BBDCI59     070BBDCE   /EJ PN      N1000R$  000000000116600000000011660000000001166000000000116600000000011660000000000000000000000000000002000000000000162140000000000189055240000000000228302017091800000010000000000000BRBBDCACNPR8645
012017090678BBDCI62     070BBDCE   /EJ PN      N1000R$  000000000048000000000004820000000000480000000000048000000000004820000000000001000000000000000003000000000000001800000000000000864900000000000296502017091800000010000000000000BRBBDCACNPR8662
012017090678BBDCJ16     070BBDC  FM/EJ PN      N1000R$  000000000024200000000002560000000000242000000000024700000000002520000000000170000000000000000008000000000000015130000000000003751940000000000325502017101600000010000000000000BRBBDCACNPR8662
012017090678BBDCJ17     070BBDC    /EJ PN      N1000R$  000000000010000000000001240000000000100000000000011200000000001240000000000000000000000014600011000000000000017100000000000001919000000000000344802017101600000010000000000000BRBBDCACNPR8668
012017090678BBDCJ19     070BBDC    /EJ PN      N1000R$  000000000006000000000000710000000000060000000000007000000000000710000000000060000000000007200003000000000000383000000000000026991000000000000354802017101600000010000000000000BRBBDCACNPR8668
012017090678BBDCJ20     070BBDC  FM/EJ PN      N1000R$  000000000003400000000000340000000000034000000000003400000000000340000000000000000000000003400002000000000000006000000000000000204000000000000366402017101600000010000000000000BRBBDCACNPR8655
012017090678BBDCJ23     070BBDC    /EJ PN      N1000R$  000000000048300000000004840000000000483000000000048300000000004840000000000000000000000000000002000000000000001800000000000000871100000000000298402017101600000010000000000000BRBBDCACNPR8667
012017090678BBDCJ35     070BBDC    /EJ PN      N1000R$  000000000016900000000001890000000000169000000000018000000000001840000000000000000000000000000003000000000000006000000000000001084000000000000334802017101600000010000000000000BRBBDCACNPR8667
012017090678BBDCJ38     070BBDC  FM/EJ PN      N1000R$  000000000014900000000001490000000000149000000000014900000000001490000000000000000000000000000001000000000000000200000000000000029800000000000339802017101600000010000000000000BRBBDCACNPR8667
012017090678BBDCJ41     070BBDC  FM/EJ PN      N1000R$  000000000009300000000000930000000000092000000000009200000000000920000000000000000000000000000002000000000000000700000000000000064500000000000349802017101600000010000000000000BRBBDCACNPR8667
012017090678BBDCJ43     070BBDC        PN      N1000R$  000000000116600000000011660000000001166000000000116600000000011660000000000000000000000000000002000000000000162100000000000189008600000000000245302018101500000010000000000000BRBBDCACNPR8669
012017090678BBDCJ96     070BBDC  FM/EJ PN      N1000R$  000000000003200000000000490000000000032000000000003500000000000440000000000040000000000000000004000000000000006500000000000000230000000000000362102017101600000010000000000000BRBBDCACNPR8668
012017090678BBDCK34     070BBDC    /EJ PN      N1000R$  000000000015000000000001570000000000150000000000015600000000001570000000000000000000000000000002000000000000001400000000000000218400000000000348102017112100000010000000000000BRBBDCACNPR8668
012017090678BBDCL41     070BBDC    /EJ PN      N1000R$  000000000010000000000001000000000000100000000000010000000000001000000000000000000000000000000001000000000000021000000000000002100000000000000373702017121800000010000000000000BRBBDCACNPR8660
012017090682BBDCM1      080BBDCE   /EJ PN      N1000R$  000000000005600000000000560000000000050000000000005200000000000530000000000052000000000005300376000000000000418440000000000022126060000000000284202018011500000010000000000000BRBBDCACNPR8659
012017090682BBDCU32     080BBDCE FM/EJ PN      N1000R$  000000000001100000000000110000000000007000000000000900000000000070000000000006000000000001000030000000000000042000000000000000417000000000000322202017091800000010000000000000BRBBDCACNPR8664
012017090682BBDCU40     080BBDCE   /EJ PN      N1000R$  000000000000100000000000040000000000001000000000000100000000000040000000000000000000000000400003000000000000020010000000000000020040000000000264702017091800000010000000000000BRBBDCACNPR8650
012017090682BBDCU42     080BBDCE FM/EJ PN      N1000R$  000000000006400000000000640000000000050000000000005200000000000570000000000020000000000005800045000000000000187800000000000009885100000000000344402017091800000010000000000000BRBBDCACNPR8664
012017090682BBDCU44     080BBDCE   /EJ PN      N1000R$  000000000000600000000000060000000000006000000000000600000000000060000000000003000000000000900001000000000000004000000000000000024000000000000310102017091800000010000000000000BRBBDCACNPR8662
012017090682BBDCU52     080BBDCE FM/EJ PN      N1000R$  000000000001700000000000170000000000010000000000001100000000000100000000000008000000000001400026000000000000083000000000000000988600000000000327202017091800000010000000000000BRBBDCACNPR8664
012017090682BBDCU53     080BBDCE   /EJ PN      N1000R$  000000000002800000000000280000000000015000000000001800000000000200000000000014000000000002000062000000000000174300000000000003300000000000000332202017091800000010000000000000BRBBDCACNPR8664
012017090682BBDCU60     080BBDCE FM/EJ PN      N1000R$  000000000000100000000000010000000000001000000000000100000000000010000000000001000000000000400001000000000000000100000000000000000100000000000308502017091800000010000000000000BRBBDCACNPR8667
012017090682BBDCU88     080BBDCE   /EJ PN      N1000R$  000000000000100000000000010000000000001000000000000100000000000010000000000001000000000000400001000000000000000010000000000000000010000000000301002017091800000010000000000000BRBBDCACNPR8650
012017090682BBDCU9      080BBDCE   /EJ PN      N1000R$  000000000000100000000000020000000000001000000000000100000000000020000000000001000000000000200008000000000000137700000000000000155700000000000255602017091800000010000000000000BRBBDCACNPR8649
012017090682BBDCV16     080BBDCE FM/EJ PN      N1000R$  000000000004300000000000430000000000043000000000004300000000000430000000000000000000000000000007000000000000030000000000000001290000000000000325502017101600000010000000000000BRBBDCACNPR8662
012017090682BBDCV17     080BBDCE   /EJ PN      N1000R$  000000000010500000000001050000000000105000000000010500000000001050000000000000000000000000000002000000000000005000000000000000525000000000000344802017101600000010000000000000BRBBDCACNPR8668
012017090682BBDCV23     080BBDCE   /EJ PN      N1000R$  000000000001600000000000160000000000016000000000001600000000000160000000000000000000000000000001000000000000002000000000000000032000000000000298402017101600000010000000000000BRBBDCACNPR8667
012017090682BBDCV27     080BBDCE   /EJ PN      N1000R$  000000000002200000000000220000000000020000000000002100000000000200000000000000000000000002200009000000000000014000000000000000304000000000000307502017101600000010000000000000BRBBDCACNPR8667
012017090682BBDCV29     080BBDCE   /EJ PN      N1000R$  000000000002200000000000220000000000022000000000002200000000000220000000000000000000000000000030000000000000050000000000000001100000000000000309602017101600000010000000000000BRBBDCACNPR8651
012017090682BBDCV30     080BBDCE   /EJ PN      N1000R$  000000000003200000000000340000000000030000000000003300000000000300000000000000000000000000000019000000000000052000000000000001721900000000000316602017101600000010000000000000BRBBDCACNPR8667
012017090682BBDCV33     080BBDCE   /EJ PN      N1000R$  000000000003500000000000350000000000035000000000003500000000000350000000000000000000000006500002000000000000002000000000000000070000000000000321202017101600000010000000000000BRBBDCACNPR8667
012017090682BBDCV34     080BBDCE   /EJ PN      N1000R$  000000000005500000000000560000000000055000000000005500000000000560000000000000000000000000000004000000000000016000000000000000886000000000000330502017101600000010000000000000BRBBDCACNPR8667
012017090682BBDCV38     080BBDCE FM/EJ PN      N1000R$  000000000008000000000000880000000000080000000000008300000000000820000000000000000000000000000036000000000000095700000000000007958800000000000339802017101600000010000000000000BRBBDCACNPR8667
012017090682BBDCV41     080BBDCE FM/EJ PN      N1000R$  000000000012700000000001300000000000126000000000012600000000001300000000000000000000000030000003000000000000003700000000000000469600000000000349802017101600000010000000000000BRBBDCACNPR8667
012017090682BBDCV84     080BBDCE   /EJ PN      N1000R$  000000000002800000000000280000000000026000000000002600000000000260000000000000000000000003000008000000000000482000000000000012732000000000000314102017101600000010000000000000BRBBDCACNPR8662
012017090682BBDCW12     080BBDCE   /EJ PN      N1000R$  000000000001100000000000140000000000011000000000001200000000000110000000000011000000000001400018000000000000033840000000000000424520000000000252402017112100000010000000000000BRBBDCACNPR8651
012017090682BBDCX35     080BBDCE   /EJ PN      N1000R$  000000000013400000000001340000000000134000000000013400000000001340000000000000000000000000000001000000000000021000000000000002814000000000000335002017121800000010000000000000BRBBDCACNPR8652
012017090682BBDCX62     080BBDCE   /EJ PN      N1000R$  000000000004500000000000450000000000045000000000004500000000000450000000000000000000000000000001000000000000100000000000000004500000000000000294102017121800000010000000000000BRBBDCACNPR8660
012017090612BBFI11B     010FII BB PROGRCI  ER  MB   R$  000000027499800000002750000000000268685000000027241300000002690000000000268690000000027200000018000000000000000083000000000022610309000000000000009999123100000010000000000000BRBBFICTF006246
012017090612BBPO11      010FII BB PRGIICI  ER       R$  000000001415900000000146000000000014099000000001424800000000142790000000014270000000001427902706000000000000024453000000000348411528000000000000009999123100000010000000000000BRBBPOCTF003158
012017090612BBRC11      010FII BB CORP CI  ER       R$  000000001297100000000130500000000012910000000001301600000000130500000000013000000000001305000037000000000000002607000000000033934540000000000000009999123100000010000000000000BRBBRCCTF004172
012017090602BBRK3       010BR BROKERS  ON      NM   R$  000000000010000000000001090000000000098000000000010100000000001080000000000106000000000010803108000000000006992600000000000713233500000000000000009999123100000010000000000000BRBBRKACNOR4111
012017090696BBRK3F      020BR BROKERS  ON      NM   R$  000000000010900000000001130000000000107000000000010900000000001130000000000102000000000011300004000000000000000074000000000000008078000000000000009999123100000010000000000000BRBBRKACNOR4111
012017090662BBRK3T      030BR BROKERS  ON      NM030R$  000000000010000000000001010000000000100000000000010000000000001010000000000000000000000000000004000000000000100000000000000010066500000000000000009999123100000010000000000000BRBBRKACNOR4111
012017090662BBRK3T      030BR BROKERS  ON      NM034R$  000000000010000000000001010000000000100000000000010000000000001010000000000000000000000000000002000000000000050000000000000005035000000000000000009999123100000010000000000000BRBBRKACNOR4111
012017090662BBRK3T      030BR BROKERS  ON      NM061R$  000000000010100000000001020000000000101000000000010100000000001020000000000000000000000000000002000000000000020000000000000002025000000000000000009999123100000010000000000000BRBBRKACNOR4111
012017090662BBRK3T      030BR BROKERS  ON      NM090R$  000000000010100000000001020000000000101000000000010100000000001020000000000000000000000000000004000000000000030000000000000003054600000000000000009999123100000010000000000000BRBBRKACNOR4111
012017090614BBSD11      010BB ETF SP DVCI           R$  000000000574900000000057520000000005735000000000574200000000057520000000005700000000000000000004000000000000000300000000000001722660000000000000009999123100000010000000000000BRBBSDCTF000100
012017090602BBSE3       010BBSEGURIDADEON      NM   R$  000000000285400000000028800000000002838000000000286600000000028720000000002870000000000287212974000000000004146700000000011888364700000000000000009999123100000010000000000000BRBBSEACNOR5109
012017090696BBSE3F      020BBSEGURIDADEON      NM   R$  000000000285000000000028880000000002843000000000286400000000028880000000002870000000000288800337000000000000005789000000000016585527000000000000009999123100000010000000000000BRBBSEACNOR5109
012017090662BBSE3T      030BBSEGURIDADEON      NM090R$  000000000292200000000029270000000002922000000000292300000000029270000000000000000000000000000004000000000000000250000000000000730762000000000000009999123100000010000000000000BRBBSEACNOR5109
012017090678BBSEI27     070BBSE  FM    ON      NM000R$  000000000022000000000002300000000000215000000000022400000000002290000000000000000000000024000008000000000000006800000000000001528500000000000265302017091800000010000000000000BRBBSEACNOR5108
012017090678BBSEI28     070BBSE  FM    ON      NM000R$  000000000013000000000001320000000000122000000000012500000000001320000000000016000000000000000008000000000000017500000000000002198500000000000275302017091800000010000000000000BRBBSEACNOR5108
012017090678BBSEI29     070BBSE  FM    ON      NM000R$  000000000004900000000000580000000000049000000000005200000000000580000000000015000000000006200019000000000000054200000000000002847100000000000285302017091800000010000000000000BRBBSEACNOR5108
012017090678BBSEI30     070BBSE  FM    ON      NM000R$  000000000001100000000000170000000000011000000000001200000000000170000000000012000000000002000003000000000000008300000000000000104300000000000295302017091800000010000000000000BRBBSEACNOR5108
012017090678BBSEI50     070BBSE        ON      NM000R$  000000000008900000000000890000000000089000000000008900000000000890000000000000000000000015000001000000000000000300000000000000026700000000000280302017091800000010000000000000BRBBSEACNOR5106
012017090678BBSEI57     070BBSE        ON      NM000R$  000000000017000000000001800000000000170000000000017500000000001800000000000078000000000019000002000000000000001000000000000000175000000000000270302017091800000010000000000000BRBBSEACNOR5108
012017090678BBSEI59     070BBSE        ON      NM000R$  000000000002700000000000320000000000027000000000002800000000000320000000000000000000000003200008000000000000033000000000000000952000000000000290302017091800000010000000000000BRBBSEACNOR5108
012017090678BBSEJ1      070BBSE  FM    ON      NM000R$  000000000002500000000000250000000000025000000000002500000000000250000000000000000000000000000001000000000000001000000000000000025000000000000308602017101600000010000000000000BRBBSEACNOR5108
012017090678BBSEJ28     070BBSE        ON      NM000R$  000000000019200000000001920000000000192000000000019200000000001920000000000000000000000000000001000000000000003000000000000000576000000000000273602017101600000010000000000000BRBBSEACNOR5108
012017090678BBSEJ29     070BBSE        ON      NM000R$  000000000011500000000001150000000000115000000000011500000000001150000000000000000000000000000002000000000000001500000000000000172500000000000283602017101600000010000000000000BRBBSEACNOR5108
012017090678BBSEJ30     070BBSE        ON      NM000R$  000000000006500000000000650000000000065000000000006500000000000650000000000000000000000000000001000000000000000500000000000000032500000000000293602017101600000010000000000000BRBBSEACNOR5108
012017090678BBSEJ31     070BBSE        ON      NM000R$  000000000003500000000000360000000000035000000000003500000000000360000000000000000000000004000003000000000000066600000000000002395600000000000303602017101600000010000000000000BRBBSEACNOR5108
012017090678BBSEJ59     070BBSEE       ON      NM000R$  000000000007400000000000850000000000074000000000007600000000000850000000000017000000000000000005000000000000017300000000000001323300000000000291102017101600000010000000000000BRBBSEACNOR5108
012017090678BBSEJ60     070BBSE  FM    ON      NM000R$  000000000005100000000000560000000000051000000000005100000000000560000000000000000000000000000012000000000000054000000000000002797400000000000298602017101600000010000000000000BRBBSEACNOR5108
012017090678BBSEJ67     070BBSE  FM    ON      NM000R$  000000000022200000000002220000000000222000000000022200000000002220000000000000000000000024000001000000000000000500000000000000111000000000000268602017101600000010000000000000BRBBSEACNOR5108
012017090678BBSEJ69     070BBSE  FM    ON      NM000R$  000000000008700000000000880000000000087000000000008700000000000880000000000094000000000010100003000000000000005700000000000000496600000000000288602017101600000010000000000000BRBBSEACNOR5108
012017090678BBSEK1      070BBSE        ON      NM000R$  000000000006600000000000660000000000066000000000006600000000000660000000000000000000000000000001000000000000001000000000000000066000000000000307102017112100000010000000000000BRBBSEACNOR5108
012017090678BBSEK60     070BBSE        ON      NM000R$  000000000010400000000001040000000000104000000000010400000000001040000000000000000000000000000001000000000000000600000000000000062400000000000297102017112100000010000000000000BRBBSEACNOR5108
012017090682BBSEU23     080BBSEE       ON      NM000R$  000000000001400000000000140000000000002000000000000800000000000020000000000000000000000000000005000000000000003600000000000000031200000000000225302017091800000010000000000000BRBBSEACNOR5108
012017090682BBSEU25     080BBSEE       ON      NM000R$  000000000000100000000000010000000000001000000000000100000000000010000000000000000000000000100001000000000000000500000000000000000500000000000245302017091800000010000000000000BRBBSEACNOR5108
012017090682BBSEU26     080BBSEE FM    ON      NM000R$  000000000000200000000000020000000000002000000000000200000000000020000000000000000000000000000001000000000000000200000000000000000400000000000255302017091800000010000000000000BRBBSEACNOR5108
012017090682BBSEU28     080BBSEE FM    ON      NM000R$  000000000001000000000000100000000000010000000000001000000000000100000000000008000000000001100002000000000000020000000000000000200000000000000275302017091800000010000000000000BRBBSEACNOR5108
012017090682BBSEU29     080BBSEE FM    ON      NM000R$  000000000003600000000000360000000000036000000000003600000000000360000000000000000000000003700001000000000000005000000000000000180000000000000285302017091800000010000000000000BRBBSEACNOR5108
012017090682BBSEU55     080BBSEE       ON      NM000R$  000000000000100000000000010000000000001000000000000100000000000010000000000000000000000000100001000000000000024000000000000000024000000000000250302017091800000010000000000000BRBBSEACNOR5108
012017090682BBSEU56     080BBSEE       ON      NM000R$  000000000000300000000000030000000000003000000000000300000000000030000000000000000000000000000001000000000000004000000000000000012000000000000260302017091800000010000000000000BRBBSEACNOR5108
012017090682BBSEV29     080BBSEE       ON      NM000R$  000000000006400000000000640000000000064000000000006400000000000640000000000000000000000000000001000000000000064600000000000004134400000000000283602017101600000010000000000000BRBBSEACNOR5108
012017090682BBSEV56     080BBSEE FM    ON      NM000R$  000000000001600000000000160000000000016000000000001600000000000160000000000000000000000000000002000000000000010000000000000000160000000000000258602017101600000010000000000000BRBBSEACNOR5108
012017090682BBSEV57     080BBSEE       ON      NM000R$  000000000002800000000000280000000000028000000000002800000000000280000000000000000000000008000002000000000000064600000000000001808800000000000271102017101600000010000000000000BRBBSEACNOR5108
012017090682BBSEV58     080BBSEE FM    ON      NM000R$  000000000004600000000000460000000000046000000000004600000000000460000000000011000000000000000001000000000000003000000000000000138000000000000278602017101600000010000000000000BRBBSEACNOR5108
012017090682BBSEV67     080BBSEE FM    ON      NM000R$  000000000002900000000000290000000000029000000000002900000000000290000000000010000000000000000001000000000000000800000000000000023200000000000268602017101600000010000000000000BRBBSEACNOR5108
012017090682BBSEW58     080BBSEE       ON      NM000R$  000000000008100000000000810000000000075000000000007800000000000750000000000000000000000000000002000000000000002000000000000000156000000000000277102017112100000010000000000000BRBBSEACNOR5108
012017090602BBTG12      010BTG PACTUAL UNT          R$  000000000003900000000000450000000000037000000000004100000000000400000000000039000000000004001746000000000015771100000000000651838200000000000000009999123100000010000000000000BRBBTGUNT015100
012017090696BBTG12F     020BTG PACTUAL UNT          R$  000000000003800000000000490000000000038000000000004200000000000430000000000043000000000005000023000000000000000532000000000000022616000000000000009999123100000010000000000000BRBBTGUNT015100
012017090602BBTG35      010BTG PACTUAL DR3 B        R$  000000000002400000000000240000000000020000000000002100000000000200000000000020000000000002400077000000000000168400000000000003582600000000000000009999123100000010000000000000BRBBTGBDR010100
012017090602BBTG36      010BTG PACTUAL DR3 A        R$  000000000002500000000000300000000000022000000000002400000000000270000000000024000000000002800244000000000000074400000000000001815100000000000000009999123100000010000000000000BRBBTGBDR002100
012017090612BBVJ11      010FII C JARDIMCI  ER       R$  000000000600400000000060250000000005951000000000599600000000060250000000006025000000000607500017000000000000000865000000000005186867000000000000009999123100000010000000000000BRBBVJCTF001181
012017090612BCFF11B     010FII BC FFII CI      MB   R$  000000000699100000000070210000000006970000000000698800000000069760000000006976000000000702100110000000000000018159000000000126909963000000000000009999123100000010000000000000BRBCFFCTF000190
012017090612BCRI11      010FII BEES CRICI  ER       R$  000000001068900000000106900000000010515000000001060100000000106600000000010571000000001066000066000000000000002342000000000024828754000000000000009999123100000010000000000000BRBCRICTF009128
012017090602BDLL4       010BARDELLA    PN           R$  000000000345000000000034990000000003450000000000347400000000034990000000003122000000000355000002000000000000000200000000000000694900000000000000009999123100000010000000000000BRBDLLACNPR8151
012017090602BEEF3       010MINERVA     ON      NM   R$  000000000114000000000011580000000001125000000000114100000000011450000000001140000000000114508027000000000003257400000000003719164800000000000000009999123100000010000000000000BRBEEFACNOR6107
012017090696BEEF3F      020MINERVA     ON      NM   R$  000000000114800000000011800000000001127000000000114500000000011800000000001131000000000118000072000000000000002044000000000002342039000000000000009999123100000010000000000000BRBEEFACNOR6107
012017090602BEES3       010BANESTES    ON  EJ       R$  000000000037300000000003790000000000366000000000037200000000003740000000000370000000000037500035000000000000014300000000000005325000000000000000009999123100000010000000000000BRBEESACNOR9300
012017090696BEES3F      020BANESTES    ON  EJ       R$  000000000037400000000003820000000000374000000000037400000000003820000000000382000000000041500008000000000000000092000000000000034440000000000000009999123100000010000000000000BRBEESACNOR9300
012017090602BEES4       010BANESTES    PN  EJ       R$  000000000037800000000003780000000000378000000000037800000000003780000000000365000000000037800001000000000000000100000000000000037800000000000000009999123100000010000000000000BRBEESACNPR6225
012017090602BGIP4       010BANESE      PN           R$  000000000324000000000032900000000003187000000000324700000000032900000000003200000000000330000014000000000000002000000000000006495900000000000000009999123100000010000000000000BRBGIPACNPR8192
012017090602BIOM3       010BIOMM       ON      MA   R$  000000000123300000000012330000000001233000000000123300000000012330000000001210000000000124900003000000000000002200000000000002712600000000000000009999123100000010000000000000BRBIOMACNOR2105
012017090696BIOM3F      020BIOMM       ON      MA   R$  000000000123000000000012300000000001230000000000123000000000012300000000001220000000000130000001000000000000000002000000000000002460000000000000009999123100000010000000000000BRBIOMACNOR2105
012017090602BMEB4       010MERC BRASIL PN           R$  000000000050000000000005050000000000500000000000050400000000005050000000000505000000000050600007000000000000003100000000000001564200000000000000009999123100000010000000000000BRBMEBACNPR5198
012017090696BMEB4F      020MERC BRASIL PN           R$  000000000049800000000004980000000000498000000000049800000000004980000000000463000000000049800001000000000000000005000000000000002490000000000000009999123100000010000000000000BRBMEBACNPR5198
012017090602BMIN4       010MERC INVEST PN           R$  000000000005000000000000510000000000049000000000004900000000000490000000000049000000000005000038000000000000276000000000000013621000000000000000009999123100000010000000000000BRBMINACNPR1166
012017090696BMIN4F      020MERC INVEST PN           R$  000000000005000000000000510000000000050000000000005000000000000510000000000050000000000005100007000000000000001254000000000000062972000000000000009999123100000010000000000000BRBMINACNPR1166
012017090602BMKS3       010BIC MONARK  ON           R$  000000003450000000000345000000000032500000000003393800000000344000000000034100000000003500000014000000000000000050000000000001696900000000000000009999123100000010000000000000BRBMKSACNOR9159
012017090612BMLC11B     010FII BMBRC LCCI      MB   R$  000000000839600000000086270000000008396000000000844300000000086270000000008400000000000862700007000000000000000166000000000001401663000000000000009999123100000010000000000000BRBMLCCTF004166
012017090612BNFS11      010FII BANRISULCI  ER       R$  000000001121000000000112100000000011210000000001121000000000112100000000011014000000001121000001000000000000000080000000000000896800000000000000009999123100000010000000000000BRBNFSCTF000160
012017090602BOAC34      010BANK AMERICADRN ED       R$  000000000724400000000072990000000007244000000000725700000000072990000000000000000000000729900007000000000000001000000000000007257100000000000000009999123100000010000000000000BRBOACBDR004128
012017090602BOBR4       010BOMBRIL     PN           R$  000000000050000000000005090000000000481000000000049500000000005090000000000493000000000050900144000000000000102600000000000050827300000000000000009999123100000010000000000000BRBOBRACNPR3128
012017090696BOBR4F      020BOMBRIL     PN           R$  000000000050100000000005010000000000501000000000050100000000005010000000000496000000000050000001000000000000000019000000000000009519000000000000009999123100000010000000000000BRBOBRACNPR3128
012017090614BOVA11      010ISHARES BOVACI           R$  000000000704000000000071150000000007035000000000708500000000070950000000007080000000000709517952000000000003193570000000022628937490000000000000009999123100000010000000000000BRBOVACTF003103
012017090696BOVA11F     020ISHARES BOVACI           R$  000000000700000000000071100000000007000000000000707500000000071070000000007110000000000729000022000000000000000108000000000000764118000000000000009999123100000010000000000000BRBOVACTF003103
012017090662BOVA11T     030ISHARES BOVACI        180R$  000000000739700000000073980000000007397000000000739700000000073980000000000000000000000000000002000000000000000100000000000000739782000000000000009999123100000010000000000000BRBOVACTF003103
012017090678BOVAI64     070BOVA        CI        000R$  000000000070000000000007000000000000570000000000069900000000005700000000000000000000000000000003000000000000002210000000000001545700000000000640002017091800000010000000000000BRBOVACTF003103
012017090678BOVAI65     070BOVA        CI        000R$  000000000060000000000006200000000000600000000000061400000000006200000000000000000000000000000002000000000000005500000000000003378000000000000650002017091800000010000000000000BRBOVACTF003103
012017090678BOVAI66     070BOVA        CI        000R$  000000000045700000000005020000000000457000000000048100000000005020000000000000000000000000000003000000000000003900000000000001877700000000000660002017091800000010000000000000BRBOVACTF003103
012017090678BOVAI67     070BOVA        CI        000R$  000000000038100000000003810000000000381000000000038100000000003810000000000381000000000000000003000000000000000700000000000000266700000000000670002017091800000010000000000000BRBOVACTF003103
012017090678BOVAI68     070BOVA  FM    CI        000R$  000000000029000000000003280000000000285000000000030100000000003280000000000000000000000000000007000000000000003700000000000001115100000000000680002017091800000010000000000000BRBOVACTF003102
012017090678BOVAI69     070BOVA  FM    CI        000R$  000000000019000000000002260000000000188000000000020800000000002260000000000000000000000000000008000000000000004050000000000000843700000000000690002017091800000010000000000000BRBOVACTF003103
012017090678BOVAI70     070BOVA  FM    CI        000R$  000000000011500000000001580000000000115000000000013900000000001580000000000000000000000000000015000000000000010700000000000001488700000000000700002017091800000010000000000000BRBOVACTF003103
012017090678BOVAI71     070BOVA  FM    CI        000R$  000000000006500000000000900000000000057000000000007700000000000900000000000020000000000009000025000000000000018000000000000001389400000000000710002017091800000010000000000000BRBOVACTF003103
012017090678BOVAI72     070BOVA  FM    CI        000R$  000000000004400000000000470000000000044000000000004600000000000470000000000000000000000000000002000000000000001030000000000000048320000000000720002017091800000010000000000000BRBOVACTF003103
012017090678BOVAJ64     070BOVA        CI        000R$  000000000063800000000007310000000000638000000000068000000000007310000000000000000000000000000016000000000000011700000000000007966000000000000640002017101600000010000000000000BRBOVACTF003103
012017090678BOVAJ67     070BOVA        CI        000R$  000000000046400000000004820000000000464000000000046400000000004820000000000000000000000000000002000000000000001700000000000000789700000000000670002017101600000010000000000000BRBOVACTF003103
012017090678BOVAJ68     070BOVA  FM    CI        000R$  000000000032600000000004050000000000326000000000037200000000003980000000000000000000000000000006000000000000021850000000000008144500000000000680002017101600000010000000000000BRBOVACTF003103
012017090678BOVAJ69     070BOVA  FM    CI        000R$  000000000030200000000003270000000000291000000000030200000000003270000000000323000000000000000009000000000000004600000000000001393200000000000690002017101600000010000000000000BRBOVACTF003103
012017090678BOVAJ70     070BOVA  FM    CI        000R$  000000000022500000000002550000000000222000000000024900000000002490000000000252000000000000000018000000000000019100000000000004774900000000000700002017101600000010000000000000BRBOVACTF003103
012017090678BOVAJ71     070BOVA  FM    CI        000R$  000000000018600000000001980000000000186000000000019200000000001900000000000190000000000000000010000000000000015500000000000002977000000000000710002017101600000010000000000000BRBOVACTF003103
012017090678BOVAJ72     070BOVA  FM    CI        000R$  000000000011200000000001350000000000112000000000012000000000001350000000000000000000000000000013000000000000004700000000000000564300000000000720002017101600000010000000000000BRBOVACTF003103
012017090682BOVAM57     080BOVAE       CI        000R$  000000000004300000000000440000000000036000000000003800000000000370000000000037000000000004100376000000000000760620000000000029530220000000000570002018011500000010000000000000BRBOVACTF003103
012017090682BOVAU52     080BOVAE       CI        000R$  000000000000100000000000010000000000001000000000000100000000000010000000000000000000000000100005000000000000030000000000000000030000000000000520002017091800000010000000000000BRBOVACTF003103
012017090682BOVAU60     080BOVAE       CI        000R$  000000000000400000000000040000000000004000000000000400000000000040000000000004000000000000600004000000000000112800000000000000451200000000000600002017091800000010000000000000BRBOVACTF003103
012017090682BOVAU65     080BOVAE       CI        000R$  000000000000400000000000040000000000004000000000000400000000000040000000000004000000000004000001000000000000002500000000000000010000000000000650002017091800000010000000000000BRBOVACTF003103
012017090682BOVAU67     080BOVAE FM    CI        000R$  000000000001000000000000100000000000009000000000000900000000000090000000000008000000000005100003000000000000003000000000000000029000000000000670002017091800000010000000000000BRBOVACTF003103
012017090682BOVAU68     080BOVAE FM    CI        000R$  000000000001700000000000170000000000014000000000001500000000000140000000000013000000000002900007000000000000003700000000000000055900000000000680002017091800000010000000000000BRBOVACTF003102
012017090682BOVAU69     080BOVAE FM    CI        000R$  000000000003000000000000310000000000023000000000002900000000000230000000000024000000000000000013000000000000055500000000000001654500000000000690002017091800000010000000000000BRBOVACTF003103
012017090682BOVAU70     080BOVAE FM    CI        000R$  000000000005600000000000580000000000042000000000005200000000000420000000000037000000000005300021000000000000036040000000000001881720000000000700002017091800000010000000000000BRBOVACTF003103
012017090682BOVAU71     080BOVAE       CI        000R$  000000000008500000000000870000000000051000000000007100000000000510000000000050000000000009300004000000000000036500000000000002594500000000000710002017091800000010000000000000BRBOVACTF003103
012017090682BOVAV48     080BOVAE       CI        000R$  000000000000200000000000020000000000002000000000000200000000000020000000000000000000000000000003000000000000019500000000000000039000000000000480002017101600000010000000000000BRBOVACTF003103
012017090682BOVAV60     080BOVAE       CI        000R$  000000000001200000000000120000000000010000000000001100000000000100000000000008000000000000000021000000000000306000000000000003444000000000000600002017101600000010000000000000BRBOVACTF003103
012017090682BOVAV62     080BOVAE       CI        000R$  000000000002200000000000220000000000018000000000001900000000000200000000000020000000000002100157000000000000394120000000000007515450000000000620002017101600000010000000000000BRBOVACTF003103
012017090682BOVAV64     080BOVAE       CI        000R$  000000000002800000000000280000000000023000000000002400000000000240000000000022000000000000000008000000000000100000000000000002414000000000000640002017101600000010000000000000BRBOVACTF003103
012017090682BOVAV65     080BOVAE       CI        000R$  000000000003100000000000310000000000031000000000003100000000000310000000000000000000000002700001000000000000010000000000000000310000000000000650002017101600000010000000000000BRBOVACTF003103
012017090682BOVAV66     080BOVAE       CI        000R$  000000000003200000000000330000000000032000000000003200000000000330000000000000000000000003500004000000000000006650000000000000216350000000000660002017101600000010000000000000BRBOVACTF003103
012017090682BOVAV67     080BOVAE FM    CI        000R$  000000000005500000000000560000000000043000000000004600000000000460000000000035000000000005000012000000000000023700000000000001105900000000000670002017101600000010000000000000BRBOVACTF003103
012017090682BOVAV68     080BOVAE FM    CI        000R$  000000000006500000000000660000000000056000000000006000000000000570000000000000000000000006300025000000000000039550000000000002373050000000000680002017101600000010000000000000BRBOVACTF003103
012017090682BOVAV69     080BOVAE FM    CI        000R$  000000000009000000000000910000000000077000000000008100000000000820000000000000000000000008200022000000000000041650000000000003373650000000000690002017101600000010000000000000BRBOVACTF003103
012017090682BOVAV70     080BOVAE FM    CI        000R$  000000000012300000000001250000000000105000000000011200000000001090000000000000000000000010900051000000000000056500000000000006334200000000000700002017101600000010000000000000BRBOVACTF003103
012017090682BOVAX66     080BOVAE       CI        000R$  000000000006300000000000630000000000063000000000006300000000000630000000000000000000000000000001000000000000000200000000000000012600000000000660002017121800000010000000000000BRBOVACTF003103
012017090682BOVAX70     080BOVAE       CI        000R$  000000000016000000000001600000000000160000000000016000000000001600000000000000000000000000000002000000000000000210000000000000033600000000000700002017121800000010000000000000BRBOVACTF003103
012017090682BOVAX71     080BOVAE       CI        000R$  000000000023000000000002300000000000230000000000023000000000002300000000000000000000000000000001000000000000000200000000000000046000000000000710002017121800000010000000000000BRBOVACTF003103
012017090614BOVV11      010IT NOW IBOV CI           R$  000000000736500000000073650000000007348000000000734900000000073480000000007348000000000740000003000000000000034800000000000255756300000000000000009999123100000010000000000000BRBOVVCTF009100
012017090602BPAC11      010BTGP BANCO  UNT          R$  000000000189000000000019290000000001872000000000190000000000018840000000001884000000000191001850000000000001688800000000003210323600000000000000009999123100000010000000000000BRBPACUNT006101
012017090696BPAC11F     020BTGP BANCO  UNT          R$  000000000188000000000019050000000001822000000000187800000000018560000000001856000000000199900015000000000000000367000000000000689464000000000000009999123100000010000000000000BRBPACUNT006101
012017090602BPAC3       010BTGP BANCO  ON           R$  000000000104000000000010400000000001040000000000104000000000010400000000000860000000000110000002000000000000000200000000000000208000000000000000009999123100000010000000000000BRBPACACNOR7116
012017090602BPAC5       010BTGP BANCO  PNA          R$  000000000070000000000007000000000000685000000000069000000000006850000000000685000000000073700004000000000000000800000000000000552500000000000000009999123100000010000000000000BRBPACACNPA0116
012017090602BPAN4       010BANCO PAN   PN      N1   R$  000000000018800000000001950000000000186000000000019100000000001950000000000193000000000019500190000000000000357100000000000068484100000000000000009999123100000010000000000000BRBPANACNPR1104
012017090696BPAN4F      020BANCO PAN   PN      N1   R$  000000000018600000000001940000000000186000000000018800000000001920000000000192000000000019600008000000000000000341000000000000064392000000000000009999123100000010000000000000BRBPANACNPR1104
012017090612BPFF11      010FII ABSOLUTOCI  ER       R$  000000000951400000000095500000000009490000000000953000000000095500000000009401000000000955000043000000000000001301000000000012399289000000000000009999123100000010000000000000BRBPFFCTF002154
012017090602BPHA3       010BR PHARMA   ON      NM   R$  000000000050300000000005070000000000500000000000050100000000005010000000000501000000000050600032000000000000010100000000000005069000000000000000009999123100000010000000000000BRBPHAACNOR6105
012017090696BPHA3F      020BR PHARMA   ON      NM   R$  000000000050000000000005000000000000500000000000050000000000005000000000000495000000000050500004000000000000000036000000000000018000000000000000009999123100000010000000000000BRBPHAACNOR6105
012017090602BRAP3       010BRADESPAR   ON      N1   R$  000000000236500000000023740000000002345000000000236600000000023470000000002347000000000236500037000000000000040700000000000096330200000000000000009999123100000010000000000000BRBRAPACNOR5131
012017090696BRAP3F      020BRADESPAR   ON      N1   R$  000000000235700000000023680000000002357000000000236700000000023680000000002311000000000240100003000000000000000076000000000000179924000000000000009999123100000010000000000000BRBRAPACNOR5131
012017090602BRAP4       010BRADESPAR   PN      N1   R$  000000000277000000000027930000000002732000000000275900000000027700000000002770000000000277111637000000000002818800000000007779629000000000000000009999123100000010000000000000BRBRAPACNPR2131
012017090696BRAP4F      020BRADESPAR   PN      N1   R$  000000000279900000000028690000000002745000000000277400000000027930000000002745000000000279300050000000000000001515000000000004202643000000000000009999123100000010000000000000BRBRAPACNPR2131
012017090662BRAP4T      030BRADESPAR   PN      N1030R$  000000000278800000000027890000000002788000000000278800000000027890000000000000000000000000000002000000000000004600000000000012827371000000000000009999123100000010000000000000BRBRAPACNPR2131
012017090614BRAX11      010ISHARES BRAXCI           R$  000000000599000000000059900000000005984000000000598600000000059840000000005984000000000623700005000000000000000090000000000000538740000000000000009999123100000010000000000000BRBRAXCTF002100
012017090612BRCR11      010FII BC FUND CI           R$  000000000940000000000095750000000009355000000000947800000000095700000000009570000000000957502322000000000000059867000000000567477011000000000000009999123100000010000000000000BRBRCRCTF000180
012017090602BRFS3       010BRF SA      ON      NM   R$  000000000449300000000045100000000004450000000000448700000000044980000000004495000000000449810569000000000002298200000000010313256800000000000000009999123100000010000000000000BRBRFSACNOR8117
012017090696BRFS3F      020BRF SA      ON      NM   R$  000000000446200000000045030000000004451000000000448700000000045030000000004450000000000450300371000000000000003784000000000016981943000000000000009999123100000010000000000000BRBRFSACNOR8117
012017090662BRFS3T      030BRF SA      ON      NM016R$  000000000451200000000045130000000004512000000000451200000000045130000000000000000000000000000002000000000000004000000000000018048431000000000000009999123100000010000000000000BRBRFSACNOR8117
012017090662BRFS3T      030BRF SA      ON      NM061R$  000000000454400000000045450000000004544000000000454400000000045450000000000000000000000000000002000000000000005000000000000022722744000000000000009999123100000010000000000000BRBRFSACNOR8117
012017090678BRFSI12     070BRFS  FM    ON      NM000R$  000000000020000000000002230000000000200000000000020800000000002230000000000180000000000022500007000000000000009200000000000001918800000000000429502017091800000010000000000000BRBRFSACNOR8117
012017090678BRFSI13     070BRFS  FM    ON      NM000R$  000000000012500000000001390000000000125000000000013800000000001390000000000000000000000017400003000000000000002600000000000000359500000000000439502017091800000010000000000000BRBRFSACNOR8117
012017090678BRFSI14     070BRFS  FM    ON      NM000R$  000000000006800000000000680000000000066000000000006600000000000660000000000000000000000015000007000000000000012700000000000000848400000000000449502017091800000010000000000000BRBRFSACNOR8117
012017090678BRFSI25     070BRFS        ON      NM000R$  000000000003600000000000360000000000036000000000003600000000000360000000000000000000000000000001000000000000000500000000000000018000000000000454502017091800000010000000000000BRBRFSACNOR8117
012017090678BRFSI40     070BRFS        ON      NM000R$  000000000043800000000004380000000000438000000000043800000000004380000000000450000000000060500001000000000000000200000000000000087600000000000404502017091800000010000000000000BRBRFSACNOR8117
012017090678BRFSI42     070BRFS        ON      NM000R$  000000000026500000000002650000000000265000000000026500000000002650000000000001000000000027500001000000000000000100000000000000026500000000000424502017091800000010000000000000BRBRFSACNOR8117
012017090678BRFSJ16     070BRFS        ON      NM000R$  000000000007200000000000720000000000071000000000007100000000000710000000000005000000000000000003000000000000002500000000000000177900000000000465002017101600000010000000000000BRBRFSACNOR8117
012017090678BRFSJ44     070BRFS  FM    ON      NM000R$  000000000019300000000001930000000000193000000000019300000000001930000000000000000000000000000003000000000000005000000000000000965000000000000440002017101600000010000000000000BRBRFSACNOR8117
012017090678BRFSJ45     070BRFS  FM    ON      NM000R$  000000000013300000000001380000000000133000000000013300000000001380000000000000000000000000000003000000000000004900000000000000654200000000000450002017101600000010000000000000BRBRFSACNOR8117
012017090678BRFSJ46     070BRFS  FM    ON      NM000R$  000000000008900000000000890000000000089000000000008900000000000890000000000000000000000000000001000000000000200000000000000017800000000000000460002017101600000010000000000000BRBRFSACNOR8117
012017090678BRFSJ47     070BRFS  FM    ON      NM000R$  000000000005600000000000560000000000056000000000005600000000000560000000000000000000000006200001000000000000000300000000000000016800000000000470002017101600000010000000000000BRBRFSACNOR8117
012017090678BRFSJ6      070BRFSE       ON      NM000R$  000000000007500000000000780000000000075000000000007700000000000780000000000000000000000000000002000000000000001500000000000000115500000000000462502017101600000010000000000000BRBRFSACNOR8117
012017090602BRIN3       010BR INSURANCEON      NM   R$  000000000167900000000017180000000001679000000000169800000000017010000000001689000000000170100018000000000000002200000000000003737300000000000000009999123100000010000000000000BRBRINACNOR3111
012017090696BRIN3F      020BR INSURANCEON      NM   R$  000000000164200000000017020000000001641000000000167800000000017020000000001700000000000172000004000000000000000134000000000000224983000000000000009999123100000010000000000000BRBRINACNOR3111
012017090602BRIV3       010ALFA INVEST ON           R$  000000000047600000000004920000000000476000000000047600000000004910000000000463000000000049200014000000000000013600000000000006484000000000000000009999123100000010000000000000BRBRIVACNOR6205
012017090696BRIV3F      020ALFA INVEST ON           R$  000000000048000000000004800000000000457000000000045900000000004570000000000457000000000051400002000000000000000086000000000000039532000000000000009999123100000010000000000000BRBRIVACNOR6205
012017090602BRIV4       010ALFA INVEST PN           R$  000000000074900000000007490000000000700000000000071700000000007000000000000680000000000071000011000000000000001600000000000001148600000000000000009999123100000010000000000000BRBRIVACNPR3205
012017090602BRKM3       010BRASKEM     ON      N1   R$  000000000367000000000038550000000003670000000000379700000000038500000000003791000000000385000016000000000000006100000000000023162000000000000000009999123100000010000000000000BRBRKMACNOR1114
012017090696BRKM3F      020BRASKEM     ON      N1   R$  000000000377000000000038900000000003770000000000379100000000038900000000003671000000000389000003000000000000000061000000000000231290000000000000009999123100000010000000000000BRBRKMACNOR1114
012017090602BRKM5       010BRASKEM     PNA     N1   R$  000000000393200000000040780000000003919000000000402100000000040240000000004024000000000402514005000000000002525700000000010157386100000000000000009999123100000010000000000000BRBRKMACNPA4114
012017090696BRKM5F      020BRASKEM     PNA     N1   R$  000000000391200000000040760000000003912000000000400300000000040420000000004037000000000404200143000000000000002374000000000009505402000000000000009999123100000010000000000000BRBRKMACNPA4114
012017090662BRKM5T      030BRASKEM     PNA     N1030R$  000000000406200000000040650000000004050000000000406300000000040510000000000000000000000000000010000000000000003900000000000015846568000000000000009999123100000010000000000000BRBRKMACNPA4114
012017090662BRKM5T      030BRASKEM     PNA     N1061R$  000000000409900000000041000000000004099000000000409900000000041000000000000000000000000000000002000000000000000300000000000001229701000000000000009999123100000010000000000000BRBRKMACNPA4114
012017090678BRKMB18     070BRKME       PNA     N1000R$  000000000041700000000004170000000000417000000000041700000000004170000000000394000000000000000001000000000000001100000000000000458700000000000382502018021900000010000000000000BRBRKMACNPA4114
012017090678BRKMI10     070BRKM  FM    PNA     N1000R$  000000000006100000000000750000000000061000000000006800000000000750000000000000000000000010000002000000000000001000000000000000068000000000000407402017091800000010000000000000BRBRKMACNPA4114
012017090678BRKMI11     070BRKM  FM    PNA     N1000R$  000000000002500000000000250000000000025000000000002500000000000250000000000000000000000000000001000000000000001500000000000000037500000000000417402017091800000010000000000000BRBRKMACNPA4114
012017090678BRKMI7      070BRKM  FM    PNA     N1000R$  000000000030500000000003050000000000305000000000030500000000003050000000000000000000000000000001000000000000000200000000000000061000000000000377402017091800000010000000000000BRBRKMACNPA4114
012017090678BRKMI9      070BRKM  FM    PNA     N1000R$  000000000007100000000001330000000000071000000000009900000000001130000000000000000000000000000025000000000000024800000000000002467900000000000397402017091800000010000000000000BRBRKMACNPA4114
012017090678BRKMJ39     070BRKM  FM    PNA     N1000R$  000000000022300000000002230000000000222000000000022200000000002220000000000000000000000000000004000000000000002000000000000000445200000000000390002017101600000010000000000000BRBRKMACNPA4114
012017090678BRKMJ40     070BRKM  FM    PNA     N1000R$  000000000015100000000002000000000000151000000000016600000000002000000000000000000000000022000008000000000000006700000000000001113400000000000400002017101600000010000000000000BRBRKMACNPA4114
012017090678BRKMJ41     070BRKM  FM    PNA     N1000R$  000000000015500000000001550000000000155000000000015500000000001550000000000000000000000000000001000000000000001500000000000000232500000000000410002017101600000010000000000000BRBRKMACNPA4114
012017090682BRKMV37     080BRKME FM    PNA     N1000R$  000000000004200000000000420000000000042000000000004200000000000420000000000000000000000000000001000000000000001500000000000000063000000000000370002017101600000010000000000000BRBRKMACNPA4114
012017090682BRKMV38     080BRKME FM    PNA     N1000R$  000000000009400000000000940000000000052000000000006400000000000640000000000062000000000007600027000000000000015400000000000000990000000000000380002017101600000010000000000000BRBRKMACNPA4114
012017090602BRML3       010BR MALLS PARON      NM   R$  000000000136000000000014250000000001353000000000140300000000013970000000001396000000000139821446000000000008460200000000011874351700000000000000009999123100000010000000000000BRBRMLACNOR9110
012017090696BRML3F      020BR MALLS PARON      NM   R$  000000000135500000000014250000000001266000000000139900000000014130000000001400000000000141300217000000000000005893000000000008246786000000000000009999123100000010000000000000BRBRMLACNOR9110
012017090662BRML3T      030BR MALLS PARON      NM016R$  000000000140700000000014080000000001402000000000140300000000014030000000000000000000000000000004000000000000012100000000000016979357000000000000009999123100000010000000000000BRBRMLACNOR9110
012017090662BRML3T      030BR MALLS PARON      NM061R$  000000000140900000000014100000000001409000000000140900000000014100000000000000000000000000000002000000000000001200000000000001691280000000000000009999123100000010000000000000BRBRMLACNOR9110
012017090678BRMLI13     070BRML  FM    ON      NM000R$  000000000007500000000001000000000000075000000000008900000000001000000000000001000000000000000005000000000000009300000000000000836000000000000131802017091800000010000000000000BRBRMLACNOR9110
012017090678BRMLI14     070BRML  FM    ON      NM000R$  000000000002200000000000320000000000022000000000002800000000000240000000000000000000000000000010000000000000025700000000000000733500000000000141802017091800000010000000000000BRBRMLACNOR9110
012017090678BRMLI42     070BRML  FM    ON      NM000R$  000000000013500000000001350000000000125000000000013000000000001250000000000000000000000000000002000000000000007200000000000000936000000000000126802017091800000010000000000000BRBRMLACNOR9110
012017090678BRMLI63     070BRMLE       ON      NM000R$  000000000007000000000000700000000000070000000000007000000000000700000000000000000000000000000001000000000000001000000000000000070000000000000134302017091800000010000000000000BRBRMLACNOR9110
012017090678BRMLI73     070BRML  FM    ON      NM000R$  000000000005000000000000660000000000049000000000005900000000000660000000000045000000000000000004000000000000010000000000000000598000000000000136802017091800000010000000000000BRBRMLACNOR9110
012017090678BRMLJ13     070BRML  FM    ON      NM000R$  000000000013400000000001340000000000127000000000013000000000001270000000000000000000000000000002000000000000002000000000000000261000000000000130002017101600000010000000000000BRBRMLACNOR9110
012017090678BRMLJ14     070BRML  FM    ON      NM000R$  000000000005800000000000630000000000055000000000005800000000000630000000000000000000000007000010000000000000030100000000000001775600000000000140002017101600000010000000000000BRBRMLACNOR9110
012017090678BRMLJ43     070BRML  FM    ON      NM000R$  000000000008200000000001000000000000082000000000009000000000000890000000000000000000000010000016000000000000045400000000000004120600000000000135002017101600000010000000000000BRBRMLACNOR9110
012017090682BRMLU14     080BRMLE FM    ON      NM000R$  000000000003000000000000320000000000028000000000002900000000000320000000000000000000000000000003000000000000000400000000000000011800000000000141802017091800000010000000000000BRBRMLACNOR9110
012017090682BRMLU73     080BRMLE       ON      NM000R$  000000000000900000000000090000000000009000000000000900000000000090000000000000000000000000000001000000000000002000000000000000018000000000000136802017091800000010000000000000BRBRMLACNOR9110
012017090682BRMLV43     080BRMLE FM    ON      NM000R$  000000000001900000000000190000000000019000000000001900000000000190000000000000000000000000000001000000000000004400000000000000083600000000000135002017101600000010000000000000BRBRMLACNOR9110
012017090602BRPR3       010BR PROPERT  ON      NM   R$  000000000111200000000011450000000001112000000000113100000000011270000000001126000000000112702060000000000000970400000000001097776900000000000000009999123100000010000000000000BRBRPRACNOR9117
012017090696BRPR3F      020BR PROPERT  ON      NM   R$  000000000112800000000011450000000001058000000000113100000000011400000000001118000000000114000022000000000000000747000000000000845346000000000000009999123100000010000000000000BRBRPRACNOR9117
012017090602BRSR3       010BANRISUL    ON      N1   R$  000000000187100000000018710000000001871000000000187100000000018710000000001880000000000203000001000000000000000400000000000000748400000000000000009999123100000010000000000000BRBRSRACNOR3150
012017090696BRSR3F      020BANRISUL    ON      N1   R$  000000000185000000000018510000000001850000000000185000000000018510000000001859000000000210000004000000000000000012000000000000022201000000000000009999123100000010000000000000BRBRSRACNOR3150
012017090602BRSR6       010BANRISUL    PNB     N1   R$  000000000173500000000017590000000001721000000000173500000000017300000000001730000000000173502837000000000000579300000000001005593400000000000000009999123100000010000000000000BRBRSRACNPB4153
012017090696BRSR6F      020BANRISUL    PNB     N1   R$  000000000172700000000017550000000001723000000000173900000000017350000000001717000000000173500084000000000000002662000000000004629960000000000000009999123100000010000000000000BRBRSRACNPB4153
